:020000040800F2
:10000000080A0020C9000008350500083705000867
:1000100000000000000000000000000000000000E0
:10002000000000000000000000000000390500088A
:1000300000000000000000003B0500084305000828
:10004000F5000008F5000008F5000008F5000008BC
:10005000F500000853050008F50000085D050008DC
:10006000F5000008F5000008F5000008F50000089C
:10007000F5000008F5000008F5000008F50000088C
:10008000F5000008F5000008F5000008F50000087C
:10009000F5000008F5000008F5000008F50000086C
:1000A000F5000008F5000008F5000008F50000085C
:1000B000F50000080348854601F0C0FA00480047F3
:1000C000C9140008080A00200B4880F308880B4870
:1000D0000168090E0A4A914205D10A480A4901609D
:1000E0000A480B4901600B480047FEE7FEE7FEE7C0
:1000F000FEE7FEE7FEE70000080A0020040000001B
:100100001F00000018100240010000000000014024
:1001100000000000B50000088307FF22DB0E9A40B4
:100120008907090E994000280BDA0007000F0838EC
:10013000830855489B001818C36993430B43C36158
:100140007047830851489B001818036893430B437A
:10015000036070474E4900200A6801231A430A6071
:100160000A689207FCD50A6801231B059A430A60B6
:100170000A6804239A430A60DA014A60454B112257
:100180001A604A68920892004A604A6802231A4339
:100190004A6002E048680007800F0228FAD17047E1
:1001A00001223D49002801D04A6170470A61704729
:1001B000F0B585B0FFF7CEFF394C384860610321B8
:1001C000081FFFF7A9FF0026A6610727276108215E
:1001D000344800F082F801210903684601800225B5
:1001E00085704821C17009206946C00600F056FAA2
:1001F0000124684604802821C17009206946C00690
:1002000000F04CFA092005220821C00600F0C0FACF
:100210006846048085701021C17069461E4800F050
:100220003DFA0121084600F097FD0121080700F082
:100230009CFD0C21002000F032FF20030190684655
:1002400006720C214172847201A800F0AAF9684676
:1002500007734573847303A800F034FC032107205F
:10026000FFF75AFF78221049104800F0FDF805B05A
:10027000F0BD704710B502F0D5F910BD704770475A
:10028000704770477047000000ED00E000E400E0B8
:100290000010024000200240000400487FBB000024
:1002A00000E000E000380040801A060000540040E2
:1002B00010B5082100F078FE10BD10B5664900F0B9
:1002C00073FE10BD10B5102100F06EFE10BD624926
:1002D00010B5083900F068FE10BDF3B506465F485A
:1002E0000324042585B0864236D10121801400F014
:1002F00033FD0121600400F026FD0022052158484D
:1003000000F046FA00220421554800F041FA00228C
:100310000321534800F03CFAAF0169460F808C700E
:100320001020C8704E4800F0B9F939464C4800F02A
:100330001AFA0820694608808C701827CF70484840
:1003400000F0ACF92020694608808C70CF704448DA
:1003500000F0A4F9102039E0424886423DD1012145
:10036000001400F002FD03200121400400F0EBFC2A
:1003700003220E213A4800F00BFA04220D213848DE
:1003800000F006FA04220C21354800F001FAF713B8
:1003900069460F808C701020C870314800F07EF9DB
:1003A00039462F4800F0DFF93014694608808C7018
:1003B0001827CF702A4800F071F970146946088038
:1003C0008C70CF70264800F069F9B0146946088037
:1003D0008C70CD70224800F061F96A46958000204B
:1003E000D08008211181508101219181D08106990D
:1003F0001182508201A9304600F023FD01213046D0
:1004000000F056FD3046FFF753FF3046FFF75AFF26
:1004100007B0F0BD134908600889C007FCD00889FF
:100420008007FCD54868C0B2704710B50121C903E8
:100430000B4800F09AF910BD10B50121C903084816
:1004400000F091F910BD10B50920C00600F07EF94A
:10045000C004C017401C10BDF7FF00000030014071
:100460000004004800380040F7B507462D4884B026
:100470000C46874206D10121480500F076FCC020D9
:1004800069460880022569468D704820264EC8704E
:10049000304600F003F90120694688800020088179
:1004A0000420C88001A93846039400F097F900227F
:1004B0003846069900F058FA0121384600F0E1F973
:1004C00069468D701C20C870304600F0E7F80122A4
:1004D0000621304600F05CF901220721304600F089
:1004E00057F907B0F0BD70B5104C0E4D606021702B
:1004F00000200F4E60706168C0B2095C401C6070E3
:10050000284600F01BFA3146284600F049FA002838
:10051000F9D0607821788842EDD30121284600F097
:10052000DAF970BD005400400004004804000020C7
:10053000048000007047FEE770477047114800686C
:10054000704710B50F480168491C016001F04AFE70
:1005500010BD10B5012000F07AF810BD10B50120D3
:10056000000300F074F808480178022904D1074913
:100570004A6802231A434A6000210170084601F0CC
:1005800049FE10BD0C0000200000002000100240B9
:1005900030480021016041608160C1602E494161A5
:1005A000704710B583792B490268002B26D00B6861
:1005B00093430B604A6803689A434A600279521871
:1005C00013680468234313608A6803689A438A6047
:1005D000CA6803689A43CA604279102A05D0511844
:1005E0000A68006802430A6010BD8A6803681A43FB
:1005F0008A60CA6800680243CA6010BD007940186A
:1006000001689143016010BD0021016001710C225D
:100610004271817170470F490A6902430A6170474C
:100620000C4A0146526900200A4200D0012070475E
:10063000084948617047074B0246196800205B690A
:100640001140134202D0002900D001207047014917
:100650004861704700040140FFFF1F00172110B5DB
:10066000C906401811D001218902401A10D0401A41
:1006700011D0884208D101218402204600F063FB9A
:100680000021204600F05FFB10BD01214C04F4E77F
:1006900001218C04F1E70121CC04EEE7F0B5CC7820
:1006A000002223071B0FE40601D58C7823430C7826
:1006B0002406240E1AD0046801250E8895402E4089
:1006C000AE420FD197000F26BE40B4431E46BE4037
:1006D0003443CE78282E02D0482E02D002E0456165
:1006E00000E00561521C082AE6D304600A88FF2A4C
:1006F0001CD944680022164608360125B5400E88EC
:100700002E40AE420ED197000F26BE40B4431E4687
:10071000BE403443CE78282E00D14561CE78482E95
:1007200000D10561521C082AE5D34460F0BD0021C8
:10073000C9430180022181700421C17070470246C3
:10074000926800200A4200D001207047806880B281
:1007500070470246D26800200A4200D0012070474C
:10076000C06880B270470161704741617047002ADC
:1007700001D00161704741617047C160704701223B
:1007800012040A43826181618261816980697047D4
:100790004B0710B5DB0E9A40CC080F219940002C76
:1007A00006D0436A8B434362416A1143416210BDE4
:1007B000036A8B430362016A1143016210BD0000AA
:1007C000A84910B5C84208D101214C05204600F0C7
:1007D000DEFA0021204600F0DAFA10BDF0B504463A
:1007E0000D464030818D87B04908490081856846B3
:1007F00000F075FA9C4E0299304600F0D1FE074693
:10080000A86805900146304600F0CAFE06469749A2
:1008100005988842394630460CD800F0C1FEC00326
:10082000000C2083208B39467843301A00F0B8FE44
:10083000A0820BE000F0B4FEC003000C2084208CEA
:1008400039467843301A00F0ABFEA08320886888D0
:1008500029880843FF21613108432080208E800BC6
:1008600080032086002020870120A08707B0F0BDEC
:1008700001210180A8218180022141807B49816082
:10088000704740300029818D02D00122114301E0E0
:100890004908490081857047803000290ED074498D
:1008A0004988022905D0012907D181680122114315
:1008B00002E081680222FAE78160704781686D4A30
:1008C0001140F9E720220029018801D0114300E0FE
:1008D0009143018070474030818D02221143818510
:1008E000818D8907FCD4808A70478288120A12029F
:1008F00049081143818070470029818803D0012273
:100900001203114301E05C4A1140818070470029C5
:10091000818803D00122D202114301E0574A1140DD
:1009200081807047042901D18B010382002A028E45
:1009300001D00A4300E08A43028670470182704773
:10094000FF31FF3102310182704703210902018228
:1009500000207047FF21013101827047444A002185
:100960001170008AC0B27047490881807047405AB0
:100970007047808E424908407047024610B50020FB
:10098000042907D13A4B1C78002C03D18C01148226
:1009900001241C70928E0A408A4200D1012010BDB1
:1009A0001CB502460020009001900B0403D5126F85
:1009B0000CE001201CBD042907D12D4B1C78002C14
:1009C00003D18C01148201241C70928E0A42F0D152
:1009D0001CBDCA074030002A00D082888A0700D593
:1009E00002890A0700D582898A0600D5028A4A064A
:1009F00000D5828A0A0600D5028BCA0500D5828BF3
:100A00008A0500D5028C4A0500D5828C090500D5DF
:100A1000008D70470246928E00200A4200D00120CD
:100A20007047CA074030002A00D082888A0700D564
:100A300002890A0700D582898A0600D5028A4A06F9
:100A400000D5828A0A0600D5028BCA0500D5828BA2
:100A50008A0500D5028C4A0500D5828C090500D58F
:100A6000008D704700ACFFBF00CA9A3BA086010012
:100A700010000020FCFF0000FFEF0000FFF7000067
:100A8000FF3F79000C49086070470B494860704788
:100A90000949886070470849084808607047064956
:100AA000074808607047044A0146D26800200A429D
:100AB00000D001207047000000300040AAAA0000CA
:100AC000CCCC000030B5827801240178002A15D002
:100AD0008B08184A9B009A1813688907C90EFF25CE
:100AE0008D40AB434578AD072D0E8D401D431560FD
:100AF0000078C006C00E84400F4804E0C806C00E4F
:100B000084400D488030046030BD70470B4A002996
:100B1000116901D0014300E0814311617047042253
:100B200007490428086902D09043086170471043C0
:100B3000FBE7000000E400E000E100E000ED00E081
:100B400000E000E0AC480168012211430160416807
:100B5000AA4A114041600168A94A11400160016838
:100B6000012292049143016041687F221204914363
:100B7000416000218160704710B59F490B680122D8
:100B8000120493430B600B689400A3430B60801A1C
:100B900009D003221204904204D1086805221204ED
:100BA0001043086010BD0868FAE7034600205909A1
:100BB000914A01290AD002290AD0516ADA06D20ED6
:100BC000012393400B4200D0012070471168F5E7E4
:100BD000116AF3E718B500200524240200903120A3
:100BE000FFF7E3FF0099491C0091002801D1A142C1
:100BF000F5D13120FFF7D9FF002800D0012018BD22
:100C00007D4A1168F8239943C0000843106070477B
:100C100079490128086803D04008400008607047FF
:100C200001221043FAE710B5734B1868754C89061A
:100C30001205204011430143196010BD01226E4985
:100C400012060028086801D0104300E090430860B5
:100C50007047694A516889088900014351607047AB
:100C6000654840680C2108407047634A5168F0238A
:100C700099430143516070475F4A516807231B0243
:100C800099430143516070475B4A51680723DB0277
:100C90009943C000084350607047574A000200293A
:100CA000916801D0014300E081439160704752494F
:100CB0004A6802434A6070474F4A516803239B03C6
:100CC00099430143516070474B490028486A02D05C
:100CD0000122104301E0400840004862704770B5AF
:100CE0004549044648680C221040474A03D004286E
:100CF00001D0082801D0226006E00868C00201D4B3
:100D0000424800E0424820604868424A0006000F1E
:100D1000135C2068D84060604B685B055B0FD35C58
:100D20000546DD40A5604B689B045B0FD25CD0405C
:100D3000E0604968374A0904890F121F515C00F0CE
:100D40002FFC206170BD2C4A0029516901D001435C
:100D500000E0814351617047274A0029916901D021
:100D6000014300E0814391617047234A0029D16922
:100D700001D0014300E08143D16170471E4A002940
:100D8000D16801D0014300E08143D16070471A4A25
:100D90000029116901D0014300E0814311617047CE
:100DA00001221549D2040128086802D09043086046
:100DB00070471043FBE710494A6807231B069A4314
:100DC0004A604A68000602434A6070470A48416A1E
:100DD00001221206114341627047074A0146926898
:100DE00000200A4200D00120704703498A680004AD
:100DF00002438A6070470000001002400000FFF8C4
:100E0000FFFFF6FEFFFF8F0300127A00006CDC028A
:100E100000A24A0418000020904910B5401806D0DE
:100E20001F21C90288420BD101210C0301E00121DD
:100E30008C032046FFF7A2FF00212046FFF79EFF0C
:100E400010BD10B5028B0F231B031A404B884C8931
:100E500023430C88144323430383838B3F22D243D1
:100E60001340CA89CC8822430C891C43224318238F
:100E70001A438283028C8A8902848A88082A07D0CE
:100E8000828B04231A438283828B08231A43828332
:100E90008988818510BD00210180418008228280DF
:100EA000C18001220281418102228281C181704779
:100EB0000029018B02D00122114301E049084900B9
:100EC000018370470223002A06D0028B1A43028353
:100ED000028A0A4302827047028A8A430282018B95
:100EE000994301837047002A028B01D00A4300E036
:100EF0008A4302837047002A028B01D00A4300E034
:100F00008A4302837047828D0160D2B2082A01D8D9
:100F1000002A01D10B0A0360102A01D8002A01D14E
:100F20000B0C0360182A01D8002A01D1090E0160B8
:100F3000704741681143828D082A02D8828D002AA9
:100F400002D1426812021143828D102A02D8828D8A
:100F5000002A02D1426812041143828D182A02D855
:100F6000828D002A02D1406800060143084670477E
:100F7000002A028D01D00A4001E0C9430A430285DC
:100F80007047374A9142018B02D00122114301E0A0
:100F90004908490001837047028B324B1A40028393
:100FA000028B0A430283704710B50822082911D02A
:100FB0001024102911D02A4BDB1F994202D1038B38
:100FC00093430383264A0F3A914202D1018BA143F6
:100FD000018310BD018B1143FAE7018B2143F7E731
:100FE000838D0022082B07D0828D002A0AD0828DA3
:100FF000082A07D8012116E00089084200D0012202
:1010000010467047828D102A01D802210BE0828D94
:10101000182A01D8032106E0828D1F2A02D9828D69
:10102000002A00D1042100890005000F884201D365
:1010300001207047002070470246928900200A4232
:1010400000D001207047828A0A43828270478184DF
:101050007047828B0A4382837047000000C8FFBF3D
:10106000FEFF0000FFFC0000154801688907890F9A
:10107000016000218160C160016141617047104AD7
:101080001168890889000143116070470C4A0029E2
:10109000116801D0014300E08143116070478A0765
:1010A00010B5120F0F2393408C080549A400611856
:1010B0008C689C438C608B68904003438B6010BDB0
:1010C0000000014070B5704B40221A70002204E00D
:1010D000845C9D18521C6C70D2B28A42F8D3491CB1
:1010E000C9B26948FFF7FFF970BD10B50446B031C9
:1010F000C8B200F0BEF82009103000F0BAF820079E
:10110000000F00F0B6F810BD70B5604D0024214608
:101110002420FFF7EAFF3820604340193821FFF709
:10112000D1FF641CE4B2072CF1D370BDF8B50F46B3
:1011300004460025009217E02038C6B27E2C02D962
:1011400000247F1CFFB239462046FFF7CEFF5F2EFA
:1011500006D2062046434E4806213018FFF7B2FF5C
:10116000A41D6D1CE4B2EDB20098405D0028E3D1EF
:10117000F8BDF8B5D32000F07CF8002000F079F835
:10118000402000F076F800253F4E40272846B0303A
:10119000C0B200F06EF8002000F06BF8102000F0F4
:1011A00068F8002400203770707002213648FFF77D
:1011B0009AF9641CE4B2802CF4D36D1CEDB2082DB6
:1011C000E4D3F8BD10B5AE2000F053F8002000F0D5
:1011D00050F8102000F04DF8402000F04AF8B02000
:1011E00000F047F8812000F044F8FF2000F041F8BB
:1011F000A12000F03EF8A62000F03BF8A82000F067
:1012000038F83F2000F035F8C82000F032F8D3203D
:1012100000F02FF8002000F02CF8D52000F029F87D
:10122000802000F026F8D82000F023F8052000F0F8
:1012300020F8D92000F01DF8F12000F01AF8DA208B
:1012400000F017F8122000F014F8DB2000F011F87D
:10125000302000F00EF88D2000F00BF8142000F084
:1012600008F8AF2000F005F8FFF783FFFFF74CFF09
:1012700010BD10B5044900220A70487002210248CE
:10128000FFF731F910BD0000D8010020BA3C00087A
:10129000803A00080C2101707E48704770B50C46FA
:1012A0000A46054601467B4800F090F9214628464B
:1012B00001F0DEF970BD092070477CB50524069B5E
:1012C000E4020225A34201D1012A0BD0A34211D18D
:1012D000072A0FD870A109680F22019101AB009570
:1012E00007210FE06DA109680622019101AB00956D
:1012F000012107E0A34208D1102A06D81021684B2B
:101300001922009100F08EFD7CBD00F0E1FC7CBD57
:1013100070B5049C122A1ED0132A1CD0152A04D0A2
:10132000182A18D000F0D4FC70BD00215D4A03E0FB
:101330005D5C5554491CC9B2A142F9D300235354F2
:10134000594A1178491CC9B21170072900D9137084
:10135000564A0121117002F0FDFA70BD70477047C6
:10136000FEB50C4605460C2069464A4B16460870E9
:101370000F2C27D006DC042C10D0092C10D00B2CFD
:1013800006D115E0132C21D0182C25D0192C27D0EC
:1013900022462946304600F09BFCFEBD009022E02C
:1013A00001F0B8F900F036F9C7B201F0B3F906E080
:1013B00000F00EFA00F02EF9C7B200F009FA034669
:1013C000009710E007203AA300900CE00020019065
:1013D000022001AB009006E0032002AB009002E087
:1013E000082035A3009022462946304600F0F2FC42
:1013F000FEBD70470020704770472DA070472548FC
:10140000C01E8078704710B504000ED00020FEF793
:10141000C7FE2048C01E81788C4200D08470002C0A
:1014200005D02249FF20087010BD0120EFE7FFF72B
:10143000C9FEFFF769FE10BD10B5FFF72CFB00F0E9
:1014400002F810BD704710B5124CE41E2278617886
:101450008A420FD0A07800280DD0234619485B7827
:10146000C0188A4209D9511AC9B202F01DF8617830
:101470000818607010BD627010BDC822511AC9B240
:1014800002F012F861780818C0B2C82100F088F89C
:10149000617010BD2B0000200A1800000018000029
:1014A0009C3E0008210300203C0000203D0000205D
:1014B0005356332E312E3500426175645261746586
:1014C000000000005902002001204005401EFDD20E
:1014D000FEF76EFE1349032000F03AF800F0E2F93F
:1014E0001149432001F000FB104800250560016808
:1014F0000529FCD3FF20413001F0A6F80A4C241F37
:10150000FEF7B8FE6078FF2808D00128F8D1657092
:10151000074A21780020FFF709FEF1E76570FFF721
:1015200028FEEDE7E2040000400000200C0000204F
:101530002103002010B50120FFF7B5FA0028FAD1E9
:1015400010BD10B50220FFF7AEFA0028FAD110BD89
:1015500070B504460D460120FFF7B6FB6120FFF78A
:1015600024FB0028FAD0FFF7E5FF0C4E3046FFF7CA
:1015700089FAE0B2FFF789FAFFF7E3FF3046FFF799
:1015800081FA2805000DFFF783FAFFF784FAFFF7C9
:1015900086FA70BD10B5FFF77EFA10BD55550000F4
:1015A00030B50B46014600202022012409E00D46FB
:1015B000D5409D4205D31D469540491B2546954083
:1015C00040191546521E002DF1DC30BD03460B4379
:1015D0009B0703D009E008C9121F08C0042AFAD2E9
:1015E00003E00B780370401C491C521EF9D270476F
:1015F000D2B201E00270401C491EFBD270470022AB
:10160000F6E710B513460A4604461946FFF7F0FF01
:10161000204610BD421C0178401C0029FBD1801AD5
:10162000704730B504460020034600E05B1C93423F
:1016300003D2E05CCD5C401BF8D030BD064C0125E8
:10164000064E05E0E36807CC2B430C3C984710346A
:10165000B442F7D3FEF732FD343F0008543F000890
:1016600030B58C180278401C13071B0F01D103788A
:10167000401C120906D10278401C03E005780D7069
:10168000401C491C5B1EF9D101E00B70491C521E25
:10169000FBD1A142E6D3002030BD000010B5FEF71B
:1016A0004DFF074AD169884208D2081A0549884285
:1016B00004D8918A884201D9012010BD002010BDB4
:1016C00058000020FFFFFF7F10B50A4C607900280A
:1016D0000CD0FEF733FF616A884208D3401A01211B
:1016E0008902884203D200206071012010BD0020D1
:1016F00010BD00001001002070B5114C0025216ABA
:101700004A78002A07D04989A289914203D100F082
:101710004FFA206A4570E169487900280ED0C888E0
:10172000A28990420AD10648E67905223030FFF7B7
:101730004DFF01F0DBFEE0694571E67170BD000010
:101740009C01002010B50349CA6A096B5043FFF79A
:1017500027FF10BD1001002010B5044608480849B5
:10176000806A096B002804DB6043FFF719FF00194A
:1017700010BD40426043FFF713FF201A10BD000068
:101780001001002013B56A46127813200240094860
:1017900002706A4654784470002C03D02246801CA4
:1017A000FFF714FF0349A41C0846E2B2083801F011
:1017B00047F81CBDEC00002001488078704700000D
:1017C000100100200148C07970470000100100207E
:1017D000074808490078020930320007000F8A7074
:1017E000092801D8303000E03730C8700148704710
:1017F000C30000204A0000200148407870470000E4
:101800006001002010B5074CE079002808D0FEF7F1
:1018100095FE216A884203D30020E071012010BDAB
:10182000002010BD580000201FB502246B461C7319
:101830000A215973062119700021597005229A70E6
:10184000D97001221A715A719C71D9711872000AEB
:10185000587219460398FFF795FF1FBD014948705C
:1018600070470000D0000020044902460879002893
:1018700003D0034B136000220A71704760010020FF
:101880007D05002010B50C46282906D20A460146DF
:101890000248FFF79BFE0248047110BD7D05002041
:1018A00060010020014901200871704758000020A4
:1018B0000249CA691018C86170470000580000202A
:1018C00070B50446034D0120E871FEF737FE00199C
:1018D000286270BD5800002010B5FEF7D0FCFEF75E
:1018E0002DFE03491E3048620120487110BD0000E2
:1018F000100100200521C00109024018014948607B
:10190000704700005801002030B47446641E2578EA
:10191000641CAB4200D21D46635D5B00E31830BC23
:10192000184702E008C8121F08C1002AFAD1704700
:101930007047002001E001C1121F002AFBD170474F
:10194000090710B5090FC00705D0032902D10220ED
:1019500001F0E6F910BD05480079002802D0FFF734
:10196000BBFF10BD01F048FA10BD000010010020BF
:10197000F8B50746204C002020710878164600076D
:10198000000F0D46032802D0052822D117E0812040
:1019900000013818A06101F0EAF917486946C089CA
:1019A0000880009801F088F96178A06B01F090F947
:1019B00060780121C001C9024018606111E0002E69
:1019C00007D0284606220D490830FFF72AFE0028D6
:1019D00002D001F011FA04E032462946384600F000
:1019E000B7FB532000F0A6FE0549042000F0CBFE13
:1019F000562000F09FFEF8BD10010020BD00002021
:101A00009F01002070B5394C0646E079002823D0AC
:101A1000A078401CA070A079002801D02820A070D8
:101A200020790025002808D0206A091AE069301AB8
:101A300000F01EFBE57025716581FF20193001F073
:101A4000A3F9A078272815D801F049F90020FFF75D
:101A50002FFF01F0DEF970BD512000F06BFE782100
:101A6000202000F0BCFE562000F064FE6420FFF74A
:101A70001FFF70BD2520A0702069FFF76DFE86193D
:101A800020698009FFF714FF304601F0A6F9A0781D
:101A900001F025F9512000F04DFE7821002000F0E2
:101AA0009EFE7A21002000F09AFE562000F042FEB1
:101AB0000F4805220078D201410041188901891898
:101AC000226991420DD2217A491CC9B2217217298B
:101AD00007D32572002802D000F024FF01E000F0B7
:101AE000C6FE6089401C608170BD000010010020AE
:101AF000C500002010B509492520887001F0EFF8D5
:101B0000FF20193001F040F9002001F0FEF801F04B
:101B100080F9002001F0C4FC10BD0000100100207D
:101B200010B50C480078000702D001F065F910BD2F
:101B3000782001F029F9012001F0F2F805480C386D
:101B400081694069081891210901401801F00FF9D5
:101B500010BD00001C01002070B506460D46022095
:101B600001F0DEF82320C001104C2818A06101F01C
:101B7000FEF8E06801F0A0F82178606B01F0A8F8A9
:101B800020780121C001C90240186061A078252891
:101B90000AD1E66125626089112802D2E078002826
:101BA00002D00120E070207170BD00001001002003
:101BB00070B50E4C0546206A017861724088E0815C
:101BC00050214843FFF7C8FD401901F006F9206A8B
:101BD00081882182C18861820089A082607A04495B
:101BE0004843401801F0D0F870BD00009C0100206F
:101BF000E204000070B5044600781C4D4006C00F9A
:101C0000687128460622A11C3530FFF7DFFC0E3430
:101C10002846042221462C30FFF7D8FC2846032210
:101C2000211D1630FFF7D2FCE0796872617A207AC4
:101C300009024018E881E17AA07A09024018288256
:101C4000617B207B090240186882E17BA07B09024E
:101C50004018A88221462846052210313030FFF76F
:101C6000B5FC607DC006C00EA87270BD9C0100204E
:101C70007FB50AA470CC80070194800F039602956B
:101C80006C462070092060706172A272100AE072C6
:101C9000237301A9009800F020F87FBD050004001F
:101CA00001000000000000000EB507A106C9800772
:101CB0000091800F019269460872072048720298CD
:101CC00000F00BF80EBD0000030004000317000035
:101CD00010B50A23FFF7CCFF10BD10B5FFF752FD7A
:101CE00010BDFFB587B01E466F46109B119A054682
:101CF00038710920787105200C46387200217972FC
:101D00000420B872F972601C387301207873B973BB
:101D1000F8730520C0023974834213D105A80090DE
:101D200006AB31460998FFF765FB00280AD06946E3
:101D3000088B4873888AC87302A90198FFF7CDFF02
:101D40000BB0F0BD21462846099AFFF7C1FFF7E71F
:101D5000FFB587B0079817468007800F6A46107056
:101D60000A2050700020507106211171D071042199
:101D7000917105211172012151721E46D0720446E3
:101D8000134D1AE020460A21484341194988B942B7
:101D900011D3B1420FD80A214C43611989786A46A0
:101DA0009172285A1073000A507301A90098FFF726
:101DB00094FF0BB0F0BD641CE4B2FFF77CFAA042C4
:101DC000E0D83A4608990798FFF782FFF1E700004C
:101DD000423E0008F0B589B00E4607461D461C215C
:101DE00001A80E9CFFF70BFCB807800F694608702E
:101DF000601D4870601C0871000A487104208871D9
:101E00000020C871761C0E7201A904E02A5C0B1830
:101E1000401C5A71C0B2A042F8D30098FFF75DFF92
:101E200009B0F0BDF0B589B08446002468460E9D27
:101E30000471447104268671C471112606722E1D28
:101E400046728172C472027344730A2001AF00218A
:101E500005E05A5C3A54401C491CC0B2C9B2A942C0
:101E6000F7D3011F6A46117161468907890F117006
:101E7000507039460098FFF730FF09B0F0BD000000
:101E8000FFB589B0099815218507129E4902AD0F4B
:101E90001F468E4221D16846FFF7FCF9014668468D
:101EA0000571002343710078801CC2B2122A00D948
:101EB0001222941C6D462C72200A68720426AE729F
:101EC000EB72092028736A73AE73EB7304A8921E39
:101ED000FFF77CFB241D6C713FE0614886423ED1D8
:101EE0000B9807283BD15F480078002837D06B4615
:101EF0001D71172119720021597204219972002154
:101F0000D97209210720197358730820987300208B
:101F1000D873022018745974002199742921D97436
:101F20002A2119750A225A7500249C75D8750B252B
:101F30001D7600255D7626259D760E22D9761A77A8
:101F400000225A7798770F24DC7708AB1A70282084
:101F5000587099701B206B46587102A96FE0FF2FD3
:101F600000D9FF27002471E020460A2148433E495A
:101F70000A5AB24268D1411848880B9A904263D3FA
:101F8000B84261D8364A521E964223D10A226E4682
:101F90003272002373720422B272F3720922327316
:101FA000082272730A2254432F4AA2189278B273FD
:101FB000000AF073002002AA0B181418401C1B79A9
:101FC000C0B223720528F7D3487A707535710E2098
:101FD000707133E009266F463E7200237B72042243
:101FE000BA72FB723E7307227A730A2254431E4A66
:101FF000A2189278BA73000AF873184602AA0B184E
:102000001418401C1B79C0B223720528F7D33D7108
:102010000D207871497AFF2910D0144B0020090156
:10202000C9180B5C1418401CC0B2E3721028F8D316
:102030001B2078711720387215207873114601988B
:10204000FFF74BFE0DB0F0BD641CE4B2FFF733F9AF
:10205000A04289D809AB07CBFFF73AFEF2E70000B0
:102060000328000044000020423E00089C3E000877
:102070004B22D200084B821A9A420CD27D22D20007
:10208000064B8A1A9A4206D2FA224243531A044A4B
:1020900093621163D0627047A81D00001966180092
:1020A0001001002010B5FEF7E9F800F0A5FE10BD04
:1020B0007FB52821484307490A9D099C6E4608615F
:1020C000B08888814A630B700846328CC2818C6369
:1020D0004D707FBD10010020034902480860406830
:1020E00000470000E03E00084C0100200649087847
:1020F000002806D0022804D001D9401E0870012013
:102100007047002070470000580100201FB50949A2
:102110000A9C099B087008484243CA806A46908915
:1021200008810846128C42810B614C710020C870F6
:102130001FBD000060010020710200000349024839
:102140000860406800470000FC3E00084C01002089
:1021500070B508461A4B194919601146FFF74AFD38
:10216000184C1949208A801F884208D2A08A091F6A
:102170000A38884203D2A07A401F0C2802D300F00C
:102180003BFE70BD012000F021F80E49012208310C
:1021900008781043F12210400870208A4100A08A7C
:1021A000814200D288B20A214843FFF789FB00250B
:1021B000A57000F021FE657070BD0000183F00089A
:1021C0004C0100209C0100207B0C0000014908709C
:1021D00070470000580100200148807870470000D7
:1021E0006001002010B50948007900280CD008488B
:1021F00000680078002807D1FFF766FA002801D0B0
:10220000FFF750FF00F0A2FB10BD000058000020B7
:102210004C010020FEB5F64EF64F3179F64DF74CE5
:10222000032904D0012975D0022904D005E0B07932
:10223000012816D0DBE003213171B081B07901288B
:1022400002D0002805D006E0F18A002001F0A0FBB2
:1022500001E001F093FBB17930790143EAD0002825
:1022600058D10020F070FEF7EEF800287ED0E0484C
:10227000401D00F007FD707900F0F3FA7079C10796
:102280000BD0694601A800F0ABFBDD480099016066
:10229000019838602A68926877E0810719D5694605
:1022A00001A800F09DFB2868009982690198904779
:1022B000CF482430FFF7D8FAB070FFF79DFAB27814
:1022C000716A252803D00020FFF7BCF880E00120C8
:1022D000FAE7C10603D528684069804778E001061F
:1022E0002CD52868C5490078002814D0012000F0BA
:1022F00093FB617820780902401881B22868C2688F
:10230000012090477079410611D5694601A800F077
:1023100067FB30E082E0002000F07EFB61782078EF
:102320000902401881B22868C26801202DE08006A9
:102330004ED5694601A800F053FB3CE041061ED58E
:10234000694601A800F04CFB28680078002812D1EB
:10235000A74AAA49083200F073FBFFF73DFF0028A7
:1023600009D0307AA549801FC2B200E05AE0083196
:10237000612000F0EEF928686278036924E04107E3
:1023800005D528680021C2680846904720E001076B
:1023900003D50020FFF71AFF18E0800616D569461E
:1023A00001A800F01DFB2868017800290AD0934994
:1023B000012000F031FB2868627803690021009851
:1023C000984705E0036900228C49F8E700F014FD06
:1023D0002868007800281AD17079800717D5B0795D
:1023E000002807D101F0CAFA3079032802D0002072
:1023F00070712AE0FFF706FA002803D0B0790128AF
:102400000DD004E0F078002801D100F002FD307911
:10241000002800D127E770798028FBD0FEBD00207E
:10242000F070F2E730790028F4D070790028F1D10B
:10243000FEBD7079022808D1FFF730F9002804D0DA
:102440003079002801D1FDF714FF286800780028B2
:102450000ED13079002805D1FFF736F9002801D0D8
:10246000FFF720FEFFF7AEF9002801D1FEF7E4FFE9
:10247000FDF7E9FF00287DD05D48401D00F002FC1B
:10248000707900F0EEF97079C1070FD0694601A8A4
:1024900000F0A6FA5A4800990160019838602A684D
:1024A00092689047FEF74AF8F06191E0810715D5F0
:1024B000694601A800F094FA00F09EFC2868009993
:1024C000826901989047FFF777F9252803D028689B
:1024D000007801287CD1FEF7AFFF79E0C10603D573
:1024E00028684069804773E001062BD52868434976
:1024F0000078002813D0012000F08EFA617820784F
:102500000902401881B22868C2680120904770799A
:10251000410610D5694601A800F062FA27E00020C4
:1025200000F07AFA617820780902401881B22868B0
:10253000C268012027E080064AD5694601A800F05C
:102540004FFA36E0410618D5694601A800F048FA6E
:102550002868007800280AD120780007000F052895
:1025600005D1234A25490832002000F069FA627833
:10257000286800E04FE0036924E0410705D528689A
:102580000021C2680846904722E0010703D50020D9
:10259000FFF71CFE1AE0810616D5694601A800F077
:1025A0001FFA2868017800290AD01449012000F098
:1025B00033FA28686278036900210098984707E099
:1025C000036900220D49F8E7002807D000F014FC49
:1025D0007079800702D5B079012813D030790028AE
:1025E00000D126E77079802800D021E721E700009C
:1025F00058000020540100204C01002074030020EA
:1026000050010020F18A002001F0C2F9307903283E
:1026100000D026E6E6E730790028E2D0707900287D
:10262000DFD1FEBD10B5074C6079022806D1FFF757
:1026300035F8002802D02079032801D0002010BDF1
:10264000012010BD5800002070B50546FDF776FF4B
:1026500004460A34FDF772FFA042FBD3034902206F
:1026600008712846FFF7D6FD70BD00005800002015
:1026700030B5182900D918210A4B4A1C1A700022BB
:1026800004E0845C9D18521CAC70D2B28A42F8D32C
:10269000002003E05A18491C9070C9B21929F9D3D7
:1026A00030BD00008000002070B50D46124A014682
:1026B0001078002809D0401E10700026567050680F
:1026C000092806D0401C506005E001205070002011
:1026D00070BD304656600C22084B4243D41842016C
:1026E0008018074A80182A462060FEF76FFF257180
:1026F0002046A66070BD0000C8000020E80400204D
:102700009C03002010B500F05AFB0020FFF7F2F800
:1027100010BD000000A070474D475F424C455F4C24
:1027200049425F56332E3000014800787047000060
:10273000C800002010B50446FDF777FE01215020A7
:10274000FDF768FE01212046FDF764FEFDF774FEEB
:1027500010BDF8B515460E460446FDF766FE01218C
:102760002046FDF757FE0746002406E00021FF2023
:10277000FDF750FE3055641CE4B2AC42F6D3FDF7D1
:102780005BFE3846F8BD70B50C460546FDF74DFEBC
:1027900001212846FDF73EFE0021FF20FDF73AFE0D
:1027A0002070FDF749FE70BDF8B516460D4604468B
:1027B000FDF73BFE202020430121FDF72BFE0024E6
:1027C00007E0287801216D1CFDF724FE641C0746F4
:1027D000E4B2B442F5D3FDF72FFE3846F8BD70B52C
:1027E0000D460446FDF721FE202020430121FDF780
:1027F00011FE01212846FDF70DFEFDF71DFE70BDFF
:102800000168002902D14068002801D000207047EB
:102810000120704700210160416002490A200870D0
:1028200070470000C80000200268136812790A701F
:10283000016889680160002900D14160184670472D
:1028400010B50B46044611461846FFF72DFF002829
:1028500006D06168002901D0886000E020606060D7
:1028600010BD10B501460E20FFF7B9FF10BD1CB515
:102870005320FFF75FFF03211F20FFF7B0FF01A9DF
:102880001F20FFF780FF684600790028F7D1032159
:102890001F20FFF7A4FF01A91F20FFF774FF684660
:1028A00000790028F7D101211520FFF798FFA0211A
:1028B0001220FFF794FF04210A20FFF790FF002168
:1028C0000A20FFF78CFF88211220FFF788FF0124E0
:1028D00069460C702120487002221320FFF764FF24
:1028E00069460C702020487002221320FFF75CFF1D
:1028F00000211520FFF773FF5620FFF71BFF1CBDBB
:1029000008B50020694608705120FFF713FF5320D7
:10291000FFF710FF69461F20FFF735FF694608786B
:1029200008BD000010B55120FFF704FF5320FFF74A
:1029300001FF03211F20FFF752FF5620FFF7FAFE89
:1029400001490120487010BDC300002038B5234C58
:10295000A078012837D16078002834D0012833D0FE
:10296000022830D1FFF7CCFF00282CD16070012164
:102970001520FFF734FFA0211220FFF730FF0421BC
:102980000A20FFF72CFF00210A20FFF728FF8821EB
:102990001220FFF724FF012469460C7021204870A3
:1029A00002221320FFF700FF69460C7020204870B8
:1029B00002221320FFF7F8FE00211520FFF70FFF7A
:1029C0005620FFF7B7FE38BDFFF79AFF0028FAD16F
:1029D0000220607003211F20F0E70000C3000020E8
:1029E0007CB50D460446062269461020FFF7B1FE6D
:1029F000694648790B7902041802C9781018401802
:102A000069462060887849780004090240186946C0
:102A10000978401828607CBD1CB50C4600280BD0F6
:102A2000022269460620FFF794FE6846007820706F
:102A30006846407860701CBD022269460420F2E7B7
:102A40007CB515460C46002809D06278901C287089
:102A5000002A03D0A11C6120FFF77BFE7CBD02226F
:102A600069460420FFF775FE68464078801C287090
:102A70006846007820706846407860706846007844
:102A800025460107090F6846407808350B00FEF718
:102A90003BFF0706090614051A060500DEE70622B5
:102AA000A11C08E00C28D9D10622A11C0A20FFF79E
:102AB00050FE062229460B20CEE70C28CED1062256
:102AC00029460A20C8E72228C8D10622A11C0B20CB
:102AD000FFF73FFE062229460A20FFF73AFE16229C
:102AE00021460E31B7E70000FEB5054600266846D0
:102AF0000671624C51200C60FFF71CFE01A91F20DB
:102B0000FFF741FE684601798029F7D15C491E2014
:102B1000FFF739FE78210020FFF761FE0621084605
:102B2000FFF75DFE7A210020FFF759FE5320FFF7E3
:102B300001FE88211720FFF752FE88211820FFF799
:102B40004EFE88211920FFF74AFE00211520FFF7CD
:102B500046FE02210120FFF742FE1E211D20FFF745
:102B60003EFE284600F0F8F800A908200131FFF7E2
:102B70000AFE68464078424F002807D11220694675
:102B8000487038781B2801D215204870C02168464B
:102B900001702D218170032269460420FFF704FE95
:102BA0008025684605704670022269460C20FFF7B2
:102BB000FBFD1C216846017045703878192802D148
:102BC000CC2069460870022269461420FFF7ECFD0C
:102BD00010206946087002274F703A460A20FFF716
:102BE000E3FD69460F701220487002220D20FFF7A6
:102BF000DBFD0120694608700720487002220E2084
:102C0000FFF7D2FD3820694608700F2048708E709B
:102C100003220220FFF7C8FD71210920FFF7DFFD25
:102C200069460D707020487002220B20FFF7BCFD32
:102C3000032269460B20FFF78CFD40206946C870CF
:102C400004220B20FFF7B0FD5620FFF773FDFF2194
:102C50000E20FFF7C4FD062208490820FFF779FD82
:102C600060796D2806D1ED206071062203490820A5
:102C7000FFF79AFD00F0C0F8FEBD0000BD00002087
:102C8000C300002038B5044669460E20FFF77BFDDF
:102C900068460178217038BD1CB501786A4611700C
:102CA0004178517081789170C078D0700422694663
:102CB0000C20FFF779FD1CBD01B582B06946087A8A
:102CC0000870487A487002220320FFF76DFD0EBDA0
:102CD0000A4610B50146A020FFF766FD10BD10B5ED
:102CE000282803D201460120FFF779FD10BD1CB54D
:102CF00001786A4611704178517080789070032293
:102D000069460D20FFF750FD1CBD1CB5FF216A462A
:102D100011705070022269460E20FFF745FD1CBD60
:102D200010B504280BD001280BD002280ED00328A0
:102D30000ED005280ED0062807D1042102E002217A
:102D400000E009210220FFF74AFD10BD0C21F9E740
:102D50000121F7E70321F5E708B502216A46117062
:102D600050700A4669460F20FFF71EFD08BD1CB5CE
:102D70006A461070010A5170000C90700322694677
:102D80000720FFF711FD1CBD1CB56A461070010A33
:102D90005170002191700549884201D9012090703D
:102DA000032269461120FFF7FFFC1CBDFFFF000056
:102DB0000A4610B50146A020FFF7F6FC10BD01B58C
:102DC00082B06946087A0222C006C00E0870487AAE
:102DD00048700520FFF7E8FC0EBD1CB500216A46CF
:102DE00011705070010A9170000CD0700422694675
:102DF0000F20FFF7D9FC1CBD1CB5022069460870E6
:102E0000FF2048708870C87004220F20FFF7CCFCA8
:102E10001CBD10B501210F20FFF7E1FC10BD000023
:102E200038B5054600230C4610460093FFF7E8FC32
:102E3000002802D02B70237038BD69461046FFF77A
:102E4000F3FC0146684602782846FEF7BFFB684659
:102E50000078207002480178491C017038BD0000DC
:102E6000C800002010B50548034981600021417069
:102E70001430FFF7CFFC10BDDC3E0008D00000206E
:102E80007047000000B587B0182207A16846FEF71A
:102E90009DFB0B48032101701821417000686946B1
:102EA000FEF770FC07B000BD101000280001002CD8
:102EB000011820000300FFFFFFFFFFFFFFFFFFFFE0
:102EC000880100201CB500228C070C490092A40F39
:102ED00001920C7006244C7002236C4623706270C1
:102EE0000279A2704079E0700D2020711A20607183
:102EF00008686946FEF746FC1CBD000088010020FA
:102F00000EB507A007C86B4607C308480321017028
:102F10000921417000686946FEF734FC0EBD0000CF
:102F200009000000000000000000000088010020EF
:102F30001CB500228C070C490092A40F01920C7062
:102F400006244C7002236C46237062700279A270D2
:102F50004079E0700520207137206071086869466B
:102F6000FEF710FC1CBD00008801002010B5890789
:102F70000548890F0170002141700068FFF7C2FB0E
:102F80000020FFF723F910BD8801002008B507A134
:102F900009680091064903220A7002224A706A46B3
:102FA000507008686946FEF7EDFB08BD0700000099
:102FB000880100201CB507A005C8009089070748B4
:102FC000890F019201700621417000686946FEF781
:102FD000D9FB1CBD0C079C051720000088010020B0
:102FE000FEB5164C01A92246083A2046FFF718FF05
:102FF0006846007901262546002804D12E706870A5
:1030000002206946087121780C4F132001401C3FB3
:1030100078780423C24352081A4040071143C00F76
:10302000C00001436A46117060785070A11C00987E
:1030300000F0CAFC2E7000207870FEBDEC0000206D
:10304000FEB50D46002102911D2D00D91D2501461A
:103050002A469B48FEF7BAFA9A48994C05702078A0
:10306000984A8107890F9070012914D0032917D03D
:1030700002290FD1637921791B02A579C918062984
:103080004BD0042950D0052904D1132D02D00020A3
:10309000FEF7CAFBFEBD022DFCD3FEF7ADF9FEBD67
:1030A000A1780B00FEF730FC120B0F1E23353535CF
:1030B0000A283535352D0A35320A0A35EFE7E01C86
:1030C00000F0A2F9FEBD01467D48FFF7D9FE617A06
:1030D000207A090240186946088102A9E01C00F024
:1030E000C5F9FEBD01467648FFF740FFFEBD01462B
:1030F0007348FFF7E7FEFEBD01467148FFF700FF8A
:10310000FEBD01466E48FFF755FFFEBDFFF7BAFE54
:10311000FEBD0846FFF73AFFFEBD012DFCD101467A
:103120006748FFF705FFFEBD66490C31102D72D0D0
:103130000ADCAE1E3300FEF7E7FB0B1D1522153629
:1031400015541589159415005D4B0933182D7BD046
:1031500004DC122D79D0162D04D192E01E2DE2D080
:10316000522D72D06906DED4062300222946FEF7CE
:103170007FFDFEBD00222946FEF796FDFEBD237AA7
:10318000E2791B02D21892B20A80637AA47A2402EE
:103190001B199BB24B809A4201D90123E6E72946CD
:1031A000FEF7D6FDFEBD237AE2791B02D21892B259
:1031B0000A80A67A637A36029B199BB24B809A42A8
:1031C000EBD8267BE17A36028919667BA47B89B22B
:1031D00024023419A4B2009101942946FEF781FD1E
:1031E000FEBD237AE2791B02D21892B20A80A67A37
:1031F000637A36029B199BB24B80E67A247B2402C9
:103200003419A4B28C809A42C7D829460094FEF79C
:1032100037FEFEBDFFE7237AE2791B02D21892B295
:103220000A80A67A637A36029B199BB24B80E67AB3
:10323000247B24023419A4B28C809A42ADD829464A
:103240000094FEF73AF8E4E724E027E0237AE179F6
:103250001B02C91889B2918002462846FEF780F801
:10326000D7E7237AE1791B02C91889B29180A37A42
:10327000627A1B02D21893B202462846FEF7B9F8CA
:10328000C7E7217AE0790902401890800C4800F0E5
:103290003EFBBEE70A4800F0FDFABAE7E178A678FF
:1032A0000902C91E7118CEB2E179247A24020919E3
:1032B00089B291800A4629460096FEF729F8A8E7C8
:1032C00060050020D0000020090710B5090F0E4A44
:1032D000C0070ED00B00FEF717FB070808050B0B05
:1032E0000B050B001078012802D10220FFF718FD12
:1032F00010BDD078401CC0B2D070142801D100207D
:10330000D070FFF779FD10BD6001002010B50C46AC
:103310001449002A48610DD0002C0BD02078921C53
:103320000007000F0300FEF7EFFA0708080B0F0F66
:103330000F0B0F00FFF760FD10BD8878002805D047
:10334000D1B22046FEF79EFAFFF756FD5320FFF755
:10335000F1F905490420FFF716FA5620FFF7EAF9BC
:1033600010BD0000600100209F01002070B5114CCD
:10337000064660780D46401CC2B26270282A01D110
:10338000252060706078FFF7AAFCE07813280DD143
:1033900009480068291A09480068301AFEF768FED3
:1033A00007480078002802D0FFF7BCFA70BDFFF78D
:1033B0005EFA70BD60010020500100205401002021
:1033C000C500002010B5054C25206070FFF787FC74
:1033D000E088FFF7D9FCFFF71CFD10BD600100205D
:1033E00010B5FFF709FD10BD10B50C460120FFF721
:1033F00097FC1B20C00103492018C860FFF7B7FCE9
:1034000010BD00006001002030B5164B0122196A82
:103410004A7002780A7084784278240212194A802D
:103420000479C2782402121992B28A80857944798B
:103430002D026419CC80057AC4792D0264190C819F
:10344000447A807A0002201880B200244881062A3B
:1034500000D24C709A89801A034A904200DB4C706B
:1034600030BD00009C010020FF7F000010B50A4C19
:103470000346E0690988C18005221946FEF7A6F8CF
:10348000E06901214171C188A289891A034A9142E8
:1034900001DB0021417110BD9C010020FF7F000075
:1034A00010B5FEF70DFA10BDF8B50C46074600261C
:1034B00014E0142C01D9142500E02546FFF734F957
:1034C00003280FD3084800950288BB191B2102204E
:1034D00000F0F1F97019C6B2601BC4B2002C01D023
:1034E000002FE6D13046F8BD38000020F0B50C4B77
:1034F00000201C46D87130340A4AD8720125C10810
:103500004607615C760F2F46B740394203D0D97A1F
:103510005054491CD972401CC0B22528EFD3F0BDCD
:103520009C010020BC05002010B5C00706D104484E
:10353000FD22017811400170FFF75EFC10BD000014
:10354000A4010020F8B5344F06460C46B88A0A217B
:1035500015464843FEF7B4F9394608310878022287
:103560001043F32210400870FCF78AFE002C03D0B1
:103570006078002819D01EE0412040010521301854
:10358000C9014018B862FFF7F2FB1B2D00D91B25BB
:10359000E8010521301A0902401A78621E48082104
:1035A000083002780A43027032E01B4804220830D7
:1035B000017811430170812000013018B862FFF7D3
:1035C000D6FBE8010121301A8902401A786220787E
:1035D000FEF744F922780821B8780A40824217D1D0
:1035E00001223A704840B8700C4800680068804773
:1035F000FCF747FE002078705320FFF79BF8064940
:103600000420C91CFFF7BFF85620FFF793F8F8BD58
:10361000FCF737FEF8BD00009C010020D800002018
:10362000F8B50C460646FEF761FD00282BD0794F11
:10363000794D3878C1072CD0E8895021484328308B
:10364000FEF78AF88019FFF7C8FBFFF74FFFE8691C
:1036500000244471286A4470AC8128462C701630CE
:10366000FFF745FB28462C30FFF716FBFFF7FAFB68
:10367000EC71687A694948434018FFF785FB0120DF
:10368000FDF7C1FE6EE00020FEF712F900F076F9BA
:10369000F8BD80072BD5686A0121201A0906401859
:1036A0000002000AFEF74EF8341A3878400715D5A4
:1036B000698A002912D0288A4143081850214843BA
:1036C0007838FEF749F80419A989688A0918A98188
:1036D000A97A4143E8790818E87106E0288A502160
:1036E00048437838FEF738F804194D482BE0288A0B
:1036F000082801D2012129714A490C6869780B29EF
:1037000004D250225043C900401A04E050225043D2
:103710004900401A1430FEF71FF80419288A2D2892
:1037200001D941480FE0082806D240494843032107
:10373000FDF736FF3E4905E0384948430321FDF7D0
:103740002FFF36494018FFF71FFB0A36B44200D25C
:1037500034462046FFF741FBA889401CA88120463B
:10376000FDF7CAFF5120FEF7E5FF78210020FFF7A3
:1037700036F87A210020FFF732F85620FEF7DAFFFC
:10378000E879A97A4018C0B22521FDF709FF214B3D
:10379000E971CA0828339A5C4B0708465B0F012180
:1037A00099400A4204D1E97AFDF7FAFE2148405CCB
:1037B000A871C0B2FFF793FA2878002812D01D49EB
:1037C00001202531FFF728F91A496A4625310120E1
:1037D000FFF736F96846017816482530FFF730FCC8
:1037E000002028703878C10704D0400840003870A5
:1037F00000200BE02879002805D00020FEF758F8BB
:1038000000202871F8BD288A81080818FEF750F8B2
:10381000F8BD0000A40100209C010020E20400008B
:10382000A60E000054010020204E0000C409000034
:1038300071020000BC05002010B5064800780007A2
:1038400004D500210846FFF76FFE10BDFFF7D4FA3C
:1038500010BD0000A401002070B50D46FDF7D2FF99
:10386000002803D10A4C60781E2805D90020FEF7F5
:10387000ADFCFFF7C1FA70BD0420FFF751FAC32079
:1038800040012818FFF773FA6078401C607070BD23
:103890009C01002008B502216A4611700521517073
:1038A0000121817019218171811C0098FEF715FAA0
:1038B000FDF755FD08BDFFB58BB0149C1D4617469E
:1038C000E61C242101A8FDF79AFE0B98132108405D
:1038D00069460870E01D48700E71300A4871042076
:1038E00088710020C8710C9808724F72380A88726B
:1038F000002001A904E02A5C0B18401CDA71C0B258
:10390000A042F8D30098FEF7E8F90FB0F0BDF8B583
:103910000446827AC178007AE57900020543A078EE
:1039200009020843401F87B2667A1002064302204C
:1039300069460870607848701720A071A11C009833
:10394000FEF7CBF9214633463A460B312846FDF7C0
:1039500005FDF8BD0EB507A106C980070091800FCF
:10396000019269460872052048720298FEF7B5F97F
:103970000EBD0000010004001300000010B500F0AF
:1039800033F80020FDF73FFDFEF7A6FB10BD000059
:1039900000B585B022230B4A04930392433A528A1E
:1039A0006B461A810023074A0093433A0193136937
:1039B0000A4601214902FEF7A9FBFEF7BFFB05B04D
:1039C00000BD00009B00002073B50D460098FFF776
:1039D000F6F96846447828462146FFF7E9F920467B
:1039E000FDF788FF7CBD000030B585B003A8FDF76A
:1039F00051FC6946097B182902D918216A461173BE
:103A000069460A7B1C4B511C1970002104E0445C80
:103A10005D18491CAC70C9B29142F8D3002003E094
:103A20009918521C8870D2B2192AF9D31249124A35
:103A30000C46283C2578103A03231B20002D01D08A
:103A40000E4A2B466578002D02D00C4928461F31BE
:103A50000290094801912838C0896D46288006489F
:103A60002838417A2974807A6874A0890499FEF70D
:103A70001FFB05B030BD0000800000203603002091
:103A80000000000000000000002F00000000070000
:103A9000070000147F147F1400242A7F2A120023B9
:103AA00013086462003649552250000005030000E7
:103AB00000001C224100000041221C000014083EAE
:103AC00008140008083E0808000000A06000000874
:103AD00008080808000060600000002010080402C8
:103AE000003E5149453E0000427F40000042615186
:103AF0004946002141454B31001814127F10002720
:103B000045454539003C4A494930000171090503E2
:103B100000364949493600064949291E0000363613
:103B20000000000056360000000814224100001476
:103B30001414141400004122140800020151090653
:103B400000324959513E007C1211127C007F4949D4
:103B50004936003E41414122007F4141221C007F05
:103B600049494941007F09090901003E4149497A13
:103B7000007F0808087F0000417F4100002040418D
:103B80003F01007F08142241007F40404040007FF9
:103B9000020C027F007F0408107F003E4141413E3D
:103BA000007F09090906003E4151215E007F091985
:103BB00029460046494949310001017F0101003F82
:103BC0004040403F001F2040201F003F4038403F02
:103BD0000063140814630007087008070061514966
:103BE000454300007F4141000004081020400000D0
:103BF00041417F0000040201020400404040404077
:103C0000000001020400002054545478007F48440E
:103C1000443800384444442000384444487F003845
:103C20005454541800087E0901020018A4A4A47C6E
:103C3000007F080404780000447D40000040808438
:103C40007D00007F102844000000417F4000007C80
:103C500004180478007C080404780038444444388C
:103C600000FC242424180018242418FC007C0804D8
:103C7000040800485454542000043F444020003CB1
:103C80004040207C001C2040201C003C4030403C38
:103C9000004428102844001CA0A0A07C00446454C8
:103CA0004C4400106C8200000000FF000000008205
:103CB0006C1000000008040810080000000000005C
:103CC00000000000000000000000000080C060F064
:103CD00058FC56FF55FF55FF553E1488C0A0C080C4
:103CE00000000000000000000000000000000000D4
:103CF00000000000000000000000000080C060F034
:103D000058FC56FF55FF55FF553F158FC5A3F1A829
:103D1000FCAAFFAAFFAAFFAAFFAAFCA8F0A0C080E5
:103D200000000000000000000000000080C060F003
:103D300058FC56FF55FF55FF553F158FC5A3F1A8F9
:103D4000FCAAFFAAFFAA7FAAFF6A0702838287EA6A
:103D5000D7AAFFAA7FAA7FAA7FAA7C281080C0804A
:103D600000007AFFF5FFF5EFF5EFC5838183C1E829
:103D7000FCEAFFFAFFFAFFFAFF7E3F1E8FC7E3F16E
:103D8000F8FCFEFFFFFFFFFFFFFF7F3F1F8FC7E233
:103D9000F1F8FCFCFDFAFFFAFF6A00000103070FCF
:103DA0001F3F7FFFFFFFFFFFFF7F3F1F8FC7E3F135
:103DB000F8FCFEFFFFFFFFFFFFFF7F3F1F8FC7E302
:103DC000F1F8FCFEFFFFFFFFFF7F3F1F0F0703011E
:103DD00000000000000000000000000001030301DB
:103DE000183C7EFFFFFFFFFFFFFFFFFFFFE3C1C1A6
:103DF000C1E0FCFEFFFFFFFFFF7F3F1F0F07030136
:103E000000000000000000000000000000000000B2
:103E10000000000000000000000000000103070F88
:103E20001F3F7FFFFFFFFFFFFF7F3F1F0F070301C4
:103E30000000000000000000000000000000000082
:103E4000000003280300020400002AFF03280800E2
:103E5000020900292AFF03280A00020B00262AFF74
:103E600003280E00020F00282AFF03281100101259
:103E700000000001022913000A00000000000328CE
:103E800014000C1500000002032817000A18000097
:103E90000003012919000200000000009ECADC2472
:103EA0000EE5A9E093F3A3B50100406E9ECADC24A1
:103EB0000EE5A9E093F3A3B50300406E9ECADC248F
:103EC0000EE5A9E093F3A3B50200406E9ECADC2480
:103ED0000EE5A9E093F3A3B50400406EE12F0008BE
:103EE00000000000F51A0008591B000841190008DD
:103EF00071190008211B0008051A000800000000C5
:103F0000C5330008E9330008C93200080D33000842
:103F1000E13300086D3300080100000000000000DC
:103F20005938000829350008453500083938000897
:103F300021360008543F000800000020D80100008E
:103F400060160008E43F0008D80100203008000097
:103F500032190008011555020406084D0102030438
:103F600001020304060708093C4D53313739335326
:103F70002D493243D2122564010179EB46562020A7
:103F80002E342E302E322F800900A0008421030C05
:103F90004522040020F4020106021A094C4D8BABA5
:103FA0006348CDF1040600280918C800FFFFFFFF91
:103FB0001F0902240A0226FF52253201021E103375
:103FC000813133580A041F6FE80943250102261086
:103FD0000925A40500207E01002009199401002074
:043FE000B005002008
:04000005080000B53A
:00000001FF
