:020000040800F2
:10000000B8090020C90000081505000817050008F8
:1000100000000000000000000000000000000000E0
:1000200000000000000000000000000019050008AA
:1000300000000000000000001B0500082305000868
:10004000F5000008F5000008F5000008F5000008BC
:10005000F500000833050008F50000083D0500081C
:10006000F5000008F5000008F5000008F50000089C
:10007000F5000008F5000008F5000008F50000088C
:10008000F5000008F5000008F5000008F50000087C
:10009000F5000008F5000008F500000863120008EC
:1000A000F5000008F5000008F5000008F50000085C
:1000B000F50000080348854601F0F2F900480047C2
:1000C00051130008B80900200B4880F308880B483A
:1000D0000168090E0A4A914205D10A480A4901609D
:1000E0000A480B4901600B480047FEE7FEE7FEE7C0
:1000F000FEE7FEE7FEE70000B8090020040000006C
:100100001F00000018100240010000000000014024
:1001100000000000B50000088307FF22DB0E9A40B4
:100120008907090E994000280BDA0007000F0838EC
:10013000830861489B001818C36993430B43C3614C
:10014000704783085D489B001818036893430B436E
:10015000036070475A4900200A6801231A430A6065
:100160000A689207FCD50A6801231B059A430A60B6
:100170000A6804239A430A60DA014A60514B11224B
:100180001A604A68920892004A604A6802231A4339
:100190004A6002E048680007800F0228FAD17047E1
:1001A00001224949002801D04A6170470A6170471D
:1001B000F0B585B0FFF7CEFF454C444860610321A0
:1001C000081FFFF7A9FF0026A6610727276108215E
:1001D000404800F098F8012000036A46108002258C
:1001E00095704820D0706946000600F047FA012457
:1001F0006A4614802820D07009206946C00600F0A5
:100200003DFA092005220821C00600F0B1FA6A462D
:10021000148095701020D07069462B4800F02EFA9B
:100220000121084600F088FD0121080700F08DFD3E
:100230000C21002000F023FF200301906A46167273
:100240000C205072947201A800F09BF96A46177353
:100250005573947303A800F025FC03210720FFF7D2
:100260005BFFAA211C4800F015F902211720FFF7B7
:1002700053FF092005220D21C00600F079FA64031E
:100280006A4614801020D0700320907009206946BF
:10029000C00600F0F3F909202146C00600F053FA29
:1002A00005B0F0BD704710B501F082FF10BD70477A
:1002B000704770477047704700ED00E000E400E0D1
:1002C0000010024000200240000400487FBB0000F4
:1002D00000E000E0003800400054004010B5082164
:1002E00000F052FE10BD10B5664900F04DFE10BD85
:1002F00010B5102100F048FE10BD624910B5083954
:1003000000F042FE10BDF3B506465F480324042505
:1003100085B0864236D10121801400F00DFD012107
:10032000600400F000FD00220521584800F020FA8A
:1003300000220421554800F01BFA002203215348F3
:1003400000F016FAAF0169460F808C701020C8705B
:100350004E4800F093F939464C4800F0F4F9082073
:10036000694608808C701827CF70484800F086F9DD
:100370002020694608808C70CF70444800F07EF9D8
:10038000102039E0424886423DD10121001400F09E
:10039000DCFC03200121400400F0C5FC03220E21F7
:1003A0003A4800F0E5F904220D21384800F0E0F960
:1003B00004220C21354800F0DBF9F71369460F8061
:1003C0008C701020C870314800F058F939462F4819
:1003D00000F0B9F93014694608808C701827CF7086
:1003E0002A4800F04BF97014694608808C70CF7071
:1003F000264800F043F9B014694608808C70CD702F
:10040000224800F03BF96A4695800020D080082100
:100410001181508101219181D081069911825082F0
:1004200001A9304600F0FDFC0121304600F030FD0E
:100430003046FFF753FF3046FFF75AFF07B0F0BDD5
:10044000134908600889C007FCD008898007FCD5DB
:100450004868C0B2704710B50121C9030B4800F0CD
:1004600074F910BD10B50121C903084800F06BF9FB
:1004700010BD10B50920C00600F058F9C004C0171F
:10048000401C10BDF7FF0000003001400004004890
:10049000003800407CB504461C480D46844218D103
:1004A0000121480500F051FCC02069460880022067
:1004B00088701C20164EC870304600F0DFF801220C
:1004C0000621304600F054F901220721304600F0A1
:1004D0004FF90022204640308285FF2123312180C0
:1004E000690821817721A182552121832287A28752
:1004F000242121860121818517206A46107103205D
:100500005071917101A800F0CDFA7CBD00540040FB
:10051000000400487047FEE77047704711480068C4
:10052000704710B50F480168491C016001F028FDB3
:1005300010BD10B5012000F07AF810BD10B50120F3
:10054000000300F074F808480178022904D1074933
:100550004A6802231A434A6000210170084601F0EC
:1005600025FD10BD04000020000000200010024006
:1005700030480021016041608160C1602E494161C5
:10058000704710B583792B490268002B26D00B6881
:1005900093430B604A6803689A434A600279521891
:1005A00013680468234313608A6803689A438A6067
:1005B000CA6803689A43CA604279102A05D0511864
:1005C0000A68006802430A6010BD8A6803681A431B
:1005D0008A60CA6800680243CA6010BD007940188A
:1005E00001689143016010BD0021016001710C227E
:1005F0004271817170470F490A6902430A6170476D
:100600000C4A0146526900200A4200D0012070477E
:10061000084948617047074B0246196800205B692A
:100620001140134202D0002900D001207047014937
:100630004861704700040140FFFF1F00172110B5FB
:10064000C906401811D001218902401A10D0401A61
:1006500011D0884208D101218402204600F063FBBA
:100660000021204600F05FFB10BD01214C04F4E79F
:1006700001218C04F1E70121CC04EEE7F0B5CC7840
:10068000002223071B0FE40601D58C7823430C7846
:100690002406240E1AD0046801250E8895402E40A9
:1006A000AE420FD197000F26BE40B4431E46BE4057
:1006B0003443CE78282E02D0482E02D002E0456185
:1006C00000E00561521C082AE6D304600A88FF2A6C
:1006D0001CD944680022164608360125B5400E880C
:1006E0002E40AE420ED197000F26BE40B4431E46A8
:1006F000BE403443CE78282E00D14561CE78482EB6
:1007000000D10561521C082AE5D34460F0BD0021E8
:10071000C9430180022181700421C17070470246E3
:10072000926800200A4200D001207047806880B2A1
:1007300070470246D26800200A4200D0012070476C
:10074000C06880B270470161704741617047002AFC
:1007500001D00161704741617047C160704701225B
:1007600012040A43826181618261816980697047F4
:100770004B0710B5DB0E9A40CC080F219940002C96
:1007800006D0436A8B434362416A1143416210BD04
:10079000036A8B430362016A1143016210BD0000CA
:1007A000A84910B5C84208D101214C05204600F0E7
:1007B000DEFA0021204600F0DAFA10BDF0B504465A
:1007C0000D464030818D87B04908490081856846D3
:1007D00000F075FA9C4E0299304600F013FE074671
:1007E000A86805900146304600F00CFE0646974981
:1007F00005988842394630460CD800F003FEC00305
:10080000000C2083208B39467843301A00F0FAFD23
:10081000A0820BE000F0F6FDC003000C2084208CC9
:1008200039467843301A00F0EDFDA08320886888AF
:1008300029880843FF21613108432080208E800BE6
:1008400080032086002020870120A08707B0F0BD0C
:1008500001210180A8218180022141807B498160A2
:10086000704740300029818D02D00122114301E000
:100870004908490081857047803000290ED07449AD
:100880004988022905D0012907D181680122114335
:1008900002E081680222FAE78160704781686D4A50
:1008A0001140F9E720220029018801D0114300E01E
:1008B0009143018070474030818D02221143818530
:1008C000818D8907FCD4808A70478288120A1202BF
:1008D00049081143818070470029818803D0012293
:1008E0001203114301E05C4A1140818070470029E6
:1008F000818803D00122D202114301E0574A1140FE
:1009000081807047042901D18B010382002A028E65
:1009100001D00A4300E08A43028670470182704793
:10092000FF31FF3102310182704703210902018248
:1009300000207047FF21013101827047444A0021A5
:100940001170008AC0B27047490881807047405AD0
:100950007047808E424908407047024610B500201B
:10096000042907D13A4B1C78002C03D18C01148246
:1009700001241C70928E0A408A4200D1012010BDD1
:100980001CB502460020009001900B0403D5126FA5
:100990000CE001201CBD042907D12D4B1C78002C34
:1009A00003D18C01148201241C70928E0A42F0D172
:1009B0001CBDCA074030002A00D082888A0700D5B3
:1009C00002890A0700D582898A0600D5028A4A066A
:1009D00000D5828A0A0600D5028BCA0500D5828B13
:1009E0008A0500D5028C4A0500D5828C090500D500
:1009F000008D70470246928E00200A4200D00120EE
:100A00007047CA074030002A00D082888A0700D584
:100A100002890A0700D582898A0600D5028A4A0619
:100A200000D5828A0A0600D5028BCA0500D5828BC2
:100A30008A0500D5028C4A0500D5828C090500D5AF
:100A4000008D704700ACFFBF00CA9A3BA086010032
:100A500008000020FCFF0000FFEF0000FFF700008F
:100A6000FF3F79000C49086070470B4948607047A8
:100A70000949886070470849084808607047064976
:100A8000074808607047044A0146D26800200A42BD
:100A900000D001207047000000300040AAAA0000EA
:100AA000CCCC000030B5827801240178002A15D022
:100AB0008B08184A9B009A1813688907C90EFF25EE
:100AC0008D40AB434578AD072D0E8D401D4315601D
:100AD0000078C006C00E84400F4804E0C806C00E6F
:100AE00084400D488030046030BD70470B4A0029B7
:100AF000116901D0014300E0814311617047042274
:100B000007490428086902D09043086170471043E0
:100B1000FBE7000000E400E000E100E000ED00E0A1
:100B200000E000E0AC480168012211430160416827
:100B3000AA4A114041600168A94A11400160016858
:100B4000012292049143016041687F221204914383
:100B5000416000218160704710B59F490B680122F8
:100B6000120493430B600B689400A3430B60801A3C
:100B700009D003221204904204D10868052212040D
:100B80001043086010BD0868FAE7034600205909C1
:100B9000914A01290AD002290AD0516ADA06D20EF6
:100BA000012393400B4200D0012070471168F5E704
:100BB000116AF3E718B500200524240200903120C3
:100BC000FFF7E3FF0099491C0091002801D1A142E1
:100BD000F5D13120FFF7D9FF002800D0012018BD42
:100BE0007D4A1168F8239943C0000843106070479C
:100BF00079490128086803D0400840000860704720
:100C000001221043FAE710B5734B1868754C89063A
:100C10001205204011430143196010BD01226E49A5
:100C200012060028086801D0104300E090430860D5
:100C30007047694A516889088900014351607047CB
:100C4000654840680C2108407047634A5168F023AA
:100C500099430143516070475F4A516807231B0263
:100C600099430143516070475B4A51680723DB0297
:100C70009943C000084350607047574A000200295A
:100C8000916801D0014300E081439160704752496F
:100C90004A6802434A6070474F4A516803239B03E6
:100CA00099430143516070474B490028486A02D07C
:100CB0000122104301E0400840004862704770B5CF
:100CC0004549044648680C221040474A03D004288E
:100CD00001D0082801D0226006E00868C00201D4D3
:100CE000424800E0424820604868424A0006000F3F
:100CF000135C2068D84060604B685B055B0FD35C79
:100D00000546DD40A5604B689B045B0FD25CD0407C
:100D1000E0604968374A0904890F121F515C00F0EE
:100D200071FB206170BD2C4A0029516901D001433B
:100D300000E0814351617047274A0029916901D041
:100D4000014300E0814391617047234A0029D16942
:100D500001D0014300E08143D16170471E4A002960
:100D6000D16801D0014300E08143D16070471A4A45
:100D70000029116901D0014300E0814311617047EE
:100D800001221549D2040128086802D09043086066
:100D900070471043FBE710494A6807231B069A4334
:100DA0004A604A68000602434A6070470A48416A3E
:100DB00001221206114341627047074A01469268B8
:100DC00000200A4200D00120704703498A680004CD
:100DD00002438A6070470000001002400000FFF8E4
:100DE000FFFFF6FEFFFF8F0300127A00006CDC02AB
:100DF00000A24A0410000020904910B5401806D007
:100E00001F21C90288420BD101210C0301E00121FD
:100E10008C032046FFF7A2FF00212046FFF79EFF2C
:100E200010BD10B5028B0F231B031A404B884C8951
:100E300023430C88144323430383838B3F22D243F1
:100E40001340CA89CC8822430C891C4322431823AF
:100E50001A438283028C8A8902848A88082A07D0EE
:100E6000828B04231A438283828B08231A43828352
:100E70008988818510BD00210180418008228280FF
:100E8000C18001220281418102228281C181704799
:100E90000029018B02D00122114301E049084900D9
:100EA000018370470223002A06D0028B1A43028373
:100EB000028A0A4302827047028A8A430282018BB5
:100EC000994301837047002A028B01D00A4300E056
:100ED0008A4302837047002A028B01D00A4300E054
:100EE0008A4302837047828D0160D2B2082A01D8FA
:100EF000002A01D10B0A0360102A01D8002A01D16F
:100F00000B0C0360182A01D8002A01D1090E0160D8
:100F1000704741681143828D082A02D8828D002AC9
:100F200002D1426812021143828D102A02D8828DAA
:100F3000002A02D1426812041143828D182A02D875
:100F4000828D002A02D1406800060143084670479E
:100F5000002A028D01D00A4001E0C9430A430285FC
:100F60007047374A9142018B02D00122114301E0C0
:100F70004908490001837047028B324B1A400283B3
:100F8000028B0A430283704710B50822082911D04A
:100F90001024102911D02A4BDB1F994202D1038B58
:100FA00093430383264A0F3A914202D1018BA14316
:100FB000018310BD018B1143FAE7018B2143F7E751
:100FC000838D0022082B07D0828D002A0AD0828DC3
:100FD000082A07D8012116E00089084200D0012222
:100FE00010467047828D102A01D802210BE0828DB5
:100FF000182A01D8032106E0828D1F2A02D9828D8A
:10100000002A00D1042100890005000F884201D385
:1010100001207047002070470246928900200A4252
:1010200000D001207047828A0A43828270478184FF
:101030007047828B0A4382837047000000C8FFBF5D
:10104000FEFF0000FFFC0000154801688907890FBA
:10105000016000218160C160016141617047104AF7
:101060001168890889000143116070470C4A002902
:10107000116801D0014300E08143116070478A0785
:1010800010B5120F0F2393408C080549A400611876
:101090008C689C438C608B68904003438B6010BDD0
:1010A000000001400C2101709E48704770B50C464D
:1010B0000A46054601469B4800F0BAF921462846F3
:1010C00001F09AF870BD092070477CB50524069B95
:1010D000E4020225A34201D1012A0BD0A34211D17F
:1010E000072A0FD890A109680F22019101AB009542
:1010F00007210FE08DA109680622019101AB00953F
:10110000012107E0A34208D1102A06D81021884BFC
:101110001922009100F086FD7CBD00F0D9FC7CBD59
:10112000FFB581B00A9C122A2DD0132A2BD0152A84
:1011300006D0182A27D0019800F0CAFC05B0F0BDEF
:101140007848401F01780A19D51CC82D1BD2794D4B
:1011500000266C54681846708670304605E00F18FB
:101160001E5C7F19401CFE70C0B2A042F7D36D48D0
:10117000D21C401F02700021817001210920490307
:10118000C006FFF7E2FA019802F09AF8D6E7704736
:101190007047FEB50C4605460C206946614B164665
:1011A00008700F2C27D006DC042C10D0092C10D08E
:1011B0000B2C06D115E0132C21D0182C25D0192C7E
:1011C00027D022462946304600F082FCFEBD009022
:1011D00022E001F063F800F04FF9C7B201F05EF8C9
:1011E00006E000F027FA00F047F9C7B200F022FA53
:1011F0000346009710E007204FA300900CE000206A
:101200000190022001AB009006E0032002AB0090A9
:1012100002E008204AA3009022462946304600F00A
:10122000D9FCFEBD704700207047704742A0704750
:101230003C48401F0079704710B5040009D00020D9
:10124000FEF7AEFF3748401F01798C4200D0047191
:1012500010BD0120F4E710B5FFF70DFC00F03CF8DD
:1012600010BDF8B5394FB889384E2E4C40070025CF
:10127000203E641F00280EDA04213046FFF7C1FB30
:10128000318A2C4A6078C8321154401CC0B2607058
:10129000C82800D36570B88980061CD52021304647
:1012A000FFF7AFFBB88AC00615D5A1782278914226
:1012B00011D22048405C3082491CC8B22349A0703A
:1012C0002031098A904206D1012109202570490365
:1012D000C006FFF738FAF8BD10B5124C641F6178EC
:1012E000E07881420ED02279002A0CD0114AC8320F
:1012F00081420AD9091AC9B2101801F08BFDE178B0
:101300000818E07010BDE17010BDC821091AC9B2FB
:10131000101801F07FFDE1780818C0B2C82100F074
:1013200071F8F0E7250000200A18000000180000FE
:10133000023400087C0100205356332E312E350034
:1013400042617564526174650000000020540040E1
:1013500001204005401EFDD2FEF72AFF0B49032065
:1013600000F028F800F0ACF90949432001F010F929
:1013700008480021016001680529FCD3FF204130A5
:1013800000F028FFFEF78FFFFCE70000E2040000FA
:10139000340000200400002010B50120FFF773FB8B
:1013A0000028FAD110BD10B50220FFF76CFB002811
:1013B000FAD110BD70B504460D460120FFF774FC4C
:1013C0006120FFF7E2FB0028FAD0FFF7E5FF0C4EA3
:1013D0003046FFF747FBE0B2FFF747FBFFF7E3FFBD
:1013E0003046FFF73FFB2805000DFFF741FBFFF7F5
:1013F00042FBFFF744FB70BD10B5FFF73CFB10BD8F
:101400005555000030B50B4601460020202201242E
:1014100009E00D46D5409D4205D31D469540491B28
:101420002546954040191546521E002DF1DC30BD71
:1014300003460B439B0703D009E008C9121F08C0ED
:10144000042AFAD203E00B780370401C491C521E98
:10145000F9D27047D2B201E00270401C491EFBD2A3
:1014600070470022F6E710B513460A4604461946AF
:10147000FFF7F0FF204610BD421C0178401C0029F8
:10148000FBD1801A704730B504460020034600E0C7
:101490005B1C934203D2E05CCD5C401BF8D030BDB6
:1014A000064C0125064E05E0E36807CC2B430C3CB7
:1014B00098471034B442F7D3FEF700FE803400089A
:1014C000A034000830B58C180278401C13071B0F9D
:1014D00001D10378401C120906D10278401C03E0B8
:1014E00005780D70401C491C5B1EF9D101E00B70A2
:1014F000491C521EFBD1A142E6D3002030BD0000A2
:1015000010B5FFF70BF8074A5169884208D2081A4C
:101510000549884204D89189884201D9012010BD2B
:10152000002010BD4C000020FFFFFF7F10B50A4CCB
:10153000607900280CD0FEF7F1FF616A884208D379
:10154000401A01218902884203D2002060710120E3
:1015500010BD002010BD0000D400002070B5114C5B
:101560000025216A4A78002A07D04989A289914238
:1015700003D100F01DFA206A4570E169487900281E
:101580000ED0C888A28990420AD10648E679052281
:101590003030FFF74DFF01F05FFCE0694571E67107
:1015A00070BD00004001002010B50349CA6A096BF4
:1015B0005043FFF727FF10BDD400002010B50446AC
:1015C00008480849806A096B002804DB6043FFF77C
:1015D00019FF001910BD40426043FFF713FF201AA6
:1015E00010BD0000D400002013B56A461278132005
:1015F0000240094802706A4654784470002C03D0B7
:101600002246801CFFF714FF0349A41C0846E2B2DF
:10161000083800F0D9FE1CBDB000002001488078D9
:1016200070470000D40000200148C07970470000D6
:10163000D40000200748084900780209303200072A
:10164000000F8A70092801D8303000E03730C870A8
:1016500001487047890000203E00002010B5074C6B
:101660002079002808D0FEF759FFA169884203D3EA
:1016700000202071012010BD002010BD4C00002072
:101680001FB502246B461C730A2159730621197079
:101690000021597005229A70D97001221A715A716D
:1016A0009C71D9711872000A587219460398FFF795
:1016B0009BFF1FBD01494870704700009400002047
:1016C00001490120887070474C00002002494A6996
:1016D00010184861704700004C00002070B50446A7
:1016E000034D01202871FEF719FF0019A86170BD94
:1016F0004C00002010B5FEF7DBFDFEF70FFF03499D
:101700001E3048620120487110BD0000D400002046
:101710000521C001090240180149486070470000D6
:101720001C01002030B47446641E2578641CAB4252
:1017300000D21D46635D5B00E31830BC184702E031
:1017400008C8121F08C1002AFAD17047704700204C
:1017500001E001C1121F002AFBD17047090710B533
:10176000090FC00705D0032902D1022001F02EF88D
:1017700010BD05480079002802D0FFF7BBFF10BD5F
:1017800001F090F810BD0000D4000020F8B5074625
:10179000204C00202071087816460007000F0D46E7
:1017A000032802D0052822D117E081200001381833
:1017B000A06101F032F817486946C0890880009896
:1017C00000F0D0FF6178A06B00F0D8FF60780121B5
:1017D000C001C9024018606111E0002E07D0284600
:1017E00006220D490830FFF74EFE002802D001F016
:1017F00059F804E032462946384600F07DFB532074
:1018000000F05CFD0549042000F081FD562000F049
:1018100055FDF8BDD40000208300002043010020C6
:1018200070B5334C0546E079002823D0A078401CE1
:10183000A070A079002801D02820A070207900266F
:10184000002808D0206A091AE069281A00F010FB65
:10185000E67026716681FF20193000F0EBFFA0785A
:10186000272815D800F091FF0020FFF72FFF01F087
:1018700026F870BD512000F021FD7821202000F0D5
:1018800072FD562000F01AFD6420FFF71FFF70BDA7
:101890002520A0702069FFF791FE45192069800975
:1018A000FFF714FF284600F0EEFFA07800F06DFF70
:1018B000512000F003FD7821002000F054FD7A2132
:1018C000002000F050FD562000F0F8FC05212069B2
:1018D000C901884208D9207A401CC0B2207217285A
:1018E00002D3267200F087FD6089401C608170BDC4
:1018F000D400002010B509492520887000F045FF6C
:10190000FF20193000F096FF002000F054FF00F097
:10191000D6FF002001F07AFA10BD0000D4000020AC
:1019200010B50C480078000702D000F0BBFF10BDD6
:10193000782000F07FFF012000F048FF05480C38B8
:1019400081694069081891210901401800F065FF7C
:1019500010BD0000E000002070B506460D460220D4
:1019600000F034FF2320C001104C2818A06100F0C3
:1019700054FFE06800F0F6FE2178606B00F0FEFE98
:1019800020780121C001C90240186061A078252893
:101990000AD1E66125626089112802D2E078002828
:1019A00002D00120E070207170BD0000D400002042
:1019B00070B50E4C0546206A017861724088E0815E
:1019C00050214843FFF7FAFD401900F05CFF206A00
:1019D00081882182C18861820089A082607A04495D
:1019E0004843401800F026FF70BD00004001002071
:1019F000E204000070B5044600781C4D4006C00F9C
:101A0000687128460622A11C3530FFF711FD0E34FF
:101A10002846042221462C30FFF70AFD28460322DF
:101A2000211D1630FFF704FDE0796872617A207A93
:101A300009024018E881E17AA07A09024018288258
:101A4000617B207B090240186882E17BA07B090250
:101A50004018A88221462846052210313030FFF771
:101A6000E7FC607DC006C00EA87270BD400100207A
:101A70007FB50AA470CC80070194800F039602956D
:101A80006C462070092060706172A272100AE072C8
:101A9000237301A9009800F020F87FBD0500040021
:101AA00001000000000000000EB507A106C9800774
:101AB0000091800F019269460872072048720298CF
:101AC00000F00BF80EBD0000030004000317000037
:101AD00010B50A23FFF7CCFF10BD10B5FFF784FD4A
:101AE00010BDFFB587B01E466F46109B119A054684
:101AF00038710920787105200C46387200217972FE
:101B00000420B872F972601C387301207873B973BD
:101B1000F8730520C0023974834213D105A80090E0
:101B200006AB31460998FFF77EFB00280AD06946CC
:101B3000088B4873888AC87302A90198FFF7CDFF04
:101B40000BB0F0BD21462846099AFFF7C1FFF7E721
:101B5000FFB587B0079817468007800F6A46107058
:101B60000A2050700020507106211171D07104219B
:101B7000917105211172012151721E46D0720446E5
:101B8000134D1AE020460A21484341194988B942B9
:101B900011D3B1420FD80A214C43611989786A46A2
:101BA0009172285A1073000A507301A90098FFF728
:101BB00094FF0BB0F0BD641CE4B2FFF784FAA042BE
:101BC000E0D83A4608990798FFF782FFF1E700004E
:101BD000A8330008F0B589B00E4607461D461C2103
:101BE00001A80E9CFFF73DFCB807800F69460870FE
:101BF000601D4870601C0871000A487104208871DB
:101C00000020C871761C0E7201A904E02A5C0B1832
:101C1000401C5A71C0B2A042F8D30098FFF75DFF94
:101C200009B0F0BDF0B589B08446002468460E9D29
:101C30000471447104268671C471112606722E1D2A
:101C400046728172C472027344730A2001AF00218C
:101C500005E05A5C3A54401C491CC0B2C9B2A942C2
:101C6000F7D3011F6A46117161468907890F117008
:101C7000507039460098FFF730FF09B0F0BD000002
:101C8000FFB589B0099815218507129E4902AD0F4D
:101C90001F468E4221D16846FFF704FA0146684686
:101CA0000571002343710078801CC2B2122A00D94A
:101CB0001222941C6D462C72200A68720426AE72A1
:101CC000EB72092028736A73AE73EB7304A8921E3B
:101CD000FFF7AEFB241D6C713FE0614886423ED1A8
:101CE0000B9807283BD15F480078002837D06B4617
:101CF0001D71172119720021597204219972002156
:101D0000D97209210720197358730820987300208D
:101D1000D873022018745974002199742921D97438
:101D20002A2119750A225A7500249C75D8750B252D
:101D30001D7600255D7626259D760E22D9761A77AA
:101D400000225A7798770F24DC7708AB1A70282086
:101D5000587099701B206B46587102A96FE0FF2FD5
:101D600000D9FF27002471E020460A2148433E495C
:101D70000A5AB24268D1411848880B9A904263D3FC
:101D8000B84261D8364A521E964223D10A226E4684
:101D90003272002373720422B272F3720922327318
:101DA000082272730A2254432F4AA2189278B273FF
:101DB000000AF073002002AA0B181418401C1B79AB
:101DC000C0B223720528F7D3487A707535710E209A
:101DD000707133E009266F463E7200237B72042245
:101DE000BA72FB723E7307227A730A2254431E4A68
:101DF000A2189278BA73000AF873184602AA0B1850
:101E00001418401C1B79C0B223720528F7D33D710A
:101E10000D207871497AFF2910D0144B0020090158
:101E2000C9180B5C1418401CC0B2E3721028F8D318
:101E30001B2078711720387215207873114601988D
:101E4000FFF74BFE0DB0F0BD641CE4B2FFF73BF9A9
:101E5000A04289D809AB07CBFFF73AFEF2E70000B2
:101E60000328000038000020A833000802340008CE
:101E70004B22D200084B821A9A420CD27D22D20009
:101E8000064B8A1A9A4206D2FA224243531A044A4D
:101E900093621163D0627047A81D00001966180094
:101EA000D400002010B5FEF702FA00F0FBFC10BDD4
:101EB0007FB52821484307490A9D099C6E46086161
:101EC000B08888814A630B700846328CC2818C636B
:101ED0004D707FBDD400002003490248086040686F
:101EE0000047000048340008100100200148007835
:101EF000704700001C01002070B508461A4B1949B4
:101F000019601146FFF776FD184C1949208A801F89
:101F1000884208D2A08A091F0A38884203D2A07AD0
:101F2000401F0C2802D300F0BDFC70BD012000F062
:101F300021F80E490122083108781043F12210409F
:101F40000870208A4100A08A814200D288B20A210A
:101F50004843FFF7C3FB0025A57000F0A3FC6570A4
:101F600070BD000064340008100100204001002012
:101F70007B0C000001490870704700001C01002024
:101F800010B50848807800280AD007480068007813
:101F9000002805D1FFF7CAFA002801D0FFF782FF19
:101FA00010BD00004C000020100100207CB57B4CCF
:101FB000A17803290BD001297ED0022901D1032168
:101FC000A170208101F090F9A078002874D1002040
:101FD000E070734E734D0BE0E078022808D1FFF7F4
:101FE0008FFA002804D0A078002801D1FEF75AF912
:101FF0003068007800280ED1A078002805D1FFF7BE
:1020000095FA002801D0FFF74DFFFFF70DFB0028E0
:1020100001D1FFF720F9FEF72CFA00287ED05F48A7
:10202000C01C00F085FBE07800F0DFF9E078C10724
:1020300010D0694601A800F027FA5B4800990160BA
:102040005A4A01981060326892689047FEF766FA23
:10205000606193E0810715D5694601A800F014FA84
:1020600000F020FC30680099826901989047FFF7E2
:10207000D5FA252803D03068007801287ED1FFF7F3
:10208000EAF87BE0C10603D530684069804775E017
:1020900001062DD5306843490078002815D001206D
:1020A00000F00EFA697828780902401881B2306889
:1020B000C2680120904700E06EE0E078410610D54C
:1020C000694601A800F0E0F927E0002000F0F8F9E7
:1020D000697828780902401881B23068C268012006
:1020E00027E080064AD5694601A800F0CDF936E020
:1020F000410618D5694601A800F0C6F93068007895
:1021000000280AD128780007000F052805D1234AA6
:102110002449521D002000F0E7F900E036E0306865
:102120006A78036924E0410705D530680021C26858
:102130000846904722E0010703D50020FFF71AFF69
:102140001AE0810616D5694601A800F09DF93068AD
:10215000017800290AD01349012000F0B1F9306854
:102160006A78036900210098984707E00369002214
:102170000C49F8E7002801D000F094FBA078002873
:1021800000D129E7E078802806D125E7A07800284B
:10219000F7D0E0780028F4D17CBD00004C0000208E
:1021A000100100204A030020140100201801002023
:1021B00010B5074CE078022806D1FFF7A1F90028F6
:1021C00002D0A078032801D0002010BD012010BD4E
:1021D0004C00002070B50546FEF7A0F9C41CFEF7C0
:1021E0009DF9A042FBD30349022088702846FFF7DF
:1021F000DDFE70BD4C00002030B5182900D9182133
:102200000A4B4A1C1A70002204E0845C9D18521C80
:10221000AC70D2B28A42F8D3002003E05A18491CAD
:102220009070C9B21929F9D330BD000068000020B0
:1022300070B50D46124A01461078002809D0401E9C
:102240001070002656705068092806D0401C506057
:1022500005E001205070002070BD304656600C2211
:10226000084B4243D41842018018074A80182A4676
:102270002060FFF7DDF825712046A66070BD0000E4
:102280008C000020C00400207403002010B500F072
:10229000ECFA0020FFF73CFA10BD000000A07047E8
:1022A0004D475F424C455F4C49425F56332E3000EC
:1022B00001480078704700008C00002010B50446EB
:1022C000FEF7C9F801215020FEF7BAF80121204697
:1022D000FEF7B6F8FEF7C6F810BDF8B515460E467F
:1022E0000446FEF7B8F801212046FEF7A9F8074694
:1022F000002406E00021FF20FEF7A2F83055641C00
:10230000E4B2AC42F6D3FEF7ADF83846F8BD70B58E
:102310000C460546FEF79FF801212846FEF790F887
:102320000021FF20FEF78CF82070FEF79BF870BDAF
:10233000F8B516460D460446FEF78DF820202043DA
:102340000121FEF77DF8002407E0287801216D1CAB
:10235000FEF776F8641C0746E4B2B442F5D3FEF704
:1023600081F83846F8BD70B50D460446FEF773F89F
:10237000202020430121FEF763F801212846FEF7C3
:102380005FF8FEF76FF870BD0168002902D1406860
:10239000002801D000207047012070470021016013
:1023A000416002490A200870704700008C0000203C
:1023B0000268136812790A7001688968016000294F
:1023C00000D141601846704710B50B4604461146CF
:1023D0001846FFF72DFF002806D06168002901D0BC
:1023E000886000E02060606010BD10B501460E20DE
:1023F000FFF7B9FF10BD1CB55320FFF75FFF0321A6
:102400001F20FFF7B0FF01A91F20FFF780FF6846DC
:1024100000790028F7D103211F20FFF7A4FF01A9AD
:102420001F20FFF774FF684600790028F7D10121CB
:102430001520FFF798FFA0211220FFF794FF042139
:102440000A20FFF790FF00210A20FFF78CFF882168
:102450001220FFF788FF012469460C702120487084
:1024600002221320FFF764FF69460C702020487099
:1024700002221320FFF75CFF00211520FFF773FFF6
:102480005620FFF71BFF1CBD7CB50D4604460622F7
:1024900069461020FFF721FF694648790B7902044D
:1024A0001802C97810184018694620608878497861
:1024B00000040902401869460978401828607CBD6C
:1024C0001CB50C4600280BD0022269460620FFF7F7
:1024D00004FF6846007820706846407860701CBD34
:1024E000022269460420F2E77CB515460C46002816
:1024F00009D06278901C2870002A03D0A11C6120AA
:10250000FFF7EBFE7CBD022269460420FFF7E5FEE3
:1025100068464078801C28706846007820706846BD
:10252000407860706846007825460107090F6846C4
:10253000407808350B00FFF7F5F807060906140583
:102540001A060500DEE70622A11C08E00C28D9D1F6
:102550000622A11C0A20FFF7C0FE062229460B20F6
:10256000CEE70C28CED1062229460A20C8E7222829
:10257000C8D10622A11C0B20FFF7AFFE0622294678
:102580000A20FFF7AAFE162221460E31B7E7000007
:10259000FEB50546002668460671634C51200C6066
:1025A000FFF78CFE01A91F20FFF7B1FE68460179F5
:1025B0008029F7D15D491E20FFF7A9FE7821002070
:1025C000FFF7D1FE06210846FFF7CDFE7A21002055
:1025D000FFF7C9FE5320FFF771FE88211720FFF790
:1025E000C2FE88211820FFF7BEFE88211920FFF7C0
:1025F000BAFE00211520FFF7B6FE02210120FFF7E9
:10260000B2FE1E211D20FFF7AEFE284600F0FAF8AC
:1026100000A908200131FFF77AFE684640781227AA
:10262000002808D168464770404800781B2802D22D
:10263000152069464870C021684601702D218170BF
:10264000032269460420FFF773FE80256846057063
:102650004670022269460C20FFF76AFE1C2168467C
:102660000170457031480078192802D1CC206946A4
:102670000870022269461420FFF75AFE10206946AE
:1026800008700220487002460A20FFF751FE02201F
:102690006946087002464F700D20FFF749FE012081
:1026A000694608700720487002220E20FFF740FE9E
:1026B0003820694608700F2048708E70032202206F
:1026C000FFF736FE71210920FFF74DFE69460D70B8
:1026D0007020487002220B20FFF72AFE0322694671
:1026E0000B20FFF7FAFD40206946C87004220B203A
:1026F000FFF71EFE5620FFF7E1FDFF210E20FFF73A
:1027000032FE062208490820FFF7E7FD60796D28B0
:1027100006D1ED206071062203490820FFF708FE6C
:1027200000F0C0F8FEBD00008300002089000020FA
:1027300038B5044669460E20FFF7E9FD6846017882
:10274000217038BD1CB501786A461170417851700E
:1027500081789170C078D070042269460C20FFF710
:10276000E7FD1CBD01B582B06946087A0870487A59
:10277000487002220320FFF7DBFD0EBD0A4610B5AC
:102780000146A020FFF7D4FD10BD10B5282803D2C4
:1027900001460120FFF7E7FD10BD1CB501786A4630
:1027A00011704178517080789070032269460D2035
:1027B000FFF7BEFD1CBD1CB5FF216A4611705070AD
:1027C000022269460E20FFF7B3FD1CBD10B5042898
:1027D0000BD001280BD002280ED003280ED00528DC
:1027E0000ED0062807D1042102E0022100E00921D1
:1027F0000220FFF7B8FD10BD0C21F9E70121F7E732
:102800000321F5E708B502216A46117050700A46A7
:1028100069460F20FFF78CFD08BD1CB56A46107095
:10282000010A5170000C9070032269460720FFF7DF
:102830007FFD1CBD1CB56A461070010A5170002155
:1028400091700549884201D90120907003226946A0
:102850001120FFF76DFD1CBDFFFF00000A4610B5FB
:102860000146A020FFF764FD10BD01B582B06946A6
:10287000087A0222C006C00E0870487A4870052007
:10288000FFF756FD0EBD1CB500216A461170507051
:10289000010A9170000CD070042269460F20FFF7E6
:1028A00047FD1CBD1CB5022069460870FF2048701A
:1028B0008870C87004220F20FFF73AFD1CBD10B5C8
:1028C00001210F20FFF74FFD10BD000038B5054670
:1028D00000230C4610460093FFF756FD002802D057
:1028E0002B70237038BD69461046FFF761FD014625
:1028F000684602782846FEF79BFD684600782070FF
:1029000002480178491C017038BD00008C0000208D
:1029100010B5054803498160002141701430FFF76C
:102920003DFD10BD443400089400002070470000B5
:1029300000B587B0182207A16846FEF779FD0B485D
:10294000032101701821417000686946FEF74CFEB2
:1029500007B000BD101000280001002C0118200055
:102960000300FFFFFFFFFFFFFFFFFFFF2C01002021
:102970001CB500228C070C490092A40F01920C7028
:1029800006244C7002236C46237062700279A27098
:102990004079E0700D2020711A2060710868694646
:1029A000FEF722FE1CBD00002C0100200EB507A082
:1029B00007C86B4607C3084803210170092141700D
:1029C00000686946FEF710FE0EBD00000900000019
:1029D00000000000000000002C0100201CB50022B7
:1029E0008C070C490092A40F01920C7006244C70C5
:1029F00002236C46237062700279A2704079E07005
:102A0000052020713720607108686946FEF7ECFDEB
:102A10001CBD00002C01002010B589070548890F56
:102A20000170002141700068FFF730FC0020FFF7C3
:102A3000A1FA10BD2C01002008B507A1096800917A
:102A4000064903220A7002224A706A4650700868DA
:102A50006946FEF7C9FD08BD070000002C010020F3
:102A60001CB507A005C8009089070748890F019287
:102A700001700621417000686946FEF7B5FD1CBD76
:102A80000C079C05172000002C010020FEB5164CF9
:102A900001A92246083A2046FFF718FF6846007948
:102AA00001262546002804D12E7068700220694650
:102AB000087121780C4F132001401C3F78780423C3
:102AC000C24352081A4040071143C00FC0000143DF
:102AD0006A46117060785070A11C009800F00DFCDF
:102AE0002E7000207870FEBDB0000020FEB50D46AF
:102AF000002102911D2D00D91D2501462A469B4823
:102B0000FEF796FC9A48994C05702078984A810700
:102B1000890F9070012914D0032917D002290FD1F1
:102B2000637921791B02A579C91806294BD004299C
:102B300050D0052904D1132D02D00020FEF7A0FDAE
:102B4000FEBD022DFCD3FEF770FBFEBDA1780B008D
:102B5000FEF7E8FD120B0F1E233535350A283535F3
:102B6000352D0A35320A0A35EFE7E01C00F002F98C
:102B7000FEBD01467D48FFF7D9FE617A207A090241
:102B800040186946088102A9E01C00F025F9FEBD45
:102B900001467648FFF740FFFEBD01467348FFF748
:102BA000E7FEFEBD01467148FFF700FFFEBD01468E
:102BB0006E48FFF755FFFEBDFFF7BAFEFEBD0846A3
:102BC000FFF73AFFFEBD012DFCD101466748FFF734
:102BD00005FFFEBD66490C31102D72D00ADCAE1E19
:102BE0003300FEF79FFD0B1D152215361554158970
:102BF000159415005D4B0933182D7BD004DC122D84
:102C000079D0162D04D192E01E2DE2D0522D72D033
:102C10006906DED4062300222946FEF729FFFEBD01
:102C200000222946FEF740FFFEBD237AE2791B020F
:102C3000D21892B20A80637AA47A24021B199BB23A
:102C40004B809A4201D90123E6E72946FEF780FF2F
:102C5000FEBD237AE2791B02D21892B20A80A67ACC
:102C6000637A36029B199BB24B809A42EBD8267B43
:102C7000E17A36028919667BA47B89B22402341971
:102C8000A4B2009101942946FEF72BFFFEBD237AE2
:102C9000E2791B02D21892B20A80A67A637A3602CF
:102CA0009B199BB24B80E67A247B24023419A4B290
:102CB0008C809A42C7D829460094FEF7E1FFFEBDFA
:102CC000FFE7237AE2791B02D21892B20A80A67A31
:102CD000637A36029B199BB24B80E67A247B2402EE
:102CE0003419A4B28C809A42ADD829460094FEF7DC
:102CF000ECF9E4E724E027E0237AE1791B02C91824
:102D000089B2918002462846FEF743FAD7E7237A34
:102D1000E1791B02C91889B29180A37A627A1B02F9
:102D2000D21893B202462846FEF77CFAC7E7217A0A
:102D3000E0790902401890800C4800F09EFABEE746
:102D40000A4800F05DFABAE7E178A6780902C91EE0
:102D50007118CEB2E179247A2402091989B29180DE
:102D60000A4629460096FEF7DBF9A8E73805002059
:102D70009400002030B5164B0122196A4A7002787F
:102D80000A7084784278240212194A800479C27841
:102D90002402121992B28A80857944792D0264192D
:102DA000CC80057AC4792D0264190C81447A807A2A
:102DB0000002201880B200244881062A00D24C70FC
:102DC0009A89801A034A904200DB4C7030BD0000A3
:102DD00040010020FF7F000010B50A4C0346E06967
:102DE0000988C18005221946FEF722FBE06901210E
:102DF0004171C188A289891A034A914201DB0021ED
:102E0000417110BD40010020FF7F000010B5FEF7AA
:102E100065FC10BDF8B50C460746002614E0142CDE
:102E200001D9142500E02546FFF742FA03280FD305
:102E3000084800950288BB191B21022000F0F1F917
:102E40007019C6B2601BC4B2002C01D0002FE6D1AD
:102E50003046F8BD32000020F0B50C4B00201C4677
:102E6000D87130340A4AD8720125C1084607615C1E
:102E7000760F2F46B740394203D0D97A5054491CB7
:102E8000D972401CC0B22528EFD3F0BD400100200C
:102E90006E05002010B5C00706D10448FD22017858
:102EA00011400170FFF7FEFC10BD0000480100203A
:102EB000F8B5344F06460C46B88A0A2115464843F1
:102EC000FEF70CFC39460831087802221043F32241
:102ED00010400870FDF7EDF9002C03D06078002851
:102EE00019D01EE04120400105213018C9014018C9
:102EF000B862FFF792FC1B2D00D91B25E8010521C4
:102F0000301A0902401A78621E48082108300278F7
:102F10000A43027032E01B48042208300178114352
:102F20000170812000013018B862FFF776FCE801DB
:102F30000121301A8902401A78622078FEF7BAFB24
:102F400022780821B8780A40824217D101223A70CB
:102F50004840B8700C48006800688047FDF7AAF93F
:102F6000002078705320FFF7A9F906490420C91CF6
:102F7000FFF7CDF95620FFF7A1F9F8BDFDF79AF953
:102F8000F8BD0000400100209C000020F8B50C4670
:102F90000646FEF7ABFF00282BD0794F794D3878E5
:102FA000C1072CD0E889502148432830FEF706FBA2
:102FB0008019FFF768FCFFF74FFFE86900244471B0
:102FC000286A4470AC8128462C701630FFF7E5FB68
:102FD00028462C30FFF7B6FBFFF79AFCEC71687AB5
:102FE000694948434018FFF725FC0120FEF724F902
:102FF0006EE00020FEF76AFB00F076F9F8BD80076E
:103000002BD5686A0121201A090640180002000A1F
:10301000FEF7CAFA341A3878400715D5698A0029AC
:1030200012D0288A41430818502148437838FEF7C7
:10303000C5FA0419A989688A0918A981A97A41439E
:10304000E8790818E87106E0288A50214843783862
:10305000FEF7B4FA04194D482BE0288A082801D25B
:10306000012129714A490C6869780B2904D2502240
:103070005043C900401A04E0502250434900401A0E
:103080001430FEF79BFA0419288A2D2801D94148EB
:103090000FE0082806D2404948430321FEF7B2F961
:1030A0003E4905E0384948430321FEF7ABF936496C
:1030B0004018FFF7BFFB0A36B44200D23446204620
:1030C000FFF7E1FBA889401CA8812046FEF746FADD
:1030D0005120FFF7F3F878210020FFF744F97A2117
:1030E0000020FFF740F95620FFF7E8F8E879A97AC1
:1030F0004018C0B22521FEF785F9214BE971CA08B5
:1031000028339A5C4B0708465B0F012199400A421D
:1031100004D1E97AFEF776F92148405CA871C0B283
:10312000FFF733FB2878002812D01D4901202531F4
:10313000FFF7C6F91A496A4625310120FFF7D4F98D
:103140006846017816482530FFF7D0FC002028702B
:103150003878C10704D040084000387000200BE0E8
:103160002879002805D00020FEF7B0FA0020287149
:10317000F8BD288A81080818FEF7A8FAF8BD0000F3
:103180004801002040010020E2040000A60E0000DB
:1031900018010020204E0000C40900007102000048
:1031A0006E05002010B506480078000704D5002100
:1031B0000846FFF76FFE10BDFFF774FB10BD00005F
:1031C0004801002070B50D46FEF748FA002803D1EB
:1031D0000A4C60781E2805D90020FEF7CBFEFFF7C9
:1031E00061FB70BD0420FFF7F1FAC32040012818ED
:1031F000FFF713FB6078401C607070BD4001002039
:1032000008B502216A4611700521517001218170B3
:1032100019218171811C0098FEF75FFCFDF7B8FF52
:1032200008BDFFB58BB0149C1D461746E61C242133
:1032300001A8FEF716F90B9813210840694608709B
:10324000E01D48700E71300A48710420887100201A
:10325000C8710C9808724F72380A8872002001A950
:1032600004E02A5C0B18401CDA71C0B2A042F8D30B
:103270000098FEF732FC0FB0F0BDF8B50446827A34
:10328000C178007AE57900020543A0780902084375
:10329000401F87B2667A1002064302206946087012
:1032A000607848701720A071A11C0098FEF715FCEB
:1032B000214633463A460B312846FDF768FFF8BDF4
:1032C0000EB507A106C980070091800F01926946DB
:1032D0000872052048720298FEF7FFFB0EBD000041
:1032E000010004001300000010B500F015F80020E4
:1032F000FDF7A2FFFEF7F0FD10BD73B50D46009877
:10330000FFF7B3FA6846447828462146FFF7A6FA45
:103310002046FEF7FDF97CBD30B585B003A8FDF76A
:10332000C1FE6946097B182902D918216A46117322
:1033300069460A7B1A4B511C1970002104E0445C59
:103340005D18491CAC70C9B29142F8D3002003E06B
:103350009918521C8870D2B2192AF9D31049104A10
:103360000C461C3C25780E3A03231B20002D01D06F
:103370000C4A2B466578002D02D00A4928461F3199
:103380000290074801911C38811C40896D462880B5
:103390008888288220890499FEF78AFD05B030BD0F
:1033A000680000200C030020032803000204000032
:1033B0002AFF03280800020900292AFF03280A001F
:1033C000020B00262AFF03280E00020F00282AFF06
:1033D00003281100101200000001022913000A0046
:1033E00000000000032814000C1500000002032850
:1033F00017000A180000000301291900020000004C
:1034000000009ECADC240EE5A9E093F3A3B50100F9
:10341000406E9ECADC240EE5A9E093F3A3B5030039
:10342000406E9ECADC240EE5A9E093F3A3B502002A
:10343000406E9ECADC240EE5A9E093F3A3B5040018
:10344000406E00008D2A000800000000F5180008FA
:10345000591900085D1700088D1700082119000888
:10346000211800080100000000000000C53100081C
:10347000952E0008B12E0008A53100088D2F0008F8
:10348000A0340008000000207C010000C4140008E3
:103490000C3500087C0100203C0800004E17000895
:1034A000D155020406086D0102030401020304065B
:1034B0000708093C4D5331373933532D4932437294
:1034C000122564010179BB465620202E332E332E5F
:1034D00036DC8009A00084210400020106022309D1
:1034E00002240A0226FF52253201021E10338131C6
:1034F00033580A042A6FE8090925560500202401DB
:0C3500000020091938010020620500209D
:04000005080000B53A
:00000001FF
