:020000040800F2
:10000000C8090020C9000008A1080008A3080008CA
:1000100000000000000000000000000000000000E0
:10002000000000000000000000000000A50800081B
:100030000000000000000000A7080008AF0800084A
:10004000F5000008F5000008F5000008F5000008BC
:10005000F5000008BF080008F5000008C9080008FE
:10006000F5000008F5000008F5000008F50000089C
:10007000F5000008F5000008F5000008F50000088C
:10008000F5000008F5000008F5000008F50000087C
:10009000F5000008F5000008F5000008F50000086C
:1000A000F5000008F5000008F5000008DB03000873
:1000B000F50000080348854601F084FA004800472F
:1000C00039140008C80900200B4880F308880B4841
:1000D0000168090E0A4A914205D10A480A4901609D
:1000E0000A480B4901600B480047FEE7FEE7FEE7C0
:1000F000FEE7FEE7FEE70000C8090020040000005C
:100100001F00000018100240010000000000014024
:1001100000000000B50000088307FF22DB0E9A40B4
:100120008907090E994000280BDA0007000F0838EC
:1001300083088B489B001818C36993430B43C36122
:100140007047830887489B001818036893430B4344
:1001500003607047844900200A6801231A430A603B
:100160000A689207FCD50A6801231B059A430A60B6
:100170000A6804239A430A60DA014A607B4B112221
:100180001A604A68920892004A604A6802231A4339
:100190004A6002E048680007800F0228FAD17047E1
:1001A00001227349002801D04A6170470A617047F3
:1001B000F0B585B0FFF7CEFF6F4C6E48606103214C
:1001C000081FFFF7A9FF0026A6610727276108215E
:1001D0006A4800F09EFA012000036A46108002245B
:1001E00094704820D0706946000600F00DFC01258F
:1001F0006A4615802820D07009206946C00600F0A4
:1002000003FC092005220821C00600F077FC6A469D
:10021000158094701020D0706946554800F0F4FBAA
:100220000121084600F0ECFD0121080700F0F1FD76
:100230000C21002000F087FFE00201906A46167250
:100240000C205072957201A800F061FB6A4617738A
:100250005473957303A800F089FC03210720FFF76E
:100260005BFFE1214902464800F086F902211B208C
:10027000FFF752FF25036A46158094701020D07056
:1002800009206946C00600F0BFFB60036A46108083
:1002900094702820D07009206946C00600F0B4FB95
:1002A00009202946C00600F016FC05B0F0BD10B5C7
:1002B0003448007800281CD033490A6833490B6859
:1002C0009A4216D2324A096812688A4211D22449E7
:1002D000012808690ED004221043086130BF22486B
:1002E000416802221143416009201103C00600F059
:1002F000F2FB10BDFB221040086120BF10BD10B5FD
:1003000002F060FA00281DD01E4A1078002819D08B
:100310001D490C681D490B689C4213D21C4B09688F
:100320001B688B420ED20E4901280CD0022050705F
:10033000086904221043086130BF0920D102C006B9
:1003400000F0C9FB10BD012050700869FB2210406D
:10035000086120BF10BD70477047704770477047F5
:1003600000ED00E000E400E0001002400020024048
:10037000000400487FBB000000E000E000380040BF
:10038000003801400000002010000020180000206C
:100390000C00002070B5714D044681B2284600F073
:1003A0004DFF0121284600F057FF0028F9D0012118
:1003B000284600F058FF204670BD10B5674C02215A
:1003C000204600F049FF0028F9D00221204600F025
:1003D0004AFF204600F035FF10BDF8B55F4D022101
:1003E000284600F039FF5E4E00275E4C002814D0EE
:1003F0000221284600F037FF284600F022FF5A4A23
:100400006188505430687D22D2008018491CA06059
:1004100088B26080C82800D367800121284600F098
:100420001BFF002823D00121284600F01CFF4F4865
:1004300001684F4801F03EF831684018E0602078CC
:100440006178884208D24849C839095C401C20704C
:10045000284600F0F3FE04E000220121284600F0C7
:10046000DDFE20786178884201D367702770F8BD7F
:10047000F0B53C4C002263785D18C82D0BD23A4E83
:10048000C83E04E0845C9F18521CF455D2B28A42E4
:10049000F8D334484570F0BD10B5324C6088A1885F
:1004A000884210D000F0A1FF00280DD06188A088FC
:1004B0002D4A81420AD9091AC9B2101802F0B4FFB4
:1004C000A1880818A08010BD6088FBE7C821091A20
:1004D000C9B2101802F0A8FFA188081880B2C8217C
:1004E00000F0E8FFA18010BDF8B500F028FBFFF791
:1004F000D3FF204F1D4E38781A4D194C022805D1D4
:100500000920C00600F0D8FA400411D46878002809
:100510000ED0287800280BD1012211460F4800F098
:100520007DFE1348316800F0C5FF21684018E8607F
:100530003878022810D1A868216888420CD201219D
:1005400009204903C00600F0C4FA0948316800F0E8
:10055000B1FF21684018A860F8BD000000380140D4
:100560001800002004000020540200201400002085
:10057000204E000000000020F0B50D46554903272D
:10058000002487B0884254D10121880300F038FC50
:100590001B216846017447740126867404A800F084
:1005A000E5FA002206214C4800F0A8FA00220721B3
:1005B000494800F0A3FA0095302168468180C48044
:1005C000048184811824434D44816946284600F003
:1005D000DBFD01220221284600F020FE002201213D
:1005E000284600F01BFE0121284600F00DFE4021A8
:1005F0006846818202218175C47505A9364800F0DC
:1006000003FA8021684681820421C17505A9324818
:1006100000F0FAF901220221284600F0FFFD1B211B
:10062000684601744774867404A800F09FFA07B006
:10063000F0BD2A4EB042FAD10121480400F0E9FB96
:10064000092001220021C00600F058FA01220920E9
:100650001146C00600F052FA092001220221C0060C
:1006600000F04CFA092001220321C00600F046FAEE
:100670001C20694608744F740120887404A800F097
:1006800075FA17490868020A1202802002430A60BC
:100690003020694600958880CC800C818C811820A0
:1006A0004881304600F070FD01220221304600F002
:1006B000B5FD0121304600F0A7FDB8E710B5054CA7
:1006C0000021204600F0A0FD064920460968FFF7FA
:1006D00053FF10BD003801400004004800440040B2
:1006E0001CE400E01400002010B5082100F0B0FC6C
:1006F00010BD10B5664900F0ABFC10BD10B510215F
:1007000000F0A6FC10BD624910B5083900F0A0FC4D
:1007100010BDF3B506465F480324042585B0864224
:1007200036D10121801400F06BFB0121600400F040
:100730005EFB00220521584800F0E0F90022042168
:10074000554800F0DBF900220321534800F0D6F9A8
:10075000AF0169460F808C701020C8704E4800F0C1
:1007600053F939464C4800F0B4F90820694608802E
:100770008C701827CF70484800F046F92020694651
:1007800008808C70CF70444800F03EF9102039E0AA
:10079000424886423DD10121001400F03AFB03207B
:1007A0000121400400F023FB03220E213A4800F00F
:1007B000A5F904220D21384800F0A0F904220C21EB
:1007C000354800F09BF9F71369460F808C701020B4
:1007D000C870314800F018F939462F4800F079F90F
:1007E0003014694608808C701827CF702A4800F0B2
:1007F0000BF97014694608808C70CF70264800F0A1
:1008000003F9B014694608808C70CD70224800F05E
:10081000FBF86A4695800020D08008211181508124
:1008200001219181D08106991182508201A930461F
:1008300000F05BFB0121304600F08EFB3046FFF7F5
:1008400053FF3046FFF75AFF07B0F0BD1349086069
:100850000889C007FCD008898007FCD54868C0B269
:10086000704710B50121C9030B4800F034F910BDE1
:1008700010B50121C903084800F02BF910BD10B5CF
:100880000920C00600F018F9C004C017401C10BDB4
:10089000F7FF00000030014000040048003800402D
:1008A0007047FEE77047704711480068704710B501
:1008B0000F480168491C016001F06CFE10BD10B5C5
:1008C000012000F07AF810BD10B50120000300F0FF
:1008D00074F808480178022904D107494A680223BC
:1008E0001A434A6000210170084601F069FE10BDFC
:1008F00018000020010000200010024030480021B4
:10090000016041608160C1602E494161704710B54E
:1009100083792B490268002B26D00B6893430B6028
:100920004A6803689A434A60027952181368046857
:10093000234313608A6803689A438A60CA6803681D
:100940009A43CA604279102A05D051180A68006893
:1009500002430A6010BD8A6803681A438A60CA6845
:1009600000680243CA6010BD0079401801689143D5
:10097000016010BD0021016001710C224271817182
:1009800070470F490A6902430A6170470C4A0146E1
:10099000526900200A4200D001207047084948618E
:1009A0007047074B0246196800205B6911401342EB
:1009B00002D0002900D001207047014948617047EA
:1009C00000040140FFFF1F00172110B5C9064018A1
:1009D00011D001218902401A10D0401A11D088424A
:1009E00008D101218402204600F001FA00212046AE
:1009F00000F0FDF910BD01214C04F4E701218C0445
:100A0000F1E70121CC04EEE7F0B5CC780022230712
:100A10001B0FE40601D58C7823430C782406240EA2
:100A20001AD0046801250E8895402E40AE420FD1A1
:100A300097000F26BE40B4431E46BE403443CE78D6
:100A4000282E02D0482E02D002E0456100E0056168
:100A5000521C082AE6D304600A88FF2A1CD944687D
:100A60000022164608360125B5400E882E40AE42BB
:100A70000ED197000F26BE40B4431E46BE403443FD
:100A8000CE78282E00D14561CE78482E00D1056160
:100A9000521C082AE5D34460F0BD0021C9430180FF
:100AA000022181700421C1707047024692680020C3
:100AB0000A4200D001207047806880B27047024629
:100AC000D26800200A4200D001207047C06880B27E
:100AD00070470161704741617047002A01D0016190
:100AE000704741617047C1607047012212040A4398
:100AF0008261816182618169806970474B0710B5AD
:100B0000DB0E9A40CC080F219940002C06D0436A96
:100B10008B434362416A1143416210BD036A8B43B8
:100B20000362016A1143016210BD00000C490860B4
:100B300070470B4948607047094988607047084909
:100B40000848086070470649074808607047044A2B
:100B50000146D26800200A4200D001207047000000
:100B600000300040AAAA0000CCCC000030B582784A
:100B700001240178002A15D08B08184A9B009A1886
:100B800013688907C90EFF258D40AB434578AD0733
:100B90002D0E8D401D4315600078C006C00E8440A8
:100BA0000F4804E0C806C00E84400D488030046041
:100BB00030BD70470B4A0029116901D0014300E0A4
:100BC000814311617047042207490428086902D053
:100BD0009043086170471043FBE7000000E400E029
:100BE00000E100E000ED00E000E000E0AC4801685A
:100BF0000122114301604168AA4A11404160016825
:100C0000A94A1140016001680122920491430160E8
:100C100041687F2212049143416000218160704746
:100C200010B59F490B680122120493430B600B68B7
:100C30009400A3430B60801A09D00322120490424F
:100C400004D10868052212041043086010BD08682A
:100C5000FAE7034600205909914A01290AD00229DE
:100C60000AD0516ADA06D20E012393400B4200D01B
:100C7000012070471168F5E7116AF3E718B5002005
:100C80000524240200903120FFF7E3FF0099491C5E
:100C90000091002801D1A142F5D13120FFF7D9FF01
:100CA000002800D0012018BD7D4A1168F82399431F
:100CB000C00008431060704779490128086803D0D4
:100CC000400840000860704701221043FAE710B561
:100CD000734B1868754C8906120520401143014377
:100CE000196010BD01226E4912060028086801D063
:100CF000104300E0904308607047694A51688908D2
:100D00008900014351607047654840680C210840E4
:100D10007047634A5168F02399430143516070471B
:100D20005F4A516807231B02994301435160704792
:100D30005B4A51680723DB029943C00008435060B7
:100D40007047574A00020029916801D0014300E032
:100D500081439160704752494A6802434A60704734
:100D60004F4A516803239B039943014351607047E5
:100D70004B490028486A02D00122104301E0400894
:100D800040004862704770B54549044648680C22E7
:100D90001040474A03D0042801D0082801D022601F
:100DA00006E00868C00201D4424800E042482060E2
:100DB0004868424A0006000F135C2068D840606013
:100DC0004B685B055B0FD35C0546DD40A5604B6857
:100DD0009B045B0FD25CD040E0604968374A09044D
:100DE000890F121F515C00F065FB206170BD2C4A19
:100DF0000029516901D0014300E0814351617047EE
:100E0000274A0029916901D0014300E081439161A3
:100E10007047234A0029D16901D0014300E0814392
:100E2000D16170471E4A0029D16801D0014300E01A
:100E30008143D16070471A4A0029116901D00143EA
:100E400000E081431161704701221549D204012855
:100E5000086802D09043086070471043FBE71049D0
:100E60004A6807231B069A434A604A680006024301
:100E70004A6070470A48416A0122120611434162E2
:100E80007047074A0146926800200A4200D00120BC
:100E9000704703498A68000402438A607047000073
:100EA000001002400000FFF8FFFFF6FEFFFF8F0377
:100EB00000127A00006CDC0200A24A04200000202C
:100EC000904910B5401806D01F21C90288420BD1A5
:100ED00001210C0301E001218C032046FFF7A2FF52
:100EE00000212046FFF79EFF10BD10B5028B0F2397
:100EF0001B031A404B884C8923430C88144323431B
:100F00000383838B3F22D2431340CA89CC88224378
:100F10000C891C43224318231A438283028C8A893A
:100F200002848A88082A07D0828B04231A4382838A
:100F3000828B08231A4382838988818510BD002112
:100F40000180418008228280C1800122028141818A
:100F500002228281C18170470029018B02D00122C7
:100F6000114301E049084900018370470223002A28
:100F700006D0028B1A430283028A0A430282704718
:100F8000028A8A430282018B994301837047002AB7
:100F9000028B01D00A4300E08A4302837047002A93
:100FA000028B01D00A4300E08A4302837047828D9E
:100FB0000160D2B2082A01D8002A01D10B0A0360CD
:100FC000102A01D8002A01D10B0C0360182A01D87D
:100FD000002A01D1090E0160704741681143828DDA
:100FE000082A02D8828D002A02D1426812021143D7
:100FF000828D102A02D8828D002A02D14268120402
:101000001143828D182A02D8828D002A02D14068AD
:101010000006014308467047002A028D01D00A40AD
:1010200001E0C9430A4302857047374A9142018B68
:1010300002D00122114301E04908490001837047B1
:10104000028B324B1A400283028B0A4302837047A1
:1010500010B50822082911D01024102911D02A4BCC
:10106000DB1F994202D1038B93430383264A0F3A35
:10107000914202D1018BA143018310BD018B114329
:10108000FAE7018B2143F7E7838D0022082B07D075
:10109000828D002A0AD0828D082A07D8012116E005
:1010A0000089084200D0012210467047828D102A24
:1010B00001D802210BE0828D182A01D8032106E015
:1010C000828D1F2A02D9828D002A00D10421008935
:1010D0000005000F884201D30120704700207047AF
:1010E0000246928900200A4200D001207047828A7D
:1010F0000A438282704781847047828B0A438283CD
:101100007047000000C8FFBFFEFF0000FFFC0000AA
:10111000154801688907890F016000218160C1605D
:10112000016141617047104A1168890889000143D3
:10113000116070470C4A0029116801D0014300E09A
:101140008143116070478A0710B5120F0F23934037
:101150008C080549A40061188C689C438C608B68DE
:10116000904003438B6010BD000001403F4910B523
:10117000C84208D101218C032046FFF753FE00210D
:101180002046FFF74FFE10BD30B50446C06985B05C
:101190000D46CF218843A988EA8811432A89024352
:1011A0001143E161A0696A894109A8894901104395
:1011B0000843A0616846FFF7E6FD2C4840428442A0
:1011C00001D1039800E002980A22504300092968DF
:1011D00000F070F905460A2100F06CF9042900D9E5
:1011E0000A350A21284600F065F9206205B030BDB5
:1011F0004B21C9010160302181800021C180018122
:1012000018224281818170470029816902D0012220
:10121000114301E0164A114081617047002A0269BA
:1012200001D00A4300E08A4302617047002A8269C4
:1012300001D00A4300E08A4382617047C9B201606D
:1012400070474068C0B270470246926800200A4268
:1012500000D00120704770470246D26800200A4241
:1012600000D00120704741617047000000C8FEBFF8
:10127000FEFF00000C2101706548704770B50C46F8
:101280000A4605460146624800F02AF921462846EA
:1012900001F0BCFA70BD092070477CB50524069B9F
:1012A000E4020225A34201D1012A0BD0A34211D1AD
:1012B000072A0FD857A109680F22019101AB0095A9
:1012C00007210FE054A109680622019101AB0095A6
:1012D000012107E0A34208D1102A06D810214F4B64
:1012E0001922009100F0A8FF7CBD00F0FBFE7CBD40
:1012F00070B50D4604990446122A19D0132A17D046
:10130000152A12D0182A03D0294600F0EBFE70BD32
:10131000184600F01DF900024149000A0860204605
:1013200002F0D8FAFFF7CAF970BD1846FFF7A0F827
:10133000204602F0CFFA70BD70477047FEB50C46EC
:1013400005460C206946324B164608700F2C27D0F4
:1013500006DC042C10D0092C10D00B2C06D115E083
:10136000132C21D0182C25D0192C2FD022462946F9
:10137000304600F0B7FEFEBD00902AE001F098FA7A
:1013800000F0D2F8C7B201F093FA06E000F012FACA
:1013900000F0CAF8C7B200F00DFA0346009718E053
:1013A000072020A3009014E000200290022002AB4E
:1013B00000900EE01A486A46006801AB010C1171FA
:1013C000010A517190710320009002E0082017A3D8
:1013D000009022462946304600F006FFFEBD7047C9
:1013E0000020704770470FA070470948401E0078E2
:1013F000704710B5040009D00020FEF7D1FE044864
:10140000401E01788C4200D0047010BD0120F4E72A
:10141000310000200A18000000180000163A0008E9
:10142000140000205356332E312E3500426175646E
:1014300052617465000000000EB501204005401E99
:10144000FDD2FEF7B5FE00F0FBF90F49432001F095
:10145000A9FB0E480021016001680529FCD30A4858
:101460000068037842788178029301920091C378F2
:101470000279417906A000F015FAFF20413001F011
:10148000B3F9FEF73CFFFCE7400000201800002005
:101490000D0A4D41433A253032782D253032782DD2
:1014A000253032782D253032782D253032782D2593
:1014B0003032780030B50B4601460020202201244E
:1014C00009E00D46D5409D4205D31D469540491B78
:1014D0002546954040191546521E002DF1DC30BDC1
:1014E00003460B439B0703D009E008C9121F08C03D
:1014F000042AFAD203E00B780370401C491C521EE8
:10150000F9D27047D2B201E00270401C491EFBD2F2
:1015100070470022F6E710B513460A4604461946FE
:10152000FFF7F0FF204610BD421C0178401C002947
:10153000FBD1801A704730B504460020034600E016
:101540005B1C934203D2E05CCD5C401BF8D030BD05
:101550000321001D401E037812021A43491EF9D5CB
:1015600010467047F0B51FB40646002082B005460D
:101570004024019100901BE0019922460F4630461D
:1015800000F042F8049A059B801A994110D3104646
:101590001946224600F028F8361A8F410197224654
:1015A00001200021009F00F01FF838184D410090E5
:1015B0002046641E0028DFDC019B00982946324645
:1015C00007B0F0BD064C0125064E05E0E36807CCE8
:1015D0002B430C3C98471034B442F7D3FEF76EFD12
:1015E000943A0008B43A000810B5202A04DB0146FA
:1015F000203A9140002010BD914020239C1A0346C0
:10160000E3401943904010BD10B5202A04DB084682
:10161000203AD040002110BD0B46D340D0402024BA
:10162000A21A91400843194610BD70B58C18057870
:10163000401C6B075B0F01D10378401C2A1106D1B7
:101640000278401C03E006780E70401C491C5B1EAB
:10165000F9D12B0705D40023521E0DD40B70491C61
:10166000FAE70378401CCB1A921C03E01D780D703A
:10167000491C5B1C521EF9D5A142D8D3002070BD75
:1016800010B5FFF711F9074A5169884208D2081AC4
:101690000549884204D89189884201D9012010BDAA
:1016A000002010BD58000020FFFFFF7F10B50A4C3E
:1016B000607900280CD0FFF7F7F8616A884208D3F8
:1016C000401A01218902884203D200206071012062
:1016D00010BD002010BD0000E000002070B5114CCE
:1016E0000025216A4A78002A07D04989A2899142B7
:1016F00003D100F067FC206A4570E1694879002851
:101700000ED0C888A28990420AD10648E6790522FF
:101710003030FFF7E5FE01F0A9FEE0694571E671A2
:1017200070BD00004C01002010B50349CA6A096B66
:101730005043FFF7BFFE10BDE000002010B5044687
:1017400008480849806A096B002804DB6043FFF7FA
:10175000B1FE001910BD40426043FFF7ABFE201AF6
:1017600010BD0000E000002013B56A461278132077
:101770000240094802706A4654784470002C03D035
:101780002246801CFFF7ACFE0349A41C0846E2B2C7
:10179000083801F023F91CBDBC0000200148807806
:1017A00070470000E00000200148C0797047000049
:1017B000E00000200748084900780209303200079D
:1017C000000F8A70092801D8303000E03730C87027
:1017D00001487047950000204A00002010B5074CD2
:1017E0002079002808D0FFF75FF8A169884203D369
:1017F00000202071012010BD002010BD58000020E5
:101800001FB502246B461C730A21597306211970F7
:101810000021597005229A70D97001221A715A71EB
:101820009C71D9711872000A587219460398FFF713
:101830009BFF1FBD0149487070470000A0000020B9
:1018400001490120887070475800002002494A6908
:1018500010184861704700005800002070B5044619
:10186000034D01202871FFF71FF80019A86170BD12
:101870005800002010B5FEF76FFDFFF715F803497B
:101880001E3048620120487110BD0000E0000020B9
:101890000521C00109024018014948607047000055
:1018A000280100200FB410B503A9044B044A029884
:1018B00000F024F810BC08BC04B0184795030008D9
:1018C0008801002030B47446641E2578641CAB4245
:1018D00000D21D46635D5B00E31830BC184702E090
:1018E00008C8121F08C1002AFAD1704770470020AB
:1018F00001E001C1121F002AFBD17047FFB591B072
:101900000F460546002606E025280AD0149A1399AA
:1019100090476D1C761C28780028F5D1304615B00C
:10192000F0BD002400940121F34A029400E0044336
:101930006D1C2B780846203B98401042F7D1287840
:101940002A280ED0022128780246303A092A15D8D2
:10195000009A0A235A43303A80180C436D1C0090B9
:10196000F1E701CF0090002805DA0120400304438D
:10197000009840420090022004436D1C28782E28D5
:1019800015D10420044368786D1C2A280AD101CFA0
:101990006D1C02900BE002990A2251433039401825
:1019A0006D1C02902878014630390929F3D928782E
:1019B0006C2810D006DC4C281AD068280ED06A2873
:1019C00017D104E0742813D07A2812D110E0012036
:1019D000400504430CE00121090501E0032109054C
:1019E0000C436978814203D10120000524186D1C45
:1019F0006D1C287803906E281ED00CDC632831D033
:101A000004DC00288AD0582811D1B2E064287BD0A9
:101A100069280CD178E073282DD004DC6F2870D0B1
:101A2000702804D1A7E075286CD078286BD0149A60
:101A300013999047761C62E06002400F022807D09D
:101A400003280AD0042838680AD006603F1D56E0F3
:101A50003868F11706604160F8E738680680F5E7F6
:101A60000670F3E73878694608740020487404A8C3
:101A70000390012003E0386803900020C0433F1D1D
:101A800061070FD5002101E00199491C029A0191DB
:101A9000914213DA8142F7DB019A0399895C0029AC
:101AA000F2D10BE0002101E00199491C0191814232
:101AB000FADB019A0399895C0029F5D10199009814
:101AC000139A401A00902146149B00F03BF90199AB
:101AD0008019461807E0039803990078491C039180
:101AE000149A139990470198401E0190401CF2D11E
:101AF0002146149B139A009800F014F986196D1C66
:101B000009E741E033E034E00A2000210490059128
:101B10006002410F022905D001CFC2179446032964
:101B200005D007E0FF1DFF08FF0003CF06E000B26D
:101B3000C2179446042902D140B2C1178C46002234
:101B40006146944506DA0A460021404291418C469E
:101B50002D2102E0210504D52B216A4611760121B1
:101B600003E0E10701D02021F7E7019154E00A20CA
:101B70000BE0102009E01020049000210420044311
:101B800008200591029003E00820002105910490AF
:101B90006002410F022905D001CF0022944603299B
:101BA00006D006E0FF1DFF08FF0003CF8C4603E0D0
:101BB00080B2042900D1C0B20021019121072BD5A8
:101BC0000399702906D0049A1021059B4A401A43B4
:101BD00005D00EE040216A461176012108E06146F9
:101BE000014306D030216A461176039951760221CD
:101BF0000191049A0821059B4A401A430CD1614681
:101C0000014301D1610707D530216A4611760121D0
:101C100001910299491E02910399582904D037A1D4
:101C200003910FA90F910DE039A1F9E76146059BDA
:101C3000049AFFF797FC039B8C469B5C0F9A521EFD
:101C40000F92137061460143F0D10F9807A9081A4B
:101C500020300390600704D50120000484430298DB
:101C600001E0012002900399884201DD401A00E062
:101C7000002041180290019809180098401A00901D
:101C8000E00306D42146149B139A009800F05AF8FA
:101C900086190020049008E006A9085C149A13999C
:101CA00090470498401C761C049001998842F3DB0D
:101CB000E0030CD52146149B139A009800F042F8DB
:101CC000861904E0149A302013999047761C0299E3
:101CD000481E02900029F5DC08E00F980F99007863
:101CE000491C0F91149A13999047761C0399481E2A
:101CF00003900029F1DCFBE6092801003031323382
:101D00003435363738396162636465660000000037
:101D10003031323334353637383941424344454621
:101D200000000000F8B5044600251E46174688044A
:101D300004D405E039462020B0476D1C641EF9D557
:101D40002846F8BDFFB50446002581B01E46C803ED
:101D500001D5302700E02027880404D505E0384667
:101D60000399B0476D1C641EF9D5284605B0F0BD37
:101D7000090710B5090FC00705D0032902D10220B9
:101D800001F02EF810BD05480079002802D0FFF7B9
:101D900071FD10BD01F090F810BD0000E0000020C2
:101DA000F8B50746204C0020207108781646000739
:101DB000000F0D46032802D0052822D117E081200C
:101DC00000013818A06101F032F817486946C0894F
:101DD0000880009800F0D0FF6178A06B00F0D8FF79
:101DE00060780121C001C9024018606111E0002E35
:101DF00007D0284606220D490830FFF79CFB002833
:101E000002D001F059F804E032462946384600F085
:101E10007DFB532000F05CFD0549042000F081FDAE
:101E2000562000F055FDF8BDE00000208F00002096
:101E30004F01002070B5334C0546E079002823D0CF
:101E4000A078401CA070A079002801D02820A070A4
:101E500020790026002808D0206A091AE069281A8B
:101E600000F010FBE67026716681FF20193000F04B
:101E7000EBFFA078272815D800F091FF0020FFF78E
:101E8000E5FC01F026F870BD512000F021FD78211D
:101E9000202000F072FD562000F01AFD6420FFF7AC
:101EA000D5FC70BD2520A0702069FFF747FC4519BF
:101EB00020698009FFF7CAFC284600F0EEFFA078F1
:101EC00000F06DFF512000F003FD7821002000F0AC
:101ED00054FD7A21002000F050FD562000F0F8FC5F
:101EE00005212069C901884208D9207A401CC0B266
:101EF0002072172802D3267200F087FD6089401CEB
:101F0000608170BDE000002010B50949252088706F
:101F100000F045FFFF20193000F096FF002000F090
:101F200054FF00F0D6FF002001F07AFA10BD000047
:101F3000E000002010B50C480078000702D000F047
:101F4000BBFF10BD782000F07FFF012000F048FFAC
:101F500005480C3881694069081891210901401829
:101F600000F065FF10BD0000EC00002070B50646D3
:101F70000D46022000F034FF2320C001104C281829
:101F8000A06100F054FFE06800F0F6FE2178606B7D
:101F900000F0FEFE20780121C001C90240186061F6
:101FA000A07825280AD1E66125626089112802D22D
:101FB000E078002802D00120E070207170BD0000A0
:101FC000E000002070B50E4C0546206A0178617271
:101FD0004088E08150214843FFF7B0FB401900F0F2
:101FE0005CFF206A81882182C18861820089A08289
:101FF000607A04494843401800F026FF70BD000095
:102000004C010020E204000070B5044600781C4D2D
:102010004006C00F687128460622A11C3530FFF724
:102020005FFA0E342846042221462C30FFF758FA76
:1020300028460322211D1630FFF752FAE079687214
:10204000617A207A09024018E881E17AA07A0902CF
:1020500040182882617B207B090240186882E17B5E
:10206000A07B09024018A88221462846052210318B
:102070003030FFF735FA607DC006C00EA87270BD23
:102080004C0100207FB50AA470CC80070194800F1A
:10209000039602956C462070092060706172A272EE
:1020A000100AE072237301A9009800F020F87FBDA8
:1020B0000500040001000000000000000EB507A1AB
:1020C00006C980070091800F0192694608720720B7
:1020D0004872029800F00BF80EBD000003000400E7
:1020E0000317000010B50A23FFF7CCFF10BD10B591
:1020F000FFF73AFB10BDFFB587B01E466F46109B39
:10210000119A054638710920787105200C463872FD
:10211000002179720420B872F972601C38730120B2
:102120007873B973F8730520C0023974834213D1F0
:1021300005A8009006AB31460998FFF751F9002831
:102140000AD06946088B4873888AC87302A9019827
:10215000FFF7CDFF0BB0F0BD21462846099AFFF7E7
:10216000C1FFF7E7FFB587B0079817468007800FD4
:102170006A4610700A2050700020507106211171BB
:10218000D0710421917105211172012151721E46F5
:10219000D0720446134D1AE020460A2148434119E3
:1021A0004988B94211D3B1420FD80A214C43611971
:1021B00089786A469172285A1073000A507301A9EF
:1021C0000098FFF794FF0BB0F0BD641CE4B2FFF77A
:1021D00062F8A042E0D83A4608990798FFF782FFD4
:1021E000F1E70000BC390008F0B589B00E4607469B
:1021F0001D461C2101A80E9CFFF78BF9B807800F24
:1022000069460870601D4870601C0871000A4871BA
:10221000042088710020C871761C0E7201A904E0A8
:102220002A5C0B18401C5A71C0B2A042F8D3009827
:10223000FFF75DFF09B0F0BDF0B589B0844600241A
:1022400068460E9D0471447104268671C47111267E
:1022500006722E1D46728172C472027344730A2084
:1022600001AF002105E05A5C3A54401C491CC0B241
:10227000C9B2A942F7D3011F6A46117161468907A5
:10228000890F1170507039460098FFF730FF09B080
:10229000F0BD0000FFB589B0099815218507129E91
:1022A0004902AD0F1F468E4221D16846FEF7E2FF7C
:1022B000014668460571002343710078801CC2B254
:1022C000122A00D91222941C6D462C72200A6872C0
:1022D0000426AE72EB72092028736A73AE73EB7337
:1022E00004A8921EFFF7FCF8241D6C713FE06148C2
:1022F00086423ED10B9807283BD15F4800780028E2
:1023000037D06B461D7117211972002159720421B3
:1023100099720021D9720921072019735873082076
:1023200098730020D873022018745974002199748E
:102330002921D9742A2119750A225A7500249C75FD
:10234000D8750B251D7600255D7626259D760E22F7
:10235000D9761A7700225A7798770F24DC7708AB62
:102360001A702820587099701B206B46587102A96A
:102370006FE0FF2F00D9FF27002471E020460A21DB
:1023800048433E490A5AB24268D1411848880B9ADC
:10239000904263D3B84261D8364A521E964223D146
:1023A0000A226E463272002373720422B272F372F2
:1023B00009223273082272730A2254432F4AA21848
:1023C0009278B273000AF073002002AA0B18141856
:1023D000401C1B79C0B223720528F7D3487A707568
:1023E00035710E20707133E009266F463E7200236E
:1023F0007B720422BA72FB723E7307227A730A223E
:1024000054431E4AA2189278BA73000AF873184609
:1024100002AA0B181418401C1B79C0B2237205289D
:10242000F7D33D710D207871497AFF2910D0144BF4
:1024300000200901C9180B5C1418401CC0B2E372DB
:102440001028F8D31B207871172038721520787364
:1024500011460198FFF74BFE0DB0F0BD641CE4B2CD
:10246000FEF719FFA04289D809AB07CBFFF73AFE68
:10247000F2E700000328000044000020BC390008F7
:10248000163A00084B22D200084B821A9A420CD20C
:102490007D22D200064B8A1A9A4206D2FA22424381
:1024A000531A044A93621163D0627047A81D00005A
:1024B00019661800E000002010B5FDF74CFF00F091
:1024C000FBFC10BD7FB52821484307490A9D099CA4
:1024D0006E460861B08888814A630B700846328C6A
:1024E000C2818C634D707FBDE0000020034902482B
:1024F00008604068004700005C3A00081C010020AA
:1025000001480078704700002801002070B5084697
:102510001A4B194919601146FFF776FD184C1949F5
:10252000208A801F884208D2A08A091F0A38884260
:1025300003D2A07A401F0C2802D300F0BDFC70BD6E
:10254000012000F021F80E490122083108781043DB
:10255000F12210400870208A4100A08A814200D2F6
:1025600088B20A214843FFF779F90025A57000F0E9
:10257000A3FC657070BD0000783A00081C010020C3
:102580004C0100207B0C00000149087070470000DE
:102590002801002010B50848807800280AD0074894
:1025A00000680078002805D1FFF780F8002801D0E6
:1025B000FFF782FF10BD0000580000201C01002022
:1025C0007CB57B4CA17803290BD001297ED0022950
:1025D00001D10321A170208101F090F9A078002899
:1025E00074D10020E070734E734D0BE0E078022848
:1025F00008D1FFF745F8002804D0A078002801D1C1
:10260000FDF755FE3068007800280ED1A07800282C
:1026100005D1FFF74BF8002801D0FFF74DFFFFF77A
:10262000C3F8002801D1FDF75FFFFEF728F9002865
:102630007ED05F48C01C00F085FBE07800F0DFF939
:10264000E078C10710D0694601A800F027FA5B487E
:10265000009901605A4A0198106032689268904768
:10266000FEF722F9606193E0810715D5694601A85C
:1026700000F014FA00F020FC30680099826901989B
:102680009047FFF78BF8252803D0306800780128A1
:102690007ED1FDF729FF7BE0C10603D53068406994
:1026A000804775E001062DD5306843490078002841
:1026B00015D0012000F00EFA697828780902401838
:1026C00081B23068C2680120904700E06EE0E07897
:1026D000410610D5694601A800F0E0F927E0002086
:1026E00000F0F8F9697828780902401881B230685A
:1026F000C268012027E080064AD5694601A800F09B
:10270000CDF936E0410618D5694601A800F0C6F9B2
:102710003068007800280AD128780007000F0528C3
:1027200005D1234A2449521D002000F0E7F900E0BA
:1027300036E030686A78036924E0410705D53068DF
:102740000021C2680846904722E0010703D5002017
:10275000FFF71AFF1AE0810616D5694601A800F0B6
:102760009DF93068017800290AD01349012000F052
:10277000B1F930686A78036900210098984707E04A
:10278000036900220C49F8E7002801D000F094FB0F
:10279000A078002800D129E7E078802806D125E735
:1027A000A0780028F7D0E0780028F4D17CBD0000A4
:1027B000580000201C0100205A03002020010020A6
:1027C0002401002010B5074CE078022806D1FEF75E
:1027D00057FF002802D0A078032801D0002010BDA8
:1027E000012010BD5800002070B50546FEF75CF8CA
:1027F000C41CFEF759F8A042FBD30349022088709D
:102800002846FFF7DDFE70BD5800002030B51829BE
:1028100000D918210A4B4A1C1A70002204E0845C7B
:102820009D18521CAC70D2B28A42F8D3002003E04B
:102830005A18491C9070C9B21929F9D330BD00004B
:102840007400002070B50D46124A01461078002829
:1028500009D0401E1070002656705068092806D016
:10286000401C506005E001205070002070BD3046D3
:1028700056600C22084B4243D41842018018074A84
:1028800080182A462060FEF72BFE25712046A660A0
:1028900070BD000098000020D004002084030020B8
:1028A00010B500F0ECFA0020FEF7F2FF10BD0000BA
:1028B00000A070474D475F424C455F4C49425F5610
:1028C000332E300001480078704700009800002047
:1028D00010B50446FDF7C5FF01215020FDF7B6FFF6
:1028E00001212046FDF7B2FFFDF7C2FF10BDF8B58C
:1028F00015460E460446FDF7B4FF01212046FDF7BC
:10290000A5FF0746002406E00021FF20FDF79EFFFB
:102910003055641CE4B2AC42F6D3FDF7A9FF38464B
:10292000F8BD70B50C460546FDF79BFF0121284612
:10293000FDF78CFF0021FF20FDF788FF2070FDF7D9
:1029400097FF70BDF8B516460D460446FDF789FFA2
:10295000202020430121FDF779FF002407E028789B
:1029600001216D1CFDF772FF641C0746E4B2B442FE
:10297000F5D3FDF77DFF3846F8BD70B50D4604462A
:10298000FDF76FFF202020430121FDF75FFF0121AC
:102990002846FDF75BFFFDF76BFF70BD016800295E
:1029A00002D14068002801D0002070470120704704
:1029B00000210160416002490A2008707047000050
:1029C000980000200268136812790A70016889680B
:1029D0000160002900D141601846704710B50B46D0
:1029E000044611461846FFF72DFF002806D06168FF
:1029F000002901D0886000E02060606010BD10B543
:102A000001460E20FFF7B9FF10BD1CB55320FFF79C
:102A10005FFF03211F20FFF7B0FF01A91F20FFF771
:102A200080FF684600790028F7D103211F20FFF7B7
:102A3000A4FF01A91F20FFF774FF68460079002852
:102A4000F7D101211520FFF798FFA0211220FFF7F1
:102A500094FF04210A20FFF790FF00210A20FFF7CE
:102A60008CFF88211220FFF788FF012469460C7033
:102A70002120487002221320FFF764FF69460C7082
:102A80002020487002221320FFF75CFF0021152050
:102A9000FFF773FF5620FFF71BFF1CBD7CB50D46EB
:102AA0000446062269461020FFF721FF694648794F
:102AB0000B7902041802C978101840186946206082
:102AC0008878497800040902401869460978401856
:102AD00028607CBD1CB50C4600280BD0022269463C
:102AE0000620FFF704FF68460078207068464078AB
:102AF00060701CBD022269460420F2E77CB51546D1
:102B00000C46002809D06278901C2870002A03D057
:102B1000A11C6120FFF7EBFE7CBD02226946042068
:102B2000FFF7E5FE68464078801C2870684600780C
:102B30002070684640786070684600782546010736
:102B4000090F6846407808350B00FEF7BBFE070604
:102B5000090614051A060500DEE70622A11C08E096
:102B60000C28D9D10622A11C0A20FFF7C0FE06229C
:102B700029460B20CEE70C28CED1062229460A2072
:102B8000C8E72228C8D10622A11C0B20FFF7AFFE00
:102B9000062229460A20FFF7AAFE162221460E31F8
:102BA000B7E70000FEB50546002668460671634C8F
:102BB00051200C60FFF78CFE01A91F20FFF7B1FE2A
:102BC000684601798029F7D15D491E20FFF7A9FEEB
:102BD00078210020FFF7D1FE06210846FFF7CDFE41
:102BE0007A210020FFF7C9FE5320FFF771FE8821EC
:102BF0001720FFF7C2FE88211820FFF7BEFE8821AC
:102C00001920FFF7BAFE00211520FFF7B6FE0221BA
:102C10000120FFF7B2FE1E211D20FFF7AEFE284661
:102C200000F0FAF800A908200131FFF77AFE6846A3
:102C300040781227002808D168464770404800783D
:102C40001B2802D2152069464870C02168460170D1
:102C50002D218170032269460420FFF773FE802531
:102C6000684605704670022269460C20FFF76AFE2E
:102C70001C2168460170457031480078192802D13E
:102C8000CC2069460870022269461420FFF75AFEDC
:102C90001020694608700220487002460A20FFF79B
:102CA00051FE02206946087002464F700D20FFF762
:102CB00049FE0120694608700720487002220E2054
:102CC000FFF740FE3820694608700F2048708E706C
:102CD00003220220FFF736FE71210920FFF74DFE87
:102CE00069460D707020487002220B20FFF72AFE03
:102CF000032269460B20FFF7FAFD40206946C870A1
:102D000004220B20FFF71EFE5620FFF7E1FDFF21F6
:102D10000E20FFF732FE062208490820FFF7E7FDE4
:102D200060796D2806D1ED206071062203490820E4
:102D3000FFF708FE00F0C0F8FEBD00008F00002085
:102D40009500002038B5044669460E20FFF7E9FDDE
:102D500068460178217038BD1CB501786A4611704B
:102D60004178517081789170C078D07004226946A2
:102D70000C20FFF7E7FD1CBD01B582B06946087A5B
:102D80000870487A487002220320FFF7DBFD0EBD71
:102D90000A4610B50146A020FFF7D4FD10BD10B5BE
:102DA000282803D201460120FFF7E7FD10BD1CB51E
:102DB00001786A46117041785170807890700322D2
:102DC00069460D20FFF7BEFD1CBD1CB5FF216A46FC
:102DD00011705070022269460E20FFF7B3FD1CBD32
:102DE00010B504280BD001280BD002280ED00328E0
:102DF0000ED005280ED0062807D1042102E00221BA
:102E000000E009210220FFF7B8FD10BD0C21F9E711
:102E10000121F7E70321F5E708B502216A461170A1
:102E200050700A4669460F20FFF78CFD08BD1CB59F
:102E30006A461070010A5170000C907003226946B6
:102E40000720FFF77FFD1CBD1CB56A461070010A04
:102E50005170002191700549884201D9012090707C
:102E6000032269461120FFF76DFD1CBDFFFF000026
:102E70000A4610B50146A020FFF764FD10BD01B55C
:102E800082B06946087A0222C006C00E0870487AED
:102E900048700520FFF756FD0EBD1CB500216A469F
:102EA00011705070010A9170000CD07004226946B4
:102EB0000F20FFF747FD1CBD1CB5022069460870B6
:102EC000FF2048708870C87004220F20FFF73AFD79
:102ED0001CBD10B501210F20FFF74FFD10BD0000F4
:102EE00038B5054600230C4610460093FFF756FD03
:102EF000002802D02B70237038BD69461046FFF7BA
:102F000061FD0146684602782846FEF7E9FA684600
:102F10000078207002480178491C017038BD00001B
:102F20009800002010B505480349816000214170D8
:102F30001430FFF73DFD10BD583A0008A0000020F6
:102F40007047000000B587B0182207A16846FEF759
:102F5000C7FA0B48032101701821417000686946C7
:102F6000FEF702FC07B000BD101000280001002C85
:102F7000011820000300FFFFFFFFFFFFFFFFFFFF1F
:102F8000380100201CB500228C070C490092A40FC8
:102F900001920C7006244C7002236C462370627000
:102FA0000279A2704079E0700D2020711A206071C2
:102FB00008686946FEF7D8FB1CBD000038010020F8
:102FC0000EB507A007C86B4607C308480321017068
:102FD0000921417000686946FEF7C6FB0EBD00007E
:102FE000090000000000000000000000380100207F
:102FF0001CB500228C070C490092A40F01920C70A2
:1030000006244C7002236C46237062700279A27011
:103010004079E070052020713720607108686946AA
:10302000FEF7A2FB1CBD00003801002010B5890787
:103030000548890F0170002141700068FFF730FCDE
:103040000020FFF7A1FA10BD3801002008B507A144
:1030500009680091064903220A7002224A706A46F2
:10306000507008686946FEF77FFB08BD0700000046
:10307000380100201CB507A005C800908907074843
:10308000890F019201700621417000686946FEF7C0
:103090006BFB1CBD0C079C051720000038010020AD
:1030A000FEB5164C01A92246083A2046FFF718FF44
:1030B0006846007901262546002804D12E706870E4
:1030C00002206946087121780C4F132001401C3FF3
:1030D00078780423C24352081A4040071143C00FB6
:1030E000C00001436A46117060785070A11C0098BE
:1030F00000F00DFC2E7000207870FEBDBC0000209A
:10310000FEB50D46002102911D2D00D91D25014659
:103110002A469B48FEF7E4F99A48994C05702078B6
:10312000984A8107890F9070012914D0032917D07C
:1031300002290FD1637921791B02A579C9180629C3
:103140004BD0042950D0052904D1132D02D00020E2
:10315000FEF756FBFEBD022DFCD3FEF743F9FEBD84
:10316000A1780B00FEF7AEFB120B0F1E2335353591
:103170000A283535352D0A35320A0A35EFE7E01CC5
:1031800000F002F9FEBD01467D48FFF7D9FE617AE5
:10319000207A090240186946088102A9E01C00F063
:1031A00025F9FEBD01467648FFF740FFFEBD01460A
:1031B0007348FFF7E7FEFEBD01467148FFF700FFC9
:1031C000FEBD01466E48FFF755FFFEBDFFF7BAFE94
:1031D000FEBD0846FFF73AFFFEBD012DFCD10146BA
:1031E0006748FFF705FFFEBD66490C31102D72D010
:1031F0000ADCAE1E3300FEF765FB0B1D15221536EB
:1032000015541589159415005D4B0933182D7BD085
:1032100004DC122D79D0162D04D192E01E2DE2D0BF
:10322000522D72D06906DED4062300222946FEF70D
:1032300029FFFEBD00222946FEF740FFFEBD237A8E
:10324000E2791B02D21892B20A80637AA47A24022D
:103250001B199BB24B809A4201D90123E6E729460C
:10326000FEF780FFFEBD237AE2791B02D21892B2EC
:103270000A80A67A637A36029B199BB24B809A42E7
:10328000EBD8267BE17A36028919667BA47B89B26A
:1032900024023419A4B2009101942946FEF72BFFB1
:1032A000FEBD237AE2791B02D21892B20A80A67A76
:1032B000637A36029B199BB24B80E67A247B240208
:1032C0003419A4B28C809A42C7D829460094FEF7DC
:1032D000E1FFFEBDFFE7237AE2791B02D21892B22A
:1032E0000A80A67A637A36029B199BB24B80E67AF3
:1032F000247B24023419A4B28C809A42ADD829468A
:103300000094FDF7CAFFE4E724E027E0237AE1799F
:103310001B02C91889B2918002462846FEF70EF8B2
:10332000D7E7237AE1791B02C91889B29180A37A81
:10333000627A1B02D21893B202462846FEF74FF873
:10334000C7E7217AE0790902401890800C4800F024
:103350009EFABEE70A4800F05DFABAE7E178A6787F
:103360000902C91E7118CEB2E179247A2402091922
:1033700089B291800A4629460096FDF7B9FFA8E771
:1033800048050020A000002030B5164B0122196A24
:103390004A7002780A7084784278240212194A80AE
:1033A0000479C2782402121992B28A80857944790C
:1033B0002D026419CC80057AC4792D0264190C8120
:1033C000447A807A0002201880B200244881062ABC
:1033D00000D24C709A89801A034A904200DB4C70EC
:1033E00030BD00004C010020FF7F000010B50A4CEA
:1033F0000346E0690988C18005221946FEF770F886
:10340000E06901214171C188A289891A034A914268
:1034100001DB0021417110BD4C010020FF7F000045
:1034200010B5FEF71BFA10BDF8B50C46074600268E
:1034300014E0142C01D9142500E02546FFF742FAC8
:1034400003280FD3084800950288BB191B210220CE
:1034500000F0F1F97019C6B2601BC4B2002C01D0A3
:10346000002FE6D13046F8BD3E000020F0B50C4BF1
:1034700000201C46D87130340A4AD8720125C10890
:103480004607615C760F2F46B740394203D0D97AA0
:103490005054491CD972401CC0B22528EFD3F0BD4E
:1034A0004C0100207E05002010B5C00706D104485D
:1034B000FD22017811400170FFF7FEFC10BD0000F5
:1034C00054010020F8B5344F06460C46B88A0A214C
:1034D00015464843FEF7C2F93946083108780222FA
:1034E0001043F32210400870FCF737FF002C03D084
:1034F0006078002819D01EE04120400105213018D5
:10350000C9014018B862FFF792FC1B2D00D91B259A
:10351000E8010521301A0902401A78621E48082184
:10352000083002780A43027032E01B480422083057
:10353000017811430170812000013018B862FFF753
:1035400076FCE8010121301A8902401A786220785D
:10355000FEF770F922780821B8780A40824217D124
:1035600001223A704840B8700C48006800688047F3
:10357000FCF7F4FE002078705320FFF7A9F9064904
:103580000420C91CFFF7CDF95620FFF7A1F9F8BDBB
:10359000FCF7E4FEF8BD00004C010020A80000206C
:1035A000F8B50C460646FEF7ABFF00282BD0794F46
:1035B000794D3878C1072CD0E8895021484328300C
:1035C000FEF7BCF88019FFF768FCFFF74FFFE869CA
:1035D00000244471286A4470AC8128462C7016304F
:1035E000FFF7E5FB28462C30FFF7B6FBFFF79AFC08
:1035F000EC71687A694948434018FFF725FC0120BF
:10360000FDF7F7FE6EE00020FEF720F900F076F9F6
:10361000F8BD80072BD5686A0121201A09064018D9
:103620000002000AFEF780F8341A3878400715D5F2
:10363000698A002912D0288A41430818502148433A
:103640007838FEF77BF80419A989688A0918A981D6
:10365000A97A4143E8790818E87106E0288A5021E0
:1036600048437838FEF76AF804194D482BE0288A59
:10367000082801D2012129714A490C6869780B296F
:1036800004D250225043C900401A04E05022504353
:103690004900401A1430FEF751F80419288A2D28E1
:1036A00001D941480FE0082806D240494843032188
:1036B000FDF700FF3E4905E0384948430321FDF787
:1036C000F9FE36494018FFF7BFFB0A36B44200D274
:1036D00034462046FFF7E1FBA889401CA88120461C
:1036E000FDF7FCFF5120FFF7F3F878210020FFF7EA
:1036F00044F97A210020FFF740F95620FFF7E8F857
:10370000E879A97A4018C0B22521FDF7D3FE214BF4
:10371000E971CA0828339A5C4B0708465B0F012100
:1037200099400A4204D1E97AFDF7C4FE2148405C81
:10373000A871C0B2FFF733FB2878002812D01D49CA
:1037400001202531FFF7C6F91A496A4625310120C3
:10375000FFF7D4F96846017816482530FFF7D0FC0A
:10376000002028703878C10704D040084000387025
:1037700000200BE02879002805D00020FEF766F82D
:1037800000202871F8BD288A81080818FEF75EF825
:10379000F8BD0000540100204C010020E2040000AC
:1037A000A60E000024010020204E0000C4090000E5
:1037B000710200007E05002010B506480078000761
:1037C00004D500210846FFF76FFE10BDFFF774FB1C
:1037D00010BD00005401002070B50D46FDF7FEFF3E
:1037E000002803D10A4C60781E2805D90020FEF776
:1037F000CBFEFFF761FB70BD0420FFF7F1FAC32099
:1038000040012818FFF713FB6078401C607070BD02
:103810004C01002008B502216A4611700521517043
:103820000121817019218171811C0098FEF75FFCD4
:10383000FDF783FD08BDFFB58BB0149C1D461746F0
:10384000E61C242101A8FDF764FE0B981321084013
:1038500069460870E01D48700E71300A48710420F6
:1038600088710020C8710C9808724F72380A8872EB
:10387000002001A904E02A5C0B18401CDA71C0B2D8
:10388000A042F8D30098FEF732FC0FB0F0BDF8B5B7
:103890000446827AC178007AE57900020543A0786F
:1038A00009020843401F87B2667A100206430220CD
:1038B00069460870607848701720A071A11C0098B4
:1038C000FEF715FC214633463A460B312846FDF7F4
:1038D00033FDF8BD0EB507A106C980070091800F22
:1038E000019269460872052048720298FEF7FFFBB4
:1038F0000EBD0000010004001300000010B500F030
:1039000015F80020FDF775FDFEF7F0FD10BD73B54D
:103910000D460098FFF7B3FA6846447828462146DA
:10392000FFF7A6FA2046FDF7B3FF7CBD30B585B0A2
:1039300003A8FDF79FFC6946097B182902D91821C5
:103940006A46117369460A7B1A4B511C1970002193
:1039500004E0445C5D18491CAC70C9B29142F8D3D4
:10396000002003E09918521C8870D2B2192AF9D3AA
:103970001049104A0C461C3C25780E3A03231B20A4
:10398000002D01D00C4A2B466578002D02D00A4943
:1039900028461F310290074801911C38811C40893C
:1039A0006D4628808888288220890499FEF78AFD40
:1039B00005B030BD740000201C0300200328030064
:1039C000020400002AFF03280800020900292AFF38
:1039D00003280A00020B00262AFF03280E00020F0C
:1039E00000282AFF032811001012000000010229FC
:1039F00013000A0000000000032814000C1500004A
:103A00000002032817000A1800000003012919000A
:103A10000200000000009ECADC240EE5A9E093F33A
:103A2000A3B50100406E9ECADC240EE5A9E093F325
:103A3000A3B50300406E9ECADC240EE5A9E093F313
:103A4000A3B50200406E9ECADC240EE5A9E093F304
:103A5000A3B50400406E0000A13000080000000083
:103A6000091F00086D1F0008711D0008A11D000836
:103A7000351F0008351E000801000000000000008E
:103A8000D9370008A9340008C5340008B937000840
:103A9000A1350008B43A0008000000208C010000A5
:103AA0002A160008243B00088C0100203C08000076
:103AB000EE1800080214014AC21645020406082D39
:103AC00001020304041506070809100D4D53313790
:103AD0003933532D55415254621215640101791F37
:103AE000465620202E3302A236148009A0148421C9
:103AF00004C402010602220902230A0225FF3A2514
:103B0000C321021D102381311A58750B216FE89DC6
:103B100071136605142030010224201A44281A72F9
:043B200030011C0054
:04000005080000B53A
:00000001FF
