:020000040800F2
:10000000F00B0020C90000081D0C00081F0C0008A0
:1000100000000000000000000000000000000000E0
:10002000000000000000000000000000210C00089B
:100030000000000000000000230C00082B0C00084A
:10004000F5000008F5000008F5000008F5000008BC
:10005000F50000083B0C0008F5000008450C0008FE
:10006000F5000008F5000008F5000008F50000089C
:10007000F5000008F5000008F5000008F50000088C
:10008000F5000008F5000008F5000008F50000087C
:10009000F5000008F5000008F5000008F50000086C
:1000A000F5000008F5000008F5000008F30300085B
:1000B000F50000080348854601F070FC0048004741
:1000C00001180008F00B00200B4880F308880B484B
:1000D0000168090E0A4A914205D10A480A4901609D
:1000E0000A480B4901600B480047FEE7FEE7FEE7C0
:1000F000FEE7FEE7FEE70000F00B00200400000032
:100100001F00000018100240010000000000014024
:1001100000000000B50000088307FF22DB0E9A40B4
:100120008907090E994000280BDA0007000F0838EC
:10013000830891489B001818C36993430B43C3611C
:10014000704783088D489B001818036893430B433E
:10015000036070478A4900200A6801231A430A6035
:100160000A689207FCD50A6801231B059A430A60B6
:100170000A6804239A430A60DA014A60814B11221B
:100180001A604A68920892004A604A6802231A4339
:100190004A6002E048680007800F0228FAD17047E1
:1001A00001227949002801D04A6170470A617047ED
:1001B000F0B585B0FFF7CEFF754C74486061032140
:1001C000081FFFF7A9FF0026A6610727276108215E
:1001D000704800F05CFC012000036A461080022495
:1001E00094704820D0706946000600F0CBFD0125D0
:1001F0006A4615802820D07009206946C00600F0A4
:10020000C1FD092005220821C00600F035FE6A461E
:10021000158094701020D07069465B4800F0B2FDE4
:100220000121084600F0AAFF0121080700F0AFFFF6
:100230000C21002001F045F9E00201906A46167297
:100240000C205072957201A800F01FFD6A461773CA
:100250005473957303A800F047FE03210720FFF7AE
:100260005BFFE12149024C4800F044FB02211B20C6
:10027000FFF752FF092005220D21C00600F0FCFD0A
:10028000092005220E21C00600F0F6FD25036A466E
:10029000158094701020D07009206946C00600F0C7
:1002A00071FD60036A46108094702820D070092088
:1002B0006946C00600F066FD09202946C00600F028
:1002C000C8FD05B0F0BD10B53448007800281CD03A
:1002D00033490A6833490B689A4216D2324A096890
:1002E00012688A4211D22449012808690ED00422DA
:1002F0001043086130BF2248416802221143416027
:1003000009201103C00600F0A4FD10BDFB2210401F
:10031000086120BF10BD10B502F048FC00281DD0B8
:100320001E4A1078002819D01D490C681D490B6819
:100330009C4213D21C4B09681B688B420ED20E499B
:1003400001280CD002205070086904221043086173
:1003500030BF0920D102C00600F07BFD10BD012096
:1003600050700869FB221040086120BF10BD704723
:10037000704770477047704700ED00E000E400E010
:100380000010024000200240000400487FBB000033
:1003900000E000E00038004000380140000000208C
:1003A00014000020D00000201000002070B5FF4D88
:1003B000044681B2284601F0FFF80121284601F0E9
:1003C00009F90028F9D00121284601F00AF9204650
:1003D00070BD10B5F54C0221204601F0FBF8002855
:1003E000F9D00221204601F0FCF8204601F0E7F8A0
:1003F00010BDF8B5ED4D0221284601F0EBF8EC4EAA
:100400000027EC4C002814D00221284601F0E9F81E
:10041000284601F0D4F8E84AA188505430687D227B
:10042000D2008018491CE06088B2A080C82800D3A0
:10043000A7800121284601F0CDF8002823D0012112
:10044000284601F0CEF8DD480168DD4801F044FAA5
:1004500031684018206120786178884208D2D649F6
:10046000C839095C401C2070284601F0A5F804E05A
:1004700000220121284601F08FF820786178884217
:1004800001D367702770F8BDF0B5CA4C00226378BD
:100490005D18C82D0BD2C84EC83E04E0845C9F187E
:1004A000521CF455D2B28A42F8D3C2484570F0BD0E
:1004B00010B5082902D80821C2A006E00839C9B23F
:1004C000083001F099F80721C1A0FFF7DDFF10BD4A
:1004D00010B500230C2902D80821BAA014E00C2280
:1004E00006E00A246343845C303BE318521CD2B21A
:1004F0008A42F6D31920C001834200DD034698B238
:1005000002F0A0FB0721B2A0FFF7BEFF10BDF8B5B7
:1005100000260090082902D80821AAA022E008306D
:1005200005E00A225643303E8919CEB2401C0178BC
:100530002C29F6D1C41C00250CE0207800F085F9A8
:100540000701607800F081F90743009847556D1C5A
:10055000EDB2A41CB542F0D33146009803F022FE60
:1005600007219BA0FFF790FFF8BD10B50B2902D81B
:10057000082194A007E0C07A302807D0012002F0BB
:100580003BFB072192A0FFF77FFF10BD0020F6E79D
:1005900010B5062902D008218AA003E002F0DCF899
:1005A00007218BA0FFF770FF10BD092902D8082191
:1005B00084A009E0407A8849312806D0322806D044
:1005C00000200870072182A05EE70120F9E70220E1
:1005D000F7E710B40023082902D8082179A016E013
:1005E000082206E00A246343845C303BE318521C73
:1005F000D2B28A42F6D371480168994205D00360AD
:100600006C490120C87010BC7047072170A010BC55
:100610003AE710B507216EA0FFF736FF0B216FA058
:10062000FFF732FF082170A0FFF72EFF01F0A7F8B7
:10063000002802D002216FA001E002216EA0FFF786
:1006400023FF10BDF0B585B0002414226B49684625
:1006500001F058F907215EA0FFF716FF0B215FA0FC
:10066000FFF712FF534E6D4614360A2714206043DD
:100670008119E81C091D01F07DF9684601F066F951
:10068000C0B22F54401CC1B26846FFF7FDFE641C87
:10069000E4B2092CEAD305B0F0BDF8B5464F002608
:1006A0003D46C835434C25E0A178385C6854491C68
:1006B000C9B2A1703A2900D3A6703D4AE168126818
:1006C000914203D30A2801D00D280CD1A07801282B
:1006D00008D029182039CE77401EC1B23648C8301C
:1006E00000F0BEF8A670E088C821401C80B201F07E
:1006F000F3F8E180A188E0888142D5D1F8BD10B53A
:100700002C4CA088E188884210D001F038F80028ED
:100710000DD0A188E088284A81420AD9091AC9B2B5
:10072000101803F03FFDE1880818E08010BDA08894
:10073000FBE7C821091AC9B2101803F033FDE1889C
:10074000081880B2C82101F0C7F8E18010BDF8B5E3
:1007500000F0B3FB174C2089401C2081C007C00F5C
:10076000FFF71EFDFFF799FF1B4E144F3078104D19
:10077000022805D10920C00600F05CFB400411D41A
:10078000607800280ED0207800280BD10122114675
:10079000064800F001FF0A48396801F09DF8296811
:1007A00040182061307802283BD129E00038014010
:1007B000D00000200400002098030020CC0000207E
:1007C000204E0000494E443A4552520A00000000B3
:1007D000494E443A4F4B0A0000000020494E443A2B
:1007E000566572312E300A00494E443A434F4E3D11
:1007F00000000000310A0000300A0000084800082C
:10080000E068296888420CD2012109204903C0060A
:1008100000F01DFB3048396801F05EF82968401887
:10082000E060E07800280CD0401CC0B2E0700228E4
:1008300007D900F001F90020E07007212748FFF7F1
:1008400023FEF8BD704770477047392801D830380B
:1008500004E0462801D8373800E05738C0B2704766
:10086000F8B50C4606461EA100F020F8002818D066
:10087000E41EE7B200241B4DF61C1420604341190E
:100880003046091D00F012F8002806D01420444319
:100890002A59394630469047F8BD641CE4B2092C09
:1008A000EBD3082110A0FFF7EFFDF8BD70B50646A9
:1008B0000D460024084601F049F8C0B207E0295D62
:1008C000325D914201D0002070BD641CE4B28442CC
:1008D000F5D3012070BD0000204E0000D0070008B5
:1008E00041542B0018000020494E443A4552520A08
:1008F00000000000F0B50D4655490327002487B0DD
:10090000884254D10121880300F038FC1B2168463D
:10091000017447740126867404A800F0E5FA0022E9
:1009200006214C4800F0A8FA00220721494800F0AF
:10093000A3FA0095302168468180C48004818481B7
:100940001824434D44816946284600F0DBFD01220E
:100950000221284600F020FE00220121284600F056
:100960001BFE0121284600F00DFE402168468182D1
:1009700002218175C47505A9364800F003FA80216B
:10098000684681820421C17505A9324800F0FAF950
:1009900001220221284600F0FFFD1B216846017458
:1009A0004774867404A800F09FFA07B0F0BD2A4E81
:1009B000B042FAD10121480400F0E9FB09200122EC
:1009C0000021C00600F058FA012209201146C00695
:1009D00000F052FA092001220221C00600F04CFA70
:1009E000092001220321C00600F046FA1C206946B6
:1009F00008744F740120887404A800F075FA174930
:100A00000868020A1202802002430A603020694608
:100A100000958880CC800C818C81182048813046DC
:100A200000F070FD01220221304600F0B5FD0121E9
:100A3000304600F0A7FDB8E710B5054C0021204670
:100A400000F0A0FD064920460968FFF753FF10BDDE
:100A50000038014000040048004400401CE400E06D
:100A6000CC00002010B5082100F0B0FC10BD10B57E
:100A7000664900F0ABFC10BD10B5102100F0A6FCDB
:100A800010BD624910B5083900F0A0FC10BDF3B5E7
:100A900006465F480324042585B0864236D10121ED
:100AA000801400F06BFB0121600400F05EFB00226B
:100AB0000521584800F0E0F900220421554800F0D3
:100AC000DBF900220321534800F0D6F9AF01694653
:100AD0000F808C701020C8704E4800F053F93946D2
:100AE0004C4800F0B4F90820694608808C7018273B
:100AF000CF70484800F046F92020694608808C7085
:100B0000CF70444800F03EF9102039E04248864258
:100B10003DD10121001400F03AFB032001214004E3
:100B200000F023FB03220E213A4800F0A5F904222D
:100B30000D21384800F0A0F904220C21354800F0BE
:100B40009BF9F71369460F808C701020C8703148EC
:100B500000F018F939462F4800F079F93014694649
:100B600008808C701827CF702A4800F00BF9701499
:100B7000694608808C70CF70264800F003F9B014E5
:100B8000694608808C70CD70224800F0FBF86A46F8
:100B900095800020D0800821118150810121918110
:100BA000D08106991182508201A9304600F05BFB8A
:100BB0000121304600F08EFB3046FFF753FF3046F0
:100BC000FFF75AFF07B0F0BD134908600889C00756
:100BD000FCD008898007FCD54868C0B2704710B5C2
:100BE0000121C9030B4800F034F910BD10B50121F3
:100BF000C903084800F02BF910BD10B50920C00644
:100C000000F018F9C004C017401C10BDF7FF000029
:100C10000030014000040048003800407047FEE703
:100C20007047704711480068704710B50F48016859
:100C3000491C016001F098FD10BD10B5012000F0C5
:100C40007AF810BD10B50120000300F074F80848D0
:100C50000178022904D107494A6802231A434A60ED
:100C600000210170084601F097FD10BDD000002062
:100C70000100002000100240304800210160416066
:100C80008160C1602E494161704710B583792B495D
:100C90000268002B26D00B6893430B604A680368F8
:100CA0009A434A6002795218136804682343136018
:100CB0008A6803689A438A60CA6803689A43CA606C
:100CC0004279102A05D051180A68006802430A6068
:100CD00010BD8A6803681A438A60CA6800680243C4
:100CE000CA6010BD0079401801689143016010BDD1
:100CF0000021016001710C224271817170470F491E
:100D00000A6902430A6170470C4A01465269002091
:100D10000A4200D001207047084948617047074BDC
:100D20000246196800205B691140134202D0002975
:100D300000D001207047014948617047000401401C
:100D4000FFFF1F00172110B5C906401811D001215F
:100D50008902401A10D0401A11D0884208D10121CE
:100D60008402204600F001FA0021204600F0FDF93F
:100D700010BD01214C04F4E701218C04F1E70121AD
:100D8000CC04EEE7F0B5CC78002223071B0FE40675
:100D900001D58C7823430C782406240E1AD00468DD
:100DA00001250E8895402E40AE420FD197000F26A8
:100DB000BE40B4431E46BE403443CE78282E02D0F7
:100DC000482E02D002E0456100E00561521C082A6D
:100DD000E6D304600A88FF2A1CD94468002216461C
:100DE00008360125B5400E882E40AE420ED1970040
:100DF0000F26BE40B4431E46BE403443CE78282E54
:100E000000D14561CE78482E00D10561521C082AD8
:100E1000E5D34460F0BD0021C94301800221817007
:100E20000421C17070470246926800200A4200D037
:100E300001207047806880B270470246D268002067
:100E40000A4200D001207047C06880B2704701613B
:100E5000704741617047002A01D0016170474161CC
:100E60007047C1607047012212040A4382618161A8
:100E700082618169806970474B0710B5DB0E9A402B
:100E8000CC080F219940002C06D0436A8B43436263
:100E9000416A1143416210BD036A8B430362016AD8
:100EA0001143016210BD00000C49086070470B49F6
:100EB00048607047094988607047084908480860D9
:100EC00070470649074808607047044A0146D268DF
:100ED00000200A4200D0012070470000003000408E
:100EE000AAAA0000CCCC000030B582780124017899
:100EF000002A15D08B08184A9B009A181368890796
:100F0000C90EFF258D40AB434578AD072D0E8D40B2
:100F10001D4315600078C006C00E84400F4804E0F1
:100F2000C806C00E84400D488030046030BD704754
:100F30000B4A0029116901D0014300E0814311618E
:100F40007047042207490428086902D090430861C9
:100F500070471043FBE7000000E400E000E100E020
:100F600000ED00E000E000E0AC4801680122114320
:100F700001604168AA4A114041600168A94A1140D4
:100F800001600168012292049143016041687F225F
:100F900012049143416000218160704710B59F4960
:100FA0000B680122120493430B600B689400A34367
:100FB0000B60801A09D003221204904204D1086801
:100FC000052212041043086010BD0868FAE70346C2
:100FD00000205909914A01290AD002290AD0516AF0
:100FE000DA06D20E012393400B4200D00120704755
:100FF0001168F5E7116AF3E718B50020052424020B
:1010000000903120FFF7E3FF0099491C0091002870
:1010100001D1A142F5D13120FFF7D9FF002800D03E
:10102000012018BD7D4A1168F8239943C000084388
:101030001060704779490128086803D040084000D3
:101040000860704701221043FAE710B5734B186827
:10105000754C89061205204011430143196010BDEB
:1010600001226E4912060028086801D0104300E0F2
:10107000904308607047694A5168890889000143B4
:1010800051607047654840680C2108407047634ACA
:101090005168F02399430143516070475F4A51689A
:1010A00007231B0299430143516070475B4A516813
:1010B0000723DB029943C000084350607047574A3A
:1010C00000020029916801D0014300E08143916052
:1010D000704752494A6802434A6070474F4A516814
:1010E00003239B0399430143516070474B490028F8
:1010F000486A02D00122104301E0400840004862E3
:10110000704770B54549044648680C221040474A6C
:1011100003D0042801D0082801D0226006E0086826
:10112000C00201D4424800E0424820604868424A78
:101130000006000F135C2068D84060604B685B05B8
:101140005B0FD35C0546DD40A5604B689B045B0FDD
:10115000D25CD040E0604968374A0904890F121F09
:10116000515C00F0B9FB206170BD2C4A0029516927
:1011700001D0014300E0814351617047274A0029B3
:10118000916901D0014300E0814391617047234A96
:101190000029D16901D0014300E08143D16170474A
:1011A0001E4A0029D16801D0014300E08143D1608B
:1011B00070471A4A0029116901D0014300E08143B8
:1011C0001161704701221549D2040128086802D034
:1011D0009043086070471043FBE710494A680723B3
:1011E0001B069A434A604A68000602434A607047F9
:1011F0000A48416A01221206114341627047074AB8
:101200000146926800200A4200D00120704703493D
:101210008A68000402438A607047000000100240A0
:101220000000FFF8FFFFF6FEFFFF8F0300127A00B9
:10123000006CDC0200A24A04D8000020904910B5DE
:10124000401806D01F21C90288420BD101210C038E
:1012500001E001218C032046FFF7A2FF0021204678
:10126000FFF79EFF10BD10B5028B0F231B031A4022
:101270004B884C8923430C88144323430383838B7B
:101280003F22D2431340CA89CC8822430C891C4395
:10129000224318231A438283028C8A8902848A8813
:1012A000082A07D0828B04231A438283828B082367
:1012B0001A4382838988818510BD00210180418085
:1012C00008228280C1800122028141810222828122
:1012D000C18170470029018B02D00122114301E036
:1012E00049084900018370470223002A06D0028B77
:1012F0001A430283028A0A4302827047028A8A439F
:101300000282018B994301837047002A028B01D02E
:101310000A4300E08A4302837047002A028B01D00F
:101320000A4300E08A4302837047828D0160D2B293
:10133000082A01D8002A01D10B0A0360102A01D81B
:10134000002A01D10B0C0360182A01D8002A01D110
:10135000090E0160704741681143828D082A02D846
:10136000828D002A02D1426812021143828D102A16
:1013700002D8828D002A02D1426812041143828D64
:10138000182A02D8828D002A02D140680006014343
:1013900008467047002A028D01D00A4001E0C94387
:1013A0000A4302857047374A9142018B02D00122DD
:1013B000114301E04908490001837047028B324B19
:1013C0001A400283028B0A430283704710B5082239
:1013D000082911D01024102911D02A4BDB1F994263
:1013E00002D1038B93430383264A0F3A914202D1E1
:1013F000018BA143018310BD018B1143FAE7018BDF
:101400002143F7E7838D0022082B07D0828D002A25
:101410000AD0828D082A07D8012116E000890842E7
:1014200000D0012210467047828D102A01D8022177
:101430000BE0828D182A01D8032106E0828D1F2A35
:1014400002D9828D002A00D1042100890005000FF5
:10145000884201D3012070470020704702469289DC
:1014600000200A4200D001207047828A0A4382820B
:10147000704781847047828B0A43828370470000E3
:1014800000C8FFBFFEFF0000FFFC00001548016818
:101490008907890F016000218160C160016141619C
:1014A0007047104A1168890889000143116070472C
:1014B0000C4A0029116801D0014300E0814311600A
:1014C00070478A0710B5120F0F2393408C08054907
:1014D000A40061188C689C438C608B689040034327
:1014E0008B6010BD000001403F4910B5C84208D1D3
:1014F00001218C032046FFF753FE00212046FFF711
:101500004FFE10BD30B50446C06985B00D46CF21F1
:101510008843A988EA8811432A8902431143E1617B
:10152000A0696A894109A889490110430843A0615B
:101530006846FFF7E6FD2C484042844201D10398FB
:1015400000E002980A2250430009296800F0C4F91B
:1015500005460A2100F0C0F9042900D90A350A21FC
:10156000284600F0B9F9206205B030BD4B21C90111
:101570000160302181800021C180018118224281D7
:10158000818170470029816902D00122114301E065
:10159000164A114081617047002A026901D00A434E
:1015A00000E08A4302617047002A826901D00A4341
:1015B00000E08A4382617047C9B2016070474068A9
:1015C000C0B270470246926800200A4200D0012053
:1015D000704770470246D26800200A4200D00120BE
:1015E000704741617047000000C8FEBFFEFF000069
:1015F0000C2101706C48704770B50C460A460546D0
:101600000146694800F07EF92146284601F022FB98
:1016100070BD092070477CB50524069BE4020225B5
:10162000A34201D1012A0BD0A34211D1072A0FD81E
:101630005EA109680F22019101AB009507210FE01F
:101640005BA109680622019101AB0095012107E029
:10165000A34208D1102A06D81021564B1922009116
:1016600000F044FE7CBD00F097FD7CBD70B51D46CA
:101670000446122A26D0132A24D0152A11D0182A5B
:1016800002D000F089FD70BD184600F07CF9000220
:101690004949000A0860204603F006F8FFF7CCF934
:1016A00070BD082145A0FEF7EFFE012104A8FEF75A
:1016B000EBFE012144A0FEF7E7FE6846017C2846C8
:1016C000FEF7E2FE204602F0EFFF70BD7047704764
:1016D000FEB50C4605460C206946334B164608708D
:1016E0000F2C27D006DC042C10D0092C10D00B2C8A
:1016F00006D115E0132C21D0182C25D0192C2FD071
:1017000022462946304600F047FDFEBD00902AE003
:1017100001F012FB00F01AF9C7B201F00DFB06E070
:1017200000F016FA00F012F9C7B200F011FA034601
:10173000009718E0072025A3009014E000200290F5
:10174000022002AB00900EE01B486A46006801AB25
:10175000010C1171010A517190710320009002E097
:1017600008201CA3009022462946304600F096FD32
:10177000FEBD704700207047704714A070470A48AC
:10178000401E00787047084910B5491E0A789042FB
:1017900009D00870002802D00C2111A001E00F210F
:1017A00013A0FEF771FE10BDE90000200A1800002A
:1017B0000018000076480008CC000020494E443A4A
:1017C00044415441000000003D0000005356332EB8
:1017D000312E35004261756452617465000000006D
:1017E000494E443A434F4E4E4543540A00000000D0
:1017F000494E443A444953434F4E4E4543540A00E0
:1018000008B518A10120164C096840050091401E3A
:10181000FDD2FEF7CDFC7D21C900062000F034F892
:1018200000F064FA1049432001F04CFF2078014693
:101830000C390F290CD269464870532001F04CFD39
:1018400002226946042001F081FD562001F044FD8A
:10185000FF20413001F0BCF9FEF75DFDFCE7000020
:1018600004F8FF1FC0120000F800002010B501208E
:10187000FFF72BFB0028FAD110BD10B50220FFF7AF
:1018800024FB0028FAD110BD70B504460D46012096
:10189000FFF72CFC6120FFF79AFB0028FAD0FFF736
:1018A000E5FF0C4E3046FFF7FFFAE0B2FFF7FFFA14
:1018B000FFF7E3FF3046FFF7F7FA2805000DFFF7C3
:1018C000F9FAFFF7FAFAFFF7FCFA70BD10B5FFF767
:1018D000F4FA10BD5555000030B50B460146002006
:1018E0002022012409E00D46D5409D4205D31D4626
:1018F0009540491B2546954040191546521E002D1E
:10190000F1DC30BD03460B439B0703D009E008C957
:10191000121F08C0042AFAD203E00B780370401C9F
:10192000491C521EF9D27047D2B201E00270401C2D
:10193000491EFBD270470022F6E710B513460A464F
:1019400004461946FFF7F0FF204610BD421C0178FF
:10195000401C0029FBD1801A704730B50446002096
:10196000034600E05B1C934203D2E05CCD5C401B6D
:10197000F8D030BD03460A780270401C491C002A8A
:10198000F9D1184670470321001D401E037812024A
:101990001A43491EF9D5104670470000064C012530
:1019A000064E05E0E36807CC2B430C3C9847103407
:1019B000B442F7D3FEF782FB3049000850490008D3
:1019C00070B58C180578401C6B075B0F01D103784C
:1019D000401C2A1106D10278401C03E006780E70E4
:1019E000401C491C5B1EF9D12B0705D40023521E55
:1019F0000DD40B70491CFAE70378401CCB1A921CDB
:101A000003E01D780D70491C5B1C521EF9D5A142E4
:101A1000D8D3002070BD000010B5FFF703F9084AC5
:101A2000116A884207D2081AD18A884203D9054828
:101A30000078002801D0002010BD012010BD00005A
:101A4000100100208901002010B50A4C607900289F
:101A50000CD0FFF7E7F8A16A884208D3401A0121A9
:101A60008902884203D200206071012010BD00204D
:101A700010BD00009001002070B5114C0025216AB6
:101A80004A78002A07D04989A289914203D100F0FF
:101A9000F5FA206A4570E169487900280ED0C888B7
:101AA000A28990420AD10648A67905223430FFF770
:101AB00029FF02F099FBE0694571A67170BD000035
:101AC0002C02002010B503490A6B496B5043FFF705
:101AD00003FF10BD9001002010B5044608480849D6
:101AE000C06A496B002804DB6043FFF7F5FE00196C
:101AF00010BD40426043FFF7EFFE201A10BD00000A
:101B00009001002013B56A4612781320024009485C
:101B100002706A4654784470002C03D02246801C20
:101B2000FFF7F0FE0349A41C0846E2B2083801F0B2
:101B30005BFC1CBDF4010020014880787047000068
:101B4000900100200148C0797047000090010020FA
:101B5000074808490078020930320007000F8A70F0
:101B6000092801D8303000E03730C870014870478C
:101B700088010020020100200148807870470000A1
:101B80007402002010B5074C607A002808D0FFF7D7
:101B900049F8616A884203D300206072012010BDB9
:101BA000002010BD1001002010B50F490F480A6831
:101BB000824203D10E4A1278D2070BD008600D483A
:101BC00001F050FE0B48001D01F077FE4B20C000D5
:101BD00001F0D4FE0848006901F0F9FE064818300B
:101BE000807901F062FE10BD180200201049000843
:101BF00011010020900700209C02002010B5184918
:101C000018480A68184C824203D1184A1278D20741
:101C10000DD00860A08A0A21484300F075F81248E8
:101C2000183001F04AFE10482C3001F01BFE206BEA
:101C300001F0CDFEE08A01F0A1FE607901F035FEF1
:101C4000512001F049FB7821002001F09BFB7A2113
:101C5000002001F097FB562001F03EFB10BD000074
:101C600018020020D84800082C0200201001002093
:101C70001FB502246B461C730A2159730621197083
:101C80000021597005229A70D97001221A715A7177
:101C90009C71D9711872000A587219460398FFF79F
:101CA00031FF1FBD0149487070470000D801002076
:101CB000044902464879002803D0034B13600022F0
:101CC0004A717047740200206807002010B50C4666
:101CD000282906D20A4601460248FFF713FE0248A9
:101CE000447110BD680700207402002001490120E2
:101CF000887170471001002002490A6A10180862B2
:101D0000704700001001002070B50446034D01200B
:101D10006872FEF787FF0019686270BD100100202D
:101D200010B5FEF725FBFEF77DFF03491E308862E4
:101D30000120487110BD0000900100200521C00164
:101D40000902401801494860704700002402002041
:101D500030B47446641E2578641CAB4200D21D4624
:101D6000635D5B00E31830BC184702E008C8121F2F
:101D700008C1002AFAD170477047002001E001C174
:101D8000121F002AFBD17047090710B5090FC007C1
:101D900005D0032902D1022001F0A8FD10BD05489D
:101DA0000079002802D0FFF7BBFF10BD01F01EFE36
:101DB00010BD000090010020F7B5264C00262671CA
:101DC000087817460007000F0D46032802D00528A3
:101DD0001FD114E08121009809014018E06101F051
:101DE000C0FD206901F04EFD6178E06B01F056FD09
:101DF00060780121C001C9024018A0611EE0002FD7
:101E000007D02846062214490830FFF7A6FD00280F
:101E100002D001F0EBFD11E0104C2078800708D5CE
:101E20000020FFF7B0FC2078FD21084020700C480E
:101E300006703A462946009800F046FC532001F00F
:101E40004BFA0849042001F070FA562001F044FAD8
:101E5000FEBD0000900100206D0100201101002056
:101E6000180100202F02002070B5474C0646E0798B
:101E7000002823D0A078401CA070A079002801D0B1
:101E80002820A07020790025002808D0606A091A4F
:101E9000206A301A00F050FBE5702571A581FF2003
:101EA000193001F06BFDA078272815D801F0FDFC52
:101EB0000020FFF721FF01F0A6FD70BD512001F0C9
:101EC0000BFA7821202001F05DFA562001F004FA87
:101ED0006420FFF711FF70BD2520A0706069FFF737
:101EE000FBFD861960698009FFF706FFE07902288B
:101EF00018D126480078800706D52572A581FFF7FE
:101F00007DFE01F0A9FD25E021480078800709D574
:101F10002572A581FFF748FE01F09EFD1D490120B5
:101F2000087017E0A089401CA0816089301A01F078
:101F30004EFDA07801F0B9FC512001F0CDF97821D7
:101F4000002001F01FFA7A21002001F01BFA562030
:101F500001F0C2F9104805220078D2014100411871
:101F60008901891862699142B5D2217A491CC9B2A6
:101F700021721729AFD32572002802D001F0A6FAEA
:101F800070BD01F048FA70BD9001002010010020E2
:101F900011010020180100208A01002010B5094914
:101FA0002520887001F081FCFF20193001F0E6FC4B
:101FB000002001F090FC01F026FD002002F0EEF878
:101FC00010BD00009001002010B50C4800780007FB
:101FD00002D001F00BFD10BD782001F0CFFC0120F4
:101FE00001F084FC05480E38C16980690818912108
:101FF0000901401801F0B5FC10BD00009E01002051
:10200000F8B506460D46022001F070FC2320C00101
:10201000194C2818E061A17825290AD16289FA2192
:1020200051430818E0611001801AFF30193001F0A7
:10203000A5FCE06901F095FC0F486946C08908805D
:10204000009801F01FFC2178A06B01F027FC20789C
:102050000121C001C9024018A061A07825280AD139
:1020600026626562A089112802D2E078002802D099
:102070000120E0702071F8BD9001002070B50D4C7A
:102080000546206A0178E1714088E081502148438B
:10209000FFF722FD40192063206A81882182C188D0
:1020A00061820089A082E079034948434018E082B8
:1020B00070BD00002C020020E204000070B5044650
:1020C00000781C4D4006C00F287128460622A11C2E
:1020D0003930FFF717FC0E342846042221462C30F5
:1020E000FFF710FC28460322211D1830FFF70AFCD9
:1020F000E079E871617A207A09024018E881E17A92
:10210000A07A090240182882617B207B09024018CE
:102110006882E17BA07B09024018A88221462846FC
:10212000052210313430FFF7EDFB607DC006C00E94
:10213000287270BD2C0200207FB50AA470CC8007E5
:102140000194800F039602956C4620700920607000
:102150006172A272100AE072237301A9009800F064
:1021600020F87FBD05000400010000000000000011
:102170000EB507A106C980070091800F019269463C
:10218000087207204872029800F00BF80EBD00009C
:10219000030004000317000010B50A23FFF7CCFF6B
:1021A00010BD10B5FFF7AEFC10BDFFB587B01E46E1
:1021B0006F46109B119A05463871092078710520E9
:1021C0000C463872002179720420B872F972601CD2
:1021D000387301207873B973F8730520C00239741D
:1021E000834213D105A8009006AB31460998FFF74A
:1021F000C1FA00280AD06946088B4873888AC873D8
:1022000002A90198FFF7CDFF0BB0F0BD214628468B
:10221000099AFFF7C1FFF7E7FFB587B007981746A0
:102220008007800F6A4610700A205070002050719D
:1022300006211171D07104219171052111720121C2
:1022400051721E46D0720446134D1AE020460A21F0
:10225000484341194988B94211D3B1420FD80A21E4
:102260004C43611989786A469172285A1073000AA2
:10227000507301A90098FFF794FF0BB0F0BD641CE8
:10228000E4B2FFF7C6F9A042E0D83A4608990798A9
:10229000FFF782FFF1E700001C480008F0B589B0A5
:1022A0000E4607461D461C2101A80E9CFFF743FB66
:1022B000B807800F69460870601D4870601C08717F
:1022C000000A4871042088710020C871761C0E72C3
:1022D00001A904E02A5C0B18401C5A71C0B2A0424C
:1022E000F8D30098FFF75DFF09B0F0BDF0B589B0F5
:1022F0008446002468460E9D04714471042686714C
:10230000C471112606722E1D46728172C472027348
:1023100044730A2001AF002105E05A5C3A54401C86
:10232000491CC0B2C9B2A942F7D3011F6A46117154
:1023300061468907890F1170507039460098FFF780
:1023400030FF09B0F0BD0000FFB589B00998152134
:102350008507129E4902AD0F1F468E4221D1684665
:10236000FFF746F90146684605710023437100787E
:10237000801CC2B2122A00D91222941C6D462C7203
:10238000200A68720426AE72EB72092028736A7301
:10239000AE73EB7304A8921EFFF7B4FA241D6C71A0
:1023A0003FE0614886423ED10B9807283BD15F4809
:1023B0000078002837D06B461D7117211972002153
:1023C0005972042199720021D972092107201973C9
:1023D0005873082098730020D87302201874597419
:1023E000002199742921D9742A2119750A225A7554
:1023F00000249C75D8750B251D7600255D76262555
:102400009D760E22D9761A7700225A7798770F2474
:10241000DC7708AB1A702820587099701B206B4627
:10242000587102A96FE0FF2F00D9FF27002471E047
:1024300020460A2148433E490A5AB24268D141180F
:1024400048880B9A904263D3B84261D8364A521EEC
:10245000964223D10A226E463272002373720422FE
:10246000B272F37209223273082272730A22544341
:102470002F4AA2189278B273000AF073002002AAC1
:102480000B181418401C1B79C0B223720528F7D30F
:10249000487A707535710E20707133E009266F46E9
:1024A0003E7200237B720422BA72FB723E730722D3
:1024B0007A730A2254431E4AA2189278BA73000A09
:1024C000F873184602AA0B181418401C1B79C0B2E6
:1024D00023720528F7D33D710D207871497AFF29C1
:1024E00010D0144B00200901C9180B5C1418401CB3
:1024F000C0B2E3721028F8D31B207871172038720D
:102500001520787311460198FFF74BFE0DB0F0BD12
:10251000641CE4B2FFF77DF8A04289D809AB07CB71
:10252000FFF73AFEF2E7000003280000FC0000205D
:102530001C480008764800084B22D200084B821A3B
:102540009A420CD27D22D200064B8A1A9A4206D2B7
:10255000FA224243531A044AD3625163106370470C
:10256000A81D0000196618009001002010B5FDF7A5
:10257000FEFE01F03BFA10BD7FB528214843084913
:102580000A9D099C48616E460846B688C6818A63E2
:102590000B706E46308C0882CC634D707FBD00009E
:1025A000900100200349024808604068004700008D
:1025B000B84800081802002006490878002806D00C
:1025C000022804D001D9401E087001207047002065
:1025D000704700002402002070B5264E2448306069
:1025E00025480C46C16004222448FFF78BF9234D8F
:1025F0000322211D281DFFF785F9E079E871617A32
:10260000207A090240182881E17AA07A090240184C
:102610006881617B207B09024018A881E17BA07B57
:1026200009024018E8812146284605221031103061
:10263000FFF768F9607DC006C00E6875607D4009CF
:10264000A8750D48203000F0B9FE00F08FFB0C4853
:102650000122017811430170104600F077F83068CC
:10266000406880477D200001FFF74EFB70BD0000F1
:1026700010490008180200209C020020900700204A
:10268000110100201FB509490A9C099B08700848E0
:102690004243CA806A46908908810846128C42816A
:1026A000CB614C70002008711FBD00007402002037
:1026B00071020000034902480860406800470000BA
:1026C000F44800081802002070B508461B4B1A4950
:1026D00019601146FFF7F2FC194C1A49208A801F35
:1026E000884208D2A08A091F0A38884203D2207A79
:1026F000401F0C2802D301F079F970BD012000F0D1
:1027000025F8114D012128780843E321084028705D
:10271000208A4100A08A814200D288B20A2148431F
:10272000FFF7F2FA28789F210840287001F05EF93F
:102730000020607070BD0000D8480008180200201A
:102740002C0200207B0C00001001002001490870C1
:10275000704700002402002010B5FFF72DFF00286D
:1027600001D001F02DFA10BD10B50948807900287C
:102770000CD0084800680078002807D1FFF764F9FA
:10278000002801D0FFF7F2FE00F0B4FE10BD0000FB
:102790001001002018020020FEB5F74EF74FB27965
:1027A0003146097AF64DF74C032A04D0012A77D036
:1027B000022A03D004E001291AD0D8E00322B27122
:1027C000F081012902D000290AD00BE0EA48401C20
:1027D0000078800706D4318B002001F095FF01E0DE
:1027E00001F07EFF317AB0790143E6D0002857D15D
:1027F00000207071FEF701FA002877D0DE48C01D76
:1028000001F026F8F07900F000FEF079C1070BD056
:10281000694601A800F0BCFEDB4800990160019800
:1028200038602A68926868E0810719D5694601A86E
:1028300000F0AEFE28680099826901989047CE4862
:102840002830FFF735FA3071FFF796F93279B16A1F
:10285000252803D00020FDF7F5FF71E00120FAE7FD
:10286000C10603D528684069804769E001062BD579
:102870002868C4490078002813D0012000F0B8FE71
:10288000617820780902401881B22868C268012066
:102890009047F079410610D5684600F095FE21E09A
:1028A0007CE0002000F0A4FE617820780902401846
:1028B00081B22868C26801201FE0800640D56946C1
:1028C00001A800F065FE2EE0410610D5684600F034
:1028D0007BFE28680078002804D1A74AA9490A325B
:1028E00000F0A4FE28686278036925E05AE04107F9
:1028F00005D528680021C2680846904720E00107F6
:1029000003D50020FFF722FF18E0800616D56946A0
:1029100001A800F03DFE2868017800290AD09949F5
:10292000012000F065FE28686278036900210098A4
:10293000984705E0036900229249F8E701F056F84C
:1029400028680078002807D08B48401C0078800752
:102950001DD5307A00281AD1F079800717D5307A42
:10296000002807D101F0BCFEB079032802D0002076
:10297000F0712AE0FFF706F9002803D0307A012829
:102980000DD004E07079002801D101F03CF8B07955
:10299000002800D12EE7F0798028FBD0FEBD002072
:1029A0007071F2E7B0790028F4D0F0790028F1D105
:1029B000FEBDF079022808D1FFF72EF8002804D0D8
:1029C000B079002801D1FDF77EFC28680078002846
:1029D0000ED1B079002805D1FFF736F8002801D0D4
:1029E000FFF7C4FDFFF7AEF8002801D1FDF7AFFEF9
:1029F000FEF703F900287CD05F48C01D00F028FFD7
:102A0000F07900F002FDF079C1070FD0694601A806
:102A100000F0BEFD5C4800990160019838602A68AA
:102A200092689047FEF7FEF8306290E0810719D572
:102A3000694601A800F0ACFD00F0D8FF28680099B5
:102A4000826901989047FFF777F8252803D14A4813
:102A50000078800703D528680078012877D1FDF732
:102A600076FE74E0C10603D52868406980476EE0B1
:102A700001062BD5286843490078002813D001208F
:102A800000F0B6FD617820780902401881B228680C
:102A9000C26801209047F079410610D5694601A827
:102AA00000F076FD28E0002000F0A2FD617820789B
:102AB0000902401881B22868C268012028E0800617
:102AC00045D5694601A800F063FD31E0410617D500
:102AD000684600F079FD2868007800280CD120783D
:102AE0000007000F052807D1234A26490A32002093
:102AF00000E054E000F09AFD28686278036920E065
:102B0000410701D4010705D528680021C26808469D
:102B100090471CE0810616D5694601A800F038FDF3
:102B20002868017800290AD01649012000F060FDCC
:102B300028686278036900210098984707E00369D4
:102B400000221049F8E7002820D000F04FFFF0796C
:102B500080071BD5307A012818D10748401C00781F
:102B6000800713D4318B002001F0CEFDB07903280B
:102B700000D03DE60EE00000100100202002002001
:102B800018020020D80400201C020020B079002880
:102B900000D10EE7F079802800D009E709E7B07985
:102BA0000028F6D0F0790028F3D1FEBD10B5074C0F
:102BB000E079022806D1FEF72FFF002802D0A07985
:102BC000032801D0002010BD012010BD10010020FD
:102BD00070B50546FEF726F804460A34FEF722F8DB
:102BE000A042FBD30349022088712846FFF7D4FD99
:102BF00070BD00001001002070B50A4D04000ED019
:102C0000E87900280BD1512000F066FB7A212020C2
:102C100000F0B8FB562000F05FFB00F0F4FEEC7112
:102C200070BD00009001002010B505490870000932
:102C30000001491D001D087001F09CFD10BD000041
:102C40001B01002010B50249C88101F093FD10BDA1
:102C50001001002030B5182900D918210A4B4A1C50
:102C60001A70002204E0845C9D18521CAC70D2B231
:102C70008A42F8D3002003E05A18491C9070C9B268
:102C80001929F9D330BD00003C01002010B50E49D0
:102C900045200C4608700A3C0121A069C902401871
:102CA000606100F05EFE6178E06900F0F7FD627837
:102CB0001B21D001C9014018206161690818E16930
:102CC000FFF78AFC10BD00007E02002070B50D46A3
:102CD000124A01461078002809D0401E10700026C4
:102CE00056705068092806D0401C506005E001204D
:102CF0005070002070BD304656600C22084B424395
:102D0000D41842018018074A80182A462060FEF72E
:102D1000F9FD25712046A66070BD0000D00100209D
:102D2000800600203405002010B500F042FE00208F
:102D3000FFF704F810BD000000A070474D475F4248
:102D40004C455F4C49425F56332E300001480078B5
:102D500070470000D0010020034800780A2801D005
:102D60000020704701207047D0010020044903482B
:102D70008860002048708870704700002C49000867
:102D8000C402002013B56A46127813200240094895
:102D900002706A4654784470002C03D02246801C8E
:102DA000FEF7B0FDA41CE2B20249034800F01CFB90
:102DB0001CBD0000A8070020BC02002070B50278EE
:102DC0000124112A19D14378891E1D1FCAB20B4E46
:102DD000801C0CE00188B1804488F480E9B201E0F5
:102DE000491EC9B20029FBD1C018D11ACAB2002AA3
:102DF000F0D1641CA0B200F08CF870BDC4020020B9
:102E00001FB502226B461A730B225A7307221A70DF
:102E100000225A7004249C70DA7008221A715871CA
:102E2000000A9871D971080A187203205872282074
:102E3000987219460398FFF7A5FF1FBD10B5821CB5
:102E4000891E4478CBB208E02146104601F040FCD0
:102E5000501C191B4088CBB21219002BF4D1034926
:102E6000C988884201D8FFF7CBFF10BDC4020020FB
:102E7000024801228178514081707047C4020020CD
:102E8000024801224178514041707047C40200203D
:102E900010B54078082807D0102804D10448C1880C
:102EA0008088FFF7ADFF10BD252000F04FF810BD62
:102EB000C40200200EB502206A461072052050722E
:102EC000012010700020507004219170D0701E20DD
:102ED000107169460298FFF755FF0EBD1FB5132309
:102EE00018406B461873092058730520187000208D
:102EF000587004249C70D870012018715971100A00
:102F0000D8719A710A20187219460398FFF73AFF90
:102F10001FBD1FB502216A4611730B215173072192
:102F200011700021517004239370D170102313711C
:102F30005071000A9071FF20D071107251722820D8
:102F4000907211460398FFF71DFF1FBD0EB50F4A83
:102F5000D178002902D02120002100E00121D17088
:102F600002216B4619720721597203211970002141
:102F7000597004229A70D9700A2119715871000A87
:102F8000987169460298FFF7FDFE0EBDC40200204D
:102F90001CB5124A6946124800F03CFD68460078AC
:102FA0000F49002806D10120087000204870022037
:102FB0006A46107048786A465071087813221040AB
:102FC000084A891C53789278DB001843920010431A
:102FD0006A461071019801F0B7FB1CBDBC020020CD
:102FE000A8070020C402002010B53749012000F0D6
:102FF000FFFA364A3449012000F018FB324C3349BD
:1030000020788978830700079B0FC00F88420ED174
:10301000FFF72EFFFFF734FF012B04D0032B2CD03A
:10302000022B09D029E029480078022801D200208B
:1030300010BDFDF708FC20E02348A179C01C112930
:1030400022D009DC0B00FEF783FE0C113A11181197
:10305000181111111A1124111B2920D004DC122976
:1030600004D0132902D108E01D2916D04279007935
:10307000120202430220FFF731FF012010BDA178A8
:10308000A01DFFF7DBFEF8E7A178A01DFFF796FE75
:10309000F3E72520FFF75AFFEFE7FFF70BFFE07894
:1030A000A1780002C01E0818C2B2217AE079090294
:1030B0004018054980B20931FDF7C6FBDDE7A1786C
:1030C000A01DFFF7E5FED8E7A8070020C4020020F6
:1030D00070B50F4D0F4EA878717D40182521FEF771
:1030E000FBFBC808297080194A070C46007C520F68
:1030F00001219140084201D0AC7106E029792046B7
:10310000FEF7EAFBE9706970A971AC7070BD000050
:10311000B402002090070020C10710B5054802D076
:103120000021017010BD0178491C017000F05EFCA7
:1031300010BD00009C02002010B57D200C4600014F
:10314000FEF7E2FD002C02D002490120487000F099
:103150004DFC10BD9C020020F3B52C4E2C4C708908
:10316000217800274843F18981B0C900884203D9FA
:1031700027700020FFF7EAFAFFF71EFA254D002816
:1031800013D02878C1071AD0022108434008400014
:1031900028703089502148430199401890302061AF
:1031A0000220FEF7F0FA206911E00020FEF7EBFAAA
:1031B000FFF780FA2878FD2108402870FEBD70894D
:1031C00050214843FEF788FCA168401820610002A6
:1031D000000A2061FFF77CFF0F480078022805D124
:1031E0002878800702D50D48077001E0FEF7DCFC67
:1031F0006078002808D0FFF7F7FE6070002803D041
:1032000007480068006880476770FEBD900700208F
:103210009C020020110100209701002018010020CD
:10322000CC020020F8B500241149124D8C700C71AD
:1032300020460123C20852194607127C760F1F460A
:10324000B7403A4202D00A79521C0A71401CC0B2FF
:103250002528EFD34B20C00000F090FB00F0C6FB08
:103260000348183844700448006800688047F8BD77
:10327000B402002090070020CC02002010B50A48BC
:103280000078C00702D000F0B1FB10BD032000F0B1
:103290002DFB064806494069096840182521890127
:1032A000401800F05EFB10BD110100209C020020C0
:1032B0002802002070B505460C46062000F016FBDB
:1032C0001B20C0012018034C606100F04AFBA56080
:1032D00070BD00009C02002010B50446FDF77FFC85
:1032E00001215020FDF770FC01212046FDF76CFC08
:1032F000FDF77CFC10BDF8B515460E460446FDF7FB
:103300006EFC01212046FDF75FFC0746002406E025
:103310000021FF20FDF758FC3055641CE4B2AC429C
:10332000F6D3FDF763FC3846F8BD70B50C4605468C
:10333000FDF755FC01212846FDF746FC0021FF2042
:10334000FDF742FC2070FDF751FC70BDF8B5164644
:103350000D4604460027FDF742FC202020430121B2
:10336000FDF732FC002407E0287801216D1CFDF7F1
:103370002BFC641C0746E4B2B442F5D3FDF736FCDF
:103380003846F8BD70B50D460446FDF728FC2020F0
:1033900020430121FDF718FC01212846FDF714FC0C
:1033A000FDF724FC70BD0168002902D140680028A7
:1033B00001D000207047012070470000002101600B
:1033C000416002490A20087070470000D0010020C7
:1033D0000268136812790A7001688968016000291F
:1033E00000D141601846704710B50B46044611469F
:1033F0001846FFF76BFC002806D06168002901D051
:10340000886000E02060606010BD10B501460E20AD
:10341000FFF7B8FF10BD1CB55320FFF75DFF032178
:103420001F20FFF7AFFF01A91F20FFF77EFF6846AF
:1034300000790028F7D103211F20FFF7A3FF01A97E
:103440001F20FFF772FF684600790028F7D101219D
:103450001520FFF797FFA0211220FFF793FF04210B
:103460000A20FFF78FFF00210A20FFF78BFF88213A
:103470001220FFF787FF012469460C702120487055
:1034800002221320FFF762FF69460C70202048706B
:1034900002221320FFF75AFF00211520FFF772FFC9
:1034A0005620FFF719FF1CBD08B5002069460870BB
:1034B0005120FFF711FF5320FFF70EFF69461F2031
:1034C000FFF733FF6946087808BD000010B55120AA
:1034D000FFF702FF5320FFF7FFFE03211F20FFF736
:1034E00051FF5620FFF7F8FE01490120487010BD3A
:1034F0008801002038B5254CA078012838D16078A3
:10350000002835D0012834D0022831D1FFF7CCFF74
:1035100000282DD101211520FFF734FFA021122012
:10352000FFF730FF04210A20FFF72CFF00210A20BB
:10353000FFF728FF88211220FFF724FF01256946A5
:103540000D702120487002221320FFF7FFFE69460C
:103550000D702020487002221320FFF7F7FE002193
:103560001520FFF70FFF5620FFF7B6FE0020607012
:1035700038BDFFF799FF0028FAD103211F20FFF77C
:1035800001FF5620FFF7A8FE0220F0E78801002087
:103590007CB50D460446062269461020FFF7ABFEB7
:1035A000694648790B7902041802C9781018401846
:1035B0006946206088784978000409024018694605
:1035C0000978401828607CBD38B504460322694656
:1035D0001020FFF790FE6846807801046846427824
:1035E00010020918684600780818206038BD0000ED
:1035F0007CB50D4D0C46002811D0022269460620EC
:10360000FFF779FE68460078207068464078607061
:103610006846007828706846407868707CBD022251
:1036200069460420ECE700008B01002070B51346CA
:103630000C46002809D06278901C1870002A03D02C
:10364000A11C6120FFF757FE70BD1D48254641783B
:103650000835891C117001782170417861700178FA
:1036600040780907090F0B00FEF772FB07060906F1
:1036700014051A060500E7E70622A11C08E00C283D
:10368000E2D10622A11C0A20FFF735FE06222946B8
:103690000B20D7E70C28D7D1062229460A20D1E7EC
:1036A0002228D1D10622A11C0B20FFF724FE0622DE
:1036B00029460A20FFF71FFE162221460E31C0E7D9
:1036C0008B010020FEB505460026684606715E4C5B
:1036D00051200C60FFF700FE01A91F20FFF725FE17
:1036E000684601798029F7D158491E20FFF71DFE51
:1036F00078210020FFF746FE06210846FFF742FE2C
:103700007A210020FFF73EFE5320FFF7E5FD8821D8
:103710001720FFF737FE88211820FFF733FE882196
:103720001920FFF72FFE00211520FFF72BFE0221A5
:103730000120FFF727FE1E211D20FFF723FE28464C
:1037400000F0F0F800A908200131FFF7EEFD68460F
:1037500040783E4F002807D11220694648703878DB
:103760001B2801D215204870C021684601702D2108
:103770008170032269460420FFF7E8FD8025684632
:1037800005704670022269460C20FFF7DFFD1C2100
:103790006846017045703878192802D1CC206946F6
:1037A0000870022269461420FFF7D0FD10206946F8
:1037B000087002274F703A460A20FFF7C7FD694696
:1037C0000F701220487002220D20FFF7BFFD01206C
:1037D000694608700720487002220E20FFF7B6FDE8
:1037E0003820694608700F2048708E70032202202E
:1037F000FFF7ACFD71210920FFF7C4FD69460D708C
:1038000070204870212088704020C87004220B204E
:10381000FFF79CFD5620FFF75FFDFF210E20FFF70D
:10382000B1FD062208490820FFF765FD60796D2883
:1038300006D1ED206071062203490820FFF786FDBE
:1038400000F0D4F8FEBD00006D01002088010020CA
:1038500038B5044669460E20FFF767FD68460178D3
:10386000217038BD1CB501786A46117041785170DD
:1038700081789170C078D070042269460C20FFF7DF
:1038800065FD1CBD01B582B06946087A0870487AAA
:10389000487002220320FFF759FD0EBD0A4610B5FD
:1038A0000146A020FFF752FD10BD10B5282803D215
:1038B00001460120FFF766FD10BD1CB501786A4680
:1038C00011704178517080789070032269460D2004
:1038D000FFF73CFD1CBD1CB5FF216A4611705070FE
:1038E000022269460E20FFF731FD1CBD10B50428E9
:1038F0000BD001280BD002280ED003280ED00528AB
:103900000ED0062807D1042102E0022100E009219F
:103910000220FFF737FD10BD0C21F9E70121F7E781
:103920000321F5E708B502216A46117050700A4676
:1039300069460F20FFF70AFD08BD1CB501786A46ED
:1039400011704178517081789170C178D17001798E
:10395000117140795071062269460920FFF7F6FC83
:103960001CBD1CB56A461070010A5170000C9070A5
:10397000032269460720FFF7E9FC1CBD1CB56A4617
:103980001070010A5170002191700549884201D9D7
:1039900001209070032269461120FFF7D7FC1CBD5F
:1039A000FFFF00000A4610B50146A020FFF7CEFC3D
:1039B00010BD01B582B06946087A0222C006C00E69
:1039C0000870487A48700520FFF7C0FC0EBD1CB592
:1039D00000216A4611705070010A9170000CD0707D
:1039E000042269460F20FFF7B1FC1CBD1CB5022064
:1039F00069460870FF2048708870C87004220F2044
:103A0000FFF7A4FC1CBD10B501210F20FFF7BAFC85
:103A100010BD000038B5054600230C461046009343
:103A2000FFF7C1FC002802D02B70237038BD694617
:103A30001046FFF7CDFC0146684602782846FDF7A0
:103A400061FF68460078207002480178491C0170C7
:103A500038BD0000D001002010B5044C2068FFF7ED
:103A6000A8FF61780248FFF79DFF10BD7C01002090
:103A70000C05002010B50548034981600021417004
:103A80001430FFF79BFC10BDD4480008D80100207B
:103A90007047000000B587B0182209A16846FDF7FD
:103AA00031FF0D480321017018214170801E4088AC
:103AB000694608830698FEF725F807B000BD0000A8
:103AC000101000280001002C011820000300FFFF47
:103AD000FFFFFFFFFFFFFFFF7E0100203EB500223A
:103AE0008C070E490092A40F01920C7006244C70B2
:103AF00002236C46237062700179A1704079E070F6
:103B00000D2020711A20607104486946801E40888B
:103B100020810298FDF7F6FF3EBD00007E010020E7
:103B20001FB508A007C86B4607C3094803210170E9
:103B300009214170801E4088694688810398FDF7FD
:103B4000E1FF1FBD090000000000000000000000B0
:103B50007E0100203EB500228C070E490092A40F82
:103B600001920C7006244C7002236C462370627024
:103B70000179A1704079E0700520207137206071D3
:103B800004486946801E408820810298FDF7BAFFEC
:103B90003EBD00007E01002008B589070748890F57
:103BA000017000214170801E40886946088000989D
:103BB000FFF7BAF80020FEF7C9FD08BD7E0100201E
:103BC0001CB509A00068009008480321017002217B
:103BD0004170801E4088694688800198FDF792FFF9
:103BE0000420FEF7B3FD1CBD020A00007E01002088
:103BF0001CB509A109680091084903220A70022234
:103C00004A70694648700548801E4088888001983F
:103C1000FDF778FF1CBD0000070000007E010020BA
:103C20000EB509A005C8009089070948890F0192BF
:103C3000017006214170801E408869460881029803
:103C4000FDF760FF0EBD00000C079C05172000006B
:103C50007E010020FEB5154C01A92246083A2046F7
:103C6000FFF7D8FE6846007901262546002801D1D5
:103C70002E70687021780D4F132001401C3F78781A
:103C80000423C24352081A4040071143C00FC0002A
:103C900001436A46117060785070A11C009800F0D2
:103CA00053FD2E7000207870FEBD0000F40100204E
:103CB000FEB50D46002102911D2D00D91D2501469E
:103CC0002A469B48FDF71EFE9A48994C05702078BD
:103CD000984A8107890F9070012914D0032917D0C1
:103CE00002290FD1637921791B02A579C918062908
:103CF0004BD0042950D0052904D1132D02D0002027
:103D0000FDF7B6FFFEBD022DFCD3FDF735FDFEBD70
:103D1000A1780B00FEF71CF8120B0F1E233535356A
:103D20000A283535352D0A35320A0A35EFE7E01C09
:103D300000F0E8F9FEBD01467D48FFF7A9FE617A73
:103D4000207A090240186946088102A9E01C00F0A7
:103D50000BFAFEBD01467648FFF71EFFFEBD014689
:103D60007348FFF7BBFEFEBD01467148FFF7D8FE62
:103D7000FEBD01466E48FFF753FFFEBDFFF78AFE0A
:103D8000FEBD0846FFF734FFFEBD012DFCD1014604
:103D90006748FFF7DFFEFEBD66490C31102D72D07B
:103DA0000ADCAE1E3300FDF7D3FF0B1D15221536BE
:103DB00015541589159415005D4B0933182D7BD0CA
:103DC00004DC122D79D0162D04D192E01E2DE2D004
:103DD000522D72D06906DED4062300222946FEF752
:103DE000ABF9FEBD00222946FEF7C2F9FEBD237ADB
:103DF000E2791B02D21892B20A80637AA47A240272
:103E00001B199BB24B809A4201D90123E6E7294650
:103E1000FEF702FAFEBD237AE2791B02D21892B2B3
:103E20000A80A67A637A36029B199BB24B809A422B
:103E3000EBD8267BE17A36028919667BA47B89B2AE
:103E400024023419A4B2009101942946FEF7ADF979
:103E5000FEBD237AE2791B02D21892B20A80A67ABA
:103E6000637A36029B199BB24B80E67A247B24024C
:103E70003419A4B28C809A42C7D829460094FEF720
:103E800063FAFEBDFFE7237AE2791B02D21892B2F1
:103E90000A80A67A637A36029B199BB24B80E67A37
:103EA000247B24023419A4B28C809A42ADD82946CE
:103EB0000094FDF7B0FBE4E724E027E0237AE17902
:103EC0001B02C91889B2918002462846FDF700FC02
:103ED000D7E7237AE1791B02C91889B29180A37AC6
:103EE000627A1B02D21893B202462846FDF741FCC3
:103EF000C7E7217AE0790902401890800C4800F069
:103F0000B0FBBEE70A4800F06FFBBAE7E178A6789D
:103F10000902C91E7118CEB2E179247A2402091966
:103F200089B291800A4629460096FDF79FFBA8E7D3
:103F3000F8060020D801002013B56A46044812781C
:103F400002706A46527842700248FDF7DBFC1CBDE5
:103F50007C0100200C0500200907090FC20710B5DD
:103F60000C480ED00B00FDF7F3FE070808050B0BFD
:103F70000B050B000078012802D10220FFF7B6FCE8
:103F800010BD0179142901D100210171FFF72EFD27
:103F900010BD000074020020F8B50C462849002A24
:103FA000886110D0002C0ED0217826468F06BF0ED7
:103FB000911F0836951C3B00FDF7CAFE0708082C28
:103FC0003535352C3500FFF711FDF8BD1C4AA778B3
:103FD00020321378BB421DD15378E778BB4219D108
:103FE00093782779BB4215D1D3786779BB4211D139
:103FF0001379A779BB420DD15279E3799A4209D15D
:104000000F498209C96948708A70C00AC870FEF7F2
:104010003DFE0AE0CAB231466120FFF76CF9E9B211
:104020002046FDF753FEFFF7E1FC5320FFF754F95C
:1040300004490420FFF779F95620FFF74DF9F8BD40
:10404000740200202F02002070B5114C0646A078A3
:104050000D46401CC2B2A270282A01D12520A070B2
:10406000A078FFF722FC207913280DD109480068B9
:10407000291A09480068301AFEF75EFA07480078E6
:10408000002802D0FFF722FA70BDFFF7C4F970BD17
:10409000740200201C020020200200208A0100205F
:1040A00010B5074C2520A070FFF7FFFBE088FFF755
:1040B00065FC04480078800701D4FFF7A4FC10BD1C
:1040C000740200201101002010B5FFF78FFC10BD15
:1040D00038B50C460120FFF709FC094869464089BC
:1040E00008800098FFF7CEFB05482030FFF725FC3D
:1040F0001520000202492018C860FFF732FC38BDC5
:104100007402002030B5164B0122196A4A700278F9
:104110000A7084784278240212194A800479C2789D
:104120002402121992B28A80857944792D02641989
:10413000CC80057AC4792D0264190C81447A807A86
:104140000002201880B200244881062A00D24C7058
:104150009A89801A034A904200DB4C7030BD0000FF
:104160002C020020FF7F000010B50A4C0346E069D6
:104170000988C18005221946FDF7C4FBE0690121C9
:104180004171C188A289891A034A914201DB002149
:10419000417110BD2C020020FF7F000010B5FDF71B
:1041A000B3FD10BDF8B50C460746002614E0142CEC
:1041B00001D9142500E02546FEF7C8FD03280FD3DA
:1041C000084800950288BB191B21022000F01DFA47
:1041D0007019C6B2601BC4B2002C01D0002FE6D10A
:1041E0003046F8BDF6000020F0B50C4B00201C4610
:1041F000987134340A4A58720125C1084607615C37
:10420000760F2F46B740394203D0597A5054491C93
:104210005972401CC0B22528EFD3F0BD2C020020FB
:104220002207002010B5C00706D10448FB22017800
:1042300011400170FFF7DAFB10BD000010010020F3
:10424000F8B5064633480C46808A0A21154648438D
:10425000FDF75AFD304F042138780843E721084024
:104260003870FCF786F8002C03D06078002818D04E
:104270001BE04120400105213018264CC90140189F
:10428000A062FFF76EFB1B2D00D91B25E801311A38
:1042900005200002081A606238781021084338703F
:1042A00035E0387808210843387081200001194929
:1042B00030188862FFF755FBE8010121301A8902A6
:1042C000411A144841622078FDF7ECFC38782278D6
:1042D00041061207C90FD20F914218D10D4C01218E
:1042E00021704021484038700C48006800688047C1
:1042F000FCF740F8002060705320FEF7EDFFE11C52
:104300000420FFF712F85620FEF7E6FFF8BDFCF791
:1043100031F8F8BD2C02002010010020E00100203F
:10432000F8B50F460646FEF747F9874D002828786E
:1043300026D0864CC10737D0022108432870E08977
:10434000502148432830FDF7C7FB80192063FFF751
:104350004BFFE06900264671206A4670A6812670F0
:10436000FFF788FBA671E079794948434018E0825D
:104370000120FDF708FA77480078022810D0A5E060
:10438000FD21084028700020FDF7B6FC7148007838
:10439000022802D18020FEF747FC00F0A1F9F8BD09
:1043A0008220FEF741FC91E0207800280FD06A4976
:1043B0000120FFF71DF96A4667490120FFF736F92A
:1043C000684601786448FFF773FC00202070287865
:1043D000400732D5606A0121381A090640180002E8
:1043E000000AFDF76FFB371A287800071BD5608A93
:1043F000002818D0FEF7B0FC002814D0208A618A6B
:1044000041430818502148435038FDF765FBC01957
:104410002063A189608A0918A181217A4143A0798A
:104420000818A07107E0208A502148435038FDF752
:1044300053FBC0192063608934E0208A082801D228
:104440000121A17045493D280F6807D2502201463D
:104450005143C20080180009081A02E05021484365
:104460001938FDF739FBC0192063208A092806D2C4
:1044700061784843062148433549FA3107E011285D
:1044800007D261784843062148437D21090140183D
:1044900008E03D2805D26178484306214843304969
:1044A000F5E73048E082206B0A36B04200D226633E
:1044B000A078002804D12C49206B0988401A206379
:1044C000A089401CA081206BFDF7D6FAA079217A43
:1044D0004018C0B22521FDF7FFF91C4BA171CA0895
:1044E00034339A5C4B0708465B0F012199400A421E
:1044F00005D1617AFDF7F0F917482538405C607105
:1045000014480078022805D12878800702D500F0E9
:10451000E7F801E0FDF772FB2878C10704D04008F6
:104520004000287000200BE0A078002805D0002073
:10453000FDF7E2FB0020A070F8BD208A8108081872
:10454000FDF7DAFBF8BD0000100100202C0200206E
:10455000E20400009701002047070020200200200D
:10456000C4090000204E00009A01002010B5064842
:104570000078C00604D500210846FFF753FE10BDA1
:10458000FFF734FA10BD00001001002070B50D4691
:10459000FDF7F8FA002809D1114C6078322805D8C7
:1045A000218A4143A08AC000814205D90020FEF73C
:1045B000CDF8FFF71BFA70BD0420FFF797F9C32071
:1045C0004001A1782818002904D10649FA22098857
:1045D00051430818FFF7C5F96078401C607070BD42
:1045E0002C0200209A01002008B502216A461170B1
:1045F000052151700121817019218171811C009860
:10460000FDF7CFFDFDF763F808BDFFB58BB0149C37
:104610001D461746E61C242101A8FDF78CF90B98CE
:104620001321084069460870E01D48700E71300A79
:104630004871042088710020C8710C9808724F726C
:10464000380A8872002001A904E02A5C0B18401C7B
:10465000DA71C0B2A042F8D30098FDF7A2FD0FB006
:10466000F0BDF8B50446827AC178007AE579000297
:104670000543A07809020843401F87B2667A1002FA
:104680000643022069460870607848701720A071C0
:10469000A11C0098FDF785FD214633463A460B31B3
:1046A0002846FDF713F8F8BD0EB507A106C9800727
:1046B0000091800F019269460872052048720298A5
:1046C000FDF76FFD0EBD00000100040013000000A7
:1046D000491FC8B201E0401EC0B20028FBD170479C
:1046E00010B500F047F807480078800707D4054860
:1046F000401C0078800702D40020FDF744F8FDF745
:1047000051FF10BD1001002010B50E4B86B01A46A7
:1047100016240393473A0494928A6B461A81002325
:10472000084A00930193473A528A6B469A820A4696
:1047300001214902059BFDF7A5FFFDF7BBFF06B070
:1047400010BD00005701002073B50D460098FFF71B
:1047500030F968464478002C03D021462846FFF7FC
:1047600021F92046FDF7EAFA29460098FFF7E4FB15
:104770007CBD000030B585B003A8FCF739FF694661
:10478000097B182902D918216A46117369460A7BE8
:104790001B4B511C1970002104E0445C5D18491C3E
:1047A000AC70C9B29142F8D3002003E09918521CB2
:1047B0008870D2B2192AF9D31149114A0C462C3CFF
:1047C000A578123A03231B20002D01D00D4A2B4659
:1047D000E578002D02D00B4928461F310191029047
:1047E000208A6D46288006482C38C17A2974007BBF
:1047F0006874E0890499FDF7BFFE05B030BD000084
:104800003C0100209A04002041542B0000000000CD
:10481000000000000000000000000000032803006A
:10482000020400002AFF03280800020900292AFFC9
:1048300003280A00020B00262AFF03280E00020F9D
:1048400000282AFF0328110010120000000102298D
:1048500013000A0000000000032814000C150000DB
:104860000002032817000A1800000003012919009C
:104870000200000000009ECADC240EE5A9E093F3CC
:10488000A3B50100406E9ECADC240EE5A9E093F3B7
:10489000A3B50300406E9ECADC240EE5A9E093F3A5
:1048A000A3B50200406E9ECADC240EE5A9E093F396
:1048B000A3B50400406E0000000000009D1F00082A
:1048C00001200008891D0008B91D0008C91F000843
:1048D000691E0008553C00080100000000000000AF
:1048E0008D45000825420008414200086D4500083A
:1048F0002143000800000000A1400008D14000084A
:10490000593F0008993F0008C94000084940000885
:104910000100000025320008B532000819310008F6
:10492000393100087D32000859310008912F000804
:104930005049000800000020D0020000C019000803
:10494000584A0008D0020020200900007A1D000803
:1049500002170113B104800A085345544E414D45D6
:104960003D4AD1143809494E54455256414C18130A
:104970000F05780908424C4553454E44281AAB149C
:1049800068094C4F57504F574552151AD314193CCC
:104990008C424155284A6B144808414456464C41C4
:1049A00047171A9114A7444953434F4E131306B7A0
:1049B000084D494E464F1A4514D548454C504AC2F9
:1049C000CE45020406082D0102030404150607085B
:1049D00009100D4D5331373933532D55415254621F
:1049E000121564010179F00B465620202E342E3129
:1049F0002E3813800912A010088421030C452204CC
:104A000012200410020106021909100A4D8BAB6333
:104A100048CDF10406322812C81AFF01EA1F2F39C7
:104A2000AE12051C2074015F917A251B021F102312
:104A3000813123580A8B6FE85A190F01210241FF77
:104A40000310DC05136C02AC201607C8011C29E416
:084A5000091EDE013600000022
:04000005080000B53A
:00000001FF
