:020000040800F2
:10000000F80A0020C90000080D0B00080F0B0008BB
:1000100000000000000000000000000000000000E0
:10002000000000000000000000000000130B0008AA
:100030000000000000000000150B00081D0B000868
:10004000F5000008F5000008F5000008F5000008BC
:10005000F50000082F0B0008F5000008390B000818
:10006000F5000008F5000008F5000008F50000089C
:10007000F5000008F5000008F5000008F50000088C
:10008000F5000008F5000008F5000008F50000087C
:10009000F5000008F5000008F5000008F50000086C
:1000A000F5000008F5000008F5000008BF0400088E
:1000B000F50000080348854601F0D8FD00480047D8
:1000C000B51A0008F80A00200B4880F308880B488E
:1000D0000168090E0A4A914205D10A480A4901609D
:1000E0000A480B4901600B480047FEE7FEE7FEE7C0
:1000F000FEE7FEE7FEE70000F80A0020040000002B
:100100001F00000018100240010000000000014024
:1001100000000000B500000810B5002819DAC34A35
:1001200003071B0F083B9B089B00D2588307DC0E7C
:10013000FF23A3409A438B071B0E8407E40EA340C2
:100140001A43BA4B0407240F083CA408A4001A5110
:1001500018E0B74A03231B02D21883089B00D25829
:100160008307DC0EFF23A3409A438B071B0E8407F3
:10017000E40EA3401A43AE4B032424021B19840847
:10018000A4001A5110BD0020AA4909680122114398
:10019000A84A116000BFA74909680222114000293E
:1001A000F9D0A4490968D2049143A24A11601146CA
:1001B0000968042291439F4A116051155160112131
:1001C0009D4A11609B49496889088900994A516094
:1001D0001146496802221143964A516005E095494B
:1001E00049688905080E8007800F0228F7D17047FB
:1001F000002803D00121914A516102E001218F4A78
:10020000116170471FB5FFF7BEFF8D4C601E8D4911
:10021000884200D90CE0601E8B4948610321081F09
:10022000FFF77AFF0020884988610720086100BF36
:100230000821864800F07BFB012109036846018004
:10024000022181704821C17069460920C00600F072
:100250004CFD0121684601802821C17069460920B2
:10026000C00600F042FD052208210920C00600F06A
:10027000E6FD012168460180022181701021C170D4
:1002800069466E4800F031FD0121084601F012F880
:100290000121080701F01CF80C21002001F00EFAE2
:1002A0000120000301900021684601720C21417277
:1002B0000121817201A800F064FC072168460173E6
:1002C000022141730121817303A800F0FDFD032188
:1002D0000720FFF721FFE12149025D4800F016FAEF
:1002E00002211B20FFF718FF05220D210920C0065F
:1002F00000F0A5FD05220E210920C00600F09FFD9B
:100300000121490368460180022181701021C170DA
:1003100069460920C00600F0E8FC0121890368460F
:100320000180022181702821C17069460920C00620
:1003300000F0DBFC012149030920C00600F06AFD42
:100340001FBD10B54348007800282ED042480068F1
:1003500042490968884228D2414800683F490968F3
:10036000884222D23B480078012809D12F481C3806
:100370000069FB2108402D491C39086120BF14E0A9
:100380002A481C3800690421084328491C3908619F
:1003900030BF2848406802210843264948600121AF
:1003A00049030920C00600F035FD10BD10B502F06C
:1003B0004FFD002800D110BD2648007800282DD020
:1003C0002548006825490968884227D224480068E2
:1003D00022490968884221D21E48007801280BD1A1
:1003E0002049087011481C380069FB2108400F495A
:1003F0001C39086120BF11E002201A4908700B481F
:100400001C3800690421084308491C39086130BFC1
:10041000012149030920C00600F0FCFC00BFCAE727
:100420007047704770477047704700001CED00E050
:1004300000E100E0001002400020024000040048FB
:1004400080BB0000FFFFFF0000E000E0003800403C
:1004500000380140000000200C000020180000209F
:10046000080000200100002070B504460D46A1B22E
:10047000984801F0C7F90AE00121964801F0D4F943
:10048000002804D00121934801F0D8F900E0F3E7F7
:1004900000BF204670BD10B504460AE002218D4819
:1004A00001F0C2F9002804D002218A4801F0C6F9FF
:1004B00000E0F3E700BF874801F0A7F910BD10B5D1
:1004C0000221844801F0B0F900281CD002218148A3
:1004D00001F0B4F97F4801F098F97F497F4A12880A
:1004E00088547F4800687D21C90040187D49086014
:1004F0007A480088401C7949088008460088C82846
:1005000001DB002008800121724801F08DF90028EC
:100510002FD001216F4801F091F9734801687348A9
:1005200001F042FB6E490968401871490860714842
:1005300000787149097888420BDA6E4802780078B1
:10054000401C6C4B18706D48815C624801F05AF990
:1005500004E0002201215F4801F040F9654800787D
:1005600065490978884204DB0020634908706149C5
:10057000087010BD30B5024600205F4B1B785B1839
:10058000C82B10DA00BF07E0135C5B4C24782418FA
:100590005A4D2B55431CD8B28842F5DB564B1B787D
:1005A0005B18554C237030BD10B500244B480088B3
:1005B0005349098888423AD001F05BFA002804D1F7
:1005C000464800884E49088031E0444800884C493C
:1005D0000988884212DD414A1278494B1B78D21AA9
:1005E000D1B23D4A464B1B88D01803F0F5FE0446B5
:1005F0004348008800194249088018E0404A1278B0
:10060000C8239A1AD1B2344A3D4B1B88D01803F044
:10061000E3FE04463A480088001939490880C82199
:100620003748008801F0D6FA88B23549088010BDF5
:1006300010B500F030FC33480088401C3149088078
:100640000978C807C00FFFF7D3FDFFF7ADFF2E48AD
:100650000078022808D10920C00600F0C7FB01215C
:1006600089030840002816D123480078002812D0BA
:100670002048007800280ED101221146154801F0CB
:10068000ADF819480168194801F08EFA1449096853
:100690004018174908601C480078022815D11148F5
:1006A00000680F49096888420FD2012149030920D7
:1006B000C00600F0ADFB0C4801680C4801F074FA6C
:1006C0000749096840180749086010BD704770471E
:1006D0007047000000380140DC02002004000020C8
:1006E000180000200800002014000020204E000008
:1006F0000C0000200600002007000020140200204B
:1007000010000020120000200000002030B587B04B
:1007100004460D467148844257D10121880300F0F8
:10072000C9FD1B21684601710321417101218171BD
:1007300001A800F0C9FB00220621694800F07FFBF8
:1007400000220721664800F07AFB029530216846B6
:1007500081810021C181018281821821418202A907
:10076000204600F0E2FF01220221204601F036F887
:1007700000220121204601F031F80121204601F03C
:1007800021F8402168460183022181761821C17633
:1007900006A9534800F0A9FA802168460183042184
:1007A000C17606A94E4800F0A0FA01220221204697
:1007B00001F014F81B2168460171032141710121E8
:1007C000817101A800F080FB43E04648844240D19B
:1007D0000121480400F07CFD012200210920C0060F
:1007E00000F02DFB012211460920C00600F027FB76
:1007F000012202210920C00600F021FB0122032171
:100800000920C00600F01BFB1C2168460171032172
:1008100041710121817101A800F056FB02211C20C9
:1008200000F024F802953021684681810021C181C1
:10083000018281821821418202A9204600F075FFC1
:1008400001220221204600F0C9FF0121204600F0CC
:10085000B9FF07B030BD10B50021204800F0B2FF4D
:10086000214801681D48FFF751FF10BD10B5002851
:1008700019DA1E4A03071B0F083B9B089B00D2583E
:100880008307DC0EFF23A3409A438B071B0E8407CC
:10089000E40EA3401A43154B0407240F083CA40898
:1008A000A4001A5118E0124A03231B02D21883082D
:1008B0009B00D2588307DC0EFF23A3409A438B078B
:1008C0001B0E8407E40EA3401A43094B03242402A1
:1008D0001B198408A4001A5110BD00000038014003
:1008E0000004004800440040140000201CED00E01B
:1008F00000E100E010B504460821204600F04BFE60
:1009000010BD10B504467D49204600F044FE10BDE0
:1009100010B504461021204600F03DFE10BD10B574
:10092000044676490839204600F035FE10BD30B542
:1009300085B004460D467248844248D10121801496
:1009400000F0B8FC01210320400400F0A5FC0022C7
:1009500005216C4800F073FA00220421694800F078
:100960006EFA00220321674800F069FAA115684673
:100970000180032181701021C1706946614800F037
:10098000B4F9A1155F4800F043FA082168460180D8
:10099000032181701821C17069465A4800F0A5F9F9
:1009A000202168460180032181701821C1706946A9
:1009B000544800F09AF910216846018003218170A3
:1009C0000421C17069464F4800F08FF94AE04E4853
:1009D000844247D10121001400F07AFC0121032058
:1009E000400400F059FC03220E21464800F027FA8B
:1009F00004220D21434800F022FA04220C21414830
:100A000000F01DFAE1136846018003218170102176
:100A1000C17069463B4800F068F9E113394800F0BD
:100A2000F7F9211468460180032181701821C170F3
:100A30006946344800F059F9611468460180032181
:100A400081701821C17069462E4800F04EF9A1143A
:100A500068460180032181700421C17069462948DC
:100A600000F043F90421684681800021C1800821FB
:100A7000018100214181012181810021C181058203
:100A8000418201A9204600F0BCFC0121204600F073
:100A9000F4FC2046FFF72EFF2046FFF739FF05B094
:100AA00030BD02461848026000BF17480089C007E1
:100AB000C00F0028F9D000BF134800890223184056
:100AC0000028F9D010484068C0B2704710B5012125
:100AD000C9030C4800F09EF910BD10B50121C903EF
:100AE000084800F095F910BD10B50920C00600F0C7
:100AF0007DF9010B0120884310BD0000F7FF0000C5
:100B0000003001400004004800380040704700BF3A
:100B1000FEE77047704713480068704710B51148EA
:100B20000068401C0F49086001F070FF10BD10B54F
:100B3000012000F097F810BD10B50120000300F06F
:100B400091F809480078022805D108484068022138
:100B500008430649486000200349087001F06EFF11
:100B600010BD00001800002001000020001002400D
:100B700000203E49086048608860C8603C48486181
:100B80007047002139498279002A35D00A46126817
:100B900003689A430B461A600A46526803689A43F0
:100BA0000B465A60027951180A6803681A430A60B2
:100BB0002E4A926803689A432C4B9A601A46D26870
:100BC00003689A43294BDA604279102A0CD11A46FD
:100BD000926803681A43254B9A601A46D2680368E4
:100BE0001A43224BDA600EE02049427951180A6814
:100BF00003681A430A6006E01C49027951180A6822
:100C000003689A430A6070470021016001710C215A
:100C10004171002181717047144909690143134AE8
:100C20001161704701460020104A52690A40002AAB
:100C300001D0012000E0002070470C494861704756
:100C4000014600200022094B1B680B401A46074B47
:100C50005B690B40002B03D0002A01D0012000E08B
:100C600000207047014948617047000000040140BE
:100C7000FFFF1F0010B504461720C00620180028EB
:100C800008D001218902401A0ED0401A16D0401A0D
:100C900028D11DE00121480400F0FEFA00210120C6
:100CA000400400F0F9FA1EE00121880400F0F4FA93
:100CB00000210120800400F0EFFA14E00121C804B3
:100CC00000F0EAFA00210120C00400F0E5FA0AE091
:100CD0000121080500F0E0FA00210120000500F0E4
:100CE000DBFA00E000BF00BF10BDFCB502460025E6
:100CF000002601960020002300240096CE783507B8
:100D00002D0FCE7810273E40002E01D08E7835432F
:100D10000E78002E27D01468002021E0012686409E
:100D200033460E881E400196019E9E4217D18300D5
:100D30000F269E4000962746009EB7433C462E460F
:100D40009E403443CE78282E03D10126864056613A
:100D500005E0CE78482E02D1012686401661401C5F
:100D60000828DBD314600E88FF2E2CDD5468002089
:100D700026E0064608360127B7403B460E881E404F
:100D80000196019E9E421AD183000F269E40009636
:100D90002746009EB7433C462E469E403443CE78BD
:100DA000282E04D1064608360127B7405761CE7871
:100DB000482E04D1064608360127B7401761401C6B
:100DC0000828D6D35460FCBD0021C943018002210C
:100DD00081700421C17070470246002093680B4067
:100DE000002B01D0012000E00020704701468868F8
:100DF00080B2704702460020D3680B40002B01D020
:100E0000012000E0002070470146C86880B27047AA
:100E10000161704741617047002A01D0016100E023
:100E200041617047C16070470122120413460B43B1
:100E30001A46826181618261826982697047F0B578
:100E4000002300244D07EE0E1546B5402B46CD106D
:100E5000002D0BD1056A4E07F70E0F26BE40B54395
:100E60000562056A1D432C4604620AE0456A4E0786
:100E7000F70E0F26BE40B5434562456A1D432C461A
:100E80004462F0BD0D49086070470C4948607047E6
:100E90000A49886070470A4808490860704709484D
:100EA00006490860704701460020044AD2680A409B
:100EB000002A01D0012000E00020704700300040EF
:100EC000AAAA0000CCCC000000218278002A27D0FA
:100ED000274A03231B02D21803789B109B00D1588A
:100EE00002789207D30EFF229A400B46934319468D
:100EF00042789207120E03789B07DB0E9A4011434B
:100F00001B4A03231B02D21803789B109B00D1506D
:100F10000278D306DB0E01229A40154B1A6007E0D7
:100F20000278D306DB0E01229A40114B80331A60FF
:100F300070477047002905D00E4A126902430D4BD5
:100F40001A6104E00B4A126982430A4B1A61704726
:100F5000042806D10849096904221143064A11618F
:100F600005E00549096904229143034A116170476C
:100F700000E100E000ED00E000E000E0F94800687A
:100F800001210843F749086008464068F6490840CF
:100F9000F449486008460068F4490840F14908608F
:100FA00008460068012189048843EE490860084624
:100FB00040687F2109048843EA494860002088602E
:100FC0007047E8490968012212049143E54A11601B
:100FD00011460968012292049143E24A11600121FD
:100FE0000904411A04D003221204891A10D107E01F
:100FF000DC490968012212041143DA4A116008E051
:10100000D8490968052212041143D64A116000E04C
:1010100000BF00BF704710B501460022002300202A
:101020004A11012A02D1CF4C236806E0022A02D1DC
:10103000CC4C236A01E0CB4C636ACA06D20E012471
:1010400094401C40002C01D0012000E0002010BD85
:1010500038B5002000900024002500BF3120FFF7A4
:10106000DAFF05460098401C0090002D04D10521B0
:10107000090200988842F1D13120FFF7CCFF002807
:1010800001D0012400E00024204638BD01460020A4
:10109000B44A1068F82302469A431046CA00104327
:1010A000B04A10607047012806D1AE490968012294
:1010B0001143AC4A116005E0AA4909684908490092
:1010C000A84A1160704730B504460020A54B186847
:1010D000A74B18408B0615052B431843A14B1860EE
:1010E00030BD002807D09F4909680122120611432C
:1010F0009C4A116006E09B4909680122120691434F
:10110000984A1160704701460020964A506880084E
:10111000800002460A431046924A50607047914848
:1011200040680C2108407047014600208D4A5068F5
:10113000F02302469A43104602460A431046894A63
:101140005060704701460020864A506807231B0202
:1011500002469A43104602460A431046814A5060AE
:101160007047014600207F4A50680723DB02024691
:101170009A431046CA0010437A4A506070470029CB
:1011800006D0784A926803021A43764B9A6005E0CB
:10119000744A926803029A43724B9A60704771498D
:1011A000496801436F4A51607047014600206D4A0B
:1011B000506803239B0302469A43104602460A43A3
:1011C0001046684A50607047002806D06549496A51
:1011D00001221143634A516205E06249496A4908A4
:1011E0004900604A5162704770B5044600250026E8
:1011F0005C4840680C2108400546002D04D0042DB1
:1012000005D0082D13D105E05A48206012E0594856
:1012100020600FE0534805680120000528400028A1
:1012200002D15548206001E05448206002E0514856
:10123000206000BF00BF4B484068F02108400546D1
:101240002D094F48465D2068F04060604548406881
:1012500007210902084005462D0A4948465D606895
:10126000F040A0603F484068C90008400546ED0ACC
:101270004348465D6068F040E0603A4840680321BA
:10128000890308400546AD0B3E48465D3146E0689F
:1012900000F08AFC206170BD002905D0314A5269F6
:1012A0000243304B5A6104E02E4A526982432D4B6F
:1012B0005A617047002905D02A4A92690243294B96
:1012C0009A6104E0274A92698243264B9A617047EB
:1012D000002905D0234AD2690243224BDA6104E097
:1012E000204AD26982431F4BDA617047002905D03A
:1012F0001C4AD26802431B4BDA6004E0194AD268E8
:101300008243184BDA607047002905D0154A1269EC
:101310000243144B1A6104E0124A12698243114BD2
:101320001A617047012806D10E490968C2041143A9
:101330000C4A116006E00B4909680122D20491436E
:10134000084A11607047074949680722120691430D
:10135000044A51601146496802061143014A51602E
:1013600070470000001002400000FFF8FFFFF6FE8B
:10137000FFFF8F0300127A00006CDC0200A24A0417
:101380001C0000202C0000200C48406A01210906A6
:1013900008430A494862704701460020074A92689C
:1013A0000A40002A01D0012000E0002070470349D4
:1013B000896802041143014A91607047001002409D
:1013C00010B50446A648201800280DD01F21C902D8
:1013D000401A13D101210803FFF788FF00210120E3
:1013E0000003FFF783FF0AE001218803FFF77EFF78
:1013F000002101208003FFF779FF00E000BF00BF5C
:1014000010BD10B50022028B0F231B031A404B881E
:101410004C8923430C8823431A430283828B914BCC
:101420001A40CB89CC8823430C8923431A431823C1
:1014300013438383028C00228B891A4302848B8896
:10144000082B07D0838B042423438383838B0824B6
:10145000234383838B88838510BD002101804180D5
:10146000082181800021C180012101810021418169
:10147000022181810021C1817047002904D0028BA3
:1014800001231A43028304E0028B764B3E331A4059
:101490000283704710B5002A07D0038B0224234330
:1014A0000383038A0B43038207E0038A8B4303828F
:1014B000038B6C4C3D342340038310BD002A03D0C2
:1014C000038B0B43038302E0038B8B43038370473F
:1014D000002A03D0038B0B43038302E0038B8B436F
:1014E000038370470A46838DD9B20260082901DC64
:1014F000002901D1130A0360102901DC002901D160
:10150000130C0360182901DC002901D1130E0360BC
:10151000704701464A6810438A8D082A02DC8A8D8A
:10152000002A02D14A68120210438A8D102A02DC76
:101530008A8D002A02D14A68120410438A8D182A23
:1015400002DC8A8D002A02D14A68120610437047D5
:1015500010B5002A03D0038D0B40038503E0038DF3
:10156000CC432343038510BD3E4A3E32914204D012
:10157000028B01231A43028304E0028B394B3E3372
:101580001A4002837047028B374B1A400283028B4A
:101590000A4302837047082903D1028B08231A43A8
:1015A0000283102903D1028B10231A4302832D4A90
:1015B0003732914203D1028B0B461A400283294AEB
:1015C0002F32914203D1028B0B461A40028370479F
:1015D00030B502460B460024908D082808D11089AA
:1015E0001840002801D0012400E00024204630BD2E
:1015F000908D002804DD908D082801DC012110E089
:10160000908D102801DC02210BE0908D182801DC60
:10161000032106E0908D1F2802DD908D002800D167
:10162000042110890F252D0228400012884201DB79
:101630000120DCE70020DAE70246002093890B4016
:10164000002B01D0012000E000207047828A0A436D
:101650008282704781847047828B0A4382837047FD
:1016600000C8FFBFC0FF0000FFFC00002448006866
:101670008007800F224908600020886000212048F0
:10168000C160016141617047014600201C4A106839
:101690008008800002460A431046194A10607047CD
:1016A000002905D0164A12680243154B1A6004E05F
:1016B000134A12688243124B1A60704730B50022F9
:1016C0008B071C0F0F23A3401A460D4B08338C10B9
:1016D000A4001B5993430A4C08348D10AD0063518C
:1016E00023468C10A4001B598C07250F0446AC40E0
:1016F0002343034C08348D10AD00635130BD00000E
:101700000000014010B504464D482018002809D1BA
:1017100001218803FFF7EAFD002101208003FFF784
:10172000E5FD00E000BF00BF10BDF0B587B0054685
:101730000E4600240020069000272F46EC69CF219A
:10174000204688430446B088F1880843318908431D
:101750000443EC61AC6964096401B0897189084390
:101760000443AC6101A8FFF73FFD35484042874282
:1017700002D10498069001E00398069031680A238C
:10178000069A5A43100900F00FFA04460A2120462F
:1017900000F00AFA042900D90A340A21204600F090
:1017A00003FA04462C6207B0F0BD4B21C901016069
:1017B000302181800021C1800181182141810021D7
:1017C00081817047002904D0826901231A43826114
:1017D00003E082691B4B1A4082617047002A03D0E4
:1017E00003690B43036102E003698B4303617047A4
:1017F000002A03D083690B43836102E083698B4332
:1018000083617047CAB20260704701464868C0B23F
:1018100070470246002093680B40002B01D0012046
:1018200000E000207047704702460020D3680B405C
:10183000002B01D0012000E000207047416170477B
:1018400000C8FEBFFEFF000001460C2008708E4855
:10185000704770B504460D462A4621468A4800F076
:10186000CDF92946204601F027FB70BD09207047BD
:10187000FEB506460F461446089D0520C002854267
:101880000DD1012C0BD181A000680190022001AB89
:10189000062201210090304600F082FEFEBD0520A8
:1018A000C00285420DD1072C0BDC79A000680190A5
:1018B000022001AB0F2207210090304600F070FE9D
:1018C000ECE70520C00285420AD1102C08DC10206C
:1018D000704B192201460090304600F061FEDDE7B2
:1018E00022463946304600F0B1FD00BFD6E7F8B5D4
:1018F00006460F4615461C46122D19D0132D18D03A
:10190000152D10D0182D18D1A07800046178090287
:1019100008432178084360490860304602F0DEFF42
:10192000FEF799FF0FE020460699FEF723FE00BF61
:1019300000BF304602F0D2FF05E02A463946304665
:1019400000F084FD00BF00BFF8BD70477047F0B5E0
:1019500085B005460C46164603A8FFF775FF0290B2
:101960000F2C3AD006DC042C0BD0092C13D00B2CF6
:101970006DD121E0132C39D0182C42D0192C66D10E
:101980005CE06846007B0090224629463046029B78
:1019900000F0DEFD61E001F001FB009000F052F983
:1019A000C7B201F0FBFA0346224629460097019090
:1019B000304600F0CDFD50E000F024FA009000F039
:1019C00041F9C7B200F01EFA0346224629460097A5
:1019D0000190304600F0BCFD3FE007202FA32246D7
:1019E00029460090304600F0B3FD36E0002001901B
:1019F000022001AB224629460090304600F0A8FDA7
:101A00002BE025480068FF2109040840010C6846C6
:101A1000017421480068FF2109020840010A684654
:101A200041741D48017868468174032004AB224646
:101A300029460090304600F08BFD0EE0082019A3E7
:101A4000224629460090304600F082FD05E02246FD
:101A50002946304600F0FAFC00BF00BF05B0F0BDDB
:101A6000704730B50546039C002030BD70470BA081
:101A700070470F48007870470D490978884201D0B7
:101A80000B4908707047000030000020001800006B
:101A90000A180000964A0008140000205356332EFE
:101AA000312E35004261756452617465000000009A
:101AB0003E00002008B501256D05194C19A00068ED
:101AC000009000BF28466D1E0028FBD1FEF79AFB50
:101AD0007D21C900062000F03FF800F061FA1249AC
:101AE000432001F021FF20780B2810DD20781B28EF
:101AF0000DDA207869464870532001F01FFD02225C
:101B00006946042001F054FD562001F017FDFF2026
:101B1000413001F0AFF901E0FEF748FCFCE70000BE
:101B200004F8FF1FC01200004000002010B505E0BF
:101B30000120FFF7B8F9002800D100E0F8E700BF66
:101B400010BD10B505E00220FFF7ADF9002800D167
:101B500000E0F8E700BF10BD70B504460D46012057
:101B6000FFF732FB00BF6120FFF755FA0028FAD0DB
:101B7000FFF7DCFF0B48FFF785F9E0B2FFF785F9C7
:101B8000FFF7DFFF0748FFF77DF92805000DFFF796
:101B90007FF9FFF780F9FFF782F970BD10B5FFF705
:101BA0007AF910BD5555000030B50B4601460020AE
:101BB0002022012409E00D46D5409D4205D31D4653
:101BC0009540491B2546954040191546521E002D4B
:101BD000F1DC30BD70B500242546002801DA01246F
:101BE0004042002901DA01254942FFF7DDFFAC42FE
:101BF00000D04042002C00D0494270BD03460B4348
:101C00009B0703D009E008C9121F08C0042AFAD2B2
:101C100003E00B780370401C491C521EF9D2704738
:101C2000D2B201E00270401C491EFBD27047002274
:101C3000F6E710B513460A4604461946FFF7F0FFCB
:101C4000204610BD421C0178401C0029FBD1801A9F
:101C5000704730B504460020034600E05B1C934209
:101C600003D2E05CCD5C401BF8D030BD064C0125B2
:101C7000064E05E0E36807CC2B430C3C9847103434
:101C8000B442F7D3FEF71AFA504B0008704B000825
:101C900030B58C180278401C13071B0F01D1037854
:101CA000401C120906D10278401C03E005780D7033
:101CB000401C491C5B1EF9D101E00B70491C521EEF
:101CC000FBD1A142E6D3002030BD000010B5FEF7E5
:101CD00022FF084A116A884207D2081AD18A88422C
:101CE00003D905480078002801D0002010BD01204C
:101CF00010BD000058000020BC00002010B50A4CA8
:101D0000607900280CD0FEF706FFA16A884208D34C
:101D1000401A01218902884203D20020607101200B
:101D200010BD002010BD00000801002070B5114C4E
:101D30000025216A4A78002A07D04989A289914260
:101D400003D100F0F5FA206A4570E169487900286E
:101D50000ED0C888A28990420AD10648A6790522E9
:101D60003430FFF74BFF02F059FBE0694571A67173
:101D700070BD00009801002010B503490A6B496B43
:101D80005043FFF711FF10BD0801002010B50446B5
:101D900008480849C06A496B002804DB6043FFF724
:101DA00003FF001910BD40426043FFF7FDFE201AFB
:101DB00010BD00000801002013B56A4612781320F8
:101DC0000240094802706A4654784470002C03D0DF
:101DD0002246801CFFF712FF0349A41C0846E2B20A
:101DE000083801F033FC1CBDE40000200148807875
:101DF00070470000080100200148C07970470000CA
:101E0000080100200748084900780209303200071D
:101E1000000F8A70092801D8303000E03730C870D0
:101E200001487047BB0000204A000020014880782C
:101E3000704700005C01002010B5074C607A002854
:101E400008D0FEF768FE616A884203D30020607202
:101E5000012010BD002010BD5800002010B50F4912
:101E60000F480A68824203D10E4A1278D2070BD07B
:101E700008600D4801F028FE0B48001D01F04FFEE0
:101E80004B20C00001F0ACFE0848006901F0D1FE13
:101E900006481830807901F03AFE10BD4801002054
:101EA000304B00085900002098060020E001002077
:101EB00010B5184918480A68184C824203D1184ACC
:101EC0001278D2070DD00860A08A0A21484300F09A
:101ED00075F81248183001F022FE10482C3001F03D
:101EE000F3FD206B01F0A5FEE08A01F079FE607938
:101EF00001F00DFE512001F021FB7821002001F0BE
:101F000073FB7A21002001F06FFB562001F016FBD5
:101F100010BD000048010020144B0008980100206B
:101F2000580000201FB502246B461C730A21597308
:101F3000062119700021597005229A70D97001226A
:101F40001A715A719C71D9711872000A5872194627
:101F50000398FFF731FF1FBD01494870704700002B
:101F6000C8000020044902464879002803D0034BEA
:101F7000136000224A7170475C010020ED050020CB
:101F800010B50C46282906D20A4601460248FFF73A
:101F900035FE0248447110BDED0500205C010020B3
:101FA00001490120887170475800002002490A6ADF
:101FB00010180862704700005800002070B50446F1
:101FC000034D01206872FEF7A6FD0019686270BD1E
:101FD0005800002010B5FEF724FAFEF79CFD0349D7
:101FE0001E3088620120487110BD000008010020E9
:101FF0000521C001090240180149486070470000EE
:102000005401002030B47446641E2578641CAB4231
:1020100000D21D46635D5B00E31830BC184702E048
:1020200008C8121F08C1002AFAD170477047002063
:1020300001E001C1121F002AFBD17047090710B54A
:10204000090FC00705D0032902D1022001F080FD4D
:1020500010BD05480079002802D0FFF7BBFF10BD76
:1020600001F0F6FD10BD000008010020F7B5264C78
:1020700000262671087817460007000F0D46032832
:1020800002D005281FD114E08121009809014018D1
:10209000E06101F098FD206901F026FD6178E06BB8
:1020A00001F02EFD60780121C001C9024018A06135
:1020B0001EE0002F07D02846062214490830FFF7FB
:1020C000C8FD002802D001F0C3FD11E0104C2078BB
:1020D000800708D50020FFF7CFFC2078FD210840BD
:1020E00020700C4806703A462946009800F046FCDD
:1020F000532001F023FA0849042001F048FA562041
:1021000001F01CFAFEBD000008010020B50000200F
:1021100059000020600000209B01002070B5474C52
:102120000646E079002823D0A078401CA070A07952
:10213000002801D02820A07020790025002808D090
:10214000606A091A206A301A00F050FBE5702571A8
:10215000A581FF20193001F043FDA078272815D86C
:1021600001F0D5FC0020FFF721FF01F07EFD70BDDE
:10217000512001F0E3F97821202001F035FA5620B2
:1021800001F0DCF96420FFF711FF70BD2520A0707D
:102190006069FFF7FBFD861960698009FFF706FF9C
:1021A000E079022818D126480078800706D52572E4
:1021B000A581FFF77DFE01F081FD25E02148007833
:1021C000800709D52572A581FFF748FE01F076FD4D
:1021D0001D490120087017E0A089401CA08160897A
:1021E000301A01F026FDA07801F091FC512001F099
:1021F000A5F97821002001F0F7F97A21002001F0FB
:10220000F3F9562001F09AF9104805220078D2011E
:10221000410041188901891862699142B5D2217A39
:10222000491CC9B221721729AFD32572002802D0E8
:1022300001F07EFA70BD01F020FA70BD08010020A7
:10224000580000205900002060000020BD00002040
:1022500010B509492520887001F059FCFF2019307C
:1022600001F0BEFC002001F068FC01F0FEFC002043
:1022700002F0AEF810BD00000801002010B50C48B7
:102280000078000702D001F0E3FC10BD782001F0D7
:10229000A7FC012001F05CFC05480E38C16980698B
:1022A000081891210901401801F08DFC10BD0000B3
:1022B00016010020F8B506460D46022001F048FC44
:1022C0002320C001194C2818E061A17825290AD1E2
:1022D0006289FA2151430818E0611001801AFF3029
:1022E000193001F07DFCE06901F06DFC0F48694692
:1022F000C0890880009801F0F7FB2178A06B01F0FD
:10230000FFFB20780121C001C9024018A061A0781C
:1023100025280AD126626562A089112802D2E078B8
:10232000002802D00120E0702071F8BD08010020D3
:1023300070B50D4C0546206A0178E1714088E08156
:1023400050214843FFF722FD40192063206A81880D
:102350002182C18861820089A082E07903494843D3
:102360004018E08270BD000098010020E2040000E7
:1023700070B5044600781C4D4006C00F28712846F1
:102380000622A11C3930FFF739FC0E3428460422FE
:1023900021462C30FFF732FC28460322211D18303D
:1023A000FFF72CFCE079E871617A207A0902401885
:1023B000E881E17AA07A090240182882617B207BBB
:1023C000090240186882E17BA07B09024018A882BC
:1023D00021462846052210313430FFF70FFC607D7E
:1023E000C006C00E287270BD980100207FB50AA4F7
:1023F00070CC80070194800F039602956C46207084
:10240000092060706172A272100AE072237301A940
:10241000009800F020F87FBD0500040001000000D6
:10242000000000000EB507A106C980070091800FCB
:1024300001926946087207204872029800F00BF872
:102440000EBD0000030004000317000010B50A23AE
:10245000FFF7CCFF10BD10B5FFF7AEFC10BDFFB508
:1024600087B01E466F46109B119A054638710920A9
:10247000787105200C463872002179720420B872F8
:10248000F972601C387301207873B973F8730520F2
:10249000C0023974834213D105A8009006AB3146BF
:1024A0000998FFF7DEFA00280AD06946088B4873BE
:1024B000888AC87302A90198FFF7CDFF0BB0F0BD61
:1024C00021462846099AFFF7C1FFF7E7FFB587B015
:1024D000079817468007800F6A4610700A205070D0
:1024E0000020507106211171D071042191710521D4
:1024F0001172012151721E46D0720446134D1AE02A
:1025000020460A21484341194988B94211D3B142B2
:102510000FD80A214C43611989786A469172285A6A
:102520001073000A507301A90098FFF794FF0BB0D5
:10253000F0BD641CE4B2FFF799F9A042E0D83A4636
:1025400008990798FFF782FFF1E700003C4A00086E
:10255000F0B589B00E4607461D461C2101A80E9C09
:10256000FFF765FBB807800F69460870601D48706B
:10257000601C0871000A4871042088710020C8712D
:10258000761C0E7201A904E02A5C0B18401C5A71DB
:10259000C0B2A042F8D30098FFF75DFF09B0F0BDCC
:1025A000F0B589B08446002468460E9D04714471DC
:1025B00004268671C471112606722E1D4672817220
:1025C000C472027344730A2001AF002105E05A5C13
:1025D0003A54401C491CC0B2C9B2A942F7D3011FEA
:1025E0006A46117161468907890F1170507039462A
:1025F0000098FFF730FF09B0F0BD0000FFB589B0CB
:10260000099815218507129E4902AD0F1F468E427B
:1026100021D16846FFF718F9014668460571002385
:1026200043710078801CC2B2122A00D91222941C75
:102630006D462C72200A68720426AE72EB72092075
:1026400028736A73AE73EB7304A8921EFFF7D6FA71
:10265000241D6C713FE0614886423ED10B980728EB
:102660003BD15F480078002837D06B461D71172199
:10267000197200215972042199720021D97209211D
:10268000072019735873082098730020D87302200C
:1026900018745974002199742921D9742A21197543
:1026A0000A225A7500249C75D8750B251D760025C5
:1026B0005D7626259D760E22D9761A7700225A77E6
:1026C00098770F24DC7708AB1A702820587099701F
:1026D0001B206B46587102A96FE0FF2F00D9FF271E
:1026E000002471E020460A2148433E490A5AB2427A
:1026F00068D1411848880B9A904263D3B84261D898
:10270000364A521E964223D10A226E463272002366
:1027100073720422B272F372092232730822727346
:102720000A2254432F4AA2189278B273000AF07317
:10273000002002AA0B181418401C1B79C0B2237287
:102740000528F7D3487A707535710E20707133E023
:1027500009266F463E7200237B720422BA72FB7216
:102760003E7307227A730A2254431E4AA2189278B3
:10277000BA73000AF873184602AA0B181418401C02
:102780001B79C0B223720528F7D33D710D207871F3
:10279000497AFF2910D0144B00200901C9180B5C9D
:1027A0001418401CC0B2E3721028F8D31B207871B3
:1027B000172038721520787311460198FFF74BFEE9
:1027C0000DB0F0BD641CE4B2FFF750F8A04289D808
:1027D00009AB07CBFFF73AFEF2E700000328000041
:1027E000440000203C4A0008964A00084B22D200D0
:1027F000084B821A9A420CD27D22D200064B8A1ACA
:102800009A4206D2FA224243531A044AD3625163CF
:1028100010637047A81D0000196618000801002009
:1028200010B5FDF7FDFD01F013FA10BD7FB52821AD
:10283000484308490A9D099C48616E460846B68887
:10284000C6818A630B706E46308C0882CC634D70F3
:102850007FBD00000801002003490248086040686D
:1028600000470000DC4A00084801002006490878BB
:10287000002806D0022804D001D9401E087001208B
:1028800070470020704700005401002070B5264EAC
:102890002448306025480C46C16004222448FFF7D4
:1028A000ADF9234D0322211D281DFFF7A7F9E0797B
:1028B000E871617A207A090240182881E17AA07AC9
:1028C000090240186881617B207B09024018A881B9
:1028D000E17BA07B09024018E881214628460522B9
:1028E00010311030FFF78AF9607DC006C00E6875A0
:1028F000607D4009A8750D48203000F091FE00F081
:1029000067FB0C480122017811430170104600F06A
:1029100077F83068406880477D200001FFF74EFB64
:1029200070BD0000304B000848010020E00100208D
:1029300098060020590000201FB509490A9C099BF0
:10294000087008484243CA806A4690890881084650
:10295000128C4281CB614C70002008711FBD0000B9
:102960005C010020710200000349024808604068D1
:1029700000470000F84A00084801002070B50846EA
:102980001B4B1A4919601146FFF7F2FC194C1A4902
:10299000208A801F884208D2A08A091F0A388842EC
:1029A00003D2207A401F0C2802D301F051F970BDE8
:1029B000012000F025F8114D012128780843E3217A
:1029C00008402870208A4100A08A814200D288B243
:1029D0000A214843FFF7F2FA28789F21084028701F
:1029E00001F036F90020607070BD0000144B000843
:1029F00048010020980100207B0C000058000020B6
:102A000001490870704700005401002010B50948C2
:102A1000807900280CD0084800680078002807D189
:102A2000FFF76CF9002801D0FFF7FAFE00F094FEE2
:102A300010BD00005800002048010020FEB5F74EF0
:102A4000F74FB2793146097AF64DF74C032A04D094
:102A5000012A77D0022A03D004E001291AD0D8E055
:102A60000322B271F081012902D000290AD00BE0C3
:102A7000EA48401C0078800706D4318B002001F022
:102A80005DFF01E001F046FF317AB0790143E6D005
:102A9000002857D100207071FEF726F8002877D063
:102AA000DE48C01D01F006F8F07900F0E0FDF07995
:102AB000C1070BD0694601A800F09CFEDB480099D5
:102AC0000160019838602A68926868E0810719D52A
:102AD000694601A800F08EFE286800998269019875
:102AE0009047CE482830FFF73DFA3071FFF79EF946
:102AF0003279B16A252803D00020FDF7E7FD71E0A7
:102B00000120FAE7C10603D528684069804769E0DB
:102B100001062BD52868C4490078002813D001206D
:102B200000F098FE617820780902401881B2286888
:102B3000C26801209047F079410610D5684600F040
:102B400075FE21E07CE0002000F084FE61782078B2
:102B50000902401881B22868C26801201FE080067F
:102B600040D5694601A800F045FE2EE0410610D58B
:102B7000684600F05BFE28680078002804D1A74A68
:102B8000A9490A3200F084FE28686278036925E0CA
:102B90005AE0410705D528680021C26808469047D9
:102BA00020E0010703D50020FFF72AFF18E0800688
:102BB00016D5694601A800F01DFE28680178002995
:102BC0000AD09949012000F045FE2868627803691F
:102BD00000210098984705E0036900229249F8E730
:102BE00001F036F828680078002807D08B48401C90
:102BF000007880071DD5307A00281AD1F079800737
:102C000017D5307A002807D101F084FEB079032867
:102C100002D00020F0712AE0FFF70EF9002803D05F
:102C2000307A01280DD004E07079002801D101F03C
:102C30001CF8B079002800D12EE7F0798028FBD06D
:102C4000FEBD00207071F2E7B0790028F4D0F07971
:102C50000028F1D1FEBDF079022808D1FFF736F83F
:102C6000002804D0B079002801D1FDF76AFB28685C
:102C7000007800280ED1B079002805D1FFF73EF882
:102C8000002801D0FFF7CCFDFFF7B6F8002801D1EE
:102C9000FDF7CEFCFDF728FF00287CD05F48C01D63
:102CA00000F008FFF07900F0E2FCF079C1070FD0E6
:102CB000694601A800F09EFD5C48009901600198FA
:102CC00038602A6892689047FDF725FF306290E0EF
:102CD000810719D5694601A800F08CFD00F0B8FF06
:102CE00028680099826901989047FFF77FF82528A6
:102CF00003D14A480078800703D528680078012866
:102D000077D1FDF795FC74E0C10603D528684069CA
:102D100080476EE001062BD52868434900780028DB
:102D200013D0012000F096FD617820780902401848
:102D300081B22868C26801209047F079410610D519
:102D4000694601A800F056FD28E0002000F082FD51
:102D5000617820780902401881B22868C268012091
:102D600028E0800645D5694601A800F043FD31E022
:102D7000410617D5684600F059FD286800780028FC
:102D80000CD120780007000F052807D1234A2649D7
:102D90000A32002000E054E000F07AFD28686278F2
:102DA000036920E0410701D4010705D52868002107
:102DB000C268084690471CE0810616D5694601A8FE
:102DC00000F018FD2868017800290AD01649012072
:102DD00000F040FD28686278036900210098984758
:102DE00007E0036900221049F8E7002820D000F02E
:102DF0002FFFF07980071BD5307A012818D10748BA
:102E0000401C0078800713D4318B002001F096FD20
:102E1000B079032800D03DE60EE000005800002005
:102E20005001002048010020E20300204C01002056
:102E3000B079002800D10EE7F079802800D009E7AA
:102E400009E7B0790028F6D0F0790028F3D1FEBD6B
:102E500010B5074CE079022806D1FEF737FF0028AD
:102E600002D0A079032801D0002010BD012010BDA0
:102E70005800002070B50546FDF74DFE04460A34A3
:102E8000FDF749FEA042FBD3034902208871284682
:102E9000FFF7D4FD70BD00005800002010B50549B3
:102EA000087000090001491D001D087001F07CFD3B
:102EB00010BD00006300002030B5182900D918218A
:102EC0000A4B4A1C1A70002204E0845C9D18521CB4
:102ED000AC70D2B28A42F8D3002003E05A18491CE1
:102EE0009070C9B21929F9D330BD000084000020C8
:102EF00010B50E4945200C4608700A3C0121A06916
:102F0000C9024018606100F05EFE6178E06900F07F
:102F1000F7FD62781B21D001C90140182061616969
:102F20000818E169FFF7B2FC10BD0000660100203F
:102F300070B50D46124A01461078002809D0401E8F
:102F40001070002656705068092806D0401C50604A
:102F500005E001205070002070BD304656600C2204
:102F6000084B4243D41842018018074A80182A4669
:102F70002060FEF743FE25712046A66070BD00006C
:102F8000C0000020580500200C04002010B500F0FF
:102F900042FE0020FFF72CF810BD000000A0704793
:102FA0004D475F424C455F4C49425F56332E3000DF
:102FB0000148007870470000C000002003480078F6
:102FC0000A2801D00020704701207047C00000206F
:102FD00004490348886000204870887070470000EA
:102FE0004C4B00080802002013B56A4612781320E3
:102FF0000240094802706A4654784470002C03D09D
:103000002246801CFEF7FAFDA41CE2B202490348E6
:1030100000F01CFB1CBD0000B006002000020020D8
:1030200070B502780124112A19D14378891E1D1F19
:10303000CAB20B4E801C0CE00188B1804488F48039
:10304000E9B201E0491EC9B20029FBD1C018D11A6A
:10305000CAB2002AF0D1641CA0B200F08CF870BD96
:10306000080200201FB502226B461A730B225A7306
:1030700007221A7000225A7004249C70DA70082209
:103080001A715871000A9871D971080A18720320D0
:1030900058722820987219460398FFF7A5FF1FBDA4
:1030A00010B5821C891E4478CBB208E02146104638
:1030B00001F028FC501C191B4088CBB21219002BC0
:1030C000F4D10349C988884201D8FFF7CBFF10BD6E
:1030D0000802002002480122817851408170704727
:1030E0000802002002480122417851404170704797
:1030F0000802002010B54078082807D0102804D115
:103100000448C1888088FFF7ADFF10BD252000F07E
:103110004FF810BD080200200EB502206A4610725A
:103120000520507201201070002050700421917011
:10313000D0701E20107169460298FFF755FF0EBD32
:103140001FB5132318406B461873092058730520C8
:1031500018700020587004249C70D87001201871D9
:103160005971100AD8719A710A2018721946039879
:10317000FFF73AFF1FBD1FB502216A4611730B21ED
:103180005173072111700021517004239370D17085
:10319000102313715071000A9071FF20D0711072CA
:1031A00051722820907211460398FFF71DFF1FBD32
:1031B0000EB50F4AD178002902D02120002100E06D
:1031C0000121D17002216B46197207215972032126
:1031D00019700021597004229A70D9700A2119714E
:1031E0005871000A987169460298FFF7FDFE0EBDFE
:1031F000080200201CB5124A6946124800F03CFD46
:10320000684600780F49002806D101200870002088
:10321000487002206A46107048786A4650710878F3
:1032200013221040084A891C53789278DB00184317
:10323000920010436A461071019801F09FFB1CBD7B
:1032400000020020B00600200802002010B5374917
:10325000012000F0FFFA364A3449012000F018FB43
:10326000324C334920788978830700079B0FC00FC1
:1032700088420ED1FFF72EFFFFF734FF012B04D059
:10328000032B2CD0022B09D029E0294800780228F2
:1032900001D2002010BDFDF71AFA20E02348A179E1
:1032A000C01C112922D009DC0B00FEF7ABFE0C116B
:1032B0003A111811181111111A1124111B2920D0BB
:1032C00004DC122904D0132902D108E01D2916D0EC
:1032D00042790079120202430220FFF731FF0120F8
:1032E00010BDA178A01DFFF7DBFEF8E7A178A01DB7
:1032F000FFF796FEF3E72520FFF75AFFEFE7FFF70A
:103300000BFFE078A1780002C01E0818C2B2217A33
:10331000E07909024018054980B20931FDF7D8F972
:10332000DDE7A178A01DFFF7E5FED8E7B006002095
:103330000802002070B50F4D0F4EA878717D40181F
:103340002521FEF731FCC808297080194A070C4670
:10335000007C520F01219140084201D0AC7106E07F
:1033600029792046FEF720FCE9706970A971AC70DC
:1033700070BD0000F801002098060020C10710B5BC
:10338000054802D00021017010BD0178491C017070
:1033900000F05EFC10BD0000E001002010B57D20B3
:1033A0000C460001FEF70AFE002C02D00249012063
:1033B000487000F04DFC10BDE0010020F3B52C4E2C
:1033C0002C4C7089217800274843F18981B0C900CD
:1033D000884203D927700020FFF712FBFFF746FA57
:1033E000254D002813D02878C1071AD002210843A0
:1033F0004008400028703089502148430199401806
:10340000903020610220FEF737FB206911E0002098
:10341000FEF732FBFFF7A8FA2878FD210840287054
:10342000FEBD708950214843FEF7B0FCA1684018EA
:1034300020610002000A2061FFF77CFF0F4800783E
:10344000022805D12878800702D50D48077001E0D1
:10345000FEF704FD6078002808D0FFF7F7FE6070E3
:10346000002803D007480068006880476770FEBDE9
:1034700098060020E0010020590000200F010020E4
:103480006000002010020020F8B500241149124D00
:103490008C700C7120460123C20852194607127C19
:1034A000760F1F46B7403A4202D00A79521C0A7181
:1034B000401CC0B22528EFD34B20C00000F090FB89
:1034C00000F0C6FB034818384470044800680068E0
:1034D0008047F8BDF8010020980600201002002067
:1034E00010B50A480078C00702D000F0B1FB10BD4B
:1034F000032000F02DFB0648064940690968401882
:1035000025218901401800F05EFB10BD5900002004
:10351000E00100205801002070B505460C46062049
:1035200000F016FB1B20C0012018034C606100F066
:103530004AFBA56070BD0000E001002010B5044604
:10354000FDF7C4FA01215020FDF7ABFA0121204616
:10355000FDF7A7FAFDF7C1FA10BDF8B515460E46FE
:103560000446FDF7B3FA01212046FDF79AFA074613
:10357000002406E00021FF20FDF793FA3055641C7B
:10358000E4B2AC42F6D3FDF7A8FA3846F8BD70B500
:103590000C460546FDF79AFA01212846FDF781FA07
:1035A0000021FF20FDF77DFA2070FDF796FA70BD2F
:1035B000F8B516460D4604460027FDF787FA202089
:1035C00020430121FDF76DFA002407E0287801214E
:1035D0006D1CFDF766FA641C0746E4B2B442F5D3ED
:1035E000FDF77BFA3846F8BD70B50D460446FDF789
:1035F0006DFA202020430121FDF753FA01212846CE
:10360000FDF74FFAFDF769FA70BD0168002902D194
:103610004068002801D0002070470120704700005A
:1036200000210160416002490A20087070470000D3
:10363000C00000200268136812790A700168896866
:103640000160002900D141601846704710B50B4653
:10365000044611461846FFF76BFC002806D0616847
:10366000002901D0886000E02060606010BD10B5C6
:1036700001460E20FFF7B8FF10BD1CB55320FFF721
:103680005DFF03211F20FFF7AFFF01A91F20FFF7F8
:103690007EFF684600790028F7D103211F20FFF73D
:1036A000A3FF01A91F20FFF772FF684600790028D9
:1036B000F7D101211520FFF797FFA0211220FFF776
:1036C00093FF04210A20FFF78FFF00210A20FFF754
:1036D0008BFF88211220FFF787FF012469460C70B9
:1036E0002120487002221320FFF762FF69460C7008
:1036F0002020487002221320FFF75AFF00211520D6
:10370000FFF772FF5620FFF719FF1CBD08B5002018
:10371000694608705120FFF711FF5320FFF70EFF95
:1037200069461F20FFF733FF6946087808BD00008F
:1037300010B55120FFF702FF5320FFF7FFFE0321D2
:103740001F20FFF751FF5620FFF7F8FE0149012027
:10375000487010BDBB00002038B5254CA07801286A
:1037600038D16078002835D0012834D0022831D1F2
:10377000FFF7CCFF00282DD101211520FFF734FFE2
:10378000A0211220FFF730FF04210A20FFF72CFFB1
:1037900000210A20FFF728FF88211220FFF724FFCD
:1037A000012569460D702120487002221320FFF781
:1037B000FFFE69460D702020487002221320FFF79B
:1037C000F7FE00211520FFF70FFF5620FFF7B6FE8A
:1037D0000020607038BDFFF799FF0028FAD103215F
:1037E0001F20FFF701FF5620FFF7A8FE0220F0E799
:1037F000BB0000207CB50D46044606226946102019
:10380000FFF7ABFE694648790B7902041802C978C4
:103810001018401869462060887849780004090229
:10382000401869460978401828607CBD38B50446C0
:10383000032269461020FFF790FE68468078010455
:103840006846427810020918684600780818206017
:1038500038BD00007CB50D4D0C46002811D0022269
:1038600069460620FFF779FE6846007820706846B2
:1038700040786070684600782870684640786870C4
:103880007CBD022269460420ECE70000BE00002057
:1038900070B513460C46002809D06278901C187049
:1038A000002A03D0A11C6120FFF757FE70BD1D4800
:1038B000254641780835891C1170017821704178BE
:1038C0006170017840780907090F0B00FEF79AFB39
:1038D0000706090614051A060500E7E70622A11CDB
:1038E00008E00C28E2D10622A11C0A20FFF735FED1
:1038F000062229460B20D7E70C28D7D106222946D5
:103900000A20D1E72228D1D10622A11C0B20FFF7E3
:1039100024FE062229460A20FFF71FFE1622214612
:103920000E31C0E7BE000020FEB505460026684601
:1039300006715E4C51200C60FFF700FE01A91F20AC
:10394000FFF725FE684601798029F7D158491E20E6
:10395000FFF71DFE78210020FFF746FE06210846EE
:10396000FFF742FE7A210020FFF73EFE5320FFF7CB
:10397000E5FD88211720FFF737FE88211820FFF783
:1039800033FE88211920FFF72FFE00211520FFF7B5
:103990002BFE02210120FFF727FE1E211D20FFF72D
:1039A00023FE284600F0F0F800A908200131FFF7B7
:1039B000EEFD684640783E4F002807D11220694648
:1039C000487038781B2801D215204870C0216846FD
:1039D00001702D218170032269460420FFF7E8FD64
:1039E0008025684605704670022269460C20FFF764
:1039F000DFFD1C216846017045703878192802D116
:103A0000CC2069460870022269461420FFF7D0FDD9
:103A100010206946087002274F703A460A20FFF7C7
:103A2000C7FD69460F701220487002220D20FFF773
:103A3000BFFD0120694608700720487002220E2051
:103A4000FFF7B6FD3820694608700F2048708E7069
:103A500003220220FFF7ACFD71210920FFF7C4FD0E
:103A600069460D7070204870212088704020C87011
:103A700004220B20FFF79CFD5620FFF75FFDFF217E
:103A80000E20FFF7B1FD062208490820FFF765FD6B
:103A900060796D2806D1ED20607106220349082067
:103AA000FFF786FD00F0D4F8FEBD0000B500002051
:103AB000BB00002038B5044669460E20FFF767FDBD
:103AC00068460178217038BD1CB501786A461170CE
:103AD0004178517081789170C078D0700422694625
:103AE0000C20FFF765FD1CBD01B582B06946087A60
:103AF0000870487A487002220320FFF759FD0EBD76
:103B00000A4610B50146A020FFF752FD10BD10B5C2
:103B1000282803D201460120FFF766FD10BD1CB521
:103B200001786A4611704178517080789070032254
:103B300069460D20FFF73CFD1CBD1CB5FF216A4600
:103B400011705070022269460E20FFF731FD1CBD36
:103B500010B504280BD001280BD002280ED0032862
:103B60000ED005280ED0062807D1042102E002213C
:103B700000E009210220FFF737FD10BD0C21F9E715
:103B80000121F7E70321F5E708B502216A46117024
:103B900050700A4669460F20FFF70AFD08BD1CB5A4
:103BA00001786A4611704178517081789170C178BE
:103BB000D17001791171407950710622694609204E
:103BC000FFF7F6FC1CBD1CB56A461070010A517067
:103BD000000C9070032269460720FFF7E9FC1CBD2A
:103BE0001CB56A461070010A517000219170054998
:103BF000884201D901209070032269461120FFF705
:103C0000D7FC1CBDFFFF00000A4610B50146A020EE
:103C1000FFF7CEFC10BD01B582B06946087A0222DA
:103C2000C006C00E0870487A48700520FFF7C0FC37
:103C30000EBD1CB500216A4611705070010A9170CA
:103C4000000CD070042269460F20FFF7B1FC1CBDA8
:103C50001CB5022069460870FF2048708870C87043
:103C600004220F20FFF7A4FC1CBD10B501210F207A
:103C7000FFF7BAFC10BD000038B5054600230C461E
:103C800010460093FFF7C1FC002802D02B70237070
:103C900038BD69461046FFF7CDFC014668460278FC
:103CA0002846FDF7ABFF684600782070024801788F
:103CB000491C017038BD0000C000002010B5044C44
:103CC0002068FFF7A8FF61780248FFF79DFF10BD4D
:103CD0008C0100202006002010B5054803498160B2
:103CE000002141701430FFF79BFC10BDD84A00083A
:103CF000C80000207047000000B587B0182209A155
:103D00006846FDF77BFF0D480321017018214170C3
:103D1000801E4088694608830698FEF74DF807B074
:103D200000BD0000101000280001002C0118200028
:103D30000300FFFFFFFFFFFFFFFFFFFF8E010020DB
:103D40003EB500228C070E490092A40F01920C7020
:103D500006244C7002236C46237062700179A170B6
:103D60004079E0700D2020711A2060710448694686
:103D7000801E408820810298FEF71EF83EBD00009C
:103D80008E0100201FB508A007C86B4607C309486D
:103D90000321017009214170801E40886946888195
:103DA0000398FEF709F81FBD09000000000000009D
:103DB000000000008E0100203EB500228C070E4955
:103DC0000092A40F01920C7006244C7002236C46E2
:103DD000237062700179A1704079E0700520207134
:103DE0003720607104486946801E4088208102980F
:103DF000FDF7E2FF3EBD00008E01002008B58907F7
:103E00000748890F017000214170801E4088694673
:103E100008800098FFF7BAF80020FEF7F1FD08BD12
:103E20008E0100201CB509A10968009108490322F0
:103E30000A7002224A70694648700548801E408810
:103E400088800198FDF7B8FF1CBD00000700000046
:103E50008E0100200EB509A005C800908907094809
:103E6000890F0192017006214170801E40886946C9
:103E700008810298FDF7A0FF0EBD00000C079C050D
:103E8000172000008E010020FEB5154C01A9224626
:103E9000083A2046FFF7F0FE6846007901262546DD
:103EA000002801D12E70687021780D4F1320014039
:103EB0001C3F78780423C24352081A40400711433C
:103EC000C00FC00001436A46117060785070A11C99
:103ED000009800F053FD2E7000207870FEBD0000A9
:103EE000E4000020FEB50D46002102911D2D00D9F1
:103EF0001D2501462A469B48FDF780FE9A48994CAD
:103F000005702078984A8107890F9070012914D094
:103F1000032917D002290FD1637921791B02A579D2
:103F2000C91806294BD0042950D0052904D1132DD6
:103F300002D00020FDF7F6FFFEBD022DFCD3FDF7F9
:103F400095FDFEBDA1780B00FEF75CF8120B0F1E6D
:103F5000233535350A283535352D0A35320A0A35E7
:103F6000EFE7E01C00F0E8F9FEBD01467D48FFF7F1
:103F7000C1FE617A207A090240186946088102A9C7
:103F8000E01C00F00BFAFEBD01467648FFF736FF55
:103F9000FEBD01467348FFF7D3FEFEBD01467148E2
:103FA000FFF7F0FEFEBD01466E48FFF753FFFEBD72
:103FB000FFF7A2FEFEBD0846FFF734FFFEBD012D50
:103FC000FCD101466748FFF7F7FEFEBD66490C319C
:103FD000102D72D00ADCAE1E3300FEF713F80B1D55
:103FE0001522153615541589159415005D4B0933A6
:103FF000182D7BD004DC122D79D0162D04D192E03F
:104000001E2DE2D0522D72D06906DED40623002286
:104010002946FEF7EBF9FEBD00222946FEF702FA1B
:10402000FEBD237AE2791B02D21892B20A80637A2B
:10403000A47A24021B199BB24B809A4201D9012316
:10404000E6E72946FEF742FAFEBD237AE2791B0233
:10405000D21892B20A80A67A637A36029B199BB272
:104060004B809A42EBD8267BE17A36028919667B2F
:10407000A47B89B224023419A4B200910194294688
:10408000FEF7EDF9FEBD237AE2791B02D21892B257
:104090000A80A67A637A36029B199BB24B80E67A35
:1040A000247B24023419A4B28C809A42C7D82946B2
:1040B0000094FEF7A3FAFEBDFFE7237AE2791B0224
:1040C000D21892B20A80A67A637A36029B199BB202
:1040D0004B80E67A247B24023419A4B28C809A4265
:1040E000ADD829460094FDF7C3FBE4E724E027E0C0
:1040F000237AE1791B02C91889B2918002462846C9
:10410000FDF725FCD7E7237AE1791B02C91889B2AC
:104110009180A37A627A1B02D21893B20246284693
:10412000FDF79EFCC7E7217AE079090240189080EC
:104130000C4800F0B0FBBEE70A4800F06FFBBAE79E
:10414000E178A6780902C91E7118CEB2E179247A05
:104150002402091989B291800A4629460096FDF782
:10416000C6FBA8E7D0050020C800002013B56A46AA
:104170000448127802706A46527842700248FDF78D
:104180003DFD1CBD8C010020200600200907090F01
:10419000C20710B50C480ED00B00FDF733FF07081F
:1041A00008050B0B0B050B000078012802D102203B
:1041B000FFF7CEFC10BD0179142901D10021017156
:1041C000FFF746FD10BD00005C010020F8B50C466D
:1041D0002849002A886110D0002C0ED0217826466C
:1041E0008F06BF0E911F0836951C3B00FDF70AFF96
:1041F0000708082C3535352C3500FFF729FDF8BDAB
:104200001C4AA77820321378BB421DD15378E77837
:10421000BB4219D193782779BB4215D1D3786779FE
:10422000BB4211D11379A779BB420DD15279E37901
:104230009A4209D10F498209C96948708A70C00A37
:10424000C870FEF755FE0AE0CAB231466120FFF79A
:1042500084F9E9B22046FDF793FEFFF7F9FC5320FD
:10426000FFF76CF904490420FFF791F95620FFF796
:1042700065F9F8BD5C0100209B01002070B5114C70
:104280000646A0780D46401CC2B2A270282A01D171
:104290002520A070A078FFF73AFC207913280DD1D3
:1042A00009480068291A09480068301AFEF79EFA82
:1042B00007480078002802D0FFF73AFA70BDFFF7F0
:1042C000DCF970BD5C0100204C0100205001002091
:1042D000BD00002010B5074C2520A070FFF717FC8B
:1042E000E088FFF77DFC04480078800701D4FFF7E1
:1042F000BCFC10BD5C0100205900002010B5FFF788
:10430000A7FC10BD38B50C460120FFF721FC094879
:104310006946408908800098FFF7E6FB0548203091
:10432000FFF73DFC1520000202492018C860FFF786
:104330004AFC38BD5C01002030B5164B0122196AD9
:104340004A7002780A7084784278240212194A80EE
:104350000479C2782402121992B28A80857944794C
:104360002D026419CC80057AC4792D0264190C8160
:10437000447A807A0002201880B200244881062AFC
:1043800000D24C709A89801A034A904200DB4C702C
:1043900030BD000098010020FF7F000010B50A4CDE
:1043A0000346E0690988C18005221946FDF726FC0D
:1043B000E06901214171C188A289891A034A9142A9
:1043C00001DB0021417110BD98010020FF7F00003A
:1043D00010B5FDF7F3FD10BDF8B50C4607460026F5
:1043E00014E0142C01D9142500E02546FEF7E0FD69
:1043F00003280FD3084800950288BB191B2102200F
:1044000000F01DFA7019C6B2601BC4B2002C01D0B6
:10441000002FE6D13046F8BD3C000020F0B50C4B33
:1044200000201C46987134340A4A58720125C1088C
:104430004607615C760F2F46B740394203D0597A60
:104440005054491C5972401CC0B22528EFD3F0BD0E
:10445000980100205206002010B5C00706D104487C
:10446000FB22017811400170FFF7F2FB10BD000044
:1044700058000020F8B5064633480C46808A0A21C9
:1044800015464843FDF79AFD304F0421387808431C
:10449000E72108403870FBF7C5FF002C03D0607897
:1044A000002818D01BE04120400105213018264C7F
:1044B000C9014018A062FFF786FB1B2D00D91B2500
:1044C000E801311A05200002081A606238781021CC
:1044D0000843387035E03878082108433870812067
:1044E0000001194930188862FFF76DFBE8010121CE
:1044F000301A8902411A144841622078FDF72CFDD8
:104500003878227841061207C90FD20F914218D18C
:104510000D4C012121704021484038700C48006842
:1045200000688047FBF77FFF002060705320FFF793
:1045300005F8E11C0420FFF72AF85620FEF7FEFFDD
:10454000F8BDFBF770FFF8BD98010020580000206F
:10455000D0000020F8B50F460646FEF787F9874DD4
:104560000028287826D0864CC10737D0022108437E
:104570002870E089502148432830FDF707FC801956
:104580002063FFF74BFFE06900264671206A467002
:10459000A6812670FFF7A0FBA671E0797949484310
:1045A0004018E0820120FDF767FA7748007802287A
:1045B00010D0A5E0FD21084028700020FDF7F6FC92
:1045C00071480078022802D18020FEF767FC00F0D5
:1045D000A1F9F8BD8220FEF761FC91E02078002867
:1045E0000FD06A490120FFF735F96A466749012073
:1045F000FFF74EF9684601786448FFF773FC002026
:1046000020702878400732D5606A0121381A0906DF
:1046100040180002000AFDF7AFFB371A28780007A0
:104620001BD5608A002818D0FEF7C8FC002814D0DB
:10463000208A618A41430818502148435038FDF7C9
:10464000A5FBC0192063A189608A0918A181217A7C
:104650004143A0790818A07107E0208A50214843FF
:104660005038FDF793FBC0192063608934E0208A3D
:10467000082801D20121A17045493D280F6807D2C1
:10468000502201465143C20080180009081A02E076
:10469000502148431938FDF779FBC0192063208A5F
:1046A000092806D261784843062148433549FA3142
:1046B00007E0112807D261784843062148437D214D
:1046C0000901401808E03D2805D2617848430621D9
:1046D00048433049F5E73048E082206B0A36B04263
:1046E00000D22663A078002804D12C49206B0988C9
:1046F000401A2063A089401CA081206BFDF716FBA7
:10470000A079217A4018C0B22521FDF74DFA1C4B43
:10471000A171CA0834339A5C4B0708465B0F01212C
:1047200099400A4205D1617AFDF73EFA17482538CB
:10473000405C607114480078022805D12878800711
:1047400002D500F0E7F801E0FDF7B2FB2878C107D9
:1047500004D040084000287000200BE0A07800281A
:1047600005D00020FDF722FC0020A070F8BD208AB3
:1047700081080818FDF71AFCF8BD00005800002059
:1047800098010020E20400000F01002077060020BD
:1047900050010020C4090000204E0000120100203A
:1047A00010B506480078C00604D500210846FFF77A
:1047B00053FE10BDFFF74CFA10BD0000580000205A
:1047C00070B50D46FDF738FB002809D1114C607813
:1047D000322805D8218A4143A08AC000814205D9E8
:1047E0000020FEF70DF9FFF733FA70BD0420FFF744
:1047F000AFF9C3204001A1782818002904D1064947
:10480000FA22098851430818FFF7DDF96078401C47
:10481000607070BD980100201201002008B50221CF
:104820006A46117005215170012181701921817131
:10483000811C0098FDF70FFEFDF788F808BDFFB555
:104840008BB0149C1D461746E61C242101A8FDF7D9
:10485000EEF90B981321084069460870E01D487076
:104860000E71300A4871042088710020C8710C98BC
:1048700008724F72380A8872002001A904E02A5C8D
:104880000B18401CDA71C0B2A042F8D30098FDF7B3
:10489000E2FD0FB0F0BDF8B50446827AC178007A27
:1048A000E57900020543A07809020843401F87B25A
:1048B000667A1002064302206946087060784870E4
:1048C0001720A071A11C0098FDF7C5FD21463346B5
:1048D0003A460B312846FDF738F8F8BD0EB507A16A
:1048E00006C980070091800F019269460872052071
:1048F00048720298FDF7AFFD0EBD000001000400F4
:1049000013000000491FC8B201E0401EC0B20028D9
:10491000FBD1704710B500F047F8074800788007D2
:1049200007D40548401C0078800702D40020FDF71A
:10493000A3F8FDF791FF10BD5800002010B50E4BF5
:1049400086B01A4616240393473A0494928A6B461B
:104950001A810023084A00930193473A528A6B4612
:104960009A820A4601214902059BFDF7E5FFFDF702
:10497000FBFF06B010BD00009F00002073B50D4680
:104980000098FFF748F968464478002C03D0214688
:104990002846FFF739F92046FDF72AFB29460098FB
:1049A000FFF7E4FB7CBD000030B585B003A8FCF741
:1049B0004BFF6946097B182902D918216A461173F1
:1049C00069460A7B1B4B511C1970002104E0445CB2
:1049D0005D18491CAC70C9B29142F8D3002003E0C5
:1049E0009918521C8870D2B2192AF9D31149114A68
:1049F0000C462C3CA578123A03231B20002D01D035
:104A00000D4A2B46E578002D02D00B4928461F3170
:104A100001910290208A6D46288006482C38C17A80
:104A20002974007B6874E0890499FDF7FFFE05B0E6
:104A300030BD000084000020A403002003280300F0
:104A4000020400002AFF03280800020900292AFFA7
:104A500003280A00020B00262AFF03280E00020F7B
:104A600000282AFF0328110010120000000102296B
:104A700013000A0000000000032814000C150000B9
:104A80000002032817000A1800000003012919007A
:104A90000200000000009ECADC240EE5A9E093F3AA
:104AA000A3B50100406E9ECADC240EE5A9E093F395
:104AB000A3B50300406E9ECADC240EE5A9E093F383
:104AC000A3B50200406E9ECADC240EE5A9E093F374
:104AD000A3B50400406E0000893E000800000000FD
:104AE00051220008B52200083D2000086D20000872
:104AF0007D2200081D21000800000000D5420008AA
:104B0000054300088D410008CD410008FD42000822
:104B10007D4200080100000000000000C1470008BD
:104B20005944000875440008A1470008554500088D
:104B30000100000089340008193500087D330008A1
:104B40009D330008E1340008BD330008F53100084A
:104B5000704B00080000002014020000901C0008A8
:104B6000084C000814020020E40800002E20000871
:104B7000021501A3C201901E0102030401020304F5
:104B800006070809020406084D5331373933532DFF
:104B9000554152541225640101790B1046562020CC
:104BA0002E342E312E382F800900A0008421030CD2
:104BB00045220400200411020106021A094C4D8B03
:104BC000AB6348CDF104060028C9C800FFFFFFFF12
:104BD0001F0902240A0226FF522552010220103327
:104BE000813133580A04206FE8094225022A104215
:104BF00001B914060020820100200311DC050959C7
:084C0000D80100204606002047
:04000005080000B53A
:00000001FF
