:020000040800F2
:10000000200B0020C9000008090C00080B0C000898
:1000100000000000000000000000000000000000E0
:100020000000000000000000000000000D0C0008AF
:1000300000000000000000000F0C0008170C000872
:10004000F5000008F5000008F5000008F5000008BC
:10005000F5000008270C0008F5000008310C000826
:10006000F5000008F5000008F5000008F50000089C
:10007000F5000008F5000008F5000008F50000088C
:10008000F5000008F5000008F5000008F50000087C
:10009000F5000008F5000008F5000008F50000086C
:1000A000F5000008F5000008F5000008F30300085B
:1000B000F50000080348854601F05AFC0048004757
:1000C000FD170008200B00200B4880F308880B4820
:1000D0000168090E0A4A914205D10A480A4901609D
:1000E0000A480B4901600B480047FEE7FEE7FEE7C0
:1000F000FEE7FEE7FEE70000200B00200400000002
:100100001F00000018100240010000000000014024
:1001100000000000B50000088307FF22DB0E9A40B4
:100120008907090E994000280BDA0007000F0838EC
:10013000830891489B001818C36993430B43C3611C
:10014000704783088D489B001818036893430B433E
:10015000036070478A4900200A6801231A430A6035
:100160000A689207FCD50A6801231B059A430A60B6
:100170000A6804239A430A60DA014A60814B11221B
:100180001A604A68920892004A604A6802231A4339
:100190004A6002E048680007800F0228FAD17047E1
:1001A00001227949002801D04A6170470A617047ED
:1001B000F0B585B0FFF7CEFF754C74486061032140
:1001C000081FFFF7A9FF0026A6610727276108215E
:1001D000704800F052FC012000036A46108002249F
:1001E00094704820D0706946000600F0C1FD0125DA
:1001F0006A4615802820D07009206946C00600F0A4
:10020000B7FD092005220821C00600F02BFE6A4632
:10021000158094701020D07069465B4800F0A8FDEE
:100220000121084600F0A0FF0121080700F0A5FF0A
:100230000C21002001F03BF9E00201906A461672A1
:100240000C205072957201A800F015FD6A461773D4
:100250005473957303A800F03DFE03210720FFF7B8
:100260005BFFE12149024C4800F03AFB02211B20D0
:10027000FFF752FF092005220D21C00600F0F2FD14
:10028000092005220E21C00600F0ECFD25036A4678
:10029000158094701020D07009206946C00600F0C7
:1002A00067FD60036A46108094702820D070092092
:1002B0006946C00600F05CFD09202946C00600F032
:1002C000BEFD05B0F0BD10B53448007800281CD044
:1002D00033490A6833490B689A4216D2324A096890
:1002E00012688A4211D22449012808690ED00422DA
:1002F0001043086130BF2248416802221143416027
:1003000009201103C00600F09AFD10BDFB22104029
:10031000086120BF10BD10B502F034FB00281DD0CD
:100320001E4A1078002819D01D490C681D490B6819
:100330009C4213D21C4B09681B688B420ED20E499B
:1003400001280CD002205070086904221043086173
:1003500030BF0920D102C00600F071FD10BD0120A0
:1003600050700869FB221040086120BF10BD704723
:10037000704770477047704700ED00E000E400E010
:100380000010024000200240000400487FBB000033
:1003900000E000E00038004000380140000000208C
:1003A00010000020CC0000200C00002070B5FF4D94
:1003B000044681B2284601F0F5F80121284601F0F3
:1003C000FFF80028F9D00121284601F000F9204665
:1003D00070BD10B5F54C0221204601F0F1F800285F
:1003E000F9D00221204601F0F2F8204601F0DDF8B4
:1003F00010BDF8B5ED4D0221284601F0E1F8EC4EB4
:100400000027EC4C002814D00221284601F0DFF828
:10041000284601F0CAF8E84AA188505430687D2285
:10042000D2008018491CA06088B2A080C82800D3E0
:10043000A7800121284601F0C3F8002823D001211C
:10044000284601F0C4F8DD480168DD4801F02EFAC5
:1004500031684018E06020786178884208D2D64937
:10046000C839095C401C2070284601F09BF804E064
:1004700000220121284601F085F820786178884221
:1004800001D367702770F8BDF0B5CA4C00226378BD
:100490005D18C82D0BD2C84EC83E04E0845C9F187E
:1004A000521CF455D2B28A42F8D3C2484570F0BD0E
:1004B00010B5082902D80821C2A006E00839C9B23F
:1004C000083001F08FF80721C1A0FFF7DDFF10BD54
:1004D00010B500230C2902D80821BAA014E00C2280
:1004E00006E00A246343845C303BE318521CD2B21A
:1004F0008A42F6D31920C001834200DD034698B238
:1005000002F07EFA0721B2A0FFF7BEFF10BDF8B5DA
:1005100000260090082902D80821AAA022E008306D
:1005200005E00A225643303E8919CEB2401C0178BC
:100530002C29F6D1C41C00250CE0207800F07CF9B1
:100540000701607800F078F90743009847556D1C63
:10055000EDB2A41CB542F0D33146009803F08AF9FD
:1005600007219BA0FFF790FFF8BD10B50B2902D81B
:10057000082194A007E0C07A302807D0012002F0BB
:1005800027FA072192A0FFF77FFF10BD0020F6E7B2
:1005900010B5062902D008218AA003E001F0CAFFA5
:1005A00007218BA0FFF770FF10BD092902D8082191
:1005B00084A009E0407A8849312806D0322806D044
:1005C00000200870072182A05EE70120F9E70220E1
:1005D000F7E710B40023082902D8082179A016E013
:1005E000082206E00A246343845C303BE318521C73
:1005F000D2B28A42F6D371480168994205D00360AD
:100600006C490120C87010BC7047072170A010BC55
:100610003AE710B507216EA0FFF736FF0B216FA058
:10062000FFF732FF082170A0FFF72EFF01F09DF8C1
:10063000002802D002216FA001E002216EA0FFF786
:1006400023FF10BDF0B585B0002414226B49684625
:1006500001F042F907215EA0FFF716FF0B215FA012
:10066000FFF712FF534E6D4610360A2714206043E1
:100670008119E81C091D01F067F9684601F050F97D
:10068000C0B22F54401CC1B26846FFF7FDFE641C87
:10069000E4B2092CEAD305B0F0BDF8B5464F002608
:1006A0003D46C835434C25E0A178385C6854491C68
:1006B000C9B2A170342900D3A6703D4AA16812685E
:1006C000914203D30A2801D00D280CD1A07801282B
:1006D00008D029182039CE77401EC1B23648C8301C
:1006E00000F0B5F8A670E088C821401C80B201F087
:1006F000DDF8E180A188E0888142D5D1F8BD10B550
:100700002C4CA088E188884210D001F02EF80028F7
:100710000DD0A188E088284A81420AD9091AC9B2B5
:10072000101803F0A7F8E1880818E08010BDA08831
:10073000FBE7C821091AC9B2101803F09BF8E18839
:10074000081880B2C82101F0B1F8E18010BDF8B5F9
:1007500000F0A9FBFFF7A1FF1F4E184F3078144D92
:10076000144C022805D10920C00600F059FB4004B2
:1007700011D4607800280ED0207800280BD10122F7
:1007800011460A4800F0FEFE0D48396801F08EF867
:1007900029684018E060307802283BD1A0682968B9
:1007A000884237D201214903092029E0003801405D
:1007B000CC0000200400002054030020C8000020CA
:1007C000204E0000494E443A4552520A00000000B3
:1007D000494E443A4F4B0A0000000020494E443A2B
:1007E000566572312E300A00494E443A434F4E3D11
:1007F00000000000310A0000300A00004C3E0008F2
:10080000C00600F01AFB2F48396801F04FF829683C
:100810004018A060E07800280CD0401CC0B2E07006
:10082000022807D900F0FEF80020E07007212648D2
:10083000FFF72AFEF8BD7047392801D8303804E0A8
:10084000462801D8373800E05738C0B27047F8B5AD
:100850000C4606461DA100F020F8002818D0E41E22
:10086000E7B200241A4DF61C1420604341193046AB
:10087000091D00F012F8002806D0142044432A591C
:10088000394630469047F8BD641CE4B2092CEBD3DE
:10089000082110A0FFF7F8FDF8BD70B506460D461B
:1008A0000024084601F03CF8C0B207E0295D325D43
:1008B000914201D0002070BD641CE4B28442F5D3A3
:1008C000012070BD204E0000D007000841542B00CD
:1008D00014000020494E443A4552520A00000000DC
:1008E000F0B50D4655490327002487B0884254D1FE
:1008F0000121880300F038FC1B216846017447740D
:100900000126867404A800F0E5FA002206214C486E
:1009100000F0A8FA00220721494800F0A3FA009548
:10092000302168468180C480048184811824434D2D
:1009300044816946284600F0DBFD01220221284659
:1009400000F020FE00220121284600F01BFE0121BC
:10095000284600F00DFE4021684681820221817503
:10096000C47505A9364800F003FA802168468182E3
:100970000421C17505A9324800F0FAF901220221CB
:10098000284600F0FFFD1B216846017447748674F9
:1009900004A800F09FFA07B0F0BD2A4EB042FAD189
:1009A0000121480400F0E9FB092001220021C006D2
:1009B00000F058FA012209201146C00600F052FA50
:1009C000092001220221C00600F04CFA0920012270
:1009D0000321C00600F046FA1C20694608744F74D3
:1009E0000120887404A800F075FA17490868020A03
:1009F0001202802002430A603020694600958880F8
:100A0000CC800C818C8118204881304600F070FD2C
:100A100001220221304600F0B5FD0121304600F0F0
:100A2000A7FDB8E710B5054C0021204600F0A0FD59
:100A3000064920460968FFF753FF10BD0038014002
:100A400000040048004400401CE400E0C80000200E
:100A500010B5082100F0B0FC10BD10B5664900F0DB
:100A6000ABFC10BD10B5102100F0A6FC10BD624912
:100A700010B5083900F0A0FC10BDF3B506465F487C
:100A80000324042585B0864236D10121801400F06C
:100A90006BFB0121600400F05EFB00220521584839
:100AA00000F0E0F900220421554800F0DBF90022B3
:100AB0000321534800F0D6F9AF0169460F808C70CE
:100AC0001020C8704E4800F053F939464C4800F0E9
:100AD000B4F90820694608808C701827CF70484800
:100AE00000F046F92020694608808C70CF70444899
:100AF00000F03EF9102039E0424886423DD1012104
:100B0000001400F03AFB03200121400400F023FB15
:100B100003220E213A4800F0A5F904220D2138489D
:100B200000F0A0F904220C21354800F09BF9F713DE
:100B300069460F808C701020C870314800F018F999
:100B400039462F4800F079F93014694608808C70D6
:100B50001827CF702A4800F00BF9701469460880F6
:100B60008C70CF70264800F003F9B01469460880F5
:100B70008C70CD70224800F0FBF86A46958000200A
:100B8000D08008211181508101219181D081069965
:100B90001182508201A9304600F05BFB01213046F2
:100BA00000F08EFB3046FFF753FF3046FFF75AFF49
:100BB00007B0F0BD134908600889C007FCD0088958
:100BC0008007FCD54868C0B2704710B50121C90341
:100BD0000B4800F034F910BD10B50121C9030848D5
:100BE00000F02BF910BD10B50920C00600F018F96F
:100BF000C004C017401C10BDF7FF000000300140CA
:100C000000040048003800407047FEE77047704716
:100C100011480068704710B50F480168491C016011
:100C200001F090FC10BD10B5012000F07AF810BD65
:100C300010B50120000300F074F80848017802297B
:100C400004D107494A6802231A434A60002101700F
:100C5000084601F08FFC10BDCC00002001000020F0
:100C60000010024030480021016041608160C16095
:100C70002E494161704710B583792B490268002BDA
:100C800026D00B6893430B604A6803689A434A6016
:100C90000279521813680468234313608A68036852
:100CA0009A438A60CA6803689A43CA604279102AE4
:100CB00005D051180A68006802430A6010BD8A68AE
:100CC00003681A438A60CA6800680243CA6010BD9C
:100CD0000079401801689143016010BD0021016056
:100CE00001710C224271817170470F490A690243F8
:100CF0000A6170470C4A0146526900200A4200D03E
:100D000001207047084948617047074B024619683F
:100D100000205B691140134202D0002900D001205D
:100D2000704701494861704700040140FFFF1F0000
:100D3000172110B5C906401811D001218902401AA7
:100D400010D0401A11D0884208D1012184022046D7
:100D500000F001FA0021204600F0FDF910BD01214C
:100D60004C04F4E701218C04F1E70121CC04EEE707
:100D7000F0B5CC78002223071B0FE40601D58C7850
:100D800023430C782406240E1AD0046801250E880B
:100D900095402E40AE420FD197000F26BE40B4437F
:100DA0001E46BE403443CE78282E02D0482E02D0B4
:100DB00002E0456100E00561521C082AE6D30460A8
:100DC0000A88FF2A1CD944680022164608360125E5
:100DD000B5400E882E40AE420ED197000F26BE4081
:100DE000B4431E46BE403443CE78282E00D1456120
:100DF000CE78482E00D10561521C082AE5D3446004
:100E0000F0BD0021C9430180022181700421C1701D
:100E100070470246926800200A4200D001207047C5
:100E2000806880B270470246D26800200A4200D033
:100E300001207047C06880B270470161704741610E
:100E40007047002A01D00161704741617047C1605D
:100E50007047012212040A438261816182618169C3
:100E6000806970474B0710B5DB0E9A40CC080F2104
:100E70009940002C06D0436A8B434362416A114378
:100E8000416210BD036A8B430362016A1143016230
:100E900010BD00000C49086070470B49486070475E
:100EA0000949886070470849084808607047064942
:100EB000074808607047044A0146D26800200A4289
:100EC00000D001207047000000300040AAAA0000B6
:100ED000CCCC000030B5827801240178002A15D0EE
:100EE0008B08184A9B009A1813688907C90EFF25BA
:100EF0008D40AB434578AD072D0E8D401D431560E9
:100F00000078C006C00E84400F4804E0C806C00E3A
:100F100084400D488030046030BD70470B4A002982
:100F2000116901D0014300E081431161704704223F
:100F300007490428086902D09043086170471043AC
:100F4000FBE7000000E400E000E100E000ED00E06D
:100F500000E000E0AC4801680122114301604168F3
:100F6000AA4A114041600168A94A11400160016824
:100F7000012292049143016041687F22120491434F
:100F8000416000218160704710B59F490B680122C4
:100F9000120493430B600B689400A3430B60801A08
:100FA00009D003221204904204D1086805221204D9
:100FB0001043086010BD0868FAE70346002059098D
:100FC000914A01290AD002290AD0516ADA06D20EC2
:100FD000012393400B4200D0012070471168F5E7D0
:100FE000116AF3E718B5002005242402009031208F
:100FF000FFF7E3FF0099491C0091002801D1A142AD
:10100000F5D13120FFF7D9FF002800D0012018BD0D
:101010007D4A1168F8239943C00008431060704767
:1010200079490128086803D04008400008607047EB
:1010300001221043FAE710B5734B1868754C890606
:101040001205204011430143196010BD01226E4971
:1010500012060028086801D0104300E090430860A1
:101060007047694A51688908890001435160704797
:10107000654840680C2108407047634A5168F02376
:1010800099430143516070475F4A516807231B022F
:1010900099430143516070475B4A51680723DB0263
:1010A0009943C000084350607047574A0002002926
:1010B000916801D0014300E081439160704752493B
:1010C0004A6802434A6070474F4A516803239B03B2
:1010D00099430143516070474B490028486A02D048
:1010E0000122104301E0400840004862704770B59B
:1010F0004549044648680C221040474A03D004285A
:1011000001D0082801D0226006E00868C00201D49E
:10111000424800E0424820604868424A0006000F0A
:10112000135C2068D84060604B685B055B0FD35C44
:101130000546DD40A5604B689B045B0FD25CD04048
:10114000E0604968374A0904890F121F515C00F0BA
:10115000ADFB206170BD2C4A0029516901D00143CB
:1011600000E0814351617047274A0029916901D00D
:10117000014300E0814391617047234A0029D1690E
:1011800001D0014300E08143D16170471E4A00292C
:10119000D16801D0014300E08143D16070471A4A11
:1011A0000029116901D0014300E0814311617047BA
:1011B00001221549D2040128086802D09043086032
:1011C00070471043FBE710494A6807231B069A4300
:1011D0004A604A68000602434A6070470A48416A0A
:1011E00001221206114341627047074A0146926884
:1011F00000200A4200D00120704703498A68000499
:1012000002438A6070470000001002400000FFF8AF
:10121000FFFFF6FEFFFF8F0300127A00006CDC0276
:1012200000A24A04D4000020904910B5401806D00E
:101230001F21C90288420BD101210C0301E00121C9
:101240008C032046FFF7A2FF00212046FFF79EFFF8
:1012500010BD10B5028B0F231B031A404B884C891D
:1012600023430C88144323430383838B3F22D243BD
:101270001340CA89CC8822430C891C43224318237B
:101280001A438283028C8A8902848A88082A07D0BA
:10129000828B04231A438283828B08231A4382831E
:1012A0008988818510BD00210180418008228280CB
:1012B000C18001220281418102228281C181704765
:1012C0000029018B02D00122114301E049084900A5
:1012D000018370470223002A06D0028B1A4302833F
:1012E000028A0A4302827047028A8A430282018B81
:1012F000994301837047002A028B01D00A4300E022
:101300008A4302837047002A028B01D00A4300E01F
:101310008A4302837047828D0160D2B2082A01D8C5
:10132000002A01D10B0A0360102A01D8002A01D13A
:101330000B0C0360182A01D8002A01D1090E0160A4
:10134000704741681143828D082A02D8828D002A95
:1013500002D1426812021143828D102A02D8828D76
:10136000002A02D1426812041143828D182A02D841
:10137000828D002A02D1406800060143084670476A
:10138000002A028D01D00A4001E0C9430A430285C8
:101390007047374A9142018B02D00122114301E08C
:1013A0004908490001837047028B324B1A4002837F
:1013B000028B0A430283704710B50822082911D016
:1013C0001024102911D02A4BDB1F994202D1038B24
:1013D00093430383264A0F3A914202D1018BA143E2
:1013E000018310BD018B1143FAE7018B2143F7E71D
:1013F000838D0022082B07D0828D002A0AD0828D8F
:10140000082A07D8012116E00089084200D00122ED
:1014100010467047828D102A01D802210BE0828D80
:10142000182A01D8032106E0828D1F2A02D9828D55
:10143000002A00D1042100890005000F884201D351
:1014400001207047002070470246928900200A421E
:1014500000D001207047828A0A43828270478184CB
:101460007047828B0A4382837047000000C8FFBF29
:10147000FEFF0000FFFC0000154801688907890F86
:10148000016000218160C160016141617047104AC3
:101490001168890889000143116070470C4A0029CE
:1014A000116801D0014300E08143116070478A0751
:1014B00010B5120F0F2393408C080549A400611842
:1014C0008C689C438C608B68904003438B6010BD9C
:1014D000000001403F4910B5C84208D101218C03EA
:1014E0002046FFF753FE00212046FFF74FFE10BDB8
:1014F00030B50446C06985B00D46CF218843A98820
:10150000EA8811432A8902431143E161A0696A898B
:101510004109A889490110430843A0616846FFF7C3
:10152000E6FD2C484042844201D1039800E0029835
:101530000A2250430009296800F0B8F905460A213B
:1015400000F0B4F9042900D90A350A21284600F030
:10155000ADF9206205B030BD4B21C90101603021D9
:1015600081800021C18001811822428181817047E0
:101570000029816902D00122114301E0164A11407D
:1015800081617047002A026901D00A4300E08A4362
:1015900002617047002A826901D00A4300E08A4351
:1015A00082617047C9B2016070474068C0B270473D
:1015B0000246926800200A4200D00120704770471E
:1015C0000246D26800200A4200D0012070474161E3
:1015D0007047000000C8FEBFFEFF00000C21017034
:1015E0007048704770B50C460A46054601466D487E
:1015F00000F072F92146284601F00AFA70BD092070
:1016000070477CB50524069BE4020225A34201D164
:10161000012A0BD0A34211D1072A0FD862A1096871
:101620000F22019101AB009507210FE05FA109682E
:101630000622019101AB0095012107E0A34208D1E8
:10164000102A06D810215A4B1922009100F092FD61
:101650007CBD00F0E5FC7CBD70B51D460446122A39
:1016600026D0132A24D0152A11D0182A02D000F02F
:10167000D7FC70BD184600F070F900024D49000A11
:101680000860204602F04CFBFFF7CCF970BD082142
:1016900049A0FEF7F9FE012104A8FEF7F5FE01219D
:1016A00048A0FEF7F1FE6846017C2846FEF7ECFEF6
:1016B000204602F035FB70BD70477047FEB50C4602
:1016C00005460C206946374B164608700F2C27D06C
:1016D00006DC042C10D0092C10D00B2C06D115E000
:1016E000132C21D0182C25D0192C2FD02246294676
:1016F000304600F095FCFEBD00902AE001F0DAF9DA
:1017000000F00EF9C7B201F0D5F906E000F008FAD2
:1017100000F006F9C7B200F003FA0346009718E09C
:10172000072029A3009014E000200290022002ABC1
:1017300000900EE01F486A46006801AB010C117171
:10174000010A517190710320009002E0082020A34B
:10175000009022462946304600F0E4FCFEBD70476A
:1017600000207047704718A070470E48401E007850
:10177000704710B504000DD00020FEF711FD094898
:10178000401E01788C420BD00470002C04D00C2138
:1017900012A003E00120F0E70F2114A0FEF774FE71
:1017A00010BD0000E50000200A180000001800002D
:1017B000BA3E0008C8000020494E443A4441544112
:1017C000000000003D0000005356332E312E35003E
:1017D000426175645261746500000000494E443AEC
:1017E000434F4E4E4543540A00000000494E443AD0
:1017F000444953434F4E4E4543540A00012040058F
:10180000401EFDD2FEF7D4FC7D21C900062000F069
:1018100025F800F0EFF90849432001F035FB0748AF
:101820000021016001680529FCD3FF20413001F04F
:10183000BBF8FEF770FDFCE7F4000020CC000020B0
:1018400010B50120FFF737FB0028FAD110BD10B505
:101850000220FFF730FB0028FAD110BD70B5044616
:101860000D460120FFF738FC6120FFF7A6FB00289A
:10187000FAD0FFF7E5FF0C4E3046FFF70BFBE0B266
:10188000FFF70BFBFFF7E3FF3046FFF703FB2805ED
:10189000000DFFF705FBFFF706FBFFF708FB70BD28
:1018A00010B5FFF700FB10BD5555000030B50B46D5
:1018B000014600202022012409E00D46D5409D422A
:1018C00005D31D469540491B2546954040191546B0
:1018D000521E002DF1DC30BD03460B439B0703D0A5
:1018E00009E008C9121F08C0042AFAD203E00B78E5
:1018F0000370401C491C521EF9D27047D2B201E05D
:101900000270401C491EFBD270470022F6E710B55A
:1019100013460A4604461946FFF7F0FF204610BD5D
:10192000421C0178401C0029FBD1801A704730B559
:1019300004460020034600E05B1C934203D2E05CB7
:10194000CD5C401BF8D030BD03460A780270401CC5
:10195000491C002AF9D1184670470321001D401E7A
:10196000037812021A43491EF9D510467047000049
:10197000064C0125064E05E0E36807CC2B430C3CE2
:1019800098471034B442F7D3FEF798FB543F000851
:10199000743F000870B58C180578401C6B075B0F0E
:1019A00001D10378401C2A1106D10278401C03E0C3
:1019B00006780E70401C491C5B1EF9D12B0705D41C
:1019C0000023521E0DD40B70491CFAE70378401C0B
:1019D000CB1A921C03E01D780D70491C5B1C521E33
:1019E000F9D5A142D8D3002070BD000010B5FFF793
:1019F0000FF9074AD169884208D2081A0549884276
:101A000004D8918A884201D9012010BD002010BD60
:101A10000C010020FFFFFF7F10B50A4C6079002801
:101A20000CD0FFF7F5F8616A884208D3401A01210B
:101A30008902884203D200206071012010BD00207D
:101A400010BD00009001002070B5114C0025216AE6
:101A50004A78002A07D04989A289914203D100F02F
:101A60004FFA206A4570E169487900280ED0C8888D
:101A7000A28990420AD10648E67905223030FFF764
:101A80002BFF01F019FFE0694571E67170BD0000A0
:101A90003002002010B50349CA6A096B5043FFF7B2
:101AA00005FF10BD9001002010B504460848084904
:101AB000806A096B002804DB6043FFF7F7FE00191A
:101AC00010BD40426043FFF7F1FE201A10BD000038
:101AD0009001002013B56A4612781320024009488D
:101AE00002706A4654784470002C03D02246801C51
:101AF000FFF7F2FE0349A41C0846E2B2083801F0E1
:101B00006FF81CBDF001002001488078704700008C
:101B1000900100200148C07970470000900100202A
:101B2000074808490078020930320007000F8A7020
:101B3000092801D8303000E03730C87001487047BC
:101B40008C010020FE000020014840787047000012
:101B50006C02002010B5074CE079002808D0FFF790
:101B600057F8216A884203D30020E071012010BD9C
:101B7000002010BD0C0100201FB502246B461C7311
:101B80000A215973062119700021597005229A7093
:101B9000D97001221A715A719C71D9711872000A98
:101BA000587219460398FFF795FF1FBD0149487009
:101BB00070470000D401002004490246087900283B
:101BC00003D0034B136000220A7170476C0200209F
:101BD000F806002010B50C46282906D20A46014610
:101BE0000248FFF779FE0248047110BDF806002094
:101BF0006C02002001490120087170470C0100208F
:101C00000249CA691018C861704700000C01002021
:101C100070B50446034D0120E871FEF7F9FF001985
:101C2000286270BD0C01002010B5FEF7A1FBFEF785
:101C3000EFFF03491E3048620120487110BD0000CB
:101C4000900100200521C0010902401801494860A7
:101C5000704700002002002030B47446641E2578CE
:101C6000641CAB4200D21D46635D5B00E31830BCD0
:101C7000184702E008C8121F08C1002AFAD17047AD
:101C80007047002001E001C1121F002AFBD17047FC
:101C9000090710B5090FC00705D0032902D102209A
:101CA00001F00EFA10BD05480079002802D0FFF7B8
:101CB000BBFF10BD01F070FA10BD000090010020C4
:101CC000F8B50746204C002020710878164600071A
:101CD000000F0D46032802D0052822D117E08120ED
:101CE00000013818A06101F012FA17486946C0894E
:101CF0000880009801F0B0F96178A06B01F0B8F9A4
:101D000060780121C001C9024018606111E0002E15
:101D100007D0284606220D490830FFF708FE0028A4
:101D200002D001F039FA04E032462946384600F084
:101D3000B7FB532000F0CEFE0549042000F0F3FE6F
:101D4000562000F0C7FEF8BD900100207101002070
:101D50003302002070B5394C0646E079002823D0C4
:101D6000A078401CA070A079002801D02820A07085
:101D700020790025002808D0206A091AE069301A65
:101D800000F01EFBE57025716581FF20193001F020
:101D9000CBF9A078272815D801F071F90020FFF7BA
:101DA0002FFF01F006FA70BD512000F093FE78215C
:101DB000202000F0E4FE562000F08CFE6420FFF7A7
:101DC0001FFF70BD2520A0702069FFF76DFE8619EA
:101DD00020698009FFF714FF304601F0CEF9A078A2
:101DE00001F04DF9512000F075FE7821002000F03F
:101DF000C6FE7A21002000F0C2FE562000F06AFEE6
:101E00000F4805220078D201410041188901891844
:101E1000226991420DD2217A491CC9B22172172937
:101E200007D32572002802D000F04CFF01E000F03B
:101E3000EEFE6089401C608170BD000090010020B2
:101E40008E01002010B509492520887001F017F98E
:101E5000FF20193001F068F9002001F026F901F0A7
:101E6000A8F9002001F002FD10BD00009001002043
:101E700010B50C480078000702D001F08DF910BDB4
:101E8000782001F051F9012001F01AF905480C38C9
:101E900081694069081891210901401801F037F95A
:101EA00010BD00009C01002070B506460D460220C2
:101EB00001F006F92320C001104C2818A06101F0A0
:101EC00026F9E06801F0C8F82178606B01F0D0F8DD
:101ED00020780121C001C90240186061A07825283E
:101EE0000AD1E66125626089112802D2E0780028D3
:101EF00002D00120E070207170BD00009001002030
:101F000070B50E4C0546206A017861724088E08108
:101F100050214843FFF7C8FD401901F02EF9206A0F
:101F200081882182C18861820089A082607A044907
:101F30004843401801F0F8F870BD0000300200205E
:101F4000E204000070B5044600781C4D4006C00F46
:101F5000687128460622A11C3530FFF7BDFC0E34FF
:101F60002846042221462C30FFF7B6FC28460322DF
:101F7000211D1630FFF7B0FCE0796872617A207A93
:101F800009024018E881E17AA07A09024018288203
:101F9000617B207B090240186882E17BA07B0902FB
:101FA0004018A88221462846052210313030FFF71C
:101FB00093FC607DC006C00EA87270BD3002002088
:101FC0007FB50AA470CC80070194800F0396029518
:101FD0006C462070092060706172A272100AE07273
:101FE000237301A9009800F020F87FBD05000400CC
:101FF00001000000000000000EB507A106C980071F
:102000000091800F01926946087207204872029879
:1020100000F00BF80EBD00000300040003170000E1
:1020200010B50A23FFF7CCFF10BD10B5FFF752FD26
:1020300010BDFFB587B01E466F46109B119A05462E
:1020400038710920787105200C46387200217972A8
:102050000420B872F972601C387301207873B97368
:10206000F8730520C0023974834213D105A800908B
:1020700006AB31460998FFF773FB00280AD0694682
:10208000088B4873888AC87302A90198FFF7CDFFAF
:102090000BB0F0BD21462846099AFFF7C1FFF7E7CC
:1020A000FFB587B0079817468007800F6A46107003
:1020B0000A2050700020507106211171D071042146
:1020C000917105211172012151721E46D072044690
:1020D000134D1AE020460A21484341194988B94264
:1020E00011D3B1420FD80A214C43611989786A464D
:1020F0009172285A1073000A507301A90098FFF7D3
:1021000094FF0BB0F0BD641CE4B2FFF778FAA04274
:10211000E0D83A4608990798FFF782FFF1E70000F8
:10212000603E0008F0B589B00E4607461D461C21EA
:1021300001A80E9CFFF7E9FBB807800F69460870FD
:10214000601D4870601C0871000A48710420887185
:102150000020C871761C0E7201A904E02A5C0B18DD
:10216000401C5A71C0B2A042F8D30098FFF75DFF3F
:1021700009B0F0BDF0B589B08446002468460E9DD4
:102180000471447104268671C471112606722E1DD5
:1021900046728172C472027344730A2001AF002137
:1021A00005E05A5C3A54401C491CC0B2C9B2A9426D
:1021B000F7D3011F6A46117161468907890F1170B3
:1021C000507039460098FFF730FF09B0F0BD0000AD
:1021D000FFB589B0099815218507129E4902AD0FF8
:1021E0001F468E4221D16846FFF7F8F9014668463E
:1021F0000571002343710078801CC2B2122A00D9F5
:102200001222941C6D462C72200A68720426AE724B
:10221000EB72092028736A73AE73EB7304A8921EE5
:10222000FFF75AFB241D6C713FE0614886423ED1A6
:102230000B9807283BD15F480078002837D06B46C1
:102240001D71172119720021597204219972002100
:10225000D972092107201973587308209873002038
:10226000D873022018745974002199742921D974E3
:102270002A2119750A225A7500249C75D8750B25D8
:102280001D7600255D7626259D760E22D9761A7755
:1022900000225A7798770F24DC7708AB1A70282031
:1022A000587099701B206B46587102A96FE0FF2F80
:1022B00000D9FF27002471E020460A2148433E4907
:1022C0000A5AB24268D1411848880B9A904263D3A7
:1022D000B84261D8364A521E964223D10A226E462F
:1022E0003272002373720422B272F37209223273C3
:1022F000082272730A2254432F4AA2189278B273AA
:10230000000AF073002002AA0B181418401C1B7955
:10231000C0B223720528F7D3487A707535710E2044
:10232000707133E009266F463E7200237B720422EF
:10233000BA72FB723E7307227A730A2254431E4A12
:10234000A2189278BA73000AF873184602AA0B18FA
:102350001418401C1B79C0B223720528F7D33D71B5
:102360000D207871497AFF2910D0144B0020090103
:10237000C9180B5C1418401CC0B2E3721028F8D3C3
:102380001B20787117203872152078731146019838
:10239000FFF74BFE0DB0F0BD641CE4B2FFF72FF960
:1023A000A04289D809AB07CBFFF73AFEF2E700005D
:1023B00003280000F8000020603E0008BA3E000834
:1023C0004B22D200084B821A9A420CD27D22D200B4
:1023D000064B8A1A9A4206D2FA224243531A044AF8
:1023E00093621163D0627047A81D0000196618003F
:1023F0009001002010B5FDF7BAFF00F0CDFE10BD32
:102400007FB52821484307490A9D099C6E4608610B
:10241000B08888814A630B700846328CC2818C6315
:102420004D707FBD9001002003490248086040685C
:1024300000470000FC3E000814020020064908780E
:10244000002806D0022804D001D9401E08700120BF
:102450007047002070470000200200201FB5094986
:102460000A9C099B087008484243CA806A469089C2
:1024700008810846128C42810B614C710020C870A3
:102480001FBD00006C0200207102000003490248D9
:102490000860406800470000383F00081402002030
:1024A00070B508461A4B194919601146FFF74AFDE5
:1024B000184C1949208A801F884208D2A08A091F17
:1024C0000A38884203D2A07A401F0C2802D300F0B9
:1024D00063FE70BD012000F021F80E490122083191
:1024E00008781043F12210400870208A4100A08A29
:1024F000814200D288B20A214843FFF789FB0025B8
:10250000A57000F049FE657070BD00001C3F00081A
:1025100014020020300200207B0C000001490870EA
:1025200070470000200200200148807870470000BA
:102530006C02002010B5FFF781FF002801D000F0E9
:10254000F5FE10BD10B50948007900280CD00848E8
:1025500000680078002807D1FFF75EFA002801D054
:10256000FFF748FF00F0C2FB10BD00000C01002087
:1025700014020020FEB5F64EF64F3179F64DF74CB9
:10258000032904D0012975D0022904D005E0B079CF
:10259000012816D0DBE003213171B081B079012828
:1025A00002D0002805D006E0F18A002001F0D6FB19
:1025B00001E001F0C9FBB17930790143EAD000288C
:1025C00058D10020F070FEF70EFB00287ED0E048C6
:1025D000401D00F027FD707900F013FB7079C107F2
:1025E0000BD0694601A800F0CBFBDD4800990160E3
:1025F000019838602A68926877E0810719D56946A2
:1026000001A800F0BDFB28680099826901989047F5
:10261000CF482430FFF7D0FAB070FFF795FAB278C0
:10262000716A252803D00020FEF705F980E001201B
:10263000FAE7C10603D528684069804778E00106BB
:102640002CD52868C5490078002814D0012000F056
:10265000B3FB617820780902401881B22868C2680B
:10266000012090477079410611D5694601A800F014
:1026700087FB30E082E0002000F09EFB617820784C
:102680000902401881B22868C26801202DE0800646
:102690004ED5694601A800F073FB3CE041061ED50B
:1026A000694601A800F06CFB28680078002812D168
:1026B000A74AAA49083200F093FBFFF735FF00282C
:1026C00009D0307AA549801FC2B200E05AE0083133
:1026D000612000F00EFA28686278036924E041075F
:1026E00005D528680021C2680846904720E0010708
:1026F00003D50020FFF712FF18E0800616D56946C3
:1027000001A800F03DFB2868017800290AD0934910
:10271000012000F051FB28686278036900210098CD
:10272000984705E0036900228C49F8E700F034FD82
:102730002868007800281AD17079800717D5B079F9
:10274000002807D101F000FB3079032802D00020D7
:1027500070712AE0FFF7FEF9002803D0B079012854
:102760000DD004E0F078002801D100F022FD30798E
:10277000002800D127E770798028FBD0FEBD00201B
:10278000F070F2E730790028F4D070790028F1D1A8
:10279000FEBD7079022808D1FFF728F9002804D07F
:1027A0003079002801D1FDF78EFD286800780028D7
:1027B0000ED13079002805D1FFF72EF9002801D07D
:1027C000FFF718FEFFF7A6F9002801D1FDF7BFFFBC
:1027D000FEF709FA00287DD05D48401D00F022FC7C
:1027E000707900F00EFA7079C1070FD0694601A820
:1027F00000F0C6FA5A4800990160019838602A68CA
:1028000092689047FEF704FAF06191E0810715D5D0
:10281000694601A800F0B4FA00F0BEFC28680099EF
:10282000826901989047FFF76FF9252803D028683F
:10283000007801287CD1FDF78AFF79E0C10603D535
:1028400028684069804773E001062BD52868434912
:102850000078002813D0012000F0AEFA61782078CB
:102860000902401881B22868C26801209047707937
:10287000410610D5694601A800F082FA27E0002041
:1028800000F09AFA617820780902401881B228682D
:10289000C268012027E080064AD5694601A800F0F9
:1028A0006FFA36E0410618D5694601A800F068FACB
:1028B0002868007800280AD120780007000F052832
:1028C00005D1234A25490832002000F089FA6278B0
:1028D000286800E04FE0036924E0410705D5286837
:1028E0000021C2680846904722E0010703D5002076
:1028F000FFF714FE1AE0810616D5694601A800F01C
:102900003FFA2868017800290AD01449012000F014
:1029100053FA28686278036900210098984707E015
:10292000036900220D49F8E7002807D000F034FCC5
:102930007079800702D5B079012813D0307900284A
:1029400000D126E77079802800D021E721E7000038
:102950000C0100201C020020140200208E04002024
:1029600018020020F18A002001F0F8F930790328DC
:1029700000D026E6E6E730790028E2D0707900281A
:10298000DFD1FEBD10B5074C6079022806D1FFF7F4
:102990002DF8002802D02079032801D0002010BD96
:1029A000012010BD0C01002070B50546FEF730F97E
:1029B00004460A34FEF72CF9A042FBD30349022057
:1029C00008712846FFF7D6FD70BD00000C010020FD
:1029D00010B50A4C00280FD0E07900280DD1512005
:1029E00000F078F87A21202000F0C9F8562000F095
:1029F00071F800F0DEFB0120E07110BD90010020B5
:102A000010B50249888101F0D5F910BD0C010020F4
:102A100030B5182900D918210A4B4A1C1A70002217
:102A200004E0845C9D18521CAC70D2B28A42F8D388
:102A3000002003E05A18491C9070C9B21929F9D333
:102A400030BD00003401002070B50D46124A014629
:102A50001078002809D0401E10700026567050686B
:102A6000092806D0401C506005E00120507000206D
:102A700070BD304656600C22084B4243D4184201C8
:102A80008018074A80182A462060FEF725FF257126
:102A90002046A66070BD0000CC010020100600207A
:102AA000C404002010B500F05AFB0020FFF7CAF85C
:102AB00010BD000000A070474D475F424C455F4C81
:102AC00049425F56332E30000148007870470000BD
:102AD000CC01002010B50446FEF777F80121502004
:102AE000FEF768F801212046FEF764F8FEF774F857
:102AF00010BDF8B515460E460446FEF766F80121EE
:102B00002046FEF757F80746002406E00021FF2084
:102B1000FEF750F83055641CE4B2AC42F6D3FEF731
:102B20005BF83846F8BD70B50C460546FEF74DF823
:102B300001212846FEF73EF80021FF20FEF73AF873
:102B40002070FEF749F870BDF8B516460D460446EC
:102B5000FEF73BF8202020430121FEF72BF800244C
:102B600007E0287801216D1CFEF724F8641C074655
:102B7000E4B2B442F5D3FEF72FF83846F8BD70B58D
:102B80000D460446FEF721F8202020430121FEF7E0
:102B900011F801212846FEF70DF8FEF71DF870BD6B
:102BA0000168002902D14068002801D00020704748
:102BB0000120704700210160416002490A2008702D
:102BC00070470000CC0100200268136812790A7077
:102BD000016889680160002900D14160184670478A
:102BE00010B50B46044611461846FFF72DFF002886
:102BF00006D06168002901D0886000E02060606034
:102C000010BD10B501460E20FFF7B9FF10BD1CB571
:102C10005320FFF75FFF03211F20FFF7B0FF01A93B
:102C20001F20FFF780FF684600790028F7D10321B5
:102C30001F20FFF7A4FF01A91F20FFF774FF6846BC
:102C400000790028F7D101211520FFF798FFA02176
:102C50001220FFF794FF04210A20FFF790FF0021C4
:102C60000A20FFF78CFF88211220FFF788FF01243C
:102C700069460C702120487002221320FFF764FF80
:102C800069460C702020487002221320FFF75CFF79
:102C900000211520FFF773FF5620FFF71BFF1CBD17
:102CA00008B50020694608705120FFF713FF532034
:102CB000FFF710FF69461F20FFF735FF69460878C8
:102CC00008BD000010B55120FFF704FF5320FFF7A7
:102CD00001FF03211F20FFF752FF5620FFF7FAFEE6
:102CE00001490120487010BD8C01002038B5234CEB
:102CF000A078012837D16078002834D0012833D05B
:102D0000022830D1FFF7CCFF00282CD160700121C0
:102D10001520FFF734FFA0211220FFF730FF042118
:102D20000A20FFF72CFF00210A20FFF728FF882147
:102D30001220FFF724FF012469460C7021204870FF
:102D400002221320FFF700FF69460C702020487014
:102D500002221320FFF7F8FE00211520FFF70FFFD6
:102D60005620FFF7B7FE38BDFFF79AFF0028FAD1CB
:102D70000220607003211F20F0E700008C0100207A
:102D80007CB50D460446062269461020FFF7B1FEC9
:102D9000694648790B7902041802C978101840185E
:102DA000694620608878497800040902401869461D
:102DB0000978401828607CBD1CB50C4600280BD053
:102DC000022269460620FFF794FE684600782070CC
:102DD0006846407860701CBD022269460420F2E714
:102DE0007CB515460C46002809D06278901C2870E6
:102DF000002A03D0A11C6120FFF77BFE7CBD0222CC
:102E000069460420FFF775FE68464078801C2870EC
:102E100068460078207068464078607068460078A0
:102E200025460107090F6846407808350B00FEF774
:102E300013FF0706090614051A060500DEE7062239
:102E4000A11C08E00C28D9D10622A11C0A20FFF7FA
:102E500050FE062229460B20CEE70C28CED10622B2
:102E600029460A20C8E72228C8D10622A11C0B2027
:102E7000FFF73FFE062229460A20FFF73AFE1622F8
:102E800021460E31B7E70000FEB50546002668462C
:102E90000671624C51200C60FFF71CFE01A91F2037
:102EA000FFF741FE684601798029F7D15C491E2071
:102EB000FFF739FE78210020FFF761FE0621084662
:102EC000FFF75DFE7A210020FFF759FE5320FFF740
:102ED00001FE88211720FFF752FE88211820FFF7F6
:102EE0004EFE88211920FFF74AFE00211520FFF72A
:102EF00046FE02210120FFF742FE1E211D20FFF7A2
:102F00003EFE284600F0F8F800A908200131FFF73E
:102F10000AFE68464078424F002807D112206946D1
:102F2000487038781B2801D215204870C0216846A7
:102F300001702D218170032269460420FFF704FEF1
:102F40008025684605704670022269460C20FFF70E
:102F5000FBFD1C216846017045703878192802D1A4
:102F6000CC2069460870022269461420FFF7ECFD68
:102F700010206946087002274F703A460A20FFF772
:102F8000E3FD69460F701220487002220D20FFF702
:102F9000DBFD0120694608700720487002220E20E0
:102FA000FFF7D2FD3820694608700F2048708E70F8
:102FB00003220220FFF7C8FD71210920FFF7DFFD82
:102FC00069460D707020487002220B20FFF7BCFD8F
:102FD000032269460B20FFF78CFD40206946C8702C
:102FE00004220B20FFF7B0FD5620FFF773FDFF21F1
:102FF0000E20FFF7C4FD062208490820FFF779FDDF
:1030000060796D2806D1ED20607106220349082001
:10301000FFF79AFD00F0C0F8FEBD0000710100202E
:103020008C01002038B5044669460E20FFF77BFD71
:1030300068460178217038BD1CB501786A46117068
:103040004178517081789170C078D07004226946BF
:103050000C20FFF779FD1CBD01B582B06946087AE6
:103060000870487A487002220320FFF76DFD0EBDFC
:103070000A4610B50146A020FFF766FD10BD10B549
:10308000282803D201460120FFF779FD10BD1CB5A9
:1030900001786A46117041785170807890700322EF
:1030A00069460D20FFF750FD1CBD1CB5FF216A4687
:1030B00011705070022269460E20FFF745FD1CBDBD
:1030C00010B504280BD001280BD002280ED00328FD
:1030D0000ED005280ED0062807D1042102E00221D7
:1030E00000E009210220FFF74AFD10BD0C21F9E79D
:1030F0000121F7E70321F5E708B502216A461170BF
:1031000050700A4669460F20FFF71EFD08BD1CB52A
:103110006A461070010A5170000C907003226946D3
:103120000720FFF711FD1CBD1CB56A461070010A8F
:103130005170002191700549884201D90120907099
:10314000032269461120FFF7FFFC1CBDFFFF0000B2
:103150000A4610B50146A020FFF7F6FC10BD01B5E8
:1031600082B06946087A0222C006C00E0870487A0A
:1031700048700520FFF7E8FC0EBD1CB500216A462B
:1031800011705070010A9170000CD07004226946D1
:103190000F20FFF7D9FC1CBD1CB502206946087042
:1031A000FF2048708870C87004220F20FFF7CCFC05
:1031B0001CBD10B501210F20FFF7E1FC10BD000080
:1031C00038B5054600230C4610460093FFF7E8FC8F
:1031D000002802D02B70237038BD69461046FFF7D7
:1031E000F3FC0146684602782846FEF775FB684600
:1031F0000078207002480178491C017038BD000039
:10320000CC01002010B505480349816000214170C0
:103210001430FFF7CFFC10BD183F0008D401002088
:103220007047000000B587B0182207A16846FEF776
:1032300053FB0B4803210170182141700068694657
:10324000FEF748FC07B000BD101000280001002C5C
:10325000011820000300FFFFFFFFFFFFFFFFFFFF3C
:10326000800100201CB500228C070C490092A40F9D
:1032700001920C7006244C7002236C46237062701D
:103280000279A2704079E0700D2020711A206071DF
:1032900008686946FEF71EFC1CBD00008001002086
:1032A0000EB507A007C86B4607C308480321017085
:1032B0000921417000686946FEF70CFC0EBD000054
:1032C0000900000000000000000000008001002054
:1032D0001CB500228C070C490092A40F01920C70BF
:1032E00006244C7002236C46237062700279A2702F
:1032F0004079E070052020713720607108686946C8
:10330000FEF7E8FB1CBD00008001002010B5890716
:103310000548890F0170002141700068FFF7C2FB6A
:103320000020FFF7FBF810BD8001002008B508A0C1
:103330000068009007480321017002214170006875
:103340006946FEF7C7FB0420FFF7E8F808BD000058
:10335000020A00008001002008B507A10968009159
:10336000064903220A7002224A706A4650700868B1
:103370006946FEF7AFFB08BD070000008001002092
:103380001CB507A005C8009089070748890F01925E
:1033900001700621417000686946FEF79BFB1CBD69
:1033A0000C079C051720000080010020FEB5164C7C
:1033B00001A92246083A2046FFF702FF6846007935
:1033C00001262546002804D12E7068700220694627
:1033D000087121780C4F132001401C3F787804239A
:1033E000C24352081A4040071143C00FC0000143B6
:1033F0006A46117060785070A11C009800F0CAFCF9
:103400002E7000207870FEBDF0010020FEB50D4644
:10341000002102911D2D00D91D2501462A469B48F9
:10342000FEF75AFA9A48994C05702078984A810715
:10343000890F9070012914D0032917D002290FD1C8
:10344000637921791B02A579C91806294BD0042973
:1034500050D0052904D1132D02D00020FEF78CFB9B
:10346000FEBD022DFCD3FEF77DF9FEBDA1780B0059
:10347000FEF7F2FB120B0F1E233535350A283535C2
:10348000352D0A35320A0A35EFE7E01C00F0A2F9C3
:10349000FEBD01467D48FFF7C3FE617A207A09022E
:1034A00040186946088102A9E01C00F0C5F9FEBD7C
:1034B00001467648FFF72AFFFEBD01467348FFF735
:1034C000D1FEFEBD01467148FFF7EAFEFEBD014692
:1034D0006E48FFF755FFFEBDFFF7A4FEFEBD084690
:1034E000FFF73AFFFEBD012DFCD101466748FFF70B
:1034F000EFFEFEBD66490C31102D72D00ADCAE1E07
:103500003300FEF7A9FB0B1D15221536155415893E
:10351000159415005D4B0933182D7BD004DC122D5A
:1035200079D0162D04D192E01E2DE2D0522D72D00A
:103530006906DED4062300222946FEF741FDFEBDC2
:1035400000222946FEF758FDFEBD237AE2791B02D0
:10355000D21892B20A80637AA47A24021B199BB211
:103560004B809A4201D90123E6E72946FEF798FDF0
:10357000FEBD237AE2791B02D21892B20A80A67AA3
:10358000637A36029B199BB24B809A42EBD8267B1A
:10359000E17A36028919667BA47B89B22402341948
:1035A000A4B2009101942946FEF743FDFEBD237AA3
:1035B000E2791B02D21892B20A80A67A637A3602A6
:1035C0009B199BB24B80E67A247B24023419A4B267
:1035D0008C809A42C7D829460094FEF7F9FDFEBDBB
:1035E000FFE7237AE2791B02D21892B20A80A67A08
:1035F000637A36029B199BB24B80E67A247B2402C5
:103600003419A4B28C809A42ADD829460094FDF7B3
:10361000F8FFE4E724E027E0237AE1791B02C918E8
:1036200089B2918002462846FEF748F8D7E7237A08
:10363000E1791B02C91889B29180A37A627A1B02D0
:10364000D21893B202462846FEF789F8C7E7217AD6
:10365000E0790902401890800C4800F03EFBBEE77C
:103660000A4800F0FDFABAE7E178A6780902C91E17
:103670007118CEB2E179247A2402091989B29180B5
:103680000A4629460096FDF7E7FFA8E788060020CE
:10369000D4010020090710B5090F0E4AC0070ED04B
:1036A0000B00FEF7D9FA070808050B0B0B050B00FA
:1036B0001078012802D10220FFF702FD10BDD0785A
:1036C000401CC0B2D070142801D10020D070FFF788
:1036D00063FD10BD6C02002010B50C461449002A91
:1036E00048610DD0002C0BD02078921C0007000FF1
:1036F0000300FEF7B1FA0708080B0F0F0F0B0F00BE
:10370000FFF74AFD10BD8878002805D0D1B22046C9
:10371000FEF760FAFFF740FD5320FFF7DBF905499C
:103720000420FFF700FA5620FFF7D4F910BD00007F
:103730006C0200203302002070B5114C0646607800
:103740000D46401CC2B26270282A01D1252060704B
:103750006078FFF794FCE07813280DD109480068E1
:10376000291A09480068301AFEF72AFE074800782F
:10377000002802D0FFF7A6FA70BDFFF748FA70BD27
:103780006C020020180200201C0200208E01002084
:1037900010B5054C25206070FFF771FCE088FFF73D
:1037A000C3FCFFF706FD10BD6C02002010B5FFF74B
:1037B000F3FC10BD10B50C460120FFF781FC1B2067
:1037C000C00103492018C860FFF7A1FC10BD00002C
:1037D0006C02002030B5164B0122196A4A7002783B
:1037E0000A7084784278240212194A800479C278D7
:1037F0002402121992B28A80857944792D026419C3
:10380000CC80057AC4792D0264190C81447A807ABF
:103810000002201880B200244881062A00D24C7091
:103820009A89801A034A904200DB4C7030BD000038
:1038300030020020FF7F000010B50A4C0346E0690B
:103840000988C18005221946FEF746F8E069012182
:103850004171C188A289891A034A914201DB002182
:10386000417110BD30020020FF7F000010B5FEF74F
:10387000CFF910BDF8B50C460746002614E0142C0D
:1038800001D9142500E02546FFF71EF903280FD3C0
:10389000084800950288BB191B21022000F0F1F9AD
:1038A0007019C6B2601BC4B2002C01D0002FE6D143
:1038B0003046F8BDF2000020F0B50C4B00201C464D
:1038C000D87130340A4AD8720125C1084607615CB4
:1038D000760F2F46B740394203D0D97A5054491C4D
:1038E000D972401CC0B22528EFD3F0BD30020020B1
:1038F000B206002010B5C00706D10448FD220178A9
:1039000011400170FFF748FC10BD00003802002094
:10391000F8B5344F06460C46B88A0A211546484386
:10392000FEF776F939460831087802221043F3226F
:1039300010400870FCF71DFD002C03D060780028B3
:1039400019D01EE04120400105213018C90140185E
:10395000B862FFF7DCFB1B2D00D91B25E801052110
:10396000301A0902401A78621E480821083002788D
:103970000A43027032E01B480422083001781143E8
:103980000170812000013018B862FFF7C0FBE80128
:103990000121301A8902401A78622078FEF706F970
:1039A00022780821B8780A40824217D101223A7061
:1039B0004840B8700C48006800688047FCF7DAFCA3
:1039C000002078705320FFF785F806490420C91CB1
:1039D000FFF7A9F85620FFF77DF8F8BDFCF7CAFC01
:1039E000F8BD000030020020DC010020F8B50C46D4
:1039F0000646FEF723FD00282BD0794F794D387805
:103A0000C1072CD0E889502148432830FEF74CF8F4
:103A10008019FFF7B2FBFFF74FFFE86900244471FC
:103A2000286A4470AC8128462C701630FFF72FFBB3
:103A300028462C30FFF700FBFFF7E4FBEC71687AB7
:103A4000694948434018FFF76FFB0120FDF791FEDD
:103A50006EE00020FEF7D4F800F076F9F8BD80079C
:103A60002BD5686A0121201A090640180002000AB5
:103A7000FEF710F8341A3878400715D5698A0029FE
:103A800012D0288A41430818502148437838FEF75D
:103A90000BF80419A989688A0918A981A97A4143F0
:103AA000E8790818E87106E0288A502148437838F8
:103AB000FDF7FAFF04194D482BE0288A082801D2A7
:103AC000012129714A490C6869780B2904D25022D6
:103AD0005043C900401A04E0502250434900401AA4
:103AE0001430FDF7E1FF0419288A2D2801D9414837
:103AF0000FE0082806D2404948430321FDF7D6FECF
:103B00003E4905E0384948430321FDF7CFFE3649D9
:103B10004018FFF709FB0A36B44200D2344620466B
:103B2000FFF72BFBA889401CA8812046FDF78CFFDE
:103B30005120FEF7CFFF78210020FFF720F87A21EF
:103B40000020FFF71CF85620FEF7C4FFE879A97A99
:103B50004018C0B22521FDF7A9FE214BE971CA0822
:103B600028339A5C4B0708465B0F012199400A42B3
:103B700004D1E97AFDF79AFE2148405CA871C0B2F1
:103B8000FFF77DFA2878002812D01D490120253141
:103B9000FFF712F91A496A4625310120FFF720F98B
:103BA0006846017816482530FFF730FC0020287061
:103BB0003878C10704D040084000387000200BE07E
:103BC0002879002805D00020FEF71AF80020287177
:103BD000F8BD288A81080818FEF712F8F8BD000021
:103BE0003802002030020020E2040000A60E00008F
:103BF0001C020020204E0000C409000071020000D9
:103C0000B206002010B506480078000704D5002150
:103C10000846FFF76FFE10BDFFF7BEFA10BD0000AB
:103C20003802002070B50D46FDF794FF002803D13F
:103C30000A4C60781E2805D90020FEF76FFCFFF7BC
:103C4000ABFA70BD0420FFF73BFAC32040012818EF
:103C5000FFF75DFA6078401C607070BD3002002094
:103C600008B502216A461170052151700121817049
:103C700019218171811C0098FEF7D7F9FDF71DFD10
:103C800008BDFFB58BB0149C1D461746E61C2421C9
:103C900001A8FDF73AFE0B98132108406946087009
:103CA000E01D48700E71300A4871042088710020B0
:103CB000C8710C9808724F72380A8872002001A9E6
:103CC00004E02A5C0B18401CDA71C0B2A042F8D3A1
:103CD0000098FEF7AAF90FB0F0BDF8B50446827A55
:103CE000C178007AE57900020543A078090208430B
:103CF000401F87B2667A10020643022069460870A8
:103D0000607848701720A071A11C0098FEF78DF90B
:103D1000214633463A460B312846FDF7CDFCF8BD27
:103D20000EB507A106C980070091800F0192694670
:103D30000872052048720298FEF777F90EBD000060
:103D4000010004001300000010B500F033F800205B
:103D5000FDF70FFDFEF768FB10BD000000B585B054
:103D600022230B4A04930392433A528A6B461A81E8
:103D70000023074A0093433A019313690A4601213D
:103D80004902FEF76BFBFEF781FB05B000BD0000AA
:103D90004F01002073B50D460098FFF7E0F9684623
:103DA000447828462146FFF7D3F92046FDF74AFF1D
:103DB0007CBD000030B585B003A8FDF70FFC694657
:103DC000097B182902D918216A46117369460A7BB2
:103DD0001C4B511C1970002104E0445C5D18491C07
:103DE000AC70C9B29142F8D3002003E09918521C7C
:103DF0008870D2B2192AF9D31249124A0C46283CCB
:103E00002578103A03231B20002D01D00E4A2B46A3
:103E10006578002D02D00C4928461F3102900948D0
:103E200001912838C0896D46288006482838417A93
:103E30002974807A6874A0890499FEF7E1FA05B0C4
:103E400030BD0000340100205004002041542B00FC
:103E50000000000000000000000000000000000062
:103E600003280300020400002AFF032808000209B7
:103E700000292AFF03280A00020B00262AFF032834
:103E80000E00020F00282AFF032811001012000064
:103E90000001022913000A0000000000032814009A
:103EA0000C1500000002032817000A180000000388
:103EB000012919000200000000009ECADC240EE562
:103EC000A9E093F3A3B50100406E9ECADC240EE581
:103ED000A9E093F3A3B50300406E9ECADC240EE56F
:103EE000A9E093F3A3B50200406E9ECADC240EE560
:103EF000A9E093F3A3B50400406E000000000000A9
:103F0000451E0008A91E0008911C0008C11C0008DD
:103F1000711E0008551D0008AD33000801000000A7
:103F200000000000253C0008F538000811390008A1
:103F3000053C0008ED39000800000000913700083A
:103F4000B537000895360008D9360008AD370008A7
:103F500039370008743F0008000000208C02000080
:103F600094190008744000088C0200209408000096
:103F7000821C000802130113B104800A085345543F
:103F80004E414D453D4AD1143809494E544552568B
:103F9000414C18130F05780908424C4553454E44CF
:103FA000281AAB1468094C4F57504F574552151AF1
:103FB000D314193C8C424155284A6B14480841449B
:103FC00056464C4147171A9114A7444953434F4E44
:103FD000131306B7084D494E464F1A4514D54845A8
:103FE0004C504AC2CA45020406082D0102030404CB
:103FF0001506070809100D4D5331373933532D5528
:1040000041525462121564010179D00B46562020AA
:104010002E342E302E3213800912A0100884210372
:104020000C4522041220E4020106021909100A4D6F
:104030008BAB6348CDF10406322812C81AFF010A7F
:10404000181F2F611AB6651B780169513A25BF21E7
:10405000021D1023813123580A8B6FE85E190F016E
:1040600021025BFF1328026C20A606C801131A2543
:04407000D70919D87B
:04000005080000B53A
:00000001FF
