:020000040800F2
:10000000D8080020C90000081106000813060008DF
:1000100000000000000000000000000000000000E0
:1000200000000000000000000000000015060008AD
:100030000000000000000000170600081F0600086E
:10004000F5000008F5000008F5000008F5000008BC
:10005000F50000082F060008F50000083906000822
:10006000F5000008F5000008F5000008F50000089C
:10007000F5000008F5000008F5000008F50000088C
:10008000F5000008F5000008F5000008F50000087C
:10009000F5000008F5000008F5000008F50000086C
:1000A000F5000008F5000008F5000008F50000085C
:1000B000F50000080348854601F060FD0048004750
:1000C000011A0008D80800200B4880F308880B4864
:1000D0000168090E0A4A914205D10A480A4901609D
:1000E0000A480B4901600B480047FEE7FEE7FEE7C0
:1000F000FEE7FEE7FEE70000D8080020040000004D
:100100001F00000018100240010000000000014024
:1001100000000000B50000088307FF22DB0E9A40B4
:100120008907090E994000280BDA0007000F0838EC
:100130008308BD489B001818C36993430B43C361F0
:1001400070478308B9489B001818036893430B4312
:1001500003607047B64900200A6801231A430A6009
:100160000A689207FCD50A6801231B059A430A60B6
:100170000A6804239A430A60DA014A60AD4B1222EE
:100180001A604A68920892004A604A6802231A4339
:100190004A6002E048680007800F0228FAD17047E1
:1001A000F0B58BB00121022000F0DDFC0121080434
:1001B00000F0D0FC0121084600F0D5FC01214804E4
:1001C00000F0BFFC0121880400F0BBFCD22168468E
:1001D00001801824C470032609278670FF0669462B
:1001E000384600F0BBFA012568460580C470924C81
:1001F00086706946204600F0B1FA02220121384695
:1002000000F026FB01220621384600F021FB0122E6
:100210000721384600F01CFB04221146384600F046
:1002200017FB01220021204600F012FB0024834826
:10023000AE0707900594089405A90694304600F08F
:1002400081FE7F4F05A9384600F07CFE05A97D4858
:1002500000F078FE602168468180C58044818481F9
:1002600001A9304600F046FF01A9764800F00DFFD5
:1002700001A9744800F03EFF01A9724800F077FF21
:1002800001A9384600F001FF0821304601F05FF86F
:1002900008216C4801F054F808216A4801F057F829
:1002A0000821684801F05CF80821384601F048F858
:1002B0000121304600F09EFE0121624800F09AFEC6
:1002C0000121384600F096FE0121304600F0AEFED6
:1002D00001215C4800F0AAFE0121384600F0A6FE8C
:1002E00059494A68C81302434A60564940314A682E
:1002F00002434A60524940314A6802434A60002240
:1003000064231146104601F0A3FD002165236422F9
:10031000084601F09DFD0BB0F0BDF0B585B0FFF7CC
:1003200019FFFFF73DFF4A4C484860610321081F51
:10033000FFF7F2FE0026A661072525610821454842
:1003400000F09FF801242403684684810227877304
:100350004821C173092003A9C00600F0FFF901215B
:10036000084600F0F7FB0121080700F0FCFB0C2118
:10037000002000F092FD0094684606710C21417146
:100380000124847100F06DF9684605724772847229
:1003900002A800F095FA03210720FFF7BDFE05B083
:1003A000F0BD70477047704770477047FEB56846AC
:1003B00001F0F6FC6846234D0078214E2F050028F9
:1003C0001FD06846847941782846614300F062FF77
:1003D000684681782846614300F05EFF6846C17830
:1003E0002846614300F07CFF68460179304661434E
:1003F00000F050FF684641796143384600F04CFFF9
:10040000FEBD0021284600F045FF0021284600F0EF
:1004100043FF0021284600F063FF0021304600F032
:1004200039FF0021E9E7000000ED00E000E400E012
:100430000010024000200240000400489C630000BD
:100440000040014000040040400000407FBB00002D
:1004500000E000E00038004010B5082100F0A2FCE8
:1004600010BD10B5664900F09DFC10BD10B51021FF
:1004700000F098FC10BD624910B5083900F092FCFC
:1004800010BDF3B506465F480324042585B08642B7
:1004900036D10121801400F05DFB0121600400F0E1
:1004A00050FB00220521584800F0D2F90022042117
:1004B000554800F0CDF900220321534800F0C8F957
:1004C000AF0169460F808C701020C8704E4800F054
:1004D00045F939464C4800F0A6F9082069460880DD
:1004E0008C701827CF70484800F038F920206946F2
:1004F00008808C70CF70444800F030F9102039E04B
:10050000424886423DD10121001400F02CFB03201B
:100510000121400400F015FB03220E213A4800F0AF
:1005200097F904220D21384800F092F904220C2199
:10053000354800F08DF9F71369460F808C70102054
:10054000C870314800F00AF939462F4800F06BF9BD
:100550003014694608808C701827CF702A4800F044
:10056000FDF87014694608808C70CF70264800F042
:10057000F5F8B014694608808C70CD70224800F000
:10058000EDF86A4695800020D080082111815081C5
:1005900001219181D08106991182508201A93046B2
:1005A00000F04DFB0121304600F080FB3046FFF7A4
:1005B00053FF3046FFF75AFF07B0F0BD13490860FC
:1005C0000889C007FCD008898007FCD54868C0B2FC
:1005D000704710B50121C9030B4800F026F910BD82
:1005E00010B50121C903084800F01DF910BD10B570
:1005F0000920C00600F00AF9C004C017401C10BD55
:10060000F7FF0000003001400004004800380040BF
:100610007047FEE7704770470C480068704710B598
:100620000A480168491C016002F092F910BD10B53A
:10063000012000F06CF810BD10B50120000300F09F
:1006400066F8002002F09CF910BD000000000020B8
:1006500030480021016041608160C1602E494161E4
:10066000704710B583792B490268002B26D00B68A0
:1006700093430B604A6803689A434A6002795218B0
:1006800013680468234313608A6803689A438A6086
:10069000CA6803689A43CA604279102A05D0511883
:1006A0000A68006802430A6010BD8A6803681A433A
:1006B0008A60CA6800680243CA6010BD00794018A9
:1006C00001689143016010BD0021016001710C229D
:1006D0004271817170470F490A6902430A6170478C
:1006E0000C4A0146526900200A4200D0012070479E
:1006F000084948617047074B0246196800205B694A
:100700001140134202D0002900D001207047014956
:100710004861704700040140FFFF1F00172110B51A
:10072000C906401811D001218902401A10D0401A80
:1007300011D0884208D101218402204600F001FA3C
:100740000021204600F0FDF910BD01214C04F4E722
:1007500001218C04F1E70121CC04EEE7F0B5CC785F
:10076000002223071B0FE40601D58C7823430C7865
:100770002406240E1AD0046801250E8895402E40C8
:10078000AE420FD197000F26BE40B4431E46BE4076
:100790003443CE78282E02D0482E02D002E04561A4
:1007A00000E00561521C082AE6D304600A88FF2A8B
:1007B0001CD944680022164608360125B5400E882B
:1007C0002E40AE420ED197000F26BE40B4431E46C7
:1007D000BE403443CE78282E00D14561CE78482ED5
:1007E00000D10561521C082AE5D34460F0BD002108
:1007F000C9430180022181700421C1707047024603
:10080000926800200A4200D001207047806880B2C0
:1008100070470246D26800200A4200D0012070478B
:10082000C06880B270470161704741617047002A1B
:1008300001D00161704741617047C160704701227A
:1008400012040A4382618161826181698069704713
:100850004B0710B5DB0E9A40CC080F219940002CB5
:1008600006D0436A8B434362416A1143416210BD23
:10087000036A8B430362016A1143016210BD0000E9
:100880000C49086070470B49486070470949886007
:1008900070470849084808607047064907480860DB
:1008A0007047044A0146D26800200A4200D0012065
:1008B0007047000000300040AAAA0000CCCC000025
:1008C00030B5827801240178002A15D08B08184AA7
:1008D0009B009A1813688907C90EFF258D40AB430A
:1008E0004578AD072D0E8D401D4315600078C0067C
:1008F000C00E84400F4804E0C806C00E84400D4876
:100900008030046030BD70470B4A0029116901D066
:10091000014300E081431161704704220749042824
:10092000086902D09043086170471043FBE700005C
:1009300000E400E000E100E000ED00E000E000E0A5
:10094000AC4801680122114301604168AA4A114084
:1009500041600168A94A11400160016801229204C6
:100960009143016041687F2212049143416000215C
:100970008160704710B59F490B68012212049343B0
:100980000B600B689400A3430B60801A09D003220C
:100990001204904204D10868052212041043086032
:1009A00010BD0868FAE7034600205909914A012959
:1009B0000AD002290AD0516ADA06D20E01239340E6
:1009C0000B4200D0012070471168F5E7116AF3E788
:1009D00018B500200524240200903120FFF7E3FF22
:1009E0000099491C0091002801D1A142F5D1312084
:1009F000FFF7D9FF002800D0012018BD7D4A1168FB
:100A0000F8239943C00008431060704779490128D2
:100A1000086803D040084000086070470122104376
:100A2000FAE710B5734B1868754C8906120520401B
:100A300011430143196010BD01226E4912060028BE
:100A4000086801D0104300E0904308607047694A8D
:100A500051688908890001435160704765484068C2
:100A60000C2108407047634A5168F02399430143C1
:100A7000516070475F4A516807231B029943014345
:100A8000516070475B4A51680723DB029943C000FD
:100A9000084350607047574A00020029916801D00E
:100AA000014300E081439160704752494A68024324
:100AB0004A6070474F4A516803239B03994301439F
:100AC000516070474B490028486A02D00122104308
:100AD00001E0400840004862704770B5454904464F
:100AE00048680C221040474A03D0042801D0082847
:100AF00001D0226006E00868C00201D4424800E04C
:100B0000424820604868424A0006000F135C206893
:100B1000D84060604B685B055B0FD35C0546DD40E9
:100B2000A5604B689B045B0FD25CD040E0604968D5
:100B3000374A0904890F121F515C00F0BDFF206184
:100B400070BD2C4A0029516901D0014300E0814366
:100B500051617047274A0029916901D0014300E0A3
:100B6000814391617047234A0029D16901D0014333
:100B700000E08143D16170471E4A0029D16801D04D
:100B8000014300E08143D16070471A4A002911698E
:100B900001D0014300E081431161704701221549F2
:100BA000D2040128086802D09043086070471043BF
:100BB000FBE710494A6807231B069A434A604A68C4
:100BC000000602434A6070470A48416A0122120641
:100BD000114341627047074A0146926800200A4269
:100BE00000D00120704703498A68000402438A60EC
:100BF00070470000001002400000FFF8FFFFF6FE03
:100C0000FFFF8F0300127A00006CDC0200A24A048E
:100C100008000020904910B5401806D01F21C902D5
:100C200088420BD101210C0301E001218C032046F5
:100C3000FFF7A2FF00212046FFF79EFF10BD10B571
:100C4000028B0F231B031A404B884C8923430C88CB
:100C5000144323430383838B3F22D2431340CA8927
:100C6000CC8822430C891C43224318231A438283D5
:100C7000028C8A8902848A88082A07D0828B0423FE
:100C80001A438283828B08231A4382838988818551
:100C900010BD00210180418008228280C180012294
:100CA0000281418102228281C18170470029018B2A
:100CB00002D00122114301E0490849000183704735
:100CC0000223002A06D0028B1A430283028A0A43B7
:100CD00002827047028A8A430282018B9943018310
:100CE0007047002A028B01D00A4300E08A43028346
:100CF0007047002A028B01D00A4300E08A43028336
:100D00007047828D0160D2B2082A01D8002A01D131
:100D10000B0A0360102A01D8002A01D10B0C0360D2
:100D2000182A01D8002A01D1090E016070474168D4
:100D30001143828D082A02D8828D002A02D142688E
:100D400012021143828D102A02D8828D002A02D10C
:100D5000426812041143828D182A02D8828D002A1B
:100D600002D140680006014308467047002A028D00
:100D700001D00A4001E0C9430A4302857047374A5F
:100D80009142018B02D00122114301E04908490040
:100D900001837047028B324B1A400283028B0A4355
:100DA0000283704710B50822082911D01024102999
:100DB00011D02A4BDB1F994202D1038B934303834B
:100DC000264A0F3A914202D1018BA143018310BD03
:100DD000018B1143FAE7018B2143F7E7838D002252
:100DE000082B07D0828D002A0AD0828D082A07D8C6
:100DF000012116E00089084200D001221046704708
:100E0000828D102A01D802210BE0828D182A01D888
:100E1000032106E0828D1F2A02D9828D002A00D18B
:100E2000042100890005000F884201D3012070478A
:100E3000002070470246928900200A4200D001201B
:100E40007047828A0A438282704781847047828B0E
:100E50000A4382837047000000C8FFBFFEFF000006
:100E6000FFFC0000154801688907890F0160002117
:100E70008160C160016141617047104A1168890851
:100E800089000143116070470C4A0029116801D0A4
:100E9000014300E08143116070478A0710B5120FCB
:100EA0000F2393408C080549A40061188C689C436B
:100EB0008C608B68904003438B6010BD0000014044
:100EC000F64910B5884202D10121C41426E001215F
:100ED0008907884206D101210846FFF756FE002106
:100EE000012008E0EE49884208D101210220FFF7E5
:100EF0004CFE00210220FFF748FE10BDE949884260
:100F000007D101210C042046FFF73FFE00212046B7
:100F1000F1E7E549884209D101214C042046FFF759
:100F20002BFE00212046FFF727FE10BDDF49884237
:100F300002D101218C04F1E7DD498842F5D101217C
:100F40004414EBE710B50268D44B92B2984209D032
:100F50000124A407A04205D0D14CA04202D0D44C19
:100F6000A04204D17024A2438C881443A2B2026030
:100F70008A68C2620A688262984205D0CA4A904270
:100F800002D0CA4A904201D1097C0163012141612A
:100F900010BDC849816000210160C16041600174D9
:100FA00070478162426170470268702392B29A432F
:100FB0000A430260704741627047C1627047406AED
:100FC0007047806A80B270470029016802D002220F
:100FD000114302E0B74A921E114001607047002998
:100FE000016802D00422114302E0B24A121F1140EC
:100FF000016070470029016802D08022114302E09D
:10100000AC4A803A1140016070470268A94B083B26
:101010001A40026002680A43026070470268A64BE9
:101020001A40026002680A430260704700290168A2
:1010300002D00122114302E09E4A521E114001607B
:10104000704710B50A884B88CC881A438B88234395
:101050001A430B891A434B8989891A430A4342640C
:1010600010BD0021018041808180C18001814181CA
:10107000818170470029416C03D00122D2031143C2
:1010800001E04904490C4164704730B5026A894B5C
:101090005B1E1A400262026A93B24268846992B28D
:1010A000A4B27025AC43A4080D88A40025430224F3
:1010B000A3430C891C434B882343784CA04205D0A2
:1010C000794CA04202D0794CA0420DD10824A34310
:1010D0004C891C4304239C438B882343764C224039
:1010E0008C891443CA89224342608561C98841635F
:1010F000036230BD70B5026A6E4B103B1A4002624B
:10110000026A94B2426893B282696C4D92B22A40EC
:101110000D782D062D0C1543202294430A891205C3
:10112000160C4A8826431205120C5C4C3243A0422E
:1011300017D1634C23408C89A404240C1C438023C6
:101140009A434B891B051B0C1343402293438A8807
:101150001205120C1A435B4B1C40CB899B041B0CE1
:10116000234343608561C9888163026270BD30B5E5
:10117000026A554B1A400262026A93B24268C4691D
:1011800092B2A4B27025AC43A4080D88A4002543F4
:101190004E4C23400C7A2406240C1C438B781B06EF
:1011A0001B0C23433D4CA04215D1464C23408C7A66
:1011B0002406240C1C43424B1C400B791B061B0CC1
:1011C0002343434C22408C892405240C1443CA89B0
:1011D0001205120C22434260C561C988C1630362D3
:1011E00030BD30B5026A3B4B1A400262026A94B2CB
:1011F0004268C36992B2314D9BB22B400D782D06E7
:101200002D0C1D43344B1C400B7A1B071B0C234336
:101210008C782407240C1C43204B984205D12F4B7B
:101220001A408B899B051B0C1A434260C561C98813
:101230000164046230BD0021018041808180C18051
:10124000018141818181C181704730B503461833E6
:101250000124056A8C40E443A4B2254005620029BC
:1012600010D008290ED0091F0804400CC0180168CE
:1012700007231B039943016001681206120C1143F6
:10128000016030BD4808C0180168702399430160AF
:101290000168F4E74163704781637047002C0140A7
:1012A000000400400040014000440140004801406B
:1012B00000080140FFFF0000FFFC0000FF8C000061
:1012C000FFFB0000FFF70000FFFE0000FFFD000035
:1012D000FFCF0000FFEF0000FFDF0000FFBF0000B6
:1012E000C1637047016470478165704782697023EC
:1012F00092B29A430A43826170478269F94B92B273
:1013000009061A40090C114381617047C2697023B4
:1013100092B29A430A43C2617047C269F14B92B2DA
:1013200009061A40090C1143C16170470029416840
:1013300002D00122114301E0EB4A114041607047A5
:101340008269082392B29A430A4382617047826994
:10135000E64B92B209061A40090C114381617047AD
:10136000C269082392B29A430A43C2617047C269B4
:10137000DE4B92B209061A40090C1143C161704755
:101380008269042392B29A430A4382617047826958
:10139000D74B92B209061A40090C1143816170477C
:1013A000C269042392B29A430A43C2617047C26978
:1013B000CF4B92B209061A40090C1143C161704724
:1013C0008269802392B29A430A438261704782699C
:1013D00009065204520C090C114381617047C2691D
:1013E000802392B29A430A43C2617047C2690906D8
:1013F0005204520C090C1143C1617047026A022366
:1014000092B29A430A4302627047026A082392B278
:101410009A430A4302627047026A202392B2090586
:101420009A43090C114301627047026A802392B209
:1014300009059A43090C114301627047026AAD4BDA
:1014400092B209061A40090C114301627047026A00
:10145000A64B92B209061A40090C1143016270476B
:10146000026AA54B92B209071A40090C11430162A6
:10147000704782689C4BDB1F1A40826082680A4377
:101480008260704710B50123046A8B40DB439BB236
:101490001C400462036A8A4091B20B43036210BD90
:1014A00010B50423046A8B40DB439BB21C400462EA
:1014B000036A8A4091B20B43036210BD0029416860
:1014C00002D00422114302E0874AD21E114041603B
:1014D0007047C269894B1A40C261C2690906090C8A
:1014E0000A43C2617047C2697F4B0B3B1A40C2611D
:1014F000C2690A43C26170478269804B1A408261A7
:1015000082690906090C0A438261704770B5046A52
:10151000754D0F3D2C4004628469A5B2046A784E73
:101520001B0709051B0C090C354012062B43120C36
:101530001A43A4B2A0239C430C4310210C438261A4
:10154000046270BD8269684B0B3B1A4082618269FC
:101550000A438261704770B5046A634D2C4004628F
:101560008469A5B2046A1B051B0C1343A4B2F326BD
:101570000A22B54394432B430C4301210C4383615E
:10158000046270BDF8B50D46044608884988AA88EB
:101590002B89002822D0042828D00828206A2DD0A2
:1015A000584E30402062E06986B2206A544F1206DD
:1015B0003E40120C1B0732431B0C1343524A80B2AD
:1015C0000907090C10400843012109030843E3619E
:1015D0002062E9882046FFF77CFFF8BD2046FFF730
:1015E000BAFFE9882046FFF7ADFFF8BD2046FFF7B8
:1015F0008DFFE9882046FFF77FFFF8BD3A4EFF3E9A
:1016000030402062E06986B2206A1B051B0C134340
:101610003E4A80B20906090CF3271040BE43084336
:101620003343FF2101310843E3612062E98820460A
:10163000FFF759FFF8BD002101804180012282801F
:10164000C18001817047F8B50C4649880026012504
:101650000746002900D10226A288012A00D10225CE
:10166000208823890028384610D0FFF74FFFE188F3
:101670003846FFF741FF23892A4631463846FFF7AF
:101680006AFFE1883846FFF75DFFF8BDFFF763FFAB
:10169000E1883846FFF756FF23892A463146384607
:1016A000FFF734FFE1883846FFF726FFF8BD406BAF
:1016B0007047806B7047C06B7047006C7047002AA2
:1016C000C26801D00A4302E0C94389B20A40C2603D
:1016D0007047416170470246126900200A4200D0FB
:1016E00001207047FF8F0000FEFF0000FFF70000A1
:1016F000FFFB0000FFFD0000FFDF0000FFF3000024
:10170000FF0C0000FFEF0000FF5F0000FFF500008E
:10171000C94389B20161E4E7024613690020D26837
:101720000B400A40002BDCD0002ADAD00120D8E799
:10173000C94389B20161D4E711438164D1E7002A2A
:10174000C26801D00A4302E0C94389B20A40C260BC
:10175000C7E70029416802D00822114301E04B4A43
:1017600011404160BDE78168484A521C11408160C8
:10177000B7E78268702392B29A430A438260B0E767
:1017800010B50446FFF7F5FFA06807210843A060E5
:1017900010BD70B516460D46044660290CD00122D6
:1017A0003146FFF7D8FE29462046FFF7E2FFA06842
:1017B00007210843A06070BD01223146FFF7A6FE55
:1017C000F1E710B584681B061B0C1343E4B20B430E
:1017D0002343836010BD10B50446FFF7F2FFA068F5
:1017E00080B2C108C9000720014370208143014332
:1017F000A16010BD10B50446FFF7E3FFA06801210A
:1018000089030843A06010BD4268204B683B1A4022
:10181000426042680A43426063E782681B4B5B1C7C
:101820001A40826082680A4382605AE78268174BD6
:10183000783B1A40826082680A43826051E770B543
:101840008468A5B28469066AA4B2ED08ED000D4370
:101850000F49B6B20C40FF2102310C43AA218E433E
:101860001905090C1143314385608461016270BD23
:101870000029416802D08022114302E0034A783AED
:10188000114041602DE701652BE70000F7FF0000E4
:10189000FCFC0000102101704EA070470920704729
:1018A00038B50524049BE402A34201D1012A0AD0E1
:1018B000A3420BD1102A09D810214A4B19220091BA
:1018C00000F066FE38BD00F033FE38BD00F086FD46
:1018D00038BDFFB581B014460A9E0F461D463246FC
:1018E0001946204601F0C4FA122C14D0132C12D041
:1018F000152C08D0182C0AD022463946019800F041
:101900006DFD05B0F0BD38490120487003E0314657
:10191000284600F057FA019802F08AFCF1E7704778
:101920007047FEB516460C460546132928D006DC3E
:10193000092C0ED00B2C14D00F2C04D11CE0182C29
:1019400024D0192C26D00A460146304600F046FD28
:10195000FEBD01F07DFA00F0FDF8C7B201F078FAA3
:1019600006E000F0F1F900F0F5F8C7B200F0ECF98C
:1019700003462246009711E007201CA300900CE0CC
:1019800000200190022001AB009006E00120164BE0
:10199000009002E0062017A300900A462946304630
:1019A00000F09EFDFEBD70470020704770470FA0FD
:1019B000704701221149002801D00A6170474A612D
:1019C000704710B500F072F8002000F0C1FA10BDA9
:1019D000704700004D5331373933532D424C454445
:1019E0002D563200B6430008180000205356332EFF
:1019F000332E33004D67204F54410000000400484F
:101A000001204005401EFDD2FEF787FC0C49032053
:101A100000F02AF800F016FA0A49432001F0D2FC3F
:101A200008481B21001D01F0C7F90748002101608B
:101A300001680529FCD3A02001F0AAF9FEE7000007
:101A4000E20400001C0000200000002010B501206E
:101A5000FEF727FF0028FAD110BD10B50220FEF7CF
:101A600020FF0028FAD110BD70B504460D460120B4
:101A7000FFF728F86120FEF796FF0028FAD0FFF75D
:101A8000E5FF0C4E3046FEF7FBFEE0B2FEF7FBFE34
:101A9000FFF7E3FF3046FEF7F3FE2805000DFEF7E3
:101AA000F5FEFEF7F6FEFEF7F8FE70BD10B5FEF788
:101AB000F0FE10BD5555000030B50B460146002024
:101AC0002022012409E00D46D5409D4205D31D4644
:101AD0009540491B2546954040191546521E002D3C
:101AE000F1DC30BD70B500242546002801DA012460
:101AF0004042002901DA01254942FFF7DDFFAC42EF
:101B000000D04042002C00D0494270BD03460B4338
:101B10009B0703D009E008C9121F08C0042AFAD2A3
:101B200003E00B780370401C491C521EF9D2704729
:101B3000D2B201E00270401C491EFBD27047002265
:101B4000F6E710B513460A4604461946FFF7F0FFBC
:101B5000204610BD421C0178401C0029FBD1801A90
:101B6000704730B504460020034600E05B1C9342FA
:101B700003D2E05CCD5C401BF8D030BD064C0125A3
:101B8000064E05E0E36807CC2B430C3C9847103425
:101B9000B442F7D3FEF792FA5044000870440008AC
:101BA00070B58C180578401C6B075B0F01D103786A
:101BB000401C2A1106D10278401C03E006780E7002
:101BC000401C491C5B1EF9D12B0705D40023521E73
:101BD0000DD40B70491CFAE70378401CCB1A921CF9
:101BE00003E01D780D70491C5B1C521EF9D5A14203
:101BF000D8D3002070BD000010B5FEF70DFD074AD8
:101C0000D169884208D2081A0549884204D8918AC5
:101C1000884201D9012010BD002010BD50000020D5
:101C2000FFFFFF7F10B50A4C607900280CD0FEF74B
:101C3000F3FC616A884208D3401A01218902884274
:101C400003D200206071012010BD002010BD0000F3
:101C50004001002070B5114C0025216A4A78002A05
:101C600007D04989A289914203D100F027FB206A5D
:101C70004570E169487900280ED0C888A289904251
:101C80000AD10648E67905223030FFF73FFF02F01F
:101C90009BF8E0694571E67170BD0000CC01002041
:101CA00010B50349CA6A096B5043FFF705FF10BD21
:101CB0004001002010B5044608480849806A096BB5
:101CC000002804DB6043FFF7F7FE001910BD404217
:101CD0006043FFF7F1FE201A10BD00004001002014
:101CE00000B5002204490028CA7301D06420C873DB
:101CF00000F002F900BD0000BC00002013B56A46E8
:101D0000127813200240094802706A4654784470E1
:101D1000002C03D02246801CFFF7F8FE0349A41CC8
:101D20000846E2B2083801F0F9F91CBD1C01002098
:101D30000148807870470000400100200148C079C8
:101D40007047000040010020074808490078020958
:101D500030320007000F8A70092801D8303000E0C7
:101D60003730C87001487047F4000020420000205E
:101D700001484078704700009001002010B5074CE2
:101D8000E079002808D0FEF747FC216A884203D397
:101D90000020E071012010BD002010BD5000002087
:101DA00007490A7802704A7842708A788270CA7845
:101DB000C2700A8C02718A8C4271098D81717047E0
:101DC000BC000020FF2070471FB502246B461C7327
:101DD0000A215973062119700021597005229A7041
:101DE000D97001221A715A719C71D9711872000A46
:101DF000587219460398FFF781FF1FBD01494870CB
:101E000070470000000100200449024608790028BC
:101E100003D0034B136000220A7170479001002029
:101E20005104002010B50C46282906D20A46014666
:101E30000248FFF76BFE0248047110BD51040020F8
:101E400090010020014901200871704750000020D6
:101E500070B50D4D1C4628716971AA71642B0DDC9B
:101E60002002001B6421FFF73DFEE8626420001B96
:101E70000102081A6421FFF735FE01E00020E86244
:101E8000286300F039F870BDBC00002000B565285B
:101E900003D20249486300F02FF800BDBC000020C7
:101EA0000249CA691018C86170470000500000203C
:101EB00070B50446034D0120E871FEF7ADFB001933
:101EC000286270BD5000002010B5FEF76CFAFEF7D6
:101ED000A3FB03491E3048620120487110BD000079
:101EE000400100200521C001090240180149486055
:101EF0007047000088010020F0B51448417802794D
:101F00008C46511A818241798678891BC1828179F8
:101F1000C578491B0183818D048C091B4183018E87
:101F2000838CC91A8183818E028D891AC183C77BF4
:101F3000817B7F1A47824173012101746146C1711F
:101F4000067245728472C3720273F0BDBC00002039
:101F500070B52F4C012810D0E07B20702079607084
:101F60006079A070A079E070E06A2062206B606206
:101F7000606BA062FEF71AFA70BD257C0F2DFBD8AE
:101F80001420205E0F216843FFF7ACFDE1790818AB
:101F900060701620205E0F216843FFF7A3FD217AB1
:101FA0000818A0701820205E0F216843FFF79AFDE3
:101FB000617A0818E0701A20205E0F216843FFF74D
:101FC00091FDA17A081820621C20205E0F21684331
:101FD000FFF788FDE17A081860621E20205E0F215D
:101FE0006843FFF77FFD217B0E181220205E0F2132
:101FF0006843FFF777FD617B0818C1B23046A173D3
:1020000048436421FFF758FD6D1CA0622574B1E7B9
:10201000BC00002030B47446641E2578641CAB42BA
:1020200000D21D46635D5B00E31830BC184702E038
:1020300008C8121F08C1002AFAD170477047002053
:1020400001E001C1121F002AFBD17047090710B53A
:10205000090FC00705D0032902D1022001F0CEFAF2
:1020600010BD05480079002802D0FFF72DFF10BDF4
:1020700001F030FB10BD000040010020F8B507461C
:10208000204C00202071087816460007000F0D46EE
:10209000032802D0052822D117E08120000138183A
:1020A000A06101F0D2FA17486946C08908800098FB
:1020B00001F070FA6178A06B01F078FA6078012184
:1020C000C001C9024018606111E0002E07D0284607
:1020D00006220D490830FFF744FD002802D001F028
:1020E000F9FA04E032462946384600F0E7FB53206F
:1020F00000F08EFF0549042000F0B3FF562000F0E9
:1021000087FFF8BD40010020B5000020CF0100206E
:1021100070B5394C0646E079002823D0A078401CE1
:10212000A070A079002801D02820A0702079002577
:10213000002808D0206A091AE069301A00F04EFB26
:10214000E57025716581FF20193001F08BFAA078C8
:10215000272815D801F031FA0020FFF7A1FE01F081
:10216000C6FA70BD512000F053FF7821202000F006
:10217000A4FF562000F04CFF6420FFF791FE70BDD5
:102180002520A0702069FFF795FD86192069800938
:10219000FFF786FE304601F08EFAA07801F00DFAC6
:1021A000512000F035FF7821002000F086FF7A21D1
:1021B000002000F082FF562000F02AFF0F48052281
:1021C0000078D201410041188901891822699142A1
:1021D0000DD2217A491CC9B22172172907D3257261
:1021E000002802D001F00CF801E000F0AEFF608999
:1021F000401C608170BD000040010020F6000020FE
:1022000010B509492520887001F0D7F9FF20193051
:1022100001F028FA002001F0E6F901F068FA002048
:1022200001F0ACFD10BD00004001002010B50C48CD
:102230000078000702D001F04DFA10BD782001F0BF
:1022400011FA012001F0DAF905480C38816940697A
:10225000081891210901401801F0F7F910BD00009C
:102260004C01002070B506460D46022001F0C6F96B
:102270002320C001104C2818A06101F0E6F9E068A5
:1022800001F088F92178606B01F090F92078012144
:10229000C001C90240186061A07825280AD1E66112
:1022A00025626089112802D2E078002802D001203E
:1022B000E070207170BD00004001002070B50E4C30
:1022C0000546206A017861724088E08150214843C8
:1022D000FFF7F0FC401901F0EEF9206A81882182B5
:1022E000C18861820089A082607A0449484340180D
:1022F00001F0B8F970BD0000CC010020E20400003C
:1023000070B5044600781C4D4006C00F6871284621
:102310000622A11C3530FFF7F9FB0E3428460422B3
:1023200021462C30FFF7F2FB28460322211D1630F0
:10233000FFF7ECFBE0796872617A207A09024018B5
:10234000E881E17AA07A090240182882617B207B2B
:10235000090240186882E17BA07B09024018A8822C
:1023600021462846052210313030FFF7CFFB607D33
:10237000C006C00EA87270BDCC0100207FB50AA4B3
:1023800070CC80070194800F039602956C462070F4
:10239000092060706172A272100AE072237301A9B1
:1023A000009800F020F87FBD050004000100000047
:1023B000000000000EB507A106C980070091800F3C
:1023C00001926946087207204872029800F00BF8E3
:1023D0000EBD0000030004000317000010B50A231F
:1023E000FFF7CCFF10BD10B5FFF788FC10BDFFB59F
:1023F00087B01E466F46109B119A0546387109201A
:10240000787105200C463872002179720420B87268
:10241000F972601C387301207873B973F873052062
:10242000C0023974834213D105A8009006AB31462F
:102430000998FFF7B9FA00280AD06946088B487353
:10244000888AC87302A90198FFF7CDFF0BB0F0BDD1
:1024500021462846099AFFF7C1FFF7E7FFB587B085
:10246000079817468007800F6A4610700A20507040
:102470000020507106211171D07104219171052144
:102480001172012151721E46D0720446134D1AE09A
:1024900020460A21484341194988B94211D3B14223
:1024A0000FD80A214C43611989786A469172285ADB
:1024B0001073000A507301A90098FFF794FF0BB046
:1024C000F0BD641CE4B2FFF7E9F9A042E0D83A4657
:1024D00008990798FFF782FFF1E700005C430008C6
:1024E000F0B589B00E4607461D461C2101A80E9C7A
:1024F000FFF725FBB807800F69460870601D48701C
:10250000601C0871000A4871042088710020C8719D
:10251000761C0E7201A904E02A5C0B18401C5A714B
:10252000C0B2A042F8D30098FFF75DFF09B0F0BD3C
:1025300030B589B0154901220A7000216C4621711D
:1025400061710423A371E171112323720623637265
:10255000A272E17223736173A1731825E5730722D8
:10256000227461740F22A274E1740A232375182166
:1025700061750E2580072571800F12212070617012
:1025800001A90098FFF72FFF09B030BD3C000020E3
:10259000F0B589B08446002468460E9D04714471EC
:1025A00004268671C471112606722E1D4672817230
:1025B000C472027344730A2001AF002105E05A5C23
:1025C0003A54401C491CC0B2C9B2A942F7D3011FFA
:1025D0006A46117161468907890F1170507039463A
:1025E0000098FFF700FF09B0F0BD0000FFB589B00B
:1025F000099815218507129E4902AD0F1F468E428C
:1026000021D16846FFF746F9014668460571002367
:1026100043710078801CC2B2122A00D91222941C85
:102620006D462C72200A68720426AE72EB72092085
:1026300028736A73AE73EB7304A8921EFFF766FAF1
:10264000241D6C713FE0614886423ED10B980728FB
:102650003BD15F480078002837D06B461D711721A9
:10266000197200215972042199720021D97209212D
:10267000072019735873082098730020D87302201C
:1026800018745974002199742921D9742A21197553
:102690000A225A7500249C75D8750B251D760025D5
:1026A0005D7626259D760E22D9761A7700225A77F6
:1026B00098770F24DC7708AB1A702820587099702F
:1026C0001B206B46587102A96FE0FF2F00D9FF272E
:1026D000002471E020460A2148433E490A5AB2428A
:1026E00068D1411848880B9A904263D3B84261D8A8
:1026F000364A521E964223D10A226E463272002377
:1027000073720422B272F372092232730822727356
:102710000A2254432F4AA2189278B273000AF07327
:10272000002002AA0B181418401C1B79C0B2237297
:102730000528F7D3487A707535710E20707133E033
:1027400009266F463E7200237B720422BA72FB7226
:102750003E7307227A730A2254431E4AA2189278C3
:10276000BA73000AF873184602AA0B181418401C12
:102770001B79C0B223720528F7D33D710D20787103
:10278000497AFF2910D0144B00200901C9180B5CAD
:102790001418401CC0B2E3721028F8D31B207871C3
:1027A000172038721520787311460198FFF71BFE29
:1027B0000DB0F0BD641CE4B2FFF770F8A04289D8F8
:1027C00009AB07CBFFF70AFEF2E700000328000081
:1027D0003C0000205C430008B64300084B22D200B6
:1027E000084B821A9A420CD27D22D200064B8A1ADA
:1027F0009A4206D2FA224243531A044A9362116360
:10280000D0627047A81D0000196618004001002022
:1028100010B5FDF7C7FD00F05DFF10BD7FB52821A5
:10282000484307490A9D099C6E460861B088888123
:102830004A630B700846328CC2818C634D707FBD39
:10284000400100200349024808604068004700003A
:10285000FC4300087C01002006490878002806D0C7
:10286000022804D001D9401E0870012070470020C2
:1028700070470000880100201FB509490A9C099B88
:10288000087008484243CA806A4690890881084611
:10289000128C42810B614C710020C8701FBD00007A
:1028A000900100207102000003490248086040685E
:1028B00000470000184400087C01002070B508465D
:1028C0001A4B194919601146FFF71AFD184C19499E
:1028D000208A801F884208D2A08A091F0A388842AD
:1028E00003D2A07A401F0C2802D300F0F3FE70BD83
:1028F000012000F021F80E49012208310878104328
:10290000F12210400870208A4100A08A814200D242
:1029100088B20A214843FFF7CBFA0025A57000F0E2
:10292000D9FE657070BD0000344400087C010020B1
:10293000CC0100207B0C00000149087070470000AA
:102940008801002001488078704700009001002035
:1029500010B50948007900280CD0084800680078B4
:10296000002807D1FFF75EF9002801D0FFF750FFDC
:1029700000F05AFC10BD0000500000207C01002037
:10298000FEB5F64EF64F3179F64DF74C032904D0DB
:10299000012975D0022904D005E0B079012816D0AC
:1029A000DBE003213171B081B079012802D0002829
:1029B00005D006E0F18A002001F058FC01E001F0AA
:1029C0004BFCB17930790143EAD0002858D100207E
:1029D000F070FDF70CFE00287ED0E048401D00F0AE
:1029E000BFFD707900F0ABFB7079C1070BD0694671
:1029F00001A800F063FCDD4800990160019838608F
:102A00002A68926877E0810719D5694601A800F025
:102A100055FC28680099826901989047CF48243076
:102A2000FFF7F2F9B070FFF7A3F9B278716A2528C1
:102A300003D00020FEF7CCFF80E00120FAE7C106BA
:102A400003D528684069804778E001062CD52868BE
:102A5000C5490078002814D0012000F04BFC6178B3
:102A600020780902401881B22868C2680120904786
:102A70007079410611D5694601A800F01FFC30E0CD
:102A800082E0002000F036FC6178207809024018CE
:102A900081B22868C26801202DE080064ED56946C3
:102AA00001A800F00BFC3CE041061ED5694601A8D8
:102AB00000F004FC28680078002812D1A74AAA492F
:102AC000083200F02BFCFFF73DFF002809D0307AD8
:102AD000A549801FC2B200E05AE00831612000F031
:102AE000A6FA28686278036924E0410705D52868BA
:102AF0000021C2680846904720E0010703D5002066
:102B0000FFF71AFF18E0800616D5694601A800F005
:102B1000D5FB2868017800290AD09349012000F0EC
:102B2000E9FB28686278036900210098984705E06E
:102B3000036900228C49F8E700F0CCFD2868007892
:102B400000281AD17079800717D5B079002807D1ED
:102B500001F082FB3079032802D0002070712AE056
:102B6000FFF70CF9002803D0B07901280DD004E05C
:102B7000F078002801D100F0BAFD3079002800D1AA
:102B800027E770798028FBD0FEBD0020F070F2E7C7
:102B900030790028F4D070790028F1D1FEBD707929
:102BA000022808D1FFF728F8002804D0307900283F
:102BB00001D1FDF7F6FB2868007800280ED13079A6
:102BC000002805D1FFF72EF8002801D0FFF720FEDE
:102BD000FFF7B4F8002801D1FEF7F3FEFDF707FD7B
:102BE00000287DD05D48401D00F0BAFC707900F0EF
:102BF000A6FA7079C1070FD0694601A800F05EFB04
:102C00005A4800990160019838602A689268904794
:102C1000FDF702FDF06191E0810715D5694601A835
:102C200000F04CFB00F056FD28680099826901987D
:102C30009047FFF77DF8252803D028680078012801
:102C40007CD1FEF7BEFE79E0C10603D52868406955
:102C5000804773E001062BD5286843490078002897
:102C600013D0012000F046FB61782078090240185B
:102C700081B22868C268012090477079410610D55A
:102C8000694601A800F01AFB27E0002000F032FBA3
:102C9000617820780902401881B22868C268012052
:102CA00027E080064AD5694601A800F007FB36E018
:102CB000410618D5694601A800F000FB2868007895
:102CC00000280AD120780007000F052805D1234AE3
:102CD00025490832002000F021FB6278286800E0D6
:102CE0004FE0036924E0410705D528680021C26848
:102CF0000846904722E0010703D50020FFF71CFE9D
:102D00001AE0810616D5694601A800F0D7FA2868AE
:102D1000017800290AD01449012000F0EBFA286854
:102D20006278036900210098984707E00369002250
:102D30000D49F8E7002807D000F0CCFC7079800737
:102D400002D5B079012813D03079002800D126E7C8
:102D50007079802800D021E721E700005000002092
:102D6000840100207C010020460200208001002018
:102D7000F18A002001F07AFA3079032800D026E6A3
:102D8000E6E730790028E2D070790028DFD1FEBD77
:102D900070B50546FDF740FC04460A34FDF73CFCDF
:102DA000A042FBD30349022008712846FFF7E8FD43
:102DB00070BD00005000002010B50C461F2900D93E
:102DC0001F24014622460548FEF7A0FE0448047071
:102DD0000930A41D447001F075FA10BD08020020EE
:102DE0005000002070B50D46124A014610780028A8
:102DF00009D0401E1070002656705068092806D071
:102E0000401C506005E001205070002070BD30462D
:102E100056600C22084B4243D41842018018074ADE
:102E200080182A462060FEF771FE25712046A660B4
:102E300070BD0000F8000020BC03002070020020DC
:102E400010B500F02AFC0020FFF74CF810BD000080
:102E500000A070474D475F424C455F4C49425F566A
:102E6000332E30000148007870470000F800002041
:102E7000F0B585B015460C46074614225CA168469D
:102E8000FEF744FE002C6CD0002D6AD001265D4D6B
:102E9000122F22D0132F23D0152F62D1E079E028F2
:102EA00074D029DCD02845D0D2285AD1A07A642801
:102EB00000D86870287969468872E878C872401C22
:102EC0000006000EE87067D067E06878A97848438C
:102ED000694608731421684687E02078012840D1AC
:102EE000287969468872E878C872401C0006000E8E
:102EF000E870EAD1EE70E8E7E22834D0EA2830D171
:102F000020786946087060784870A0788870A88832
:102F10004871C870000A88710871EB20C8713AA026
:102F200002884A81408888811421684600F02AFF7F
:102F3000012014E0A17AA97028796A469072E87895
:102F4000D072401C0006000EE87000D1EE70687868
:102F5000484310731421104600F014FFA07AFEF7C6
:102F6000BFFE05B0F0BDA07A042810D00528F8D126
:102F7000E07A64214843FF21FEF79EFDC3B20022A0
:102F8000E37211461046FEF763FFEAE716E0627B44
:102F9000217BE07A6523F6E7EE706878A9784843EC
:102FA000694608731421684600F0ECFE6878002832
:102FB00000D16E706878FEF769FFD2E7E07A6A4662
:102FC0000102A07A0843A8802178117061785170BD
:102FD000A178917090725071D070000AD072907187
:102FE0001071E120D0711421684600F0CBFEB8E7E3
:102FF00000000000000000DC1102937D00030000CF
:10300000000000003C0000206D6720200000000050
:1030100010B50446FDF7DDFA01215020FDF7CEFA88
:1030200001212046FDF7CAFAFDF7DAFA10BDF8B51E
:1030300015460E460446FDF7CCFA01212046FDF761
:10304000BDFA0746002406E00021FF20FDF7B6FA8E
:103050003055641CE4B2AC42F6D3FDF7C1FA3846F1
:10306000F8BD70B50C460546FDF7B3FA01212846B8
:10307000FDF7A4FA0021FF20FDF7A0FA2070FDF76C
:10308000AFFA70BDF8B516460D460446FDF7A1FA35
:10309000202020430121FDF791FA002407E0287841
:1030A00001216D1CFDF78AFA641C0746E4B2B442A4
:1030B000F5D3FDF795FA3846F8BD70B50D460446D0
:1030C000FDF787FA202020430121FDF777FA01213F
:1030D0002846FDF773FAFDF783FA70BD01680029F1
:1030E00002D14068002801D00020704701207047BD
:1030F00000210160416002490A2008707047000009
:10310000F80000200268136812790A700168896863
:103110000160002900D141601846704710B50B4688
:10312000044611461846FFF75DFE002806D0616888
:10313000002901D0886000E02060606010BD10B5FB
:1031400001460E20FFF7B9FF10BD1CB55320FFF755
:103150005FFF03211F20FFF7B0FF01A91F20FFF72A
:1031600080FF684600790028F7D103211F20FFF770
:10317000A4FF01A91F20FFF774FF6846007900280B
:10318000F7D101211520FFF798FFA0211220FFF7AA
:1031900094FF04210A20FFF790FF00210A20FFF787
:1031A0008CFF88211220FFF788FF012469460C70EC
:1031B0002120487002221320FFF764FF69460C703B
:1031C0002020487002221320FFF75CFF0021152009
:1031D000FFF773FF5620FFF71BFF1CBD08B500204B
:1031E000694608705120FFF713FF5320FFF710FFC7
:1031F00069461F20FFF735FF6946087808BD0000C3
:1032000010B55120FFF704FF5320FFF701FF032102
:103210001F20FFF752FF5620FFF7FAFE0149012059
:10322000487010BDF400002038B5234CA078012868
:1032300037D16078002834D0012833D0022830D12B
:10324000FFF7CCFF00282CD1607001211520FFF77B
:1032500034FFA0211220FFF730FF04210A20FFF7DE
:103260002CFF00210A20FFF728FF88211220FFF7FA
:1032700024FF012469460C7021204870022213208B
:10328000FFF700FF69460C702020487002221320CF
:10329000FFF7F8FE00211520FFF70FFF5620FFF77C
:1032A000B7FE38BDFFF79AFF0028FAD10220607000
:1032B00003211F20F0E70000F40000207CB50D463C
:1032C0000446062269461020FFF7B1FE6946487998
:1032D0000B7902041802C97810184018694620605A
:1032E000887849780004090240186946097840182E
:1032F00028607CBD1CB50C4600280BD00222694614
:103300000620FFF794FE68460078207068464078F3
:1033100060701CBD022269460420F2E77CB51546A8
:103320000C46002809D06278901C2870002A03D02F
:10333000A11C6120FFF77BFE7CBD022269460420B0
:10334000FFF775FE68464078801C28706846007854
:10335000207068464078607068460078254601070E
:10336000090F6846407808350B00FEF753FE070644
:10337000090614051A060500DEE70622A11C08E06E
:103380000C28D9D10622A11C0A20FFF750FE0622E4
:1033900029460B20CEE70C28CED1062229460A204A
:1033A000C8E72228C8D10622A11C0B20FFF73FFE48
:1033B000062229460A20FFF73AFE162221460E3140
:1033C000B7E70000FEB50546002668460671624C68
:1033D00051200C60FFF71CFE01A91F20FFF741FEE2
:1033E000684601798029F7D15C491E20FFF739FE34
:1033F00078210020FFF761FE06210846FFF75DFEF9
:103400007A210020FFF759FE5320FFF701FE8821A3
:103410001720FFF752FE88211820FFF74EFE882163
:103420001920FFF74AFE00211520FFF746FE022172
:103430000120FFF742FE1E211D20FFF73EFE284619
:1034400000F0F8F800A908200131FFF70AFE6846ED
:103450004078424F002807D11220694648703878DA
:103460001B2801D215204870C021684601702D210B
:103470008170032269460420FFF704FE8025684618
:1034800005704670022269460C20FFF7FBFD1C21E7
:103490006846017045703878192802D1CC206946F9
:1034A0000870022269461420FFF7ECFD10206946DF
:1034B000087002274F703A460A20FFF7E3FD69467D
:1034C0000F701220487002220D20FFF7DBFD012053
:1034D000694608700720487002220E20FFF7D2FDCF
:1034E0003820694608700F2048708E700322022031
:1034F000FFF7C8FD71210920FFF7DFFD69460D7058
:103500007020487002220B20FFF7BCFD03226946A1
:103510000B20FFF78CFD40206946C87004220B2069
:10352000FFF7B0FD5620FFF773FDFF210E20FFF7D8
:10353000C4FD062208490820FFF779FD60796D284F
:1035400006D1ED206071062203490820FFF79AFD9D
:1035500000F0C0F8FEBD0000B5000020F40000201F
:1035600038B5044669460E20FFF77BFD68460178B2
:10357000217038BD1CB501786A46117041785170D0
:1035800081789170C078D070042269460C20FFF7D2
:1035900079FD1CBD01B582B06946087A0870487A89
:1035A000487002220320FFF76DFD0EBD0A4610B5DC
:1035B0000146A020FFF766FD10BD10B5282803D2F4
:1035C00001460120FFF779FD10BD1CB501786A4660
:1035D00011704178517080789070032269460D20F7
:1035E000FFF750FD1CBD1CB5FF216A4611705070DD
:1035F000022269460E20FFF745FD1CBD10B50428C8
:103600000BD001280BD002280ED003280ED005289D
:103610000ED0062807D1042102E0022100E0092192
:103620000220FFF74AFD10BD0C21F9E70121F7E761
:103630000321F5E708B502216A46117050700A4669
:1036400069460F20FFF71EFD08BD1CB56A461070C5
:10365000010A5170000C9070032269460720FFF7A1
:1036600011FD1CBD1CB56A461070010A5170002185
:1036700091700549884201D9012090700322694662
:103680001120FFF7FFFC1CBDFFFF00000A4610B52C
:103690000146A020FFF7F6FC10BD01B582B06946D7
:1036A000087A0222C006C00E0870487A48700520C9
:1036B000FFF7E8FC0EBD1CB500216A461170507082
:1036C000010A9170000CD070042269460F20FFF7A8
:1036D000D9FC1CBD1CB5022069460870FF2048704B
:1036E0008870C87004220F20FFF7CCFC1CBD10B5F9
:1036F00001210F20FFF7E1FC10BD000038B50546A1
:1037000000230C4610460093FFF7E8FC002802D087
:103710002B70237038BD69461046FFF7F3FC014655
:10372000684602782846FEF7F1F96846007820706E
:1037300002480178491C017038BD0000F8000020E3
:1037400010B5054803498160002141701430FFF72E
:10375000CFFC10BDF84300080001002070470000B6
:1037600000B587B0182207A16846FEF7CFF90B48CD
:10377000032101701821417000686946FEF7BEFA06
:1037800007B000BD101000280001002C0118200017
:103790000300FFFFFFFFFFFFFFFFFFFFB801002057
:1037A0001CB500228C070C490092A40F01920C70EA
:1037B00006244C7002236C46237062700279A2705A
:1037C0004079E0700D2020711A2060710868694608
:1037D000FEF794FA1CBD0000B80100200EB507A04A
:1037E00007C86B4607C308480321017009214170CF
:1037F00000686946FEF782FA0EBD0000090000006D
:103800000000000000000000B80100201CB50022EC
:103810008C070C490092A40F01920C7006244C7086
:1038200002236C46237062700279A2704079E070C6
:10383000052020713720607108686946FEF75EFA3E
:103840001CBD0000B801002010B589070548890F8C
:103850000170002141700068FFF7F2FA0020FFF7C5
:103860006BF810BDB801002008B507A109680091E8
:10387000064903220A7002224A706A46507008689C
:103880006946FEF73BFA08BD07000000B8010020BA
:103890001CB507A005C8009089070748890F019249
:1038A00001700621417000686946FEF727FA1CBDC9
:1038B0000C079C0517200000B8010020FEB5164C2F
:1038C00001A92246083A2046FFF718FF684600790A
:1038D00001262546002804D12E7068700220694612
:1038E000087121780C4F132001401C3F7878042385
:1038F000C24352081A4040071143C00FC0000143A1
:103900006A46117060785070A11C009800F0CAFCE3
:103910002E7000207870FEBD1C010020FEB50D4603
:10392000002102911D2D00D91D2501462A469B48E4
:10393000FEF7ECF89A48994C05702078984A810770
:10394000890F9070012914D0032917D002290FD1B3
:10395000637921791B02A579C91806294BD004295E
:1039600050D0052904D1132D02D00020FEF72CFAE7
:10397000FEBD022DFCD3FEF719F8FEBDA1780B00A9
:10398000FEF748FB120B0F1E233535350A28353557
:10399000352D0A35320A0A35EFE7E01C00F0A2F9AE
:1039A000FEBD01467D48FFF7D9FE617A207A090203
:1039B00040186946088102A9E01C00F0C5F9FEBD67
:1039C00001467648FFF740FFFEBD01467348FFF70A
:1039D000E7FEFEBD01467148FFF700FFFEBD014650
:1039E0006E48FFF755FFFEBDFFF7BAFEFEBD084665
:1039F000FFF73AFFFEBD012DFCD101466748FFF7F6
:103A000005FFFEBD66490C31102D72D00ADCAE1EDA
:103A10003300FEF7FFFA0B1D1522153615541589D4
:103A2000159415005D4B0933182D7BD004DC122D45
:103A300079D0162D04D192E01E2DE2D0522D72D0F5
:103A40006906DED4062300222946FEF797FCFEBD58
:103A500000222946FEF7AEFCFEBD237AE2791B0266
:103A6000D21892B20A80637AA47A24021B199BB2FC
:103A70004B809A4201D90123E6E72946FEF7EEFC86
:103A8000FEBD237AE2791B02D21892B20A80A67A8E
:103A9000637A36029B199BB24B809A42EBD8267B05
:103AA000E17A36028919667BA47B89B22402341933
:103AB000A4B2009101942946FEF799FCFEBD237A39
:103AC000E2791B02D21892B20A80A67A637A360291
:103AD0009B199BB24B80E67A247B24023419A4B252
:103AE0008C809A42C7D829460094FEF77FFDFEBD20
:103AF000FFE7237AE2791B02D21892B20A80A67AF3
:103B0000637A36029B199BB24B80E67A247B2402AF
:103B10003419A4B28C809A42ADD829460094FDF79E
:103B2000BFFEE4E724E027E0237AE1791B02C9180D
:103B300089B2918002462846FDF7F3FED7E7237A43
:103B4000E1791B02C91889B29180A37A627A1B02BB
:103B5000D21893B202462846FDF725FFC7E7217A1F
:103B6000E0790902401890800C4800F03EFBBEE767
:103B70000A4800F0FDFABAE7E178A6780902C91E02
:103B80007118CEB2E179247A2402091989B29180A0
:103B90000A4629460096FDF79CFEA8E7340400205B
:103BA00000010020090710B5090F0E4AC0070ED00A
:103BB0000B00FEF72FFA070808050B0B0B050B008F
:103BC0001078012802D10220FFF718FD10BDD0782F
:103BD000401CC0B2D070142801D10020D070FFF773
:103BE00079FD10BD9001002010B50C461449002A43
:103BF00048610DD0002C0BD02078921C0007000FDC
:103C00000300FEF707FA0708080B0F0F0F0B0F0052
:103C1000FFF760FD10BD8878002805D0D1B220469E
:103C2000FEF700F9FFF756FD5320FFF7F1F90549BC
:103C30000420FFF716FA5620FFF7EAF910BD00003E
:103C400090010020CF01002070B5114C064660782D
:103C50000D46401CC2B26270282A01D12520607036
:103C60006078FFF7AAFCE07813280DD109480068B6
:103C7000291A09480068301AFEF7B0FD0748007895
:103C8000002802D0FFF7BCFA70BDFFF75EFA70BDE6
:103C9000900100208001002084010020F600002017
:103CA00010B5054C25206070FFF787FCE088FFF712
:103CB000D9FCFFF71CFD10BD9001002010B5FFF7E7
:103CC00009FD10BD10B50C460120FFF797FC1B2025
:103CD000C00103492018C860FFF7B7FC10BD000001
:103CE0009001002030B5164B0122196A4A70027803
:103CF0000A7084784278240212194A800479C278C2
:103D00002402121992B28A80857944792D026419AD
:103D1000CC80057AC4792D0264190C81447A807AAA
:103D20000002201880B200244881062A00D24C707C
:103D30009A89801A034A904200DB4C7030BD000023
:103D4000CC010020FF7F000010B50A4C0346E0695B
:103D50000988C18005221946FDF7D8FEE0690121D6
:103D60004171C188A289891A034A914201DB00216D
:103D7000417110BDCC010020FF7F000010B5FEF79F
:103D800097F810BDF8B50C460746002614E0142C31
:103D900001D9142500E02546FFF764F803280FD366
:103DA000084800950288BB191B21022000F0F1F998
:103DB0007019C6B2601BC4B2002C01D0002FE6D12E
:103DC0003046F8BD1A000020F0B50C4B00201C4610
:103DD000D87130340A4AD8720125C1084607615C9F
:103DE000760F2F46B740394203D0D97A5054491C38
:103DF000D972401CC0B22528EFD3F0BDCC01002001
:103E00009004002010B5C00706D10448FD220178B7
:103E100011400170FFF75EFC10BD0000D4010020CE
:103E2000F8B5344F06460C46B88A0A211546484371
:103E3000FEF73EF839460831087802221043F32293
:103E400010400870FCF7B0FA002C03D0607800280E
:103E500019D01EE04120400105213018C901401849
:103E6000B862FFF7F2FB1B2D00D91B25E8010521E5
:103E7000301A0902401A78621E4808210830027878
:103E80000A43027032E01B480422083001781143D3
:103E90000170812000013018B862FFF7D6FBE801FD
:103EA0000121301A8902401A78622078FDF7A6FFB6
:103EB00022780821B8780A40824217D101223A704C
:103EC0004840B8700C48006800688047FCF76DFAFD
:103ED000002078705320FFF79BF806490420C91C86
:103EE000FFF7BFF85620FFF793F8F8BDFCF75DFA2F
:103EF000F8BD0000CC01002008010020F8B50C46F8
:103F00000646FEF7A9FC00282BD0794F794D38786A
:103F1000C1072CD0E889502148432830FDF7CAFE5C
:103F20008019FFF7C8FBFFF74FFFE86900244471D1
:103F3000286A4470AC8128462C701630FFF745FB88
:103F400028462C30FFF716FBFFF7FAFBEC71687A76
:103F5000694948434018FFF785FB0120FDF729FD1B
:103F60006EE00020FDF79CFF00F076F9F8BD8007B9
:103F70002BD5686A0121201A090640180002000AA0
:103F8000FDF78EFE341A3878400715D5698A002966
:103F900012D0288A41430818502148437838FDF749
:103FA00089FE0419A989688A0918A981A97A414357
:103FB000E8790818E87106E0288A502148437838E3
:103FC000FDF778FE04194D482BE0288A082801D215
:103FD000012129714A490C6869780B2904D25022C1
:103FE0005043C900401A04E0502250434900401A8F
:103FF0001430FDF75FFE0419288A2D2801D94148A5
:104000000FE0082806D2404948430321FDF754FD3C
:104010003E4905E0384948430321FDF74DFD364947
:104020004018FFF71FFB0A36B44200D23446204640
:10403000FFF741FBA889401CA8812046FDF70AFE36
:104040005120FEF7E5FF78210020FFF736F87A21AE
:104050000020FFF732F85620FEF7DAFFE879A97A58
:104060004018C0B22521FDF727FD214BE971CA0890
:1040700028339A5C4B0708465B0F012199400A429E
:1040800004D1E97AFDF718FD2148405CA871C0B25F
:10409000FFF793FA2878002812D01D490120253116
:1040A000FFF728F91A496A4625310120FFF736F94A
:1040B0006846017816482530FFF730FC002028704C
:1040C0003878C10704D040084000387000200BE069
:1040D0002879002805D00020FDF7E2FE0020287195
:1040E000F8BD288A81080818FDF7DAFEF8BD00003F
:1040F000D4010020CC010020E2040000A60E000044
:1041000084010020204E0000C4090000710200005C
:104110009004002010B506480078000704D500215F
:104120000846FFF76FFE10BDFFF7D4FA10BD000080
:10413000D401002070B50D46FDF720FE002803D104
:104140000A4C60781E2805D90020FEF7F5FBFFF722
:10415000C1FA70BD0420FFF751FAC32040012818AE
:10416000FFF773FA6078401C607070BDCC010020CE
:1041700008B502216A461170052151700121817034
:1041800019218171811C0098FEF72DF9FDF7C8FBFC
:1041900008BDFFB58BB0149C1D461746E61C2421B4
:1041A00001A8FDF7CCFC0B98132108406946087064
:1041B000E01D48700E71300A48710420887100209B
:1041C000C8710C9808724F72380A8872002001A9D1
:1041D00004E02A5C0B18401CDA71C0B2A042F8D38C
:1041E0000098FEF700F90FB0F0BDF8B50446827AEA
:1041F000C178007AE57900020543A07809020843F6
:10420000401F87B2667A1002064302206946087092
:10421000607848701720A071A11C0098FEF7E3F8A1
:10422000214633463A460B312846FDF778FBF8BD68
:104230000EB507A106C980070091800F019269465B
:104240000872052048720298FEF7CDF80EBD0000F6
:10425000010004001300000010B500F033F8002046
:10426000FDF7A7FBFEF7EEFA10BD000000B585B024
:1042700022230B4A04930392433A528A6B461A81D3
:104280000023074A0093433A019313690A46012128
:104290004902FEF7F1FAFEF707FB05B000BD00008A
:1042A0009300002073B50D460098FFF7F6F96846B5
:1042B000447828462146FFF7E9F92046FDF712FE2B
:1042C0007CBD000030B585B003A8FDF7E3FA694670
:1042D000097B182902D918216A46117369460A7B9D
:1042E0001C4B511C1970002104E0445C5D18491CF2
:1042F000AC70C9B29142F8D3002003E09918521C67
:104300008870D2B2192AF9D31249124A0C46283CB5
:104310002578103A03231B20002D01D00E4A2B468E
:104320006578002D02D00C4928461F3102900948BB
:1043300001912838C0896D46288006482838417A7E
:104340002974807A6874A0890499FEF767FA05B029
:1043500030BD000078000020080200200328030080
:10436000020400002AFF03280800020900292AFF8E
:1043700003280A00020B00262AFF03280E00020F62
:1043800000282AFF032811001A1200000001022948
:1043900013000A0000000000032814000A150000A2
:1043A0000002032817000A18000000030129190061
:1043B00002000000000010190D0C0B0A0908070686
:1043C00005040302010011190D0C0B0A0908070668
:1043D00005040302010012190D0C0B0A0908070657
:1043E00005040302010013190D0C0B0A0908070646
:1043F0000504030201000000BD38000800000000B1
:1044000001220008652200084D2000087D200008D8
:104410002D2200081121000800000000A13C000826
:10442000C53C0008A53B0008E93B0008BD3C00086E
:10443000493C000801000000000000003541000870
:10444000053E0008213E000815410008FD3E000819
:10445000704400080000002008020000A01B0008B3
:104460001C45000808020020D00600003E2000087D
:104470004145020406082D0102030404150607083D
:1044800009530112201C0201060D094D4742443117
:104490003732354138394609FF110201089FA825F6
:1044A000171564010179D00B465620202E342E308A
:1044B0002E3213800912A010088421030C45220417
:1044C0002A2048E1021909100A4D8BAB6348CDF14F
:1044D0000406322812C81AFF010A121F2FB2011A4D
:1044E00064010217100A11640C02230A0225FF5A04
:1044F000258B09167E612381311A58750B186FE8D8
:10450000F9494F29D6091C4C811378041420AE01B7
:0C4510000224201AC4281A84300118006C
:04000005080000B53A
:00000001FF
