:020000040800F2
:10000000700A0020C90000086103000863030008AB
:1000100000000000000000000000000000000000E0
:100020000000000000000000000000006503000860
:100030000000000000000000670300086F030008D4
:10004000F5000008F5000008F5000008F5000008BC
:10005000F50000087F030008F5000008A70300086A
:10006000F5000008F5000008F5000008F50000089C
:10007000F5000008F5000008F5000008F50000088C
:10008000F5000008F5000008F5000008F50000087C
:10009000F5000008F5000008F5000008F50000086C
:1000A000F5000008F5000008F5000008F50000085C
:1000B000F50000080348854601F0EEF800480047C7
:1000C00041110008700A00200B4880F308880B4893
:1000D0000168090E0A4A914205D10A480A4901609D
:1000E0000A480B4901600B480047FEE7FEE7FEE7C0
:1000F000FEE7FEE7FEE70000700A002004000000B3
:100100001F00000018100240010000000000014024
:1001100000000000B50000088307FF22DB0E9A40B4
:100120008907090E994000280BDA0007000F0838EC
:1001300083087F489B001818C36993430B43C3612E
:10014000704783087B489B001818036893430B4350
:1001500003607047784900200A6801231A430A6047
:100160000A689207FCD50A6801231B059A430A60B6
:100170000A6804239A430A60DA014A606F4B11222D
:100180001A604A68920892004A604A6802231A4339
:100190004A6002E048680007800F0228FAD17047E1
:1001A00001226749002801D04A6170470A617047FF
:1001B0005F48016904221143016130BF7047F0B507
:1001C00085B0FFF7C7FF604C5E4860610321081FE0
:1001D000FFF7A2FF0027A7610720206108215B48E5
:1001E00000F013F90121090368460180022585709A
:1001F0004821C17009206946C00600F053FA012465
:10020000684604802826C67009206946C00600F0AA
:1002100049FA4F4968460180C67009206946C00600
:1002200000F040FA4B4968460180C670444E69466A
:10023000304600F037FA092005220821C00600F0F8
:10024000ABFA6846048085701021C170694630465B
:1002500000F028FA0121084600F020FC01210807DF
:1002600000F025FC0021084600F0BBFD0C21002019
:1002700000F0B7FD6846019407720821417284724C
:1002800001A800F092F920030190684607720C2142
:100290004172847201A800F088F905216846017353
:1002A0004573847303A800F0AFFA02210520FFF71D
:1002B00033FF0721684601734573847303A800F078
:1002C000A3FA03210720FFF727FF05B0F0BD704711
:1002D00070B502F0D7F900280FD01F484B210068F5
:1002E000C90002251D4C884208D9002000F08EFB71
:1002F00002F060FE2570FFF75BFF70BD0C482570B3
:10030000016904221143016130BF70BD704770471D
:1003100072B612484178491C417070470F494878BD
:10032000401E0006000E487000D162B6704770474C
:1003300000ED00E000E400E0001002400020024078
:10034000000400487FBB000000E000E000380040EF
:10035000FEEF0000FE0F0000200000200000002043
:100360007047FEE77047704719480068704710B53E
:1003700017480168491C016001F064FF10BD10B509
:10038000012000F068F9134800240178022907D100
:1003900011494A6802231A434A60047002F01AFDA8
:1003A0000E48046010BD10B50120000300F053F9A1
:1003B00008480178022904D107494A6802231A43F0
:1003C0004A6000210170084601F054FF10BD000092
:1003D0000400002000000020001002402000002047
:1003E00010B5082100F082FC10BD10B5664900F080
:1003F0007DFC10BD10B5102100F078FC10BD6249E5
:1004000010B5083900F072FC10BDF3B506465F4820
:100410000324042585B0864236D10121801400F0E2
:100420003DFB0121600400F030FB0022052158480B
:1004300000F0B2F900220421554800F0ADF9002285
:100440000321534800F0A8F9AF0169460F808C7072
:100450001020C8704E4800F025F939464C4800F08D
:1004600086F90820694608808C701827CF704848A4
:1004700000F018F92020694608808C70CF7044483D
:1004800000F010F9102039E0424886423DD10121A8
:10049000001400F00CFB03200121400400F0F5FAE9
:1004A00003220E213A4800F077F904220D21384842
:1004B00000F072F904220C21354800F06DF9F713B1
:1004C00069460F808C701020C870314800F0EAF83F
:1004D00039462F4800F04BF93014694608808C707B
:1004E0001827CF702A4800F0DDF87014694608809C
:1004F0008C70CF70264800F0D5F8B014694608809B
:100500008C70CD70224800F0CDF86A4695800020AE
:10051000D08008211181508101219181D0810699DB
:100520001182508201A9304600F02DFB0121304696
:1005300000F060FB3046FFF753FF3046FFF75AFFED
:1005400007B0F0BD134908600889C007FCD00889CE
:100550008007FCD54868C0B2704710B50121C903B7
:100560000B4800F006F910BD10B50121C903084879
:1005700000F0FDF810BD10B50920C00600F0EAF843
:10058000C004C017401C10BDF7FF00000030014040
:1005900000040048003800403048002101604160FC
:1005A0008160C1602E494161704710B583792B4944
:1005B0000268002B26D00B6893430B604A680368DF
:1005C0009A434A60027952181368046823431360FF
:1005D0008A6803689A438A60CA6803689A43CA6053
:1005E0004279102A05D051180A68006802430A604F
:1005F00010BD8A6803681A438A60CA6800680243AB
:10060000CA6010BD0079401801689143016010BDB7
:100610000021016001710C224271817170470F4904
:100620000A6902430A6170470C4A01465269002078
:100630000A4200D001207047084948617047074BC3
:100640000246196800205B691140134202D000295C
:1006500000D0012070470149486170470004014003
:10066000FFFF1F00172110B5C906401811D0012146
:100670008902401A10D0401A11D0884208D10121B5
:100680008402204600F001FA0021204600F0FDF926
:1006900010BD01214C04F4E701218C04F1E7012194
:1006A000CC04EEE7F0B5CC78002223071B0FE4065C
:1006B00001D58C7823430C782406240E1AD00468C4
:1006C00001250E8895402E40AE420FD197000F268F
:1006D000BE40B4431E46BE403443CE78282E02D0DE
:1006E000482E02D002E0456100E00561521C082A54
:1006F000E6D304600A88FF2A1CD944680022164603
:1007000008360125B5400E882E40AE420ED1970026
:100710000F26BE40B4431E46BE403443CE78282E3A
:1007200000D14561CE78482E00D10561521C082ABF
:10073000E5D34460F0BD0021C943018002218170EE
:100740000421C17070470246926800200A4200D01E
:1007500001207047806880B270470246D26800204E
:100760000A4200D001207047C06880B27047016122
:10077000704741617047002A01D0016170474161B3
:100780007047C1607047012212040A43826181618F
:1007900082618169806970474B0710B5DB0E9A4012
:1007A000CC080F219940002C06D0436A8B4343624A
:1007B000416A1143416210BD036A8B430362016ABF
:1007C0001143016210BD00000C49086070470B49DD
:1007D00048607047094988607047084908480860C0
:1007E00070470649074808607047044A0146D268C6
:1007F00000200A4200D00120704700000030004075
:10080000AAAA0000CCCC000030B58278012401787F
:10081000002A15D08B08184A9B009A18136889077C
:10082000C90EFF258D40AB434578AD072D0E8D4099
:100830001D4315600078C006C00E84400F4804E0D8
:10084000C806C00E84400D488030046030BD70473B
:100850000B4A0029116901D0014300E08143116175
:100860007047042207490428086902D090430861B0
:1008700070471043FBE7000000E400E000E100E007
:1008800000ED00E000E000E0AC4801680122114307
:1008900001604168AA4A114041600168A94A1140BB
:1008A00001600168012292049143016041687F2246
:1008B00012049143416000218160704710B59F4947
:1008C0000B680122120493430B600B689400A3434E
:1008D0000B60801A09D003221204904204D10868E8
:1008E000052212041043086010BD0868FAE70346A9
:1008F00000205909914A01290AD002290AD0516AD7
:10090000DA06D20E012393400B4200D0012070473B
:100910001168F5E7116AF3E718B5002005242402F1
:1009200000903120FFF7E3FF0099491C0091002857
:1009300001D1A142F5D13120FFF7D9FF002800D025
:10094000012018BD7D4A1168F8239943C00008436F
:100950001060704779490128086803D040084000BA
:100960000860704701221043FAE710B5734B18680E
:10097000754C89061205204011430143196010BDD2
:1009800001226E4912060028086801D0104300E0D9
:10099000904308607047694A51688908890001439B
:1009A00051607047654840680C2108407047634AB1
:1009B0005168F02399430143516070475F4A516881
:1009C00007231B0299430143516070475B4A5168FA
:1009D0000723DB029943C000084350607047574A21
:1009E00000020029916801D0014300E08143916039
:1009F000704752494A6802434A6070474F4A5168FB
:100A000003239B0399430143516070474B490028DE
:100A1000486A02D00122104301E0400840004862C9
:100A2000704770B54549044648680C221040474A53
:100A300003D0042801D0082801D0226006E008680D
:100A4000C00201D4424800E0424820604868424A5F
:100A50000006000F135C2068D84060604B685B059F
:100A60005B0FD35C0546DD40A5604B689B045B0FC4
:100A7000D25CD040E0604968374A0904890F121FF0
:100A8000515C00F0BBFB206170BD2C4A002951690C
:100A900001D0014300E0814351617047274A00299A
:100AA000916901D0014300E0814391617047234A7D
:100AB0000029D16901D0014300E08143D161704731
:100AC0001E4A0029D16801D0014300E08143D16072
:100AD00070471A4A0029116901D0014300E081439F
:100AE0001161704701221549D2040128086802D01B
:100AF0009043086070471043FBE710494A6807239A
:100B00001B069A434A604A68000602434A607047DF
:100B10000A48416A01221206114341627047074A9E
:100B20000146926800200A4200D001207047034924
:100B30008A68000402438A60704700000010024087
:100B40000000FFF8FFFFF6FEFFFF8F0300127A00A0
:100B5000006CDC0200A24A040C000020904910B591
:100B6000401806D01F21C90288420BD101210C0375
:100B700001E001218C032046FFF7A2FF002120465F
:100B8000FFF79EFF10BD10B5028B0F231B031A4009
:100B90004B884C8923430C88144323430383838B62
:100BA0003F22D2431340CA89CC8822430C891C437C
:100BB000224318231A438283028C8A8902848A88FA
:100BC000082A07D0828B04231A438283828B08234E
:100BD0001A4382838988818510BD0021018041806C
:100BE00008228280C1800122028141810222828109
:100BF000C18170470029018B02D00122114301E01D
:100C000049084900018370470223002A06D0028B5D
:100C10001A430283028A0A4302827047028A8A4385
:100C20000282018B994301837047002A028B01D015
:100C30000A4300E08A4302837047002A028B01D0F6
:100C40000A4300E08A4302837047828D0160D2B27A
:100C5000082A01D8002A01D10B0A0360102A01D802
:100C6000002A01D10B0C0360182A01D8002A01D1F7
:100C7000090E0160704741681143828D082A02D82D
:100C8000828D002A02D1426812021143828D102AFD
:100C900002D8828D002A02D1426812041143828D4B
:100CA000182A02D8828D002A02D14068000601432A
:100CB00008467047002A028D01D00A4001E0C9436E
:100CC0000A4302857047374A9142018B02D00122C4
:100CD000114301E04908490001837047028B324B00
:100CE0001A400283028B0A430283704710B5082220
:100CF000082911D01024102911D02A4BDB1F99424A
:100D000002D1038B93430383264A0F3A914202D1C7
:100D1000018BA143018310BD018B1143FAE7018BC5
:100D20002143F7E7838D0022082B07D0828D002A0C
:100D30000AD0828D082A07D8012116E000890842CE
:100D400000D0012210467047828D102A01D802215E
:100D50000BE0828D182A01D8032106E0828D1F2A1C
:100D600002D9828D002A00D1042100890005000FDC
:100D7000884201D3012070470020704702469289C3
:100D800000200A4200D001207047828A0A438282F2
:100D9000704781847047828B0A43828370470000CA
:100DA00000C8FFBFFEFF0000FFFC000015480168FF
:100DB0008907890F016000218160C1600161416183
:100DC0007047104A11688908890001431160704713
:100DD0000C4A0029116801D0014300E081431160F1
:100DE00070478A0710B5120F0F2393408C080549EE
:100DF000A40061188C689C438C608B68904003430E
:100E00008B6010BD000001400D210170B4A070473F
:100E1000162070477CB50525069BED020224AB42E7
:100E200001D1012A0BD0AB4211D1072A0FD8B0A1B2
:100E300009680F22019101AB0094072136E0ADA1B2
:100E400009680622019101AB009401212EE0AB421A
:100E500009D1102A07D8A8A109682A22019101AB5B
:100E60000094192122E0AB4209D12B2A07D8A3A173
:100E700009682D22019101AB00942B2116E0AB42B1
:100E800009D12E2A07D89EA109683122019101AB10
:100E900000942E210AE0AB420BD1322A09D899A145
:100EA0000968019101AB37220094322100F0E8FF7C
:100EB0007CBD00F03BFF7CBD10B51F2A08D0262A60
:100EC00009D0312A07D0372A05D000F02FFF10BDF6
:100ED0008D4A0121117003F04DF810BD7047704725
:100EE000F0B585B0064615460C4601A8FFF78CFF05
:100EF000034600200221222C46D011DC07220D2CB3
:100F000039D006DC042C20D0092C22D00B2C15D192
:100F100027E00F2C33D01F2C47D0202C0ED131E0EE
:100F2000302C50D006DC232C3DD0262C3DD0282C54
:100F300004D143E0312C38D0372C36D0224631460C
:100F4000284600F0F3FE05B0F0BD68460079009039
:100F50002EE001F073FC00F08BF9C7B201F06EFCDB
:100F600006E000F07FFA00F083F9C7B200F07AFAE9
:100F7000034600971CE002900092039017E063A3E1
:100F8000009215E063A00FE063480078002803D0CA
:100F90001620624B00900BE00F2322463146284674
:100FA00000F094FECFE75EA000680091029002ABD3
:100FB00022463146284600F03BFFC4E759A00068AE
:100FC0000290042004E05548801E00680290012031
:100FD0000090ECE710B5544C0299A24207D11928B1
:100FE00005D8192018802A200880012010BD002073
:100FF00010BD38B514460546222905D00A460146DB
:10100000204600F093FE38BD18461630A62801D8B9
:10101000162002E0A620C01A80B2C0B200903F485D
:101020000A46C3182946204600F002FF38BD1CB509
:101030003EA003C8019100900521684602F044FDDE
:101040000020694688700521684602F03DFD0120B8
:101050001CBD0EB537A10EC90091029301926946DD
:10106000C8700921684602F02FFD00206946C8704B
:101070000921684602F028FD01200EBD10B50920A7
:10108000C006FFF767FBC00704D02820FFF7E1FF89
:10109000FFF7CDFF10BD1DA0704770471A4840787C
:1010A0007047002070471849002800D10870487028
:1010B000704710B5FFF791FB13494868401C486022
:1010C0004878002802D00020486004E08878401C5E
:1010D0008870C007C00FFFF763F810BD70470000AD
:1010E0004D472D53687574746572303100000000EF
:1010F0000A18000000180000121800000AA00000E2
:101100000F180000131800001C0000205356322E48
:10111000312E320000010000C400002016470008F4
:101120000B0A0000DBFA5A02121800000200080045
:1011300000000000010000000000000000000000AE
:1011400001204005401EFDD2FFF739F80D4903206C
:1011500000F02CF800F0FAF90B49432001F062FD91
:1011600009480B21001D01F0B3FA08480021016075
:1011700001680529FCD3FF20413001F095FAFFF703
:10118000A7F8FCE7E204000028000020040000208B
:1011900010B50120FFF729FB0028FAD110BD10B5CA
:1011A0000220FFF722FB0028FAD110BD70B50446DB
:1011B0000D460120FFF72AFC6120FFF798FB00286D
:1011C000FAD0FFF7E5FF0C4E3046FFF7FDFAE0B22C
:1011D000FFF7FDFAFFF7E3FF3046FFF7F5FA2805C2
:1011E000000DFFF7F7FAFFF7F8FAFFF7FAFA70BD0C
:1011F00010B5FFF7F2FA10BD5555000030B50B469B
:10120000014600202022012409E00D46D5409D42E0
:1012100005D31D469540491B254695404019154666
:10122000521E002DF1DC30BD03460B439B0703D05B
:1012300009E008C9121F08C0042AFAD203E00B789B
:101240000370401C491C521EF9D27047D2B201E013
:101250000270401C491EFBD270470022F6E710B511
:1012600013460A4604461946FFF7F0FF204610BD14
:10127000421C0178401C0029FBD1801A704730B510
:1012800004460020034600E05B1C934203D2E05C6E
:10129000CD5C401BF8D030BD064C0125064E05E064
:1012A000E36807CC2B430C3C98471034B442F7D387
:1012B000FEF704FF4C4900086C49000830B58C1853
:1012C0000278401C13071B0F01D10378401C120940
:1012D00006D10278401C03E005780D70401C491CC3
:1012E0005B1EF9D101E00B70491C521EFBD1A142DB
:1012F000E6D3002030BD000010B5FFF735F8074AEF
:101300009169884208D2081A0549884204D8918A0E
:10131000884201D9012010BD002010BD4C000020E2
:10132000FFFFFF7F10B50A4C607900280CD0FFF753
:101330001BF8616A884208D3401A01218902884259
:1013400003D200206071012010BD002010BD0000FC
:101350004C01002070B5114C0025216A4A78002A02
:1013600007D04989A289914203D100F045FC206A47
:101370004570E169487900280ED0C888A28990425A
:101380000AD10648E67905223030FFF74DFF02F01A
:10139000BDFBE0694571E67170BD0000A40100204D
:1013A00030B500210F24621A435C855C4554491C0A
:1013B00083540829F7DB30BD10B50349CA6A096BAD
:1013C0005043FFF71BFF10BD4C01002010B5044631
:1013D00008480849806A096B002804DB6043FFF76E
:1013E0000DFF001910BD40426043FFF707FF201AB0
:1013F00010BD00004C01002013B568460078132290
:10140000104C10402070684642786270002A02D06A
:10141000A01CFFF709FF0C480078002807D02078AF
:1014200000A98207920F0748013103F061F868466E
:1014300040780449801CC2B20846083801F09EFA80
:101440001CBD000014010020C40000200148807869
:10145000704700004C0100200148C079704700002F
:101460004C01002007480849007802093032000783
:10147000000F8A70092801D8303000E03730C8707A
:1014800001487047EC0000203E00002001484078F1
:1014900070470000E001002010B5074CE0790028FB
:1014A00008D0FEF761FFE169884203D30020E071B4
:1014B000012010BD002010BD4C0000201FB50224EB
:1014C0006B461C730A21597306211970002159704B
:1014D00005229A70D97001221A715A719C71D971C2
:1014E0001872000A587219460398FFF785FF1FBD4E
:1014F0000149487070470000F800002010B501460F
:1015000006220248FFF790FE10BD0000D800002020
:10151000044902460879002803D0034B13600022D7
:101520000A717047E00100204806002010B50C4603
:10153000282906D20A4601460248FFF775FE0248EE
:10154000047110BD48060020E0010020014901207F
:10155000087170474C00002002498A6910188861A0
:10156000704700004C00002070B50446034D012078
:10157000E871FEF7F9FE0019E86170BD4C0000202B
:1015800010B5FEF7C4FEFEF7EFFE03491E304862B9
:101590000120487110BD00004C0100200521C00150
:1015A000090240180149486070470000940100207A
:1015B00030B47446641E2578641CAB4200D21D46CC
:1015C000635D5B00E31830BC184702E008C8121FD7
:1015D00008C1002AFAD170477047002001E001C11C
:1015E000121F002AFBD17047090710B5090FC00769
:1015F00005D0032902D1022001F062FC10BD05488C
:101600000079002802D0FFF7BBFF10BD01F0C4FC39
:1016100010BD00004C010020F8B50746204C00200A
:101620002071087816460007000F0D46032802D0E7
:10163000052822D117E0812000013818A06101F0AF
:1016400066FC17486946C0890880009801F004FCD0
:101650006178A06B01F00CFC60780121C001C90227
:101660004018606111E0002E07D0284606220D497F
:101670000830FFF704FE002802D001F08DFC04E0E2
:1016800032462946384600F091FD532001F0F0F82B
:101690000549042001F015F9562001F0E9F8F8BDDC
:1016A0004C010020B4000020A701002070B5394C87
:1016B0000646E079002823D0A078401CA070A079CD
:1016C000002801D02820A07020790025002808D00B
:1016D000206A091AE069301A00F0F8FCE5702571FB
:1016E0006581FF20193001F01FFCA078272815D84C
:1016F00001F0C5FB0020FFF72FFF01F08DFC70BD4E
:10170000512001F0B5F87821202001F006F956208B
:1017100001F0AEF86420FFF71FFF70BD2520A07018
:101720002069FFF753FE861920698009FFF714FF2F
:10173000304601F022FCA07801F0A1FB512001F01D
:1017400097F87821002001F0E8F87A21002001F0D4
:10175000E4F8562001F08CF80F4805220078D201F9
:101760004100411889018918226991420DD2217ADC
:10177000491CC9B22172172907D32572002802D04B
:1017800001F06EF901E001F010F96089401C608100
:1017900070BD00004C010020EE00002010B509498A
:1017A0002520887001F06BFBFF20193001F0BCFB95
:1017B000002001F07AFB01F02FFC002002F080F9FC
:1017C00010BD00004C01002010B50C480078000747
:1017D00002D001F0E1FB10BD782001F0A5FB012053
:1017E00001F06EFB05480C388169406908189121A9
:1017F0000901401801F08BFB10BD000058010020CA
:1018000070B506460D46022001F05AFB2320C001A8
:10181000104C2818A06101F07AFBE06801F01CFB75
:101820002178606B01F024FB20780121C001C902FE
:1018300040186061A07825280AD1E6612562608998
:10184000112802D2E078002802D00120E070207137
:1018500070BD00004C010020F0B58BB00F4604466F
:10186000002630012278395CC0194A40D8498A5C88
:101870002270237905796B40CB5C2371237A057A3A
:101880006B40CB5C2372237B057B6B40CB5C23736B
:10189000637845786B409C46637945796B40CB5CB7
:1018A00063700193637A457A6B40CB5C6371637BB1
:1018B000457B6B40CB5C63726346CB5C6373A578FE
:1018C00083785D40AC46A37985796B409E46A57AC6
:1018D000837A5D404B5DA3700093A57B837B5D4065
:1018E0004D5DA57165464B5DA3727346CB5CA373DA
:1018F000E37BC57B6B409C46E37AC57A6B40CB5C4F
:10190000E373E379C5796B40CB5CE372E378C0782D
:101910004340C85CE0716346C95CE170019B1046BE
:101920005840009B05464B405D40009200F07CFF14
:1019300021786840414021706078A178484000F0EB
:1019400073FF6178684041406170A078E178484059
:1019500000F06AFFA17868404140A170E078009AE9
:10196000504000F061FFE17868404140E17020792B
:101970006279A379E57942406B40154600905D405D
:10198000104600F051FF2179684041402171607993
:10199000A179484000F048FF617968404140617199
:1019A000A079E179484000F03FFFA17968404140CB
:1019B000A171E27900994A40104600F035FFE179C3
:1019C00068404140E171207A627AA37AE57A424028
:1019D0006B40154600905D40104600F025FF217ACF
:1019E000684041402172607AA17A484000F01CFFB3
:1019F000617A684041406172A07AE17A484000F023
:101A000013FFA17A68404140A172E27A00994A40EE
:101A1000104600F009FFE17A68404140E172207B06
:101A2000627B0146A37BE57B504002466B405840F9
:101A300005461046009100F0F7FE0146207B694004
:101A400048402073607BA17B484000F0EDFE0146DA
:101A5000607B694048406073A07BE17B484000F0B8
:101A6000E3FE0146A07B69404840A073E27B0099F9
:101A70004A40104600F0D8FE0146E07B69404840ED
:101A8000761CF6B2E073092E00D2EAE63201207825
:101A9000B95C48404E49085C20700A90D0192379FF
:101AA00002795340CE5C26710996227A037A5A4015
:101AB0008E5C26720896227B037B5A408A5C2273D6
:101AC00007926278437845795A4063796B40CE5CDF
:101AD0006670637A457AB4466B40CE5C6671069652
:101AE000637B457B6B40CE5C667205968A5C627355
:101AF0009646A378827853400093A2798379857AB9
:101B00005A40A37A6B40CE5CA6700496A37B857B7B
:101B10006B40CE5CA671009B0396CD5CA5728A5C7F
:101B2000A2730292E67BC27BA03756400096E27A0F
:101B3000C37A5A408B5CE373E279C67972408A5C5F
:101B4000E272E678C0784640885DE071009E0190C0
:101B5000895DE1703E780A9870402070787866461A
:101B600046406670B878049E4640A670F8784140BA
:101B7000E1703879099E464026717879069E464084
:101B80006671B879039E4640A671F979019848407C
:101B9000E071387A089E46402672787A059E464063
:101BA0006672B87A4540A572F87A4240E272387B94
:101BB000079A424022737246787B42406273B87B38
:101BC000029A4240A273F87B4340E3730BB0F0BD2E
:101BD000CC47000870B50C460546FFF762FA0028AE
:101BE00007D12146034800F0BFFD02492846FFF710
:101BF00033FE70BD9504002070B50E4C0546206A7A
:101C0000017861724088E08150214843FFF7DEFB94
:101C1000401901F0B2F9206A81882182C18861826D
:101C20000089A082607A04494843401801F07CF999
:101C300070BD0000A4010020E204000070B504465D
:101C4000801CFFF75BFC2078C1094006C00F02F042
:101C50000DFA20781C4D4006C00F687128460622F8
:101C6000A11C3530FFF7E0FA0E3428460422214645
:101C70002C30FFF7D9FA28460322211D1630FFF732
:101C8000D3FAE0796872617A207A09024018E88113
:101C9000E17AA07A090240182882617B207B090240
:101CA00040186882E17BA07B09024018A882214687
:101CB0002846052210313030FFF7B6FA607DC006A5
:101CC000C00EA87270BD0000A40100207FB50AA458
:101CD00070CC80070194800F039602956C462070AB
:101CE000092060706172A272100AE072237301A968
:101CF000009800F020F87FBD0500040001000000FE
:101D0000000000000EB507A106C980070091800FF2
:101D100001926946087207204872029800F00BF899
:101D20000EBD0000030004000317000010B50A23D5
:101D3000FFF7CCFF10BD10B5FFF75EFB10BDFFB580
:101D400087B01E466F46109B119A054638710920D0
:101D5000787105200C463872002179720420B8721F
:101D6000F972601C387301207873B973F873052019
:101D7000C0023974834213D105A8009006AB3146E6
:101D80000998FFF727F900280AD06946088B48739D
:101D9000888AC87302A90198FFF7CDFF0BB0F0BD88
:101DA00021462846099AFFF7C1FFF7E7FFB587B03C
:101DB000079817468007800F6A4610700A205070F7
:101DC0000020507106211171D071042191710521FB
:101DD0001172012151721E46D0720446134D1AE051
:101DE00020460A21484341194988B94211D3B142DA
:101DF0000FD80A214C43611989786A469172285A92
:101E00001073000A507301A90098FFF794FF0BB0FC
:101E1000F0BD641CE4B2FEF7FBFFA042E0D83A46F6
:101E200008990798FFF782FFF1E7000028460008AD
:101E3000F0B589B00E4607461D461C2101A80E9C30
:101E4000FFF70BFAB807800F69460870601D4870ED
:101E5000601C0871000A4871042088710020C87154
:101E6000761C0E7201A904E02A5C0B18401C5A7102
:101E7000C0B2A042F8D30098FFF75DFF09B0F0BDF3
:101E8000F0B589B08446002468460E9D0471447103
:101E900004268671C471112606722E1D4672817247
:101EA000C472027344730A2001AF002105E05A5C3A
:101EB0003A54401C491CC0B2C9B2A942F7D3011F11
:101EC0006A46117161468907890F11705070394651
:101ED0000098FFF730FF09B0F0BD0000FFB589B0F2
:101EE000099815218507129E4902AD0F1F468E42A3
:101EF00021D16846FEF788FF014668460571002338
:101F000043710078801CC2B2122A00D91222941C9C
:101F10006D462C72200A68720426AE72EB7209209C
:101F200028736A73AE73EB7304A8921EFFF77CF9F3
:101F3000241D6C713FE0614886423ED10B98072812
:101F40003BD15F480078002837D06B461D711721C0
:101F5000197200215972042199720021D972092144
:101F6000072019735873082098730020D873022033
:101F700018745974002199742921D9742A2119756A
:101F80000A225A7500249C75D8750B251D760025EC
:101F90005D7626259D760E22D9761A7700225A770D
:101FA00098770F24DC7708AB1A7028205870997046
:101FB0001B206B46587102A96FE0FF2F00D9FF2745
:101FC000002471E020460A2148433E490A5AB242A1
:101FD00068D1411848880B9A904263D3B84261D8BF
:101FE000364A521E964223D10A226E46327200238E
:101FF00073720422B272F37209223273082272736E
:102000000A2254432F4AA2189278B273000AF0733E
:10201000002002AA0B181418401C1B79C0B22372AE
:102020000528F7D3487A707535710E20707133E04A
:1020300009266F463E7200237B720422BA72FB723D
:102040003E7307227A730A2254431E4AA2189278DA
:10205000BA73000AF873184602AA0B181418401C29
:102060001B79C0B223720528F7D33D710D2078711A
:10207000497AFF2910D0144B00200901C9180B5CC4
:102080001418401CC0B2E3721028F8D31B207871DA
:10209000172038721520787311460198FFF74BFE10
:1020A0000DB0F0BD641CE4B2FEF7B2FEA04289D8C8
:1020B00009AB07CBFFF73AFEF2E700000328000068
:1020C0003800002028460008044700084B22D200B0
:1020D000084B821A9A420CD27D22D200064B8A1AF1
:1020E0009A4206D2FA224243531A044A9362116377
:1020F000D0627047A81D0000196618004C0100202E
:1021000010B5FEF703F900F047FF10BD7FB5282199
:10211000484307490A9D099C6E460861B08888813A
:102120004A630B700846328CC2818C634D707FBD50
:102130004C01002003490248086040680047000045
:10214000F84800088801002006490878002806D0D1
:10215000022804D001D9401E0870012070470020D9
:1021600070470000940100201FB509490A9C099B93
:10217000087008484243CA806A4690890881084628
:10218000128C42810B614C710020C8701FBD000091
:10219000E001002071020000034902480860406825
:1021A00000470000304900088801002070B508464B
:1021B0001B4B1A4919601146FFF740FD194C1A498B
:1021C000208A801F884208D2A08A091F0A388842C4
:1021D00003D2A07A401F0C2802D300F0DDFE70BDB0
:1021E000012000F023F80F4901220831087810433C
:1021F000F12210400870208A4100A08A814200D25A
:1022000088B20A214843FFF7AFF90025A57000F016
:102210002BFF00F0C1FE657070BD0000144900087E
:1022200088010020A40100207B0C000001490870F7
:10223000704700009401002001488078704700003A
:10224000E001002010B50948007900280CD00848AA
:1022500000680078002807D1FFF764F8002801D053
:10226000FFF74EFF00F010FC10BD00004C000020F6
:1022700088010020FEB5F64EF64F3179F64DF74C49
:10228000032904D0012975D0022904D005E0B079D2
:10229000012816D0DBE003213171B081B07901282B
:1022A00002D0002805D006E0F18A002002F044F9AF
:1022B00001E002F037F9B17930790143EAD0002822
:1022C00058D10020F070FEF756F900287ED0E04883
:1022D000401D00F075FD707900F061FB7079C10759
:1022E0000BD0694601A800F019FCDD480099016097
:1022F000019838602A68926877E0810719D56946A5
:1023000001A800F00BFC28680099826901989047A9
:10231000CF482030FFF7FCF8B070FFF7B7F8B2787D
:10232000316A252803D00020FEF7D8FE80E0012086
:10233000FAE7C10603D528684069804778E00106BE
:102340002CD52868C5490078002814D0012000F059
:1023500001FC617820780902401881B22868C268BF
:10236000012090477079410611D5694601A800F017
:10237000D5FB30E082E0002000F0ECFB61782078B3
:102380000902401881B22868C26801202DE0800649
:102390004ED5694601A800F0C1FB3CE041061ED5C0
:1023A000694601A800F0BAFB28680078002812D11D
:1023B000A74AAA49083200F0E1FBFFF73DFF0028D9
:1023C00009D0307AA549801FC2B200E05AE0083136
:1023D000612000F05CFA28686278036924E0410714
:1023E00005D528680021C2680846904720E001070B
:1023F00003D50020FFF71AFF18E0800616D56946BE
:1024000001A800F08BFB2868017800290AD09349C5
:10241000012000F09FFB2868627803690021009882
:10242000984705E0036900228C49F8E700F0B4FD05
:102430002868007800281AD17079800717D5B079FC
:10244000002807D102F06EF83079032802D000206E
:1024500070712AE0FFF720F8002803D0B079012836
:102460000DD004E0F078002801D100F0D5FD3079DE
:10247000002800D127E770798028FBD0FEBD00201E
:10248000F070F2E730790028F4D070790028F1D1AB
:10249000FEBD7079022808D1FEF72EFF002804D077
:1024A0003079002801D1FDF712FF28680078002854
:1024B0000ED13079002805D1FEF734FF002801D075
:1024C000FFF71EFEFEF7C8FF002801D1FEF7F1FD61
:1024D000FEF751F800287DD05D48401D00F070FCEB
:1024E000707900F05CFA7079C1070FD0694601A8D5
:1024F00000F014FB5A4800990160019838602A687E
:1025000092689047FDF730FFB06191E0810715D5E3
:10251000694601A800F002FB00F03EFD2868009922
:10252000826901989047FEF791FF252803D028681B
:10253000007801287CD1FEF7BCFD79E0C10603D507
:1025400028684069804773E001062BD52868434915
:102550000078002813D0012000F0FCFA6178207880
:102560000902401881B22868C2680120904770793A
:10257000410610D5694601A800F0D0FA27E00020F6
:1025800000F0E8FA617820780902401881B22868E2
:10259000C268012027E080064AD5694601A800F0FC
:1025A000BDFA36E0410618D5694601A800F0B6FA32
:1025B0002868007800280AD120780007000F052835
:1025C00005D1234A25490832002000F0D7FA627865
:1025D000286800E04FE0036924E0410705D528683A
:1025E0000021C2680846904722E0010703D5002079
:1025F000FFF71CFE1AE0810616D5694601A800F017
:102600008DFA2868017800290AD01449012000F0C9
:10261000A1FA28686278036900210098984707E0CA
:10262000036900220D49F8E7002807D000F0B4FC48
:102630007079800702D5B079012813D0307900284D
:1026400000D126E77079802800D021E721E700003B
:102650004C00002090010020880100203E02002054
:102660008C010020F18A002001F066FF30790328F8
:1026700000D026E6E6E730790028E2D0707900281D
:10268000DFD1FEBD10B5074C6079022806D1FEF7F8
:1026900033FE002802D02079032801D0002010BD8D
:1026A000012010BD4C00002070B50546FDF75CFE12
:1026B00004460A34FDF758FEA042FBD3034902202A
:1026C00008712846FFF7D6FD70BD00004C000020C1
:1026D00010B50C461F2900D91F2401462246054883
:1026E000FEF7A2FD044804700930A41D447001F0F7
:1026F0004FFF10BD000200204C00002070B50D46B9
:10270000124A01461078002809D0401E1070002699
:1027100056705068092806D0401C506005E0012022
:102720005070002070BD304656600C22084B42436A
:10273000D41842018018074A80182A462060FEF704
:1027400073FD25712046A66070BD0000F0000020DA
:1027500000040020B402002010B500F000FC0020AE
:10276000FEF71CFF10BD0000FFB500228B5C8354F8
:10277000521CD2B2102AF9D301231D012A18114686
:1027800020390E7F274CB6464E7F0F7CA65D7E40DB
:10279000E71DF937FF5C7E4046558E7F0396A75DA7
:1027A0004E7C77405770CE7FBC460296A75D8E7CEC
:1027B0007740977076460197A65DCC7C6746664069
:1027C000D6700C7D455D6C40147100944D7D7D404C
:1027D00055718C7D019F7C409471CF7DA6467740DA
:1027E000D7710E7E009C664016724C7E6C4054720F
:1027F000A4468D7E744665409572CC7E7C40D47232
:102800000F7F77401773497F664671405173039E6F
:102810005B1C6E409673029EDBB26640D6730B2B38
:10282000ABD3FFBDCC470008C1094000002903D04D
:10283000C0B21B2148407047C0B2704700A070472B
:102840004D475F424C455F4C49425F504149525FA2
:1028500056332E30000000000148C0797047000058
:10286000A40100200148007870470000F00000201B
:1028700010B50446FDF771FE01215020FDF762FE00
:1028800001212046FDF75EFEFDF76EFE10BDF8B596
:1028900015460E460446FDF760FE01212046FDF771
:1028A00051FE0746002406E00021FF20FDF74AFE06
:1028B0003055641CE4B2AC42F6D3FDF755FE384601
:1028C000F8BD70B50C460546FDF747FE01212846C8
:1028D000FDF738FE0021FF20FDF734FE2070FDF7E4
:1028E00043FE70BDF8B516460D460446FDF735FEAD
:1028F000202020430121FDF725FE002407E0287851
:1029000001216D1CFDF71EFE641C0746E4B2B442B3
:10291000F5D3FDF729FE3846F8BD70B50D460446DF
:10292000FDF71BFE202020430121FDF70BFE0121B6
:102930002846FDF707FEFDF717FE70BD0168002968
:1029400002D14068002801D0002070470120704764
:1029500000210160416002490A20087070470000B0
:10296000F00000200268136812790A700168896813
:102970000160002900D141601846704710B50B4630
:10298000044611461846FFF7B9FE002806D06168D4
:10299000002901D0886000E02060606010BD10B5A3
:1029A00001460E20FFF7B9FF10BD1CB55320FFF7FD
:1029B0005FFF03211F20FFF7B0FF01A91F20FFF7D2
:1029C00080FF684600790028F7D103211F20FFF718
:1029D000A4FF01A91F20FFF774FF684600790028B3
:1029E000F7D101211520FFF798FFA0211220FFF752
:1029F00094FF04210A20FFF790FF00210A20FFF72F
:102A00008CFF88211220FFF788FF012469460C7093
:102A10002120487002221320FFF764FF69460C70E2
:102A20002020487002221320FFF75CFF00211520B0
:102A3000FFF773FF5620FFF71BFF1CBD08B50020F2
:102A4000694608705120FFF713FF5320FFF710FF6E
:102A500069461F20FFF735FF6946087808BD00006A
:102A600010B55120FFF704FF5320FFF701FF0321AA
:102A70001F20FFF752FF5620FFF7FAFE0149012001
:102A8000487010BDEC00002038B5234CA078012818
:102A900037D16078002834D0012833D0022830D1D3
:102AA000FFF7CCFF00282CD1607001211520FFF723
:102AB00034FFA0211220FFF730FF04210A20FFF786
:102AC0002CFF00210A20FFF728FF88211220FFF7A2
:102AD00024FF012469460C70212048700222132033
:102AE000FFF700FF69460C70202048700222132077
:102AF000FFF7F8FE00211520FFF70FFF5620FFF724
:102B0000B7FE38BDFFF79AFF0028FAD102206070A7
:102B100003211F20F0E70000EC0000207CB50D46EB
:102B20000446062269461020FFF7B1FE694648793F
:102B30000B7902041802C978101840186946206001
:102B400088784978000409024018694609784018D5
:102B500028607CBD1CB50C4600280BD002226946BB
:102B60000620FFF794FE684600782070684640789B
:102B700060701CBD022269460420F2E77CB5154650
:102B80000C46002809D06278901C2870002A03D0D7
:102B9000A11C6120FFF77BFE7CBD02226946042058
:102BA000FFF775FE68464078801C287068460078FC
:102BB00020706846407860706846007825460107B6
:102BC000090F6846407808350B00FEF7F1FC070650
:102BD000090614051A060500DEE70622A11C08E016
:102BE0000C28D9D10622A11C0A20FFF750FE06228C
:102BF00029460B20CEE70C28CED1062229460A20F2
:102C0000C8E72228C8D10622A11C0B20FFF73FFEEF
:102C1000062229460A20FFF73AFE162221460E31E7
:102C2000B7E70000FEB50546002668460671624C0F
:102C300051200C60FFF71CFE01A91F20FFF741FE89
:102C4000684601798029F7D15C491E20FFF739FEDB
:102C500078210020FFF761FE06210846FFF75DFEA0
:102C60007A210020FFF759FE5320FFF701FE88214B
:102C70001720FFF752FE88211820FFF74EFE88210B
:102C80001920FFF74AFE00211520FFF746FE02211A
:102C90000120FFF742FE1E211D20FFF73EFE2846C1
:102CA00000F02AF900A908200131FFF70AFE684662
:102CB0004078424F002807D1122069464870387882
:102CC0001B2801D215204870C021684601702D21B3
:102CD0008170032269460420FFF704FE80256846C0
:102CE00005704670022269460C20FFF7FBFD1C218F
:102CF0006846017045703878192802D1CC206946A1
:102D00000870022269461420FFF7ECFD1020694686
:102D1000087002274F703A460A20FFF7E3FD694624
:102D20000F701220487002220D20FFF7DBFD0120FA
:102D3000694608700720487002220E20FFF7D2FD76
:102D40003820694608700F2048708E7003220220D8
:102D5000FFF7C8FD71210920FFF7DFFD69460D70FF
:102D60007020487002220B20FFF7BCFD0322694649
:102D70000B20FFF78CFD40206946C87004220B2011
:102D8000FFF7B0FD5620FFF773FDFF210E20FFF780
:102D9000C4FD062208490820FFF779FD60796D28F7
:102DA00006D1ED206071062203490820FFF79AFD45
:102DB00000F0F2F8FEBD0000B4000020EC0000209E
:102DC00038B5044669460E20FFF77BFD684601785A
:102DD000217038BD08B517A0006800905120FFF79A
:102DE00047FD7A210020FFF798FD5320FFF740FDB3
:102DF00000211520FFF791FD1E211D20FFF78DFDFD
:102E0000022269461320FFF76DFD20211E20FFF7E7
:102E100084FD88211720FFF780FD88211820FFF707
:102E20007CFD88211920FFF778FD5620FFF720FD53
:102E300008BD0000012000001CB501786A46117031
:102E40004178517081789170C078D07004226946C1
:102E50000C20FFF747FD1CBD01B582B06946087A1A
:102E60000870487A487002220320FFF73BFD0EBD30
:102E70000A4610B50146A020FFF734FD10BD10B57D
:102E8000282803D201460120FFF747FD10BD1CB5DD
:102E900001786A46117041785170807890700322F1
:102EA00069460D20FFF71EFD1CBD1CB5FF216A46BB
:102EB00011705070022269460E20FFF713FD1CBDF1
:102EC00010B504280BD001280BD002280ED00328FF
:102ED0000ED005280ED0062807D1042102E00221D9
:102EE00000E009210220FFF718FD10BD0C21F9E7D1
:102EF0000121F7E70321F5E708B502216A461170C1
:102F000050700A4669460F20FFF7ECFC08BD1CB55F
:102F10006A461070010A5170000C907003226946D5
:102F20000720FFF7DFFC1CBD1CB56A461070010AC4
:102F30005170002191700549884201D9012090709B
:102F4000032269461120FFF7CDFC1CBDFFFF0000E6
:102F50000A4610B50146A020FFF7C4FC10BD01B51C
:102F600082B06946087A0222C006C00E0870487A0C
:102F700048700520FFF7B6FC0EBD1CB500216A465F
:102F800011705070010A9170000CD07004226946D3
:102F90000F20FFF7A7FC1CBD1CB502206946087076
:102FA000FF2048708870C87004220F20FFF79AFC39
:102FB0001CBD000008B517A0006800905120FFF765
:102FC00057FC78210020FFF7A8FC5320FFF750FCA6
:102FD00018211D20FFF7A1FC8E211720FFF79DFC73
:102FE0008C211820FFF799FC8C211920FFF795FC04
:102FF00001211520FFF791FC022269461320FFF7FB
:1030000071FCA0211E20FFF788FC5620FFF730FC42
:1030100008BD00008102000010B501210F20FFF75C
:103020007CFC10BD38B5054600230C4610460093C5
:10303000FFF784FC002802D02B70237038BD69464E
:103040001046FFF78FFC0146684602782846FEF7D7
:10305000EBF868460078207002480178491C01703E
:1030600038BD0000F00000200248002101704170CE
:1030700070470000C400002010B505480349816076
:10308000002141701430FFF763FC10BDC8470008F1
:10309000F80000207047000000B587B0182208A192
:1030A0006846FEF7C1F80C480321017018214170F1
:1030B000001F40686946FEF79FF907B000BD000099
:1030C000101000280001002C011820000300FFFF51
:1030D000FFFFFFFFFFFFFFFFC8000020F0B58BB030
:1030E000044600208D070090019002902E4E039020
:1030F000AD0F35700D20707004206946087000A86F
:1031000008222A490130FEF78FF8284902A8042234
:10311000091F0130FEF788F8371F69467868FEF707
:103120006BF9224B002021184A7B04A90A541A5C2F
:103130000918401C0A720828F5DB04A8FEF730F9CC
:10314000E07A002802D1207B00280DD02146184AC1
:103150000B31E01C01F080F913480021801C017044
:10316000E17A4170217B8170114904A8FEF732FD9C
:10317000002008A92218527D0A540C4A0B18121F6D
:10318000125C401C1A710428F4DB04A800F074FFE0
:103190003570012474700520694608707868FEF760
:1031A0002BF93C700BB0F0BDC8000020C0470008F0
:1031B000720200200EB507A007C86B4607C3084877
:1031C0000321017009214170001F40686946FEF724
:1031D00013F90EBD0901000000000000000000000E
:1031E000C80000200020044A0146535C491C1843D3
:1031F000C9B21029F9D3704745050020FEB5002556
:103200008A07254900950195920F02950A700B22B5
:1032100004464A700720694608704D70207988700E
:103220006079C8701C4E022008711D363070FFF79F
:10323000D9FF002801D0002000E003206946487132
:1032400070708D71B5700520C871F0701020087213
:103250003071207B104A4007C00F800048727071A7
:10326000207B121FC007C00F50708872B0711046CB
:10327000A1791A300170E1794170217A8170617A07
:10328000C170A17A0171E17A4171217B8171694636
:103290005068FEF7B1F8FEBDC800002070B58AB0D6
:1032A0000E460446182103A8FDF7D7FF112510226A
:1032B000E11D2248FDF7B8FFB1072148890F0170D1
:1032C0001521417069460D7300224A732079887375
:1032D0006079C8730320194D0874104603AC203D73
:1032E00021184A712A54401C1028F9D3012069463C
:1032F0004874124928702039601DFEF76BFC0020CD
:10330000211849792954401C1028F9D30C490D4A39
:10331000103108460D306E4607C60546213DC31FD5
:10332000EA78A978601D00F0CBFF601DFEF738F841
:1033300003A96868FEF760F80AB070BDA202002019
:10334000C8000020B40000207CB500238D070C4984
:103350000093AD0F01930D7006254D7002246D464C
:103360002C706B700179A9704079E8700520287184
:1033700003486A71001F40686946FEF73DF87CBD4E
:10338000C800002070B58AB00E460446182103A874
:10339000FDF763FFB2072B49920F0A7015224A709E
:1033A000112069460873002048732079887360797A
:1033B000C87304200874E01DFDF7F2FF1022E11D20
:1033C0002148FDF731FF1F49204A103108460D30D2
:1033D00005460090213D02920191C31FEA78A97829
:1033E000E01D00F06DFFE01DFDF7DAFF164800223A
:1033F0001030A118C979835C994206D00422314665
:103400002046FFF7A1FF0AB070BD521C102AF0D36E
:103410000D490D4A0846203A103800F097FF0A4A35
:10342000002103A8103A535C4418491C6371102909
:10343000F9D3401DFDF7B4FF03A96868FDF7DCFF71
:10344000E1E70000C800002092020020B400002044
:10345000F0B58DB00C4618216846FDF7FEFEA007BA
:10346000264C800F20700126667006256846057080
:10347000271F69467868FDF7BFFF787800283BD0A2
:10348000FFF7EAF907AB06AA0BA900F0A3FF022099
:103490002070152060701120694608700020487067
:1034A0008D70C8700D716D46102207A9681DFDF75B
:1034B000BBFE681DFDF774FF69467868FDF79CFF49
:1034C0000F2060700B206946087007200871087E85
:1034D0004871487E887108220BA9E81DFDF7A4FEFB
:1034E00069467868FDF788FFA01C06706946097E6A
:1034F00041706946497E81700DB0F0BDC800002062
:1035000010B589070648890F017000214170001F1E
:103510004068FFF721F90020FEF788FE10BD00008B
:10352000C800002008B508A00068009007480321E3
:10353000017002214170001F40686946FDF75CFF81
:103540000420FEF773FE08BD020A0000C800002038
:1035500008B508A109680091074903220A700222F0
:103560004A70694648700448001F4068FDF744FFF0
:1035700008BD000007000000C80000201CB508A01E
:1035800005C8009089070848890F0192017006213B
:103590004170001F40686946FDF72EFF1CBD00000A
:1035A0000C079C0517200000C8000020FEB5164C33
:1035B00001A92246083A2046FFF734FD6846007903
:1035C00001262546002804D12E7068700220694625
:1035D000087121780C4F132001401C3F7878042398
:1035E000C24352081A4040071143C00FC0000143B4
:1035F0006A46117060785070A11C009800F0B8FF06
:103600002E7000207870FEBD14010020FEB50C461F
:10361000002102911D2C00D91D2401462246AF48ED
:10362000FDF702FEAE4FAD4D3C7028783C46860754
:10363000A070B60F284600F03BFF012E14D0032ED9
:1036400018D0022E0FD16A7929791202A879891827
:10365000062957D0042970D0052904D1132802D097
:103660000020FDF72BFFFEBD38780228FBD3FDF7C5
:1036700005FDFEBDAE783300FDF79AFF120B0F1E5D
:10368000233A3A280A2D3A0A3A320A3A370A0A3ACB
:10369000EFE7E81C00F0C8F9FEBDA1788F48FFF7FE
:1036A000F9FC697A287A090240186946088102A95A
:1036B000E81C00F0EBF9FEBDA1788848FFF720FF79
:1036C000FEBDA1788548FFF709FDFEBDA1788348BE
:1036D000FFF7BEFEFEBDA1788048FFF76BFDFEBD83
:1036E000A1787E48FFF74AFFFEBDFFF7D5FCFEBD7F
:1036F0003046FFF72DFF7B4800780028F7D0152EC5
:1037000008D8FEBD012808D003280BD004280ED00D
:103710000528F6D1FFF706FFFEBDA1786F48FFF739
:103720006DFDFEBDA1786D48FFF7B8FDFEBDA17827
:103730006A48FFF727FEFEBDFFE769490C311028F4
:1037400078D00ADC821E1300FDF732FF0B1E152411
:10375000153915581590159A1500604B093318281E
:1037600067D004DC12287DD0162804D197E01E28EB
:10377000E1D0522876D04106DDD40623002201464E
:10378000A078FEF7A3FAD6E701460022A078FEF75C
:10379000B9FAD0E72B7AEA791B02D21892B20A80E2
:1037A0006B7AAD7A2D025B199BB24B809A4201D99C
:1037B0000123E4E70146A078FEF7F8FABBE72B7A8D
:1037C000EA791B02D21892B20A80AE7A6B7A36027C
:1037D0009B199BB24B809A42EAD82E7BE97A36023B
:1037E00089196E7BAD7B89B22D027519ADB200913E
:1037F00001950146A078FEF7A2FA9CE72B7AEA79B8
:103800001B02D21892B20A80AE7A6B7A36029B19EA
:103810009BB24B80EE7A2D7B2D027519ADB28D8057
:103820009A42C5D801460095A078FEF757FB82E77B
:1038300000E03DE02B7AEA791B02D21892B20A80AE
:10384000AE7A6B7A36029B199BB24B80EE7A2D7B57
:103850002D027519ADB28D809A42A9D80146009506
:10386000A07800E028E0FDF7D5FA64E72A7AE97944
:103870001202891889B2A180A278FDF731FB5AE7BC
:103880002A7AE9791202891889B2A180AB7A6A7A18
:103890001B02D21893B2A278FDF7ABFB4BE7297A53
:1038A000E87909024018A0800C4800F040FB42E78C
:1038B0000A4800F0FFFA3EE7E978AA780902C91E33
:1038C0005118EA792D7AC9B22D02521992B2A2800A
:1038D00000910146A078FDF7EFFA2CE7780400206C
:1038E000F8000020C4000020090710B5090F0E4A97
:1038F000C0070ED00B00FDF75BFE070808050B0B99
:103900000B050B001078012802D10220FFF7D8FA2E
:1039100010BDD078401CC0B2D070142801D1002056
:10392000D070FFF739FB10BDE001002010B50C4648
:103930001449002A48610DD0002C0BD02078921C2D
:103940000007000F0300FDF733FE0708080B0F0FF9
:103950000F0B0F00FFF720FB10BD8878002805D063
:10396000D1B22046FDF7E2FDFFF716FB5320FEF72C
:103970007FFF05490420FEF7A4FF5620FEF778FFDD
:1039800010BD0000E0010020A701002070B5114C1F
:10399000064660780D46401CC2B26270282A01D1EA
:1039A000252060706078FFF76AFAE07813280DD15F
:1039B00009480068291A09480068301AFEF786FB92
:1039C00007480078002802D0FFF74AF870BDFEF7DC
:1039D000ECFF70BDE00100208C0100209001002070
:1039E000EE00002010B5054C25206070FFF747FA67
:1039F000E088FFF799FAFFF70FFB10BDE001002008
:103A000010B5FFF7C9FA10BD10B50C460120FFF73D
:103A100057FA1B20C00103492018C860FFF777FA46
:103A200010BD0000E001002030B5164B0122196ADC
:103A30004A7002780A7084784278240212194A8007
:103A40000479C2782402121992B28A808579447965
:103A50002D026419CC80057AC4792D0264190C8179
:103A6000447A807A0002201880B200244881062A15
:103A700000D24C709A89801A034A904200DB4C7045
:103A800030BD0000A4010020FF7F000010B50A4CEB
:103A90000346E0690988C18005221946FDF7C4FB89
:103AA000E06901214171C188A289891A034A9142C2
:103AB00001DB0021417110BDA4010020FF7F000047
:103AC00010B5FDF751FD10BDF8B50C4607460026B0
:103AD00014E0142C01D9142500E02546FEF7C2FE9F
:103AE00003280FD3084800950288BB191B21022028
:103AF00000F0F1F97019C6B2601BC4B2002C01D0FD
:103B0000002FE6D13046F8BD24000020F0B50C4B64
:103B100000201C46D87130340A4AD8720125C108E9
:103B20004607615C760F2F46B740394203D0D97AF9
:103B30005054491CD972401CC0B22528EFD3F0BDA7
:103B4000A40100200206002010B5C00706D10448D9
:103B5000FD22017811400170FFF71EFA10BD000030
:103B6000AC010020F8B5344F06460C46B88A0A214D
:103B700015464843FDF7F8FC39460831087802221B
:103B80001043F32210400870FCF7C2FB002C03D056
:103B90006078002819D01EE041204001052130182E
:103BA000C9014018B862FFF7B2F91B2D00D91B25D7
:103BB000E8010521301A0902401A78621E480821DE
:103BC000083002780A43027032E01B4804220830B1
:103BD000017811430170812000013018B862FFF7AD
:103BE00096F9E8010121301A8902401A786220789A
:103BF000FDF77EFC22780821B8780A40824217D16E
:103C000001223A704840B8700C480068006880474C
:103C1000FCF784FB002078705320FEF729FE06494C
:103C20000420C91CFEF74DFE5620FEF721FEF8BD0C
:103C3000FCF774FBF8BD0000A40100200001002087
:103C4000F8B50C460646FEF77FFA00282BD0794FD0
:103C5000794D3878C1072CD0E88950214843283065
:103C6000FDF7B4FB8019FFF788F9FFF74FFFE8690C
:103C700000244471286A4470AC8128462C701630A8
:103C8000FFF705F928462C30FFF7D6F8FFF7F4F9CF
:103C9000EC71687A694948434018FFF745F90120FB
:103CA000FDF701FA6EE00020FDF756FC00F03AFC4B
:103CB000F8BD80072BD5686A0121201A0906401833
:103CC0000002000AFDF778FB341A3878400715D552
:103CD000698A002912D0288A414308185021484394
:103CE0007838FDF773FB0419A989688A0918A98136
:103CF000A97A4143E8790818E87106E0288A50213A
:103D000048437838FDF762FB04194D482BE0288AB8
:103D1000082801D2012129714A490C6869780B29C8
:103D200004D250225043C900401A04E050225043AC
:103D30004900401A1430FDF749FB0419288A2D2840
:103D400001D941480FE0082806D2404948430321E1
:103D5000FDF754FA3E4905E0384948430321FDF791
:103D60004DFA36494018FFF7DFF80A36B44200D260
:103D700034462046FFF701F9A889401CA881204657
:103D8000FDF7E8FA5120FEF773FD78210020FEF7D9
:103D9000C4FD7A210020FEF7C0FD5620FEF768FD25
:103DA000E879A97A4018C0B22521FDF727FA214BFE
:103DB000E971CA0828339A5C4B0708465B0F01215A
:103DC00099400A4204D1E97AFDF718FA2148405C8B
:103DD000A871C0B2FFF753F82878002812D01D4907
:103DE00001202531FEF7B6FE1A496A462531012029
:103DF000FEF7C4FE6846017816482530FFF706FC3A
:103E0000002028703878C10704D04008400038707E
:103E100000200BE02879002805D00020FDF79CFB4E
:103E200000202871F8BD288A81080818FDF794FB46
:103E3000F8BD0000AC010020A4010020E204000055
:103E4000A60E000090010020204E0000C4090000D2
:103E5000710200000206002010B506480078000735
:103E600004D500210846FFF76FFE10BDFFF794F858
:103E700010BD0000AC01002070B50D46FDF70CFB35
:103E8000002803D10A4C60781E2805D90020FEF7CF
:103E9000CDF9FFF781F870BD0420FFF711F8C320BA
:103EA00040012818FFF733F86078401C607070BD3F
:103EB000A401002008B502216A4611700521517045
:103EC0000121817019218171811C0098FDF733FF58
:103ED000FDF705F808BDFFB58BB0149C1D461746CD
:103EE000E61C242101A8FDF7B8F90B98132108401E
:103EF00069460870E01D48700E71300A4871042050
:103F000088710020C8710C9808724F72380A887244
:103F1000002001A904E02A5C0B18401CDA71C0B231
:103F2000A042F8D30098FDF706FF0FB0F0BDF8B53A
:103F30000446827AC178007AE57900020543A078C8
:103F400009020843401F87B2667A10020643022026
:103F500069460870607848701720A071A11C00980D
:103F6000FDF7E9FE214633463A460B312846FCF779
:103F7000B5FFF8BD0EB507A106C980070091800FF7
:103F8000019269460872052048720298FDF7D3FE37
:103F90000EBD00000100040013000000F0B585B064
:103FA000140005465CD06A461170080A5070080C6F
:103FB0009070080ED070802010712A4A0020694647
:103FC000135C0E18401C73710828F9DB2649002089
:103FD0000F4610370E4620366A46125C33185A7068
:103FE0003B185A700B18401C5A700D28F4DB012244
:103FF00032703A700A700020B073B8738873C87357
:10400000FA7302201849F07350391748FDF7E2FDA2
:104010001549503908466030FDF7DCFD102C05D9F4
:104020001149503908467030FDF7D4FD2146102C57
:1040300000D91021002004E02A5C3B5C5A402A543D
:10404000401C8842F8DB102C0AD90020103C05E007
:1040500029180A7C335C5A400A74401CA042F7DBE2
:1040600005B0F0BD44010020C5050020014A907054
:10407000D1707047C400002070B50C4B0C4C00226E
:10408000002805D0855C9D5485182D7A9E183572C0
:10409000002901D08D5CA554521C082AF0DB04488D
:1040A00000210C384160816070BD00007505002062
:1040B00044010020F0B585B01D000C4606467DD0B9
:1040C00069460A70100A4870100C8870100EC8708B
:1040D0000020794F08716B46395C1A18401C5171E9
:1040E0000828F9DB754B00201A461032734F6946D9
:1040F000503F095C3F187970171879701F18797054
:104100006E4F103F3F18401C79700D28EEDB6B4856
:10411000492150380170694A002181731032C573FA
:104120000120664B107017461870203F387091734D
:104130009973B973F973D8730220D0730020403B90
:10414000403A103F195411543954401C1028F9DBDF
:104150005A480121403841700A9981702946102D32
:1041600000D91021002004E0544A335C303A135443
:10417000401C8842F8DB284610380490102D08D9DE
:104180000146002003E03218127C3A54401C884259
:10419000F9DB4A49603908461030FDF71BFD002065
:1041A000464B403B1A46103A195C125C5140195478
:1041B000401C1028F4DB1946203900E079E018464D
:1041C000FDF708FD00203D4B303B1A46103A195CC4
:1041D000125C51401954401C1028F4DB1946303948
:1041E0001846FDF7F7FC102D09D83448303801780F
:1041F0002170417861708178A170C07816E02F49F4
:10420000002030393A5C0B5C5A403A54401C10286C
:10421000F8DB2A49603908464030FDF7DBFC387886
:10422000207078786070B878A070F8782349E070D2
:10423000603908465030FDF7CDFC20491F486039F1
:10424000FDF7C8FC102D05D91C49603908467030AF
:10425000FDF7C0FC194821781038027851402170D0
:104260006178427851406170A17882785140A170A4
:10427000E178C0784140E1702946102D00D9102125
:1042800000200E4B04E0325C1C5C62403254401C47
:104290008842F8DB102D0CD9084B00201033049A0B
:1042A00005E031180C7C1D5C6C400C74401C904285
:1042B000F7DB05B0F0BD000044010020D50500206B
:1042C000F8B50446204D069E089829706A700021B2
:1042D000775C6A1857725F5C491C97700729F7DB97
:1042E0000021194E0A4610367254491C1029FBDB76
:1042F0000021425C7254079A7318525C491C9A71EF
:104300000629F6DB1048FDF74BF80F481030FDF793
:1043100047F80020215C2A5C51402154401C1028A1
:10432000F8DB094920461039FDF754FC0020215CD8
:10433000325C51402154401C1028F8DB02492046D1
:104340001039FDF747FCF8BD5505002070B5002376
:10435000C418247AD454CC18D518247A5B1C2C7237
:10436000082BF5DB02491046FDF734FC70BD000058
:104370004505002070B505460C460020014619543D
:10438000401CC0B20D28FAD35A7320789873607815
:10439000D87329461846FDF71DFC70BDF0B50D46D3
:1043A00085B0144600210A466B465A546E5C5F186D
:1043B000491CC9B23E720829F7D301461846FDF7D9
:1043C00009FC6846807B20706846C07B607005B041
:1043D000F0BD0000FFB50D4689B006461BA1086878
:1043E0001446089004AB002208A91948FFF7C2FF41
:1043F0003046184E6F463178785404A93846FDF798
:10440000E9FB0020395C2954401CC0B20828F9D3CC
:104410002246294604A8FFF7C1FF69462078497A59
:1044200000224840207069466078897A4840607070
:10443000074802A9103801310C9BFFF79BFF307829
:10444000401C0007000F30700DB0F0BD00030000ED
:10445000E74800083801002070B50C4686B00646D3
:1044600011A108681546059001AB002205A90F4867
:10447000FFF780FF6A46314601A8FFF78FFF6946C4
:10448000087821782B46484069460870487861785A
:10449000002248406946487004481038FFF76AFF18
:1044A000012006B070BD000000030000E7480008CE
:1044B00070B504460C480078002814D060780028B5
:1044C00011D02178001F8B07084DC2B29B0FA01C92
:1044D0006968FFF763FD6868401C686060780528BC
:1044E00001D3001F607070BDC4000020380100209F
:1044F000F8B50B780D460446002B0FD0084EA01CD3
:1045000000921918B268FFF7D5FD2878001D2870B1
:104510006078001D6070B068401CB060F8BD00009D
:104520003801002010B500F033F80020FCF7BBFD87
:10453000FDF700FE10BD000000B585B022230B4A38
:1045400004930392463A528A6B461A810023074A23
:104550000093463A019313690A4601214902FDF787
:1045600003FEFDF719FE05B000BD0000920000201B
:1045700073B50D460098FEF7F2FC6846447828466D
:104580002146FEF7E5FC2046FDF708F87CBD00005B
:1045900030B585B003A8FCF737FC6946097B1829BC
:1045A00002D918216A46117369460A7B1C4B511CBB
:1045B0001970002104E0445C5D18491CAC70C9B25C
:1045C0009142F8D3002003E09918521C8870D2B2AF
:1045D000192AF9D3124A0723D21FD11D0C462B3CAE
:1045E00025781B20002D01D00E4A2B466578002D22
:1045F00002D00C4928461F310290094801912B38FE
:10460000C0896D46288006482B38417A2974807A03
:104610006874A0890499FDF779FD05B030BD0000EC
:10462000770000200002002003280300020400009D
:104630002AFF03280800020900292AFF03280A008C
:10464000020B00262AFF03280C00020D00502AFF4F
:1046500003280E00020F00282AFF02281A002B0050
:104660002D000AA003281B00061C004E2AFF032869
:104670001D001A1E004D2AFF02291F000A0000001B
:10468000000008292000020000000000032821008B
:104690000222004B2AFF072923000200000000002D
:1046A000032824001A2500332AFF022926000A00C5
:1046B00000000000032827000228004A2AFF0328E0
:1046C0002900042A004C2AFF03282C00022D000B8D
:1046D0000AFF03282F001230001929FF0229310098
:1046E0000A0000000000032833000434004F2AFFB2
:1046F00003283500103600312AFF022937000A004E
:1047000000000000000000000000000000000000A9
:10471000000000005A0005010906A10185010507F6
:1047200019E029E715002501750195088102950119
:104730007508810395057501050819012905910280
:1047400095017503910395067508150025FF05076A
:10475000190029FF8100C0050C0901A1018502157E
:104760000025017501951E093009B009B109B2098A
:10477000B309B409B509B609B809B909E209E909E3
:10478000EA09950A24020A25020A26020A27020AD1
:1047900021020A2A020A23020A8A010A83010A94D0
:1047A000010A92010A09020A7F020A33020A34024C
:1047B0000A1F028102950175028103C0B1A877101A
:1047C000B1A87710F5D4B310AD350008637C777BC2
:1047D000F26B6FC53001672BFED7AB76CA82C97DFD
:1047E000FA5947F0ADD4A2AF9CA472C0B7FD93268E
:1047F000363FF7CC34A5E5F171D8311504C723C392
:104800001896059A071280E2EB27B27509832C1AD5
:104810001B6E5AA0523BD6B329E32F8453D100ED2F
:1048200020FCB15B6ACBBE394A4C58CFD0EFAAFB13
:10483000434D338545F9027F503C9FA851A3408FDB
:10484000929D38F5BCB6DA2110FFF3D2CD0C13ECF3
:104850005F974417C4A77E3D645D197360814FDC88
:10486000222A908846EEB814DE5E0BDBE0323A0A6C
:104870004906245CC2D3AC629195E479E7C8376DF0
:104880008DD54EA96C56F4EA657AAE08BA78252E15
:104890001CA6B4C6E8DD741F4BBD8B8A703EB5669E
:1048A0004803F60E613557B986C11D9EE1F898118F
:1048B00069D98E949B1E87E9CE5528DF8CA1890D7E
:1048C000BFE6426841992D0FB054BB168D0102041A
:1048D00008102040801B3601020304050607080962
:1048E0000A0B0C0D0E0F0015161718191A1B1C1D9C
:1048F000D2D3D4D5D6D70000000000009D17000801
:1049000001180008E915000819160008C917000861
:10491000AD1600080100000000000000793E00080C
:10492000493B0008653B0008593E0008413C00082F
:1049300000000000E5390008093A0008E9380008DD
:104940002D390008013A00088D3900086C4900082B
:104950000000002000020000BC120008004A00080D
:104960000002002070080000DA15000882025502DB
:104970000406089D01020304010203040607080956
:10498000821E3C0201060319C003030312182564AA
:10499000010179EB465620202E342E302E32EF8046
:1049A0000D00A0008421030C45220400200A1A02F5
:1049B00001060303121800094C4D8BAB6348CDF17F
:1049C000040600280929C800FFFFFFFF1F093666FB
:1049D000020020BA02192002240A023AFF522532AC
:1049E00001021E1033813133580A04426FE809096D
:1049F0001A9C010020F6050020432501021A100030
:04000005080000B53A
:00000001FF
