:020000040800F2
:10000000000B0020C9000008450B0008470B000842
:1000100000000000000000000000000000000000E0
:100020000000000000000000000000004B0B000872
:1000300000000000000000004D0B0008550B0008F8
:10004000F5000008F5000008F5000008F5000008BC
:10005000F5000008670B0008F5000008710B0008A8
:10006000F5000008F5000008F5000008F50000089C
:10007000F5000008F5000008F5000008F50000088C
:10008000F5000008F5000008F5000008F50000087C
:10009000F5000008F5000008F5000008F50000086C
:1000A000F5000008F5000008F50000084B04000802
:1000B000F50000080348854601F098FE0048004717
:1000C000F11B0008000B00200B4880F308880B4848
:1000D0000168090E0A4A914205D10A480A4901609D
:1000E0000A480B4901600B480047FEE7FEE7FEE7C0
:1000F000FEE7FEE7FEE70000000B00200400000022
:100100001F00000018100240010000000000014024
:1001100000000000B500000810B5002819DAA64A52
:1001200003071B0F083B9B089B00D2588307DC0E7C
:10013000FF23A3409A438B071B0E8407E40EA340C2
:100140001A439D4B0407240F083CA408A4001A512D
:1001500018E09A4A03231B02D21883089B00D25846
:100160008307DC0EFF23A3409A438B071B0E8407F3
:10017000E40EA3401A43914B032424021B19840864
:10018000A4001A5110BD00208D49096801221143B5
:100190008B4A116000BF8A49096802221140002978
:1001A000F9D087490968D2049143854A1160114604
:1001B000096804229143824A11605115516011214E
:1001C000804A11607E494968890889007C4A5160EB
:1001D0001146496802221143794A516005E0784985
:1001E00049688905080E8007800F0228F7D17047FB
:1001F000002803D00121744A516102E00121724AB2
:10020000116170471FB5FFF7BEFF704C601E70494B
:10021000884200D90CE0601E6E4948610321081F26
:10022000FFF77AFF00206B4988610720086100BF53
:100230000821694800F061FB01210903684601803B
:10024000022181704821C17069460920C00600F072
:1002500068FD0121684601802821C1706946092096
:10026000C00600F05EFD052208210920C00600F04E
:1002700002FE012168460180022181701021C170B7
:100280006946514800F04DFD0121084601F02EF865
:100290000121080701F038F80C21002001F02AFAAA
:1002A0000120000301900021684601720C21417277
:1002B0000121817201A800F080FC072168460173CA
:1002C000022141730121817303A800F019FE03216B
:1002D0000720FFF721FFE1214902404800F0FCF927
:1002E00002211B20FFF718FF1FBD3D4800780028A2
:1002F00028D03C4800683C490968884222D23B48E3
:1003000000683949096888421CD2354800780128BC
:1003100009D129481C380069FB21084026491C39AD
:10032000086120BF0EE024481C38006904210843FE
:1003300021491C39086130BF214840680221084327
:100340001F494860704710B503F0E2F8002800D15B
:1003500010BD23480078002827D022480068224991
:100360000968884221D2214800681F4909688842EB
:100370001BD21B48007801280BD11D4908700E487C
:100380001C380069FB2108400B491C39086120BF5B
:100390000BE002201649087007481C380069042148
:1003A000084305491C39086130BF00BFD0E77047DA
:1003B00070477047704770471CED00E000E100E0B7
:1003C00000100240002002400004004880BB0000F2
:1003D000FFFFFF0000E000E000380040003801406F
:1003E000000000200C0000201C000020080000205D
:1003F0000100002070B504460D46A1B2A04801F0EE
:100400001DFA0AE001219E4801F02AFA002804D0D2
:1004100001219B4801F02EFA00E0F3E700BF2046DF
:1004200070BD10B504460AE00221954801F018FAA3
:10043000002804D00221924801F01CFA00E0F3E702
:1004400000BF8F4801F0FDF910BD10B502218C48A6
:1004500001F006FA00281CD00221894801F00AFAAE
:10046000874801F0EEF98749874A128888548748FF
:1004700000687D21C90040188549086082480088CD
:10048000401C8149088008460088C82801DB0020FC
:10049000088001217A4801F0E3F900282FD00121DA
:1004A000774801F0E7F97B4801687B4801F00CFCD4
:1004B000764909684018794908607948007879498F
:1004C000097888420BDA764802780078401C744B31
:1004D00018707548815C6A4801F0B0F904E00022A8
:1004E0000121674801F096F96D4800786D49097857
:1004F000884204DB00206B4908706949087010BD10
:1005000030B502460020674B1B785B18C82B10DA09
:1005100000BF07E0135C634C24782418624D2B5510
:10052000431CD8B28842F5DB5E4B1B785B185D4CF0
:10053000237030BD70B50025534800885B49098899
:1005400088425ED001F0B1FA0446002C04D14E4836
:1005500000885649088054E04B4800885349098870
:10056000884224DD012C0DD1474A12784F4B1B786D
:10057000D21AD1B2434A4D4B1B88D01804F0C4FAAA
:1005800005460EE0022C0CD13F480088474B1B88E3
:10059000C21A3C48454B1B88C118152003F022F8AD
:1005A00085B24248008840194049088029E0012C62
:1005B0000CD13E4A1278C8239A1AD1B2314A3B4B29
:1005C0001B88D01804F0A0FA05460DE0022C0BD1D0
:1005D00036480088C8231A1A2A48344B1B88C11889
:1005E000152002F0FFFF85B23048008840192F49DE
:1005F0000880C8212D48008801F07CFB88B22B4977
:10060000088070BD10B500F062FC29480068401CED
:10061000274908600978C807C00FFFF7E9FD01F016
:1006200044FA002807D1224800681E2803D921492E
:10063000012002F0BDFF10BDF8B507460E46144676
:100640000025002C0DDD21461BA001F0C9FD00BFD7
:1006500005E0715D1DA001F0C3FD681CC5B2A54297
:10066000F7DB1C480078002808D0002019490870E2
:100670000A2102F09DFF00200D490860F8BD00002E
:1006800000380140EC020020040000201C00002083
:100690000800002018000020204E00000C00002060
:1006A0000600002007000020240200201000002087
:1006B000140000202C3300000D0A7363616E656422
:1006C0002025642042797465733A20002530327801
:1006D000200000004300002030B587B004460D46DE
:1006E0007148844257D10121880300F0FFFD1B218E
:1006F00068460171032141710121817101A800F057
:10070000FFFB00220621694800F0B5FB002207210B
:10071000664800F0B0FB02953021684681810021D7
:10072000C181018281821821418202A9204601F003
:1007300018F801220221204601F06CF80022012164
:10074000204601F067F80121204601F057F84021CA
:1007500068460183022181761821C17606A9534893
:1007600000F0DFFA8021684601830421C17606A9E2
:100770004E4800F0D6FA01220221204601F04AF844
:100780001B2168460171032141710121817101A87A
:1007900000F0B6FB43E04648844240D101214804C2
:1007A00000F0B2FD012200210920C00600F063FB29
:1007B000012211460920C00600F05DFB0122022142
:1007C0000920C00600F057FB012203210920C006C2
:1007D00000F051FB1C216846017103214171012188
:1007E000817101A800F08CFB02211C2000F024F88C
:1007F00002953021684681810021C1810182818278
:100800001821418202A9204600F0ABFF01220221FB
:10081000204600F0FFFF0121204600F0EFFF07B067
:1008200030BD10B50021204800F0E8FF21480168E4
:100830001D48FFF751FF10BD10B5002819DA1E4AF8
:1008400003071B0F083B9B089B00D2588307DC0E55
:10085000FF23A3409A438B071B0E8407E40EA3409B
:100860001A43154B0407240F083CA408A4001A518E
:1008700018E0124A03231B02D21883089B00D258A7
:100880008307DC0EFF23A3409A438B071B0E8407CC
:10089000E40EA3401A43094B032424021B198408C5
:1008A000A4001A5110BD00000038014000040048A7
:1008B00000440040180000201CED00E000E100E0D2
:1008C00010B504460821204600F081FE10BD10B589
:1008D00004469849204600F07AFE10BD10B5044643
:1008E0001021204600F073FE10BD10B5044691495A
:1008F0000839204600F06BFE10BD30B585B00446C7
:100900000D468D48844248D10121801400F0EEFC50
:1009100001210320400400F0DBFC00220521874870
:1009200000F0A9FA00220421844800F0A4FA002271
:100930000321824800F09FFAA11568460180032137
:1009400081701021C17069467C4800F0EAF9A11558
:100950007A4800F079FA0821684601800321817005
:100960001821C1706946754800F0DBF920216846FE
:100970000180032181701821C17069466F4800F021
:10098000D0F9102168460180032181700421C170D3
:1009900069466A4800F0C5F94AE06948844247D18F
:1009A0000121001400F0B0FC01210320400400F0FC
:1009B0008FFC03220E21614800F05DFA04220D2114
:1009C0005E4800F058FA04220C215C4800F053FA0B
:1009D000E11368460180032181701021C1706946CE
:1009E000564800F09EF9E113544800F02DFA211406
:1009F00068460180032181701821C17069464F4803
:100A000000F08FF96114684601800321817018217C
:100A1000C1706946494800F084F9A1146846018014
:100A2000032181700421C1706946444800F079F9BE
:100A30000421684681800021C180082101810021B4
:100A40004181012181810021C1810582418201A969
:100A5000204600F0F2FC0121204600F02AFD20464D
:100A6000FFF72EFF2046FFF739FF05B030BD0246E5
:100A70003348026000BF32480089C007C00F002819
:100A8000F9D000BF2E480089022318400028F9D071
:100A90002B484068C0B2704710B50121C9032748F0
:100AA00000F0D4F910BD10B50121C903234800F0AE
:100AB000CBF910BDF8B507460C461546002000904E
:100AC000FFF7EAFF01213846FFF7D1FF002606E0D5
:100AD0002078641C0121FFF7CAFF701CC6B2AE4229
:100AE000F6DBFFF7E0FF0098F8BDF8B507460D46C6
:100AF000164600200090FFF7CFFF01213846FFF790
:100B0000B6FF0090002406E00021FF20FFF7AFFFB2
:100B10002855601CC4B2B442F6DBFFF7C4FF00984E
:100B2000F8BD10B50920C00600F07CF9010B0120CA
:100B3000884310BDF7FF000000300140000400486A
:100B400000380040704700BFFEE770477047134809
:100B50000068704710B511480068401C0F490860D4
:100B600002F09EFA10BD10B5012000F097F810BDFC
:100B700010B50120000300F091F809480078022820
:100B800005D1084840680221084306494860002012
:100B90000349087002F09CFA10BD00001C00002000
:100BA000010000200010024000203E49086048601B
:100BB0008860C8603C4848617047002139498279A3
:100BC000002A35D00A46126803689A430B461A6019
:100BD0000A46526803689A430B465A6002795118D4
:100BE0000A6803681A430A602E4A926803689A43A7
:100BF0002C4B9A601A46D26803689A43294BDA60F4
:100C00004279102A0CD11A46926803681A43254B80
:100C10009A601A46D26803681A43224BDA600EE0E3
:100C20002049427951180A6803681A430A6006E0AD
:100C30001C49027951180A6803689A430A60704790
:100C40000021016001710C21417100218171704707
:100C5000144909690143134A116170470146002094
:100C6000104A52690A40002A01D0012000E0002009
:100C700070470C4948617047014600200022094B2B
:100C80001B680B401A46074B5B690B40002B03D0D7
:100C9000002A01D0012000E000207047014948618E
:100CA0007047000000040140FFFF1F0010B504461C
:100CB0001720C0062018002808D001218902401AF8
:100CC0000ED0401A16D0401A28D11DE00121480448
:100CD00000F0FEFA00210120400400F0F9FA1EE0C5
:100CE0000121880400F0F4FA00210120800400F0C2
:100CF000EFFA14E00121C80400F0EAFA0021012013
:100D0000C00400F0E5FA0AE00121080500F0E0FA6D
:100D100000210120000500F0DBFA00E000BF00BF69
:100D200010BDFCB5024600250026019600200023D8
:100D300000240096CE7835072D0FCE7810273E4040
:100D4000002E01D08E7835430E78002E27D01468FF
:100D5000002021E00126864033460E881E40019681
:100D6000019E9E4217D183000F269E400096274683
:100D7000009EB7433C462E469E403443CE78282EF4
:100D800003D101268640566105E0CE78482E02D177
:100D9000012686401661401C0828DBD314600E88AB
:100DA000FF2E2CDD5468002026E006460836012779
:100DB000B7403B460E881E400196019E9E421AD1C6
:100DC00083000F269E4000962746009EB7433C4670
:100DD0002E469E403443CE78282E04D1064608364F
:100DE0000127B7405761CE78482E04D10646083611
:100DF0000127B7401761401C0828D6D35460FCBDBA
:100E00000021C9430180022181700421C170704713
:100E10000246002093680B40002B01D0012000E027
:100E2000002070470146886880B270470246002063
:100E3000D3680B40002B01D0012000E00020704758
:100E40000146C86880B270470161704741617047D0
:100E5000002A01D0016100E041617047C160704724
:100E60000122120413460B431A468261816182619A
:100E7000826982697047F0B5002300244D07EE0EA9
:100E80001546B5402B46CD10002D0BD1056A4E07F7
:100E9000F70E0F26BE40B5430562056A1D432C467A
:100EA00004620AE0456A4E07F70E0F26BE40B543BE
:100EB0004562456A1D432C464462F0BD0D490860F9
:100EC00070470C49486070470A49886070470A4873
:100ED000084908607047094806490860704701469C
:100EE0000020044AD2680A40002A01D0012000E014
:100EF0000020704700300040AAAA0000CCCC0000BF
:100F000000218278002A27D0274A03231B02D21807
:100F100003789B109B00D15802789207D30EFF22D2
:100F20009A400B469343194642789207120E037873
:100F30009B07DB0E9A4011431B4A03231B02D21866
:100F400003789B109B00D1500278D306DB0E012260
:100F50009A40154B1A6007E00278D306DB0E012297
:100F60009A40114B80331A6070477047002905D0B2
:100F70000E4A126902430D4B1A6104E00B4A1269D2
:100F800082430A4B1A617047042806D1084909694F
:100F900004221143064A116105E00549096904224A
:100FA0009143034A1161704700E100E000ED00E069
:100FB00000E000E0F948006801210843F7490860B3
:100FC00008464068F6490840F44948600846006809
:100FD000F4490840F1490860084600680121890485
:100FE0008843EE490860084640687F210904884329
:100FF000EA494860002088607047E8490968012292
:1010000012049143E54A11601146096801229204D5
:101010009143E24A116001210904411A04D00322DC
:101020001204891A10D107E0DC4909680122120470
:101030001143DA4A116008E0D84909680522120410
:101040001143D64A116000E000BF00BF704710B5E1
:1010500001460022002300204A11012A02D1CF4C70
:10106000236806E0022A02D1CC4C236A01E0CB4C73
:10107000636ACA06D20E012494401C40002C01D0A1
:10108000012000E0002010BD38B5002000900024B1
:10109000002500BF3120FFF7DAFF05460098401C0D
:1010A0000090002D04D10521090200988842F1D159
:1010B0003120FFF7CCFF002801D0012400E00024FC
:1010C000204638BD01460020B44A1068F823024685
:1010D0009A431046CA001043B04A10607047012876
:1010E00006D1AE49096801221143AC4A116005E0FE
:1010F000AA49096849084900A84A1160704730B5F3
:1011000004460020A54B1868A74B18408B06150510
:101110002B431843A14B186030BD002807D09F49CE
:1011200009680122120611439C4A116006E09B499E
:101130000968012212069143984A116070470146DE
:101140000020964A50688008800002460A431046F4
:10115000924A50607047914840680C21084070479F
:10116000014600208D4A5068F02302469A431046FB
:1011700002460A431046894A5060704701460020E3
:10118000864A506807231B0202469A4310460246CD
:101190000A431046814A50607047014600207F4A4A
:1011A00050680723DB0202469A431046CA001043E8
:1011B0007A4A50607047002906D0784A9268030244
:1011C0001A43764B9A6005E0744A926803029A4388
:1011D000724B9A6070477149496801436F4A516088
:1011E0007047014600206D4A506803239B03024666
:1011F0009A43104602460A431046684A50607047B8
:10120000002806D06549496A01221143634A5162A8
:1012100005E06249496A49084900604A51627047DD
:1012200070B50446002500265C4840680C21084043
:101230000546002D04D0042D05D0082D13D105E05E
:101240005A48206012E0594820600FE05348056872
:10125000012000052840002802D15548206001E007
:101260005448206002E05148206000BF00BF4B4856
:101270004068F021084005462D094F48465D20682A
:10128000F040606045484068072109020840054673
:101290002D0A4948465D6068F040A0603F484068BC
:1012A000C90008400546ED0A4348465D6068F040C5
:1012B000E0603A4840680321890308400546AD0BC9
:1012C0003E48465D3146E06800F0FEFC206170BD9E
:1012D000002905D0314A52690243304B5A6104E07B
:1012E0002E4A526982432D4B5A617047002905D01E
:1012F0002A4A92690243294B9A6104E0274A92697B
:101300008243264B9A617047002905D0234AD2694F
:101310000243224BDA6104E0204AD26982431F4B28
:10132000DA617047002905D01C4AD26802431B4B82
:10133000DA6004E0194AD2688243184BDA607047D9
:10134000002905D0154A12690243144B1A6104E0C2
:10135000124A12698243114B1A617047012806D163
:101360000E490968C20411430C4A116006E00B499A
:1013700009680122D2049143084A11607047074965
:101380004968072212069143044A51601146496890
:1013900002061143014A51607047000000100240EC
:1013A0000000FFF8FFFFF6FEFFFF8F0300127A0038
:1013B000006CDC0200A24A04200000203000002063
:1013C0000C48406A0121090608430A4948627047EF
:1013D00001460020074A92680A40002A01D00120F5
:1013E00000E0002070470349896802041143014A64
:1013F000916070470010024010B50446A6482018BE
:1014000000280DD01F21C902401A13D10121080361
:10141000FFF788FF002101200003FFF783FF0AE0A8
:1014200001218803FFF77EFF002101208003FFF7E1
:1014300079FF00E000BF00BF10BD10B50022028B95
:101440000F231B031A404B884C8923430C882343EA
:101450001A430283828B914B1A40CB89CC88234359
:101460000C8923431A43182313438383028C0022DD
:101470008B891A4302848B88082B07D0838B042422
:1014800023438383838B0824234383838B8883852F
:1014900010BD002101804180082181800021C18090
:1014A0000121018100214181022181810021C1812D
:1014B0007047002904D0028B01231A43028304E001
:1014C000028B764B3E331A400283704710B5002AD8
:1014D00007D0038B022423430383038A0B43038235
:1014E00007E0038A8B430382038B6C4C3D3423401B
:1014F000038310BD002A03D0038B0B43038302E058
:10150000038B8B4303837047002A03D0038B0B4369
:10151000038302E0038B8B43038370470A46838D6A
:10152000D9B20260082901DC002901D1130A036045
:10153000102901DC002901D1130C0360182901DCFA
:10154000002901D1130E0360704701464A68104319
:101550008A8D082A02DC8A8D002A02D14A6812028A
:1015600010438A8D102A02DC8A8D002A02D14A6833
:10157000120410438A8D182A02DC8A8D002A02D1B7
:101580004A6812061043704710B5002A03D0038D35
:101590000B40038503E0038DCC432343038510BD3B
:1015A0003E4A3E32914204D0028B01231A43028309
:1015B00004E0028B394B3E331A4002837047028BA2
:1015C000374B1A400283028B0A4302837047082973
:1015D00003D1028B08231A430283102903D1028B03
:1015E00010231A4302832D4A3732914203D1028BD2
:1015F0000B461A400283294A2F32914203D1028BB3
:101600000B461A400283704730B502460B46002451
:10161000908D082808D110891840002801D0012495
:1016200000E00024204630BD908D002804DD908D20
:10163000082801DC012110E0908D102801DC022136
:101640000BE0908D182801DC032106E0908D1F2807
:1016500002DD908D002800D1042110890F252D0274
:1016600028400012884201DB0120DCE70020DAE795
:101670000246002093890B40002B01D0012000E09E
:1016800000207047828A0A438282704781847047B3
:10169000828B0A438283704700C8FFBFC0FF0000EF
:1016A000FFFC0000244800688007800F2249086082
:1016B0000020886000212048C160016141617047BD
:1016C000014600201C4A10688008800002460A4338
:1016D0001046194A10607047002905D0164A126852
:1016E0000243154B1A6004E0134A12688243124BFE
:1016F0001A60704730B500228B071C0F0F23A340E0
:101700001A460D4B08338C10A4001B5993430A4C06
:1017100008348D10AD00635123468C10A4001B5972
:101720008C07250F0446AC402343034C08348D102E
:10173000AD00635130BD00000000014010B504460B
:101740004D482018002809D101218803FFF7EAFD40
:10175000002101208003FFF7E5FD00E000BF00BF8E
:1017600010BDF0B587B005460E4600240020069057
:1017700000272F46EC69CF21204688430446B088D5
:10178000F1880843318908430443EC61AC6964097A
:101790006401B089718908430443AC6101A8FFF773
:1017A0003FFD35484042874202D10498069001E04F
:1017B0000398069031680A23069A5A43100900F0EC
:1017C00083FA04460A21204600F07EFA042900D953
:1017D0000A340A21204600F077FA04462C6207B04A
:1017E000F0BD4B21C9010160302181800021C18001
:1017F000018118214181002181817047002904D095
:10180000826901231A43826103E082691B4B1A40FB
:1018100082617047002A03D003690B43036102E031
:1018200003698B4303617047002A03D083690B432C
:10183000836102E083698B4383617047CAB20260AF
:10184000704701464868C0B270470246002093685E
:101850000B40002B01D0012000E0002070477047B2
:1018600002460020D3680B40002B01D0012000E08D
:10187000002070474161704700C8FEBFFEFF0000B6
:1018800001460C200870BE48704770B504460D46EE
:101890002A462146BA4800F041FA2946204601F07E
:1018A0006BFE70BD09207047FEB506460F46144614
:1018B000089D0520C00285420DD1012C0BD1B1A09D
:1018C00000680190022001AB062201210090304601
:1018D00001F0A0F9FEBD0520C00285420DD1072C04
:1018E0000BDCA9A000680190022001AB0F220721A8
:1018F0000090304601F08EF9ECE70520C0028542E9
:101900000AD1102C08DC1020A04B192201460090AF
:10191000304601F07FF9DDE722463946304601F0D6
:10192000CFF800BFD6E7F8B506460F4615461C4669
:10193000122D19D0132D18D0152D10D0182D18D107
:10194000A07800046178090208432178084390498F
:101950000860304603F058FBFEF763FF0FE02046B7
:101960000699FEF7CDFD00BF00BF304603F04CFBEB
:1019700005E02A463946304601F0A2F800BF00BF14
:10198000F8BD70477047F0B585B005460C46164661
:1019900003A8FFF775FF02900F2C3AD006DC042C49
:1019A0000BD0092C13D00B2C6DD121E0132C39D086
:1019B000182C42D0192C66D15CE06846007B009060
:1019C000224629463046029B01F0FCF861E001F016
:1019D00079FE009000F0C6F9C7B201F073FE03462D
:1019E0002246294600970190304601F0EBF850E07E
:1019F00000F0F6FA009000F0B5F9C7B200F0F0FA86
:101A000003462246294600970190304601F0DAF855
:101A10003FE007205FA3224629460090304601F0B0
:101A2000D1F836E000200190022001AB2246294681
:101A30000090304601F0C6F82BE055480068FF21C1
:101A400009040840010C6846017451480068FF21F0
:101A500009020840010A684641744D480178684609
:101A60008174032004AB224629460090304601F0E1
:101A7000A9F80EE0082049A32246294600903046E6
:101A800001F0A0F805E022462946304601F018F89A
:101A900000BF00BF05B0F0BD704730B50546039CE0
:101AA000002030BD70473BA070473F48007870472A
:101AB00010B50446002C01D1012100E000210846A8
:101AC000FEF796FB38480078844219D036480078F3
:101AD000022804D1002C02D1012034490870324878
:101AE00004700078022803D1092131A0FEF708FD17
:101AF0002E480078012803D10C2130A0FEF700FD0C
:101B000010BD70B506460C46154630480088B042F8
:101B100003D129462046FEF7F3FC70BD10B5FFF750
:101B2000D6F9FEF707FD2A480078002812D0294888
:101B3000007800280ED1012211462748FFF76AFEDF
:101B400013480168254800F0BFF825490968401886
:101B5000244908602448007802280FD123480068EF
:101B60001F490968884209D2094801681B4800F0EA
:101B7000ABF81B49096840181C49086010BD0000FB
:101B800034000020001800000A180000DE51000890
:101B9000180000205356332E312E350042617564F3
:101BA00052617465000000004200002043000020E4
:101BB0004D434F4E4E4543540A0000004D44495397
:101BC000434F4E4E4543540A0000000040000020A1
:101BD000070000200600002000380140204E0000D1
:101BE0001C0000200C000020000000200800002045
:101BF0001FB501256D05274C27A00068039000BF85
:101C000000BF28466D1E0028FBD1FEF7FBFA00F04E
:101C1000B5FA2249432002F015FA962001F04CFF54
:101C2000102001F039FF1E4801F02AFA20780B2815
:101C300010DD20781C280DDA20786946487353207F
:101C400002F054F8022203A9042002F05FF85620A3
:101C500002F04CF81148006800781049096849788A
:101C60000E4A126892780092019102900B48006827
:101C7000C3780A480068027908480068417909A0D9
:101C800000F0AEFA182001F055FC01E0FEF75BFB16
:101C9000FCE7000004F8FF1FC01200004400002011
:101CA000480000200D0A4D41433A253032782D2559
:101CB0003032782D253032782D253032782D253070
:101CC00032782D253032780030B50B4601460020A1
:101CD0002022012409E00D46D5409D4205D31D4632
:101CE0009540491B2546954040191546521E002D2A
:101CF000F1DC30BD70B500242546002801DA01244E
:101D00004042002901DA01254942FFF7DDFFAC42DC
:101D100000D04042002C00D0494270BD03460B4326
:101D20009B0703D009E008C9121F08C0042AFAD291
:101D300003E00B780370401C491C521EF9D2704717
:101D4000D2B201E00270401C491EFBD27047002253
:101D5000F6E710B513460A4604461946FFF7F0FFAA
:101D6000204610BD421C0178401C0029FBD1801A7E
:101D7000704730B504460020034600E05B1C9342E8
:101D800003D2E05CCD5C401BF8D030BDF0B51FB491
:101D90000646002082B005464024019100901BE0D9
:101DA000019922460F46304600F042F8049A059BFE
:101DB000801A994110D310461946224600F028F89F
:101DC000361A8F410197224601200021009F00F022
:101DD0001FF838184D4100902046641E0028DFDCB3
:101DE000019B00982946324607B0F0BD064C0125FC
:101DF000064E05E0E36807CC2B430C3C98471034B3
:101E0000B442F7D3FEF75AF998520008B8520008C6
:101E100010B5202A04DB0146203A9140002010BD75
:101E2000914020239C1A0346E3401943904010BD83
:101E300010B5202A04DB0846203AD040002110BD0E
:101E40000B46D340D0402024A21A914008431946A3
:101E500010BD70B58C180578401C6B075B0F01D165
:101E60000378401C2A1106D10278401C03E0067852
:101E70000E70401C491C5B1EF9D12B0705D40023B2
:101E8000521E0DD40B70491CFAE70378401CCB1A84
:101E9000921C03E01D780D70491C5B1C521EF9D585
:101EA000A142D8D3002070BD10B5FEF750FE084AFD
:101EB000D169884207D2081A518A884203D9054855
:101EC0000078002801D0002010BD012010BD0000C6
:101ED00060000020AA00002010B50A4C607900289C
:101EE0000CD0FEF734FEA16A884208D3401A0121C3
:101EF0008902884203D200206071012010BD0020B9
:101F000010BD00005C01002070B5114C0025216A55
:101F10004A78002A07D04989A289914203D100F06A
:101F200041FD206A4570E169487900280ED0C888D3
:101F3000A28990420AD10648A67905223430FFF7DB
:101F4000EDFE02F003FEE0694571A67170BD000070
:101F5000B001002010B503490A6B496B5043FFF7ED
:101F6000B3FE10BD5C01002010B5044608480849C6
:101F7000C06A496B002804DB6043FFF7A5FE001927
:101F800010BD40426043FFF79FFE201A10BD0000C5
:101F90005C01002013B56A461278132002400948FC
:101FA00002706A4654784470002C03D02246801C8C
:101FB000FFF7B4FE0349A41C0846E2B2083801F05A
:101FC000D3FE1CBD38010020014880787047000016
:101FD0005C0100200148C079704700005C010020CE
:101FE000074808490078020930320007000F8A705C
:101FF000092801D8303000E03730C87001487047F8
:10200000A90000205400002001488078704700009B
:10201000B000002010B5074C607A002808D0FEF709
:1020200096FD216A884203D300206072012010BD12
:10203000002010BD6000002010B50F490F480A684D
:10204000824203D10E4A1278D2070BD008600D48A5
:1020500002F0C8F80B48001D02F0EFF84B20C0005A
:1020600002F04CF90848006902F071F9064818308E
:10207000807902F0DAF810BD9C0100207C52000843
:1020800061000020E8060020F801002010B5184982
:1020900018480A68184C824203D1184A1278D207AD
:1020A0000DD00860A08A0A21484300F075F8124854
:1020B000183002F0C2F810482C3002F093F8206B70
:1020C00002F045F9E08A02F019F9607902F0ADF802
:1020D000512001F00BFE7821002001F01DFE7A2135
:1020E000002001F019FE562001F000FE10BD000096
:1020F0009C01002060520008B00100206000002018
:102100001FB502246B461C730A21597306211970EE
:102110000021597005229A70D97001221A715A71E2
:102120009C71D9711872000A587219460398FFF70A
:1021300031FF1FBD01494870704700001C0100209D
:10214000044902460879002803D0034B136000229B
:102150000A717047B00000201904002010B50C4629
:10216000282906D20A4601460248FFF7D7FD024851
:10217000047110BD19040020B000002001490120A5
:1021800088717047600000200249CA691018C86150
:10219000704700006000002070B50446034D012028
:1021A0006872FEF7D4FC0019286270BD6000002040
:1021B00010B5FEF7FDF8FEF7CAFC03491E30886231
:1021C0000120487110BD00005C0100200521C00104
:1021D000090240180149486070470000A80100202A
:1021E0000FB410B503A9044B044A029800F024F878
:1021F00010BC08BC04B01847F503000820020020FA
:1022000030B47446641E2578641CAB4200D21D466F
:10221000635D5B00E31830BC184702E008C8121F7A
:1022200008C1002AFAD170477047002001E001C1BF
:10223000121F002AFBD17047FFB591B00F4605462B
:10224000002606E025280AD0149A139990476D1CA1
:10225000761C28780028F5D1304615B0F0BD002452
:1022600000940121F34A029400E004436D1C2B7892
:102270000846203B98401042F7D128782A280ED0F3
:10228000022128780246303A092A15D8009A0A23F2
:102290005A43303A80180C436D1C0090F1E701CF8F
:1022A0000090002805DA01204003044300984042D2
:1022B0000090022004436D1C28782E2815D104209C
:1022C000044368786D1C2A280AD101CF6D1C029046
:1022D0000BE002990A225143303940186D1C0290DC
:1022E0002878014630390929F3D928786C2810D08C
:1022F00006DC4C281AD068280ED06A2817D104E0D2
:10230000742813D07A2812D110E00120400504432C
:102310000CE00121090501E0032109050C4369785E
:10232000814203D10120000524186D1C6D1C287802
:1023300003906E281ED00CDC632831D004DC00280A
:102340008AD0582811D1B2E064287BD069280CD1FA
:1023500078E073282DD004DC6F2870D0702804D169
:10236000A7E075286CD078286BD0149A1399904701
:10237000761C62E06002400F022807D003280AD0D2
:10238000042838680AD006603F1D56E03868F11707
:1023900006604160F8E738680680F5E70670F3E705
:1023A0003878694608740020487404A80390012016
:1023B00003E0386803900020C0433F1D61070FD53C
:1023C000002101E00199491C029A0191914213DA1E
:1023D0008142F7DB019A0399895C0029F2D10BE075
:1023E000002101E00199491C01918142FADB019A27
:1023F0000399895C0029F5D101990098139A401A34
:1024000000902146149B00F03BF901998019461871
:1024100007E0039803990078491C0391149A1399D3
:1024200090470198401E0190401CF2D12146149B18
:10243000139A009800F014F986196D1C09E741E021
:1024400033E034E00A200021049005916002410F3E
:10245000022905D001CFC2179446032905D007E011
:10246000FF1DFF08FF0003CF06E000B2C21794462D
:10247000042902D140B2C1178C460022614694451E
:1024800006DA0A460021404291418C462D2102E0A5
:10249000210504D52B216A461176012103E0E107CD
:1024A00001D02021F7E7019154E00A200BE0102031
:1024B00009E0102004900021042004430820059125
:1024C000029003E008200021059104906002410F72
:1024D000022905D001CF00229446032906D006E048
:1024E000FF1DFF08FF0003CF8C4603E080B20429E4
:1024F00000D1C0B20021019121072BD50399702989
:1025000006D0049A1021059B4A401A4305D00EE0DC
:1025100040216A461176012108E06146014306D058
:1025200030216A4611760399517602210191049A6D
:102530000821059B4A401A430CD16146014301D151
:10254000610707D530216A46117601210191029970
:10255000491E02910399582904D037A103910FA96C
:102560000F910DE039A1F9E76146059B049AFFF749
:102570000DFC039B8C469B5C0F9A521E0F921370AE
:1025800061460143F0D10F9807A9081A2030039043
:10259000600704D5012000048443029801E0012073
:1025A00002900399884201DD401A00E000204118A2
:1025B0000290019809180098401A0090E00306D490
:1025C0002146149B139A009800F05AF886190020AF
:1025D000049008E006A9085C149A1399904704989F
:1025E000401C761C049001998842F3DBE0030CD573
:1025F0002146149B139A009800F042F8861904E0D3
:10260000149A302013999047761C0299481E029024
:102610000029F5DC08E00F980F990078491C0F910C
:10262000149A13999047761C0399481E0390002929
:10263000F1DCFBE60928010030313233343536371E
:1026400038396162636465660000000030313233FE
:10265000343536373839414243444546000000009E
:10266000F8B5044600251E461746880404D405E044
:1026700039462020B0476D1C641EF9D52846F8BDA8
:10268000FFB50446002581B01E46C80301D530279A
:1026900000E02027880404D505E038460399B047B8
:1026A0006D1C641EF9D5284605B0F0BD090710B5AC
:1026B000090FC00705D0032902D1022001F0D6FD81
:1026C00010BD05480079002802D0FFF771FD10BD4C
:1026D00001F04CFE10BD00005C010020F7B5274C56
:1026E00000262671087817460007000F0D460328BC
:1026F00002D0052822D114E0812100980901401858
:10270000E06101F0EEFD206901F07CFD6178E06B95
:1027100001F084FD60780121C001C9024018A06168
:1027200021E0E079032809D0002F07D028460622AF
:1027300013490830FFF71DFB002802D001F016FEF8
:1027400011E0104C2078800708D50020FFF7B0F981
:102750002078FD21084020700B4806703A46294633
:10276000009800F045FC532001F0C0FA074904200E
:1027700001F0C7FA562001F0B9FAFEBD5C01002055
:10278000A30000206100002068000020B3010020A9
:1027900070B5474C0646E079002823D0A078401C4D
:1027A000A070A079002801D02820A07020790025F1
:1027B000002808D0606A091A206A301A00F050FB1D
:1027C000E5702571A581FF20193001F097FDA078F3
:1027D000272815D801F029FD0020FFF7D5FC01F0CE
:1027E000D2FD70BD512001F081FA7821202001F046
:1027F00093FA562001F07AFA6420FFF7C5FC70BD09
:102800002520A0706069FFF7AFFB86196069800919
:10281000FFF7BAFCE079022818D126480078800733
:1028200006D52572A581FFF731FC01F0D5FD25E025
:1028300021480078800709D52572A581FFF7FCFBA8
:1028400001F0CAFD1D490120087017E0A089401C55
:10285000A0816089301A01F07AFDA07801F0E5FCD2
:10286000512001F043FA7821002001F055FA7A2135
:10287000002001F051FA562001F038FA10480522E4
:102880000078D2014100411889018918626991429A
:10289000B5D2217A491CC9B221721729AFD325724A
:1028A000002802D001F0D2FA70BD01F074FA70BDB8
:1028B0005C01002060000020610000206800002012
:1028C000AB00002010B509492520887001F0ADFC4F
:1028D000FF20193001F012FD002001F0BCFC01F0D6
:1028E00052FD002002F00CF910BD00005C01002038
:1028F00010B50C480078000702D001F037FD10BD7C
:10290000782001F0FBFC012001F0B0FC05480E38F6
:10291000C1698069081891210901401801F0E1FCA2
:1029200010BD00006A010020F8B506460D460220E1
:1029300001F09CFC2320C001194C2818E061A1780B
:1029400025290AD16289FA2151430818E061100152
:10295000801AFF30193001F0D1FCE06901F0C1FCB0
:102960000F486946C0890880009801F04BFC217827
:10297000A06B01F053FC20780121C001C90240186E
:10298000A061A07825280AD126626562A089112855
:1029900002D2E078002802D00120E0702071F8BD5A
:1029A0005C01002070B50D4C0546206A0178E1718C
:1029B0004088E08150214843FFF7D6FA4019206350
:1029C000206A81882182C18861820089A082E079A1
:1029D000034948434018E08270BD0000B001002068
:1029E000E204000070B5044600781C4D4006C00F9C
:1029F000287128460622A11C3930FFF78FF90E34C2
:102A00002846042221462C30FFF788F92846032265
:102A1000211D1830FFF782F9E079E871617A207A98
:102A200009024018E881E17AA07A09024018288258
:102A3000617B207B090240186882E17BA07B090250
:102A40004018A88221462846052210313430FFF76D
:102A500065F9607DC006C00E287270BDB00100200F
:102A60007FB50AA470CC80070194800F039602956D
:102A70006C462070092060706172A272100AE072C8
:102A8000237301A9009800F020F87FBD0500040021
:102A900001000000000000000EB507A106C9800774
:102AA0000091800F019269460872072048720298CF
:102AB00000F00BF80EBD0000030004000317000037
:102AC00010B50A23FFF7CCFF10BD10B5FFF762FA6F
:102AD00010BDFFB587B01E466F46109B119A054684
:102AE00038710920787105200C46387200217972FE
:102AF0000420B872F972601C387301207873B973BE
:102B0000F8730520C0023974834213D105A80090E0
:102B100006AB31460998FEF7C0FF00280AD0694687
:102B2000088B4873888AC87302A90198FFF7CDFF04
:102B30000BB0F0BD21462846099AFFF7C1FFF7E721
:102B4000FFB587B0079817468007800F6A46107058
:102B50000A2050700020507106211171D07104219B
:102B6000917105211172012151721E46D0720446E5
:102B7000134D1AE020460A21484341194988B942B9
:102B800011D3B1420FD80A214C43611989786A46A2
:102B90009172285A1073000A507301A90098FFF728
:102BA00094FF0BB0F0BD641CE4B2FEF77BFEA042C4
:102BB000E0D83A4608990798FFF782FFF1E700004E
:102BC00084510008F0B589B00E4607461D461C2109
:102BD00001A80E9CFFF7BBF8B807800F6946087084
:102BE000601D4870601C0871000A487104208871DB
:102BF0000020C871761C0E7201A904E02A5C0B1833
:102C0000401C5A71C0B2A042F8D30098FFF75DFF94
:102C100009B0F0BDF0B589B08446002468460E9D29
:102C20000471447104268671C471112606722E1D2A
:102C300046728172C472027344730A2001AF00218C
:102C400005E05A5C3A54401C491CC0B2C9B2A942C2
:102C5000F7D3011F6A46117161468907890F117008
:102C6000507039460098FFF730FF09B0F0BD000002
:102C7000FFB589B0099815218507129E4902AD0F4D
:102C80001F468E4221D16846FEF7FAFD014668468E
:102C90000571002343710078801CC2B2122A00D94A
:102CA0001222941C6D462C72200A68720426AE72A1
:102CB000EB72092028736A73AE73EB7304A8921E3B
:102CC000FFF72CF8241D6C713FE0614886423ED12D
:102CD0000B9807283BD15F480078002837D06B4617
:102CE0001D71172119720021597204219972002156
:102CF000D97209210720197358730820987300208E
:102D0000D873022018745974002199742921D97438
:102D10002A2119750A225A7500249C75D8750B252D
:102D20001D7600255D7626259D760E22D9761A77AA
:102D300000225A7798770F24DC7708AB1A70282086
:102D4000587099701B206B46587102A96FE0FF2FD5
:102D500000D9FF27002471E020460A2148433E495C
:102D60000A5AB24268D1411848880B9A904263D3FC
:102D7000B84261D8364A521E964223D10A226E4684
:102D80003272002373720422B272F3720922327318
:102D9000082272730A2254432F4AA2189278B273FF
:102DA000000AF073002002AA0B181418401C1B79AB
:102DB000C0B223720528F7D3487A707535710E209A
:102DC000707133E009266F463E7200237B72042245
:102DD000BA72FB723E7307227A730A2254431E4A68
:102DE000A2189278BA73000AF873184602AA0B1850
:102DF0001418401C1B79C0B223720528F7D33D710B
:102E00000D207871497AFF2910D0144B0020090158
:102E1000C9180B5C1418401CC0B2E3721028F8D318
:102E20001B2078711720387215207873114601988D
:102E3000FFF74BFE0DB0F0BD641CE4B2FEF732FDAF
:102E4000A04289D809AB07CBFFF73AFEF2E70000B2
:102E5000032800004E00002084510008DE510008C5
:102E60004B22D200084B821A9A420CD27D22D20009
:102E7000064B8A1A9A4206D2FA224243531A044A4D
:102E8000D362516310637047A81D000019661800D3
:102E90005C01002010B5FDF78AFA01F067FA10BD59
:102EA0007FB52821484308490A9D099C48616E4620
:102EB0000846B688C6818A630B706E46308C0882DD
:102EC000CC634D707FBD00005C01002003490248C7
:102ED0000860406800470000445200089C01002040
:102EE00006490878002806D0022804D001D9401EDF
:102EF000087001207047002070470000A8010020E2
:102F000070B5264E2448306025480C46C160042226
:102F10002448FEF703FF234D0322211D281DFEF741
:102F2000FDFEE079E871617A207A09024018288173
:102F3000E17AA07A090240186881617B207B09024E
:102F40004018A881E17BA07B09024018E881214656
:102F50002846052210311030FEF7E0FE607DC006E5
:102F6000C00E6875607D4009A8750D48203000F0DE
:102F7000E5FE00F0BFFB0C4801220178114301700F
:102F8000104600F077F83068406880477D200001E7
:102F9000FFF702F970BD00007C5200089C01002080
:102FA000F8010020E8060020610000201FB5094953
:102FB0000A9C099B087008484243CA806A46908967
:102FC00008820846128C42828B614C700020C870C7
:102FD0001FBD0000B000002071020000034902483C
:102FE0000860406800470000205200089C01002053
:102FF00070B508461B4B1A4919601146FFF7F2FCE1
:10300000194C1A49208A801F884208D2A08A091FB9
:103010000A38884203D2207A401F0C2802D301F0DC
:10302000A5F970BD012000F025F8114D0121287887
:103030000843E32108402870208A4100A08A814289
:1030400000D288B20A214843FFF7A6F828789F21CA
:103050000840287001F08AF90020607070BD0000FF
:10306000605200089C010020B00100207B0C000091
:10307000600000200149087070470000A80100208E
:10308000064902780A7042784A7082788A70C2785B
:10309000CA7002790A71407948717047D8000020DF
:1030A00010B50948807900280CD0084800680078DD
:1030B000002807D1FEF710FF002801D0FFF7EAFE35
:1030C00000F0D8FE10BD0000600000209C01002030
:1030D000FEB5FE4EFE4FB2793146097AFD4DFE4CEB
:1030E000032A04D0012A7BD0022A03D004E001295C
:1030F0001AD0E3E00322B271F081012902D0002945
:103100000AD00BE0F148401C0078800706D4B18A51
:10311000002001F0A9FF01E001F092FF317AB079BF
:103120000143E6D000285BD100207071FDF7F9FC67
:10313000002873D0E548C01D01F04AF8F07900F08E
:1031400024FEF079C1070BD0694601A800F0E0FE2B
:10315000E24800990160019838602A68926874E03A
:10316000810719D5694601A800F0D2FE28680099A8
:10317000826901989047D5482430FEF7E1FF30710D
:10318000FEF742FF3279716A252803D00020FDF74F
:1031900053FA7CE00120FAE7C10603D528684069AC
:1031A000804774E001063AD52868CB4900780028AA
:1031B00017D0012000F0DCFE617820780902401869
:1031C00081B22868C26801209047F07941061ED577
:1031D000684600F0B9FE286862780369BE494EE08F
:1031E00083E0002000F0C4FE6178207809024018D6
:1031F00081B22868C26801209047F079410603D562
:10320000684600F0A1FE13E080063ED43FE0800651
:103210003DD5694601A800F07BFE2CE069E041063F
:103220000DD5684600F090FE286800780028D2D1BD
:10323000A64AA9490A32002000F0B8FECBE74107B0
:1032400005D528680021C268084690471FE001079D
:1032500003D50020FFF70EFF17E0800615D569465D
:1032600001A800F055FE2868017800290AD09A4983
:10327000012000F07DFE2868627803690021009833
:10328000984704E000220369A8E701F06FF8286876
:103290000078002807D08D48401C007880071DD595
:1032A000307A00281AD1F079800717D5307A0028B3
:1032B00007D101F0C5FEB079032802D00020F071DB
:1032C0002AE0FEF7A7FE002803D0307A01280DD0AF
:1032D00004E07079002801D101F055F8B079002898
:1032E00000D123E7F0798028FBD0FEBD002070716B
:1032F000F2E7B0790028F4D0F0790028F1D1FEBDD2
:10330000F079022808D1FEF7CFFD002804D0B0796B
:10331000002801D1FCF7E9FF2868007800280ED1C9
:10332000B079002805D1FEF7D7FD002801D0FFF7BE
:10333000B1FDFEF74FFE002801D1FDF763F9FDF75F
:10334000F0FB00286FD06148C01D00F041FFF0790C
:1033500000F01BFDF079C1070FD0694601A800F00D
:10336000D7FD5E4800990160019838602A6892682C
:103370009047FDF7ECFBF0619BE0810719D56946AA
:1033800001A800F0C5FD00F0F1FF286800998269EE
:1033900001989047FEF718FE252803D14B48007886
:1033A000800703D528680078012801D1FDF72AF9A4
:1033B0007FE0C10603D528684069804779E00106AF
:1033C00039D5286844490078002813D0012000F03E
:1033D000CFFD617820780902401881B22868C26860
:1033E00001209047F07941061ED5694601A800F0FA
:1033F0008FFD34E0002000F0BBFD617820780902E9
:10340000401881B22868C26801209047F0794106CF
:1034100004D5684600F098FD286843E0800646D44D
:1034200047E02D493BE06CE0800642D5694601A8A3
:1034300000F06EFD2FE0410615D5684600F084FDD2
:103440002868007800280AD120780007000F052896
:1034500005D11E4A20490A32002000F0A7FD286845
:1034600062780369DDE7410701D4010705D52868C3
:103470000021C268084690471BE0810615D56946C1
:1034800001A800F045FD2868017800290AD01249FA
:10349000012000F06DFD2868627803690021009822
:1034A000984706E000220369BBE7002820D000F01F
:1034B0005DFFF07980071BD5307A012818D10348C9
:1034C000401C0078800713D4B18A09E06000002016
:1034D000A40100209C010020F2030020A001002094
:1034E000002001F0C1FDB079032800D01CE603E004
:1034F000B079002800D103E7F079802800D0FEE6FB
:10350000FEE6B0790028F6D0F0790028F3D1FEBDB0
:1035100010B5074CE079022806D1FEF7C5FC00285B
:1035200002D0A079032801D0002010BD012010BDD9
:103530006000002070B50546FDF709FB04460A341B
:10354000FDF705FBA042FBD3034902208871284602
:10355000FFF7BEFD70BD00006000002010B50549FA
:10356000087000090001491D001D087001F098FD58
:1035700010BD00006B00002030B5182900D91821BB
:103580000A4B4A1C1A70002204E0845C9D18521CED
:10359000AC70D2B28A42F8D3002003E05A18491C1A
:1035A0009070C9B21929F9D330BD000088000020FD
:1035B000012801D0002807D1084A1278920703D4C5
:1035C000074A1278002A01D000207047034A521E91
:1035D0001072012800D19182012070476100002003
:1035E000AA000020F7B515460F46002610E000F0AF
:1035F00071F803280ED32C46142D00DD1424E2B2FA
:103600003946009800F02EF9281B3F19C5B236192B
:10361000002DECD13046FEBD10B50E4945200C46BC
:103620000870123C0121606AC9024018206200F053
:1036300058FE6178A06900F0F1FD62781B21D0018D
:10364000C9014018E061216A0818A169FFF758FC18
:1036500010BD0000C200002070B50D46124A0146A0
:103660001078002809D0401E10700026567050684F
:10367000092806D0401C506005E001205070002051
:1036800070BD304656600C22084B4243D4184201AC
:103690008018074A80182A462060FEF73FFB2571F4
:1036A0002046A66070BD000000010020D00500206B
:1036B0008404002010B500F03CFE0020FEF786FDDB
:1036C00010BD000000A070474D475F424C455F4C65
:1036D00049420000014800787047000000010020C6
:1036E000034800780A2801D0002070470120704765
:1036F0000001002004490348886000204870887059
:10370000704700003C520008F400002013B56A46E0
:10371000127813200240094802706A4654784470B7
:10372000002C03D02246801CFEF7F8FAA41CE2B25B
:103730000249034800F018FB1CBD000040040020B3
:103740001802002070B502780124112A19D143789B
:10375000891E1D1FCAB20B4E801C0CE00188B1806F
:103760004488F480E9B201E0491EC9B20029FBD1C6
:10377000C018D11ACAB2002AF0D1641CA0B200F05D
:10378000ACF870BDF40000201FB502226B461A731E
:103790000B225A7307221A7000225A7004249C705C
:1037A000DA7008221A715871000A9871D971080AE2
:1037B0001872032058722820987219460398FFF750
:1037C000A5FF1FBD10B5821C891E4478CBB208E04E
:1037D0002146104601F02CFC501C191B4088CBB22E
:1037E0001219002BF4D10349C988884201D8FFF788
:1037F000CBFF10BDF4000020024801228178514027
:1038000081707047F4000020024801224178514045
:1038100041707047F400002010B54078082807D0A8
:10382000102804D10448C1888088FFF7ADFF10BD7F
:10383000252000F06FF810BDF40000200EB5022026
:103840006A461072052050720120107000205070DE
:1038500004219170D0701E20107169460298FFF704
:1038600055FF0EBD38B5044602206D462870D01DA8
:1038700068700B48D31C03701B0A437004238370C9
:103880000023C370122303714471230A8371C01D86
:10389000FEF744FA02490098FFF738FF38BD0000F0
:1038A000610400201FB5132318406B4618730920CC
:1038B0005873052018700020587004249C70D8702C
:1038C000012018715971100AD8719A710A20187262
:1038D00019460398FFF71AFF1FBD1FB502216A465C
:1038E00011730B21517307211170002151700423B2
:1038F0009370D170102313715071000A9071FF20E2
:10390000D071107251722820907211460398FFF7FF
:10391000FDFE1FBD0EB50F4AD178002902D021202F
:10392000002100E00121D17002216B4619720721AC
:103930005972032119700021597004229A70D970AC
:103940000A2119715871000A987169460298FFF7A7
:10395000DDFE0EBDF40000201CB5124A6946124877
:1039600000F018FD684600780F49002806D10120B4
:1039700008700020487002206A46107048786A4635
:103980005071087813221040084A891C53789278A5
:10399000DB001843920010436A461071019801F051
:1039A00069FB1CBD1802002040040020F400002028
:1039B00010B53749012000F0DBFA364A34490120BE
:1039C00000F0F4FA324C33492078897883070007F5
:1039D0009B0FC00F88420ED1FFF70EFFFFF714FFB9
:1039E000012B04D0032B2CD0022B09D029E029482D
:1039F0000078022801D2002010BDFEF78FF820E0E9
:103A00002348A179C01C112922D009DC0B00FEF744
:103A1000F7FB0C113A111811181111111A11241178
:103A20001B2920D004DC122904D0132902D108E07C
:103A30001D2916D042790079120202430220FFF7B5
:103A400031FF012010BDA178A01DFFF7BBFEF8E7F4
:103A5000A178A01DFFF776FEF3E72520FFF75AFFB8
:103A6000EFE7FFF7EBFEE078A1780002C01E081830
:103A7000C2B2217AE07909024018054980B20931C1
:103A8000FEF73FF8DDE7A178A01DFFF7C5FED8E7F8
:103A900040040020F4000020054A10B5811F914227
:103AA00001D3002010BD0349888101F043FB10BD04
:103AB0007B0C0000B00000200146064A10B50A3910
:103AC000914201D3002010BD0349C88101F032FBAF
:103AD00010BD0000770C0000B000002070B50F4D45
:103AE0000F4EA878717D40182521FEF7EDF8C80823
:103AF000297080194A070C46007C520F0121914021
:103B0000084201D0AC7106E029792046FEF7DCF8C6
:103B1000E9706970A971AC7070BD000010020020DE
:103B2000E8060020C10710B5054802D00021017049
:103B300010BD0178491C017000F018FC10BD000098
:103B4000F801002010B57D200C460001FEF724FB93
:103B5000002C02D002490120487000F007FC10BD83
:103B6000F8010020F3B52F4D2F4C688921780027EC
:103B70004843E98981B0C900884203D927700020F1
:103B8000FFF778FAFFF7ACF9284E002819D0307803
:103B9000C10720D002210843400840003070288926
:103BA0005021484301994018903020611D4800F091
:103BB00019FB281D00F041FB0220FDF779FF206969
:103BC00011E00020FDF774FFFFF708FA3078FD21BF
:103BD00008403070FEBD688950214843FEF7C4F9A3
:103BE000A168401820610002000A2061FFF776FFFB
:103BF000FEF7F0F9022805D13078800702D50C488D
:103C0000077001E0FEF718FA6078002808D0FFF787
:103C1000CFFE6070002803D0064800680068804727
:103C20006770FEBDE8060020F8010020610000205A
:103C300068000020FC000020F8B500241149124D56
:103C40008C700C7120460123C20852194607127C61
:103C5000760F1F46B7403A4202D00A79521C0A71C9
:103C6000401CC0B22528EFD34B20C00000F046FB1B
:103C700000F07CFB03481838447004480068006872
:103C80008047F8BD10020020E8060020FC0000205C
:103C900010B50A480078C00702D000F067FB10BDDD
:103CA000032000F0E3FA0648064940690968401815
:103CB00025218901401800F014FB10BD610000208F
:103CC000F8010020AC01002070B505460C46062026
:103CD00000F0CCFA1B20C0012018034C606100F0FA
:103CE00000FBA56070BD0000F801002001B50122B5
:103CF00069465020FCF7DEFE08BD10B5FCF7F5FE66
:103D000010BD10B50122FCF7F0FE10BD10B5202348
:103D10001843FCF7CFFE10BD13B520210843012244
:103D200001A9FCF7C7FE1CBD0168002902D140684B
:103D3000002801D000207047012070470021016059
:103D4000416002490A20087070470000000100200D
:103D50000268136812790A70016889680160002995
:103D600000D141601846704710B50B460446114615
:103D70001846FFF771FC002806D06168002901D0C1
:103D8000886000E02060606010BD10B501460E2024
:103D9000FFF7C2FF10BD1CB55320FFF7A7FF03219B
:103DA0001F20FFF7B9FF01A91F20FFF7AAFF6846F0
:103DB00000790028F7D103211F20FFF7ADFF01A9EB
:103DC0001F20FFF79EFF684600790028F7D10121E8
:103DD0001520FFF7A1FFA0211220FFF79DFF04216E
:103DE0000A20FFF799FF00210A20FFF795FF88219D
:103DF0001220FFF791FF012469460C7021204870C2
:103E000002221320FFF782FF69460C7020204870C1
:103E100002221320FFF77AFF00211520FFF77CFF15
:103E20005620FFF763FF1CBD08B5002069460870E7
:103E30005120FFF75BFF5320FFF758FF69461F2013
:103E4000FFF75FFF6946087808BD000010B55120F4
:103E5000FFF74CFF5320FFF749FF03211F20FFF717
:103E60005BFF5620FFF742FF01490120487010BD5B
:103E7000A900002038B5254CA078012838D16078F9
:103E8000002835D0012834D0022831D1FFF7CCFFEB
:103E900000282DD101211520FFF73EFFA02112207F
:103EA000FFF73AFF04210A20FFF736FF00210A201E
:103EB000FFF732FF88211220FFF72EFF0125694608
:103EC0000D702120487002221320FFF71FFF694662
:103ED0000D702020487002221320FFF717FF0021E9
:103EE0001520FFF719FF5620FFF700FF0020607034
:103EF00038BDFFF799FF0028FAD103211F20FFF7F3
:103F00000BFF5620FFF7F2FE0220F0E7A900002089
:103F10007CB50D460446062269461020FFF7EDFEEB
:103F2000694648790B7902041802C97810184018BC
:103F3000694620608878497800040902401869467B
:103F40000978401828607CBD38B5044603226946CC
:103F50001020FFF7D2FE6846807801046846427858
:103F600010020918684600780818206038BD000063
:103F70007CB50D4D0C46002811D002226946062062
:103F8000FFF7BBFE68460078207068464078607096
:103F90006846007828706846407868707CBD0222C8
:103FA00069460420ECE70000AC00002070B5134621
:103FB0000C46002809D06278901C1870002A03D0A3
:103FC000A11C6120FFF799FE70BD1D482546417870
:103FD0000835891C11700178217041786170017871
:103FE00040780907090F0B00FEF70AF907060906D2
:103FF00014051A060500E7E70622A11C08E00C28B4
:10400000E2D10622A11C0A20FFF777FE06222946EC
:104010000B20D7E70C28D7D1062229460A20D1E762
:104020002228D1D10622A11C0B20FFF766FE062212
:1040300029460A20FFF761FE162221460E31C0E70D
:10404000AC000020FEB505460026684606715E4CB1
:1040500051200C60FFF74AFE01A91F20FFF751FE17
:10406000684601798029F7D158491E20FFF749FE9B
:1040700078210020FFF750FE06210846FFF74CFE8E
:104080007A210020FFF748FE5320FFF72FFE8821FA
:104090001720FFF741FE88211820FFF73DFE8821F9
:1040A0001920FFF739FE00211520FFF735FE022108
:1040B0000120FFF731FE1E211D20FFF72DFE2846AF
:1040C00000F0F0F800A908200131FFF71AFE684659
:1040D00040783E4F002807D1122069464870387852
:1040E0001B2801D215204870C021684601702D217F
:1040F0008170032269460420FFF708FE8025684688
:1041000005704670022269460C20FFF7FFFD1C2156
:104110006846017045703878192802D1CC2069466C
:104120000870022269461420FFF7F0FD102069464E
:10413000087002274F703A460A20FFF7E7FD6946EC
:104140000F701220487002220D20FFF7DFFD0120C2
:10415000694608700720487002220E20FFF7D6FD3E
:104160003820694608700F2048708E7003220220A4
:10417000FFF7CCFD71210920FFF7CEFD69460D70D8
:1041800070204870212088704020C87004220B20C5
:10419000FFF7BCFD5620FFF7A9FDFF210E20FFF71A
:1041A000BBFD062208490820FFF7A7FD60796D28AE
:1041B00006D1ED206071062203490820FFF7A6FD15
:1041C00000F0D4F8FEBD0000A3000020A9000020EC
:1041D00038B5044669460E20FFF793FD684601781E
:1041E000217038BD1CB501786A4611704178517054
:1041F00081789170C078D070042269460C20FFF756
:1042000085FD1CBD01B582B06946087A0870487A00
:10421000487002220320FFF779FD0EBD0A4610B553
:104220000146A020FFF772FD10BD10B5282803D26B
:1042300001460120FFF770FD10BD1CB501786A46EC
:1042400011704178517080789070032269460D207A
:10425000FFF75CFD1CBD1CB5FF216A461170507054
:10426000022269460E20FFF751FD1CBD10B504283F
:104270000BD001280BD002280ED003280ED0052821
:104280000ED0062807D1042102E0022100E0092116
:104290000220FFF741FD10BD0C21F9E70121F7E7EE
:1042A0000321F5E708B502216A46117050700A46ED
:1042B00069460F20FFF72AFD08BD1CB501786A4644
:1042C00011704178517081789170C178D170017905
:1042D000117140795071062269460920FFF716FDD9
:1042E0001CBD1CB56A461070010A5170000C90701C
:1042F000032269460720FFF709FD1CBD1CB56A466D
:104300001070010A5170002191700549884201D94D
:1043100001209070032269461120FFF7F7FC1CBDB5
:10432000FFFF00000A4610B50146A020FFF7EEFC93
:1043300010BD01B582B06946087A0222C006C00EDF
:104340000870487A48700520FFF7E0FC0EBD1CB5E8
:1043500000216A4611705070010A9170000CD070F3
:10436000042269460F20FFF7D1FC1CBD1CB50220BA
:1043700069460870FF2048708870C87004220F20BA
:10438000FFF7C4FC1CBD10B501210F20FFF7C4FCD2
:1043900010BD000038B5054600230C4610460093BA
:1043A000FFF7C2FC002802D02B70237038BD69468D
:1043B0001046FFF7CDFC0146684602782846FDF717
:1043C000ADFC68460078207002480178491C0170F5
:1043D00038BD00000001002010B5044C2068FFF734
:1043E000A8FF61780248FFF79DFF10BD1001002073
:1043F0005406002010B50548034981600021417032
:104400001430FFF79BFC10BD405200081C01002037
:104410007047000000B587B0182209A16846FDF773
:104420007DFC0D480321017018214170801E4088D9
:10443000694608830698FDF7ADFD07B000BD000092
:10444000101000280001002C011820000300FFFFBD
:10445000FFFFFFFFFFFFFFFF120100203EB500221C
:104460008C070E490092A40F01920C7006244C7028
:1044700002236C46237062700179A1704079E0706C
:104480000D2020711A20607104486946801E408802
:1044900020810298FDF77EFD3EBD00001201002044
:1044A0001FB508A007C86B4607C309480321017060
:1044B00009214170801E4088694688810398FDF774
:1044C00069FD1FBD090000000000000000000000A1
:1044D000120100203EB500228C070E490092A40F65
:1044E00001920C7006244C7002236C46237062709B
:1044F0000179A1704079E07005202071372060714A
:1045000004486946801E408820810298FDF742FDDC
:104510003EBD00001201002008B589070748890F39
:10452000017000214170801E408869460880009813
:10453000FFF7C0F80020FEF79DFD08BD1201002026
:104540001CB509A109680091084903220A700222DA
:104550004A70694648700548801E408888800198E6
:10456000FDF718FD1CBD000007000000120100202F
:104570000EB509A005C8009089070948890F019266
:10458000017006214170801E4088694608810298AA
:10459000FDF700FD0EBD00000C079C051720000074
:1045A00012010020FEB5154C01A92246083A20460A
:1045B000FFF7F0FE6846007901262546002801D164
:1045C0002E70687021780D4F132001401C3F7878C1
:1045D0000423C24352081A4040071143C00FC000D1
:1045E00001436A46117060785070A11C009800F079
:1045F00041FD2E7000207870FEBD000038010020C3
:10460000FEB50D46002102911D2D00D91D25014644
:104610002A469B48FDF782FB9A48994C0570207802
:10462000984A8107890F9070012914D0032917D067
:1046300002290FD1637921791B02A579C9180629AE
:104640004BD0042950D0052904D1132D02D00020CD
:10465000FDF756FDFEBD022DFCD3FDF723FAFEBD8E
:10466000A1780B00FDF7CCFD120B0F1E233535355D
:104670000A283535352D0A35320A0A35EFE7E01CB0
:1046800000F0F2F9FEBD01467D48FFF7C1FE617AF8
:10469000207A090240186946088102A9E01C00F04E
:1046A00015FAFEBD01467648FFF736FFFEBD01460E
:1046B0007348FFF7D3FEFEBD01467148FFF7F0FED9
:1046C000FEBD01466E48FFF753FFFEBDFFF7A2FE99
:1046D000FEBD0846FFF734FFFEBD012DFCD10146AB
:1046E0006748FFF7F7FEFEBD66490C31102D72D00A
:1046F0000ADCAE1E3300FDF783FD0B1D15221536B7
:1047000015541589159415005D4B0933182D7BD070
:1047100004DC122D79D0162D04D192E01E2DE2D0AA
:10472000522D72D06906DED4062300222946FEF7F8
:1047300097F9FEBD00222946FEF7AEF9FEBD237AA9
:10474000E2791B02D21892B20A80637AA47A240218
:104750001B199BB24B809A4201D90123E6E72946F7
:10476000FEF7EEF9FEBD237AE2791B02D21892B26F
:104770000A80A67A637A36029B199BB24B809A42D2
:10478000EBD8267BE17A36028919667BA47B89B255
:1047900024023419A4B2009101942946FEF799F934
:1047A000FEBD237AE2791B02D21892B20A80A67A61
:1047B000637A36029B199BB24B80E67A247B2402F3
:1047C0003419A4B28C809A42C7D829460094FEF7C7
:1047D0004FFAFEBDFFE7237AE2791B02D21892B2AC
:1047E0000A80A67A637A36029B199BB24B80E67ADE
:1047F000247B24023419A4B28C809A42ADD8294675
:104800000094FDF751F8E4E724E027E0237AE1790A
:104810001B02C91889B2918002462846FDF7B3F8F9
:10482000D7E7237AE1791B02C91889B29180A37A6C
:10483000627A1B02D21893B202462846FDF72CF981
:10484000C7E7217AE0790902401890800C4800F00F
:10485000B8FBBEE70A4800F077FBBAE7E178A67834
:104860000902C91E7118CEB2E179247A240209190D
:1048700089B291800A4629460096FDF754F8A8E7C8
:10488000790600201C01002013B56A4604481278FE
:1048900002706A46527842700248FDF73FFA1CBD2A
:1048A00010010020540600200907090FC20710B5A7
:1048B0000C480ED00B00FDF7A3FC070808050B0BF6
:1048C0000B050B000078012802D10220FFF7CEFC77
:1048D00010BDC178142901D10021C170FFF746FD38
:1048E00010BD0000B0000020F8B506462D480C466B
:1048F0004662002A11D0002C0FD020782146800675
:10490000800E0831951C971F00910300FDF778FC7D
:1049100007080847343434473400FFF727FDF8BD53
:10492000FDF758FB032823D01E48A27828300178D1
:1049300091422ED14178E27891422AD18178227930
:10494000914226D1C1786279914222D10179A2792E
:1049500091421ED14079E17988421AD11148B109BA
:10496000806946708170F10AC170FEF755FE05E05E
:10497000E9B22046FDF7F2FBFFF7F8FC5320FFF702
:10498000B5F909490420FFF7BCF95620FFF7AEF945
:10499000F8BD0099FAB26120FFF7AFF9E8E7FAB283
:1049A000F9E70000B0000020B301002070B5114C01
:1049B0000646A0780D46401CC2B2A270282A01D13A
:1049C0002520A070A078FFF730FCE07813280DD1E7
:1049D00009480068291A09480068301AFEF740FAA9
:1049E00007480078002802D0FFF730FA70BDFFF7C3
:1049F000D2F970BDB0000020A0010020A401002069
:104A0000AB00002010B5074C2520A070FFF70DFC6F
:104A1000E088FFF773FC04480078800701D4FFF7B3
:104A2000B2FC10BDB00000206100002010B5FFF7FF
:104A30009DFC10BD38B50C460120FFF717FC094856
:104A40006946408A08800098FFF7DCFB054828305B
:104A5000FFF733FC15200002024920184861FFF7D8
:104A600040FC38BDB000002030B5164B0122196A59
:104A70004A7002780A7084784278240212194A80B7
:104A80000479C2782402121992B28A808579447915
:104A90002D026419CC80057AC4792D0264190C8129
:104AA000447A807A0002201880B200244881062AC5
:104AB00000D24C709A89801A034A904200DB4C70F5
:104AC00030BD0000B0010020FF7F000010B50A4C8F
:104AD0000346E0690988C18005221946FDF71EF9E1
:104AE000E06901214171C188A289891A034A914272
:104AF00001DB0021417110BDB0010020FF7F0000EB
:104B000010B5FDF749FB10BDF8B50C460746002669
:104B100014E0142C01D9142500E02546FEF7DAFD37
:104B200003280FD3084800950288BB191B210220D7
:104B300000F01BFA7019C6B2601BC4B2002C01D081
:104B4000002FE6D13046F8BD40000020F0B50C4BF8
:104B500000201C46987134340A4A58720125C10855
:104B60004607615C760F2F46B740394203D0597A29
:104B70005054491C5972401CC0B22528EFD3F0BDD7
:104B8000B0010020A206002010B5C00706D10448DD
:104B9000FB22017811400170FFF7E8FB10BD000017
:104BA00060000020F8B5064633480C46808A0A218A
:104BB00015464843FDF7F0FA304F04213878084392
:104BC000E72108403870FBF7F4FB002C03D0607835
:104BD000002818D01BE04120400105213018264C48
:104BE000C9014018A062FFF77CFB1B2D00D91B25D3
:104BF000E801311A05200002081A60623878102195
:104C00000843387035E0387808210843387081202F
:104C10000001194930188862FFF763FBE8010121A0
:104C2000301A8902411A144841622078FDF782FA4D
:104C30003878227841061207C90FD20F914218D155
:104C40000D4C012121704021484038700C4800680B
:104C500000688047FBF7AEFB002060705320FFF731
:104C600045F8E11C0420FFF74CF85620FFF73EF80A
:104C7000F8BDFBF79FFBF8BDB001002060000020ED
:104C800024010020F8B50F460646FEF729F9874DA6
:104C90000028287826D0864CC10737D00221084347
:104CA0002870E089502148432830FDF75DF98019CC
:104CB0002063FFF74BFFE06900264671206A4670CB
:104CC000A6812670FFF796FBA671E07979494843E3
:104CD0004018E0820120FCF7EBFEFDF77BF902288B
:104CE00010D0A5E0FD21084028700020FDF74CFA07
:104CF000FDF770F9022802D18020FEF72FFC00F0AA
:104D00009FF9F8BD8220FEF729FC91E02078002869
:104D10000FD069490120FFF72BF96A466649012047
:104D2000FFF744F9684601786348FFF769FC002003
:104D300020702878400732D5606A0121381A0906A8
:104D400040180002000AFDF705F9371A2878000715
:104D50001BD5608A002818D0FEF7C2FC002814D0AA
:104D6000208A618A41430818502148435038FDF792
:104D7000FBF8C0192063A189608A0918A181217AF2
:104D80004143A0790818A07107E0208A50214843C8
:104D90005038FDF7E9F8C0192063608934E0208AB3
:104DA000082801D20121A17044493D280F6807D28B
:104DB000502201465143C20080180009081A02E03F
:104DC000502148431938FDF7CFF8C0192063208AD5
:104DD000092806D261784843062148433549FA310B
:104DE00007E0112807D261784843062148437D2116
:104DF0000901401808E03D2805D2617848430621A2
:104E000048432F49F5E72F48E082206B0A36B0422D
:104E100000D22663A078002804D12B49206B098892
:104E2000401A2063A089401CA081206BFDF76CF81C
:104E3000A079217A4018C0B22521FCF745FF1C4B10
:104E4000A171CA0834339A5C4B0708465B0F0121F5
:104E500099400A4205D1617AFCF736FF1648253899
:104E6000405C6071FDF7B6F8022805D1287880070C
:104E700002D500F0E5F801E0FDF708F92878C10750
:104E800004D040084000287000200BE0A0780028E3
:104E900005D00020FDF778F90020A070F8BD208A29
:104EA00081080818FDF770F9F8BD000060000020C7
:104EB000B0010020E2040000C7060020A401002089
:104EC000C4090000204E00006601002010B506480D
:104ED0000078C00604D500210846FFF755FE10BD36
:104EE000FFF744FA10BD00006000002070B50D46C9
:104EF000FDF790F8002809D1114C6078322805D8C8
:104F0000218A4143A08AC000814205D90020FEF7D2
:104F1000B1F8FFF72BFA70BD0420FFF7A7F9C32003
:104F20004001A1782818002904D10649FA220988ED
:104F300051430818FFF7D5F96078401C607070BDC8
:104F4000B00100206601002008B502216A461170F8
:104F5000052151700121817019218171811C0098F6
:104F6000FDF7B3FDFCF70EFD08BDFFB58BB0149C3B
:104F70001D461746E61C242101A8FCF7E8FE0B9805
:104F80001321084069460870E01D48700E71300A10
:104F90004871042088710020C8710C9808724F7203
:104FA000380A8872002001A904E02A5C0B18401C12
:104FB000DA71C0B2A042F8D30098FDF786FD0FB0B9
:104FC000F0BDF8B50446827AC178007AE57900022E
:104FD0000543A07809020843401F87B2667A100291
:104FE0000643022069460870607848701720A07157
:104FF000A11C0098FDF769FD214633463A460B3166
:105000002846FCF7BEFCF8BD0EB507A106C980070F
:105010000091800F0192694608720520487202983B
:10502000FDF753FD0EBD0000010004001300000059
:10503000491FC8B201E0401EC0B20028FBD1704732
:1050400010B500F02DF807480078800707D4054810
:10505000401C0078800702D40020FCF729FDFDF7F2
:1050600035FF10BD6000002010B500F063F8FDF7BB
:10507000B5FF10BD73B50D460098FFF75AF96846A5
:105080004478002C03D021462846FFF74BF92046F0
:10509000FDF79CF829460098FFF7F6FB7CBD000061
:1050A00030B585B003A8FCF7EBFB6946097B1829EE
:1050B00002D918216A46117369460A7B1B4B511CA1
:1050C0001970002104E0445C5D18491CAC70C9B241
:1050D0009142F8D3002003E09918521C8870D2B294
:1050E000192AF9D31149114A0C46283CA578123ADD
:1050F00003231B20002D01D00D4A2B46E578002DFF
:1051000002D00B4928461F3101910290208A6D463A
:10511000288006482838C17A2974007B6874E089A1
:105120000499FDF7BDFE05B030BD000088000020E9
:10513000B403002010B5124C85B0E189A289880023
:10514000904202D8002005B010BD0D482E3082726A
:10515000120AC2728173090AC17316210491039065
:105160002E38408969460881002000900190012175
:10517000E28849022078A368FDF718FF0120E2E7E2
:10518000B000002003280300020400002AFF0328C7
:105190000800020900292AFF03280A00020B002642
:1051A0002AFF03280E00020F00282AFF03281100FF
:1051B000101200000001022913000A000000000084
:1051C000032814000C1500000002032817000A1819
:1051D00000000003012919000200000000009ECA1F
:1051E000DC240EE5A9E093F3A3B50100406E9ECA4E
:1051F000DC240EE5A9E093F3A3B50300406E9ECA3C
:10520000DC240EE5A9E093F3A3B50200406E9ECA2C
:10521000DC240EE5A9E093F3A3B50400406E000082
:1052200000000000054A0008354A0008A9480008A7
:10523000E94800082D4A0008AD490008593900081E
:10524000A545000800000000C5280008292900081D
:10525000AD260008DD260008F12800089127000887
:105260000100000000000000ED4E0008894B00081E
:10527000A54B0008CD4E0008854C00080100000039
:10528000393C0008C93C0008253B0008453B0008A4
:10529000913C0008653B0008B8520008000000205F
:1052A00024020000521E0008585300082402002067
:1052B000DC0800002A2200080218018AC21A2D0107
:1052C00002030404701606070809020406084D5379
:1052D00031373933532D55415254121740F828179E
:1052E00067ED1564010179D00B465620202E342E2F
:1052F000322E3213800912A01484210412200410CB
:105300000201060228093225121016030C45222834
:10531000021FC8100A4D8BAB6348CDF1040632283A
:1053200012C81AFF01BA1F6AF20A29F61348061CAE
:10533000200801A7011B0A27FFAC395319B2011E2F
:105340002381311A588DBB6FE89F011B0310DC05C8
:085350001AF0B41A96BC0150DA
:04000005080000B53A
:00000001FF
